{
	"RSP.sol": {
		"RPS": {
			"abi": [
				{
					"inputs": [
						{
							"internalType": "address",
							"name": "_token",
							"type": "address"
						}
					],
					"stateMutability": "nonpayable",
					"type": "constructor"
				},
				{
					"inputs": [],
					"name": "STAKE_AMOUNT",
					"outputs": [
						{
							"internalType": "uint256",
							"name": "",
							"type": "uint256"
						}
					],
					"stateMutability": "view",
					"type": "function"
				},
				{
					"inputs": [],
					"name": "TIME_TO_COMMIT",
					"outputs": [
						{
							"internalType": "uint256",
							"name": "",
							"type": "uint256"
						}
					],
					"stateMutability": "view",
					"type": "function"
				},
				{
					"inputs": [],
					"name": "TIME_TO_REVEAL",
					"outputs": [
						{
							"internalType": "uint256",
							"name": "",
							"type": "uint256"
						}
					],
					"stateMutability": "view",
					"type": "function"
				},
				{
					"inputs": [],
					"name": "addPlayer",
					"outputs": [],
					"stateMutability": "payable",
					"type": "function"
				},
				{
					"inputs": [],
					"name": "commitTime",
					"outputs": [
						{
							"internalType": "contract TimeUnit",
							"name": "",
							"type": "address"
						}
					],
					"stateMutability": "view",
					"type": "function"
				},
				{
					"inputs": [
						{
							"internalType": "address",
							"name": "",
							"type": "address"
						}
					],
					"name": "cr",
					"outputs": [
						{
							"internalType": "contract CommitReveal",
							"name": "",
							"type": "address"
						}
					],
					"stateMutability": "view",
					"type": "function"
				},
				{
					"inputs": [
						{
							"internalType": "bytes32",
							"name": "data",
							"type": "bytes32"
						}
					],
					"name": "hash",
					"outputs": [
						{
							"internalType": "bytes32",
							"name": "",
							"type": "bytes32"
						}
					],
					"stateMutability": "view",
					"type": "function"
				},
				{
					"inputs": [
						{
							"internalType": "bytes32",
							"name": "choice",
							"type": "bytes32"
						}
					],
					"name": "input",
					"outputs": [],
					"stateMutability": "nonpayable",
					"type": "function"
				},
				{
					"inputs": [],
					"name": "numInput",
					"outputs": [
						{
							"internalType": "uint256",
							"name": "",
							"type": "uint256"
						}
					],
					"stateMutability": "view",
					"type": "function"
				},
				{
					"inputs": [],
					"name": "numPlayer",
					"outputs": [
						{
							"internalType": "uint256",
							"name": "",
							"type": "uint256"
						}
					],
					"stateMutability": "view",
					"type": "function"
				},
				{
					"inputs": [
						{
							"internalType": "address",
							"name": "",
							"type": "address"
						}
					],
					"name": "player_choice",
					"outputs": [
						{
							"internalType": "uint256",
							"name": "",
							"type": "uint256"
						}
					],
					"stateMutability": "view",
					"type": "function"
				},
				{
					"inputs": [
						{
							"internalType": "address",
							"name": "",
							"type": "address"
						}
					],
					"name": "player_not_played",
					"outputs": [
						{
							"internalType": "bool",
							"name": "",
							"type": "bool"
						}
					],
					"stateMutability": "view",
					"type": "function"
				},
				{
					"inputs": [
						{
							"internalType": "address",
							"name": "",
							"type": "address"
						}
					],
					"name": "player_not_reveal",
					"outputs": [
						{
							"internalType": "bool",
							"name": "",
							"type": "bool"
						}
					],
					"stateMutability": "view",
					"type": "function"
				},
				{
					"inputs": [
						{
							"internalType": "uint256",
							"name": "",
							"type": "uint256"
						}
					],
					"name": "players",
					"outputs": [
						{
							"internalType": "address",
							"name": "",
							"type": "address"
						}
					],
					"stateMutability": "view",
					"type": "function"
				},
				{
					"inputs": [
						{
							"internalType": "bytes32",
							"name": "revealData",
							"type": "bytes32"
						}
					],
					"name": "revealChoice",
					"outputs": [],
					"stateMutability": "nonpayable",
					"type": "function"
				},
				{
					"inputs": [],
					"name": "revealNum",
					"outputs": [
						{
							"internalType": "uint256",
							"name": "",
							"type": "uint256"
						}
					],
					"stateMutability": "view",
					"type": "function"
				},
				{
					"inputs": [],
					"name": "revealTime",
					"outputs": [
						{
							"internalType": "contract TimeUnit",
							"name": "",
							"type": "address"
						}
					],
					"stateMutability": "view",
					"type": "function"
				},
				{
					"inputs": [],
					"name": "reward",
					"outputs": [
						{
							"internalType": "uint256",
							"name": "",
							"type": "uint256"
						}
					],
					"stateMutability": "view",
					"type": "function"
				},
				{
					"inputs": [],
					"name": "token",
					"outputs": [
						{
							"internalType": "contract IERC20",
							"name": "",
							"type": "address"
						}
					],
					"stateMutability": "view",
					"type": "function"
				},
				{
					"inputs": [],
					"name": "withdrawIfTimeout",
					"outputs": [],
					"stateMutability": "nonpayable",
					"type": "function"
				}
			],
			"devdoc": {
				"kind": "dev",
				"methods": {},
				"version": 1
			},
			"evm": {
				"assembly": "    /* \"RSP.sol\":158:7951  contract RPS{... */\n  mstore(0x40, 0x80)\n    /* \"RSP.sol\":201:202  0 */\n  0x00\n    /* \"RSP.sol\":177:202  uint public numPlayer = 0 */\n  dup1\n  sstore\n    /* \"RSP.sol\":230:231  0 */\n  0x00\n    /* \"RSP.sol\":209:231  uint public reward = 0 */\n  0x01\n  sstore\n    /* \"RSP.sol\":441:442  0 */\n  0x00\n    /* \"RSP.sol\":416:442  uint public  revealNum = 0 */\n  0x05\n  sstore\n    /* \"RSP.sol\":535:549  new TimeUnit() */\n  mload(0x40)\n  tag_1\n  swap1\n  tag_2\n  jump\t// in\ntag_1:\n  mload(0x40)\n  dup1\n  swap2\n  sub\n  swap1\n  0x00\n  create\n  dup1\n  iszero\n  dup1\n  iszero\n  tag_3\n  jumpi\n  returndatasize\n  0x00\n  dup1\n  returndatacopy\n  revert(0x00, returndatasize)\ntag_3:\n  pop\n    /* \"RSP.sol\":506:549  TimeUnit public commitTime = new TimeUnit() */\n  0x07\n  exp(0x0100, 0x00)\n  dup2\n  sload\n  dup2\n  0xffffffffffffffffffffffffffffffffffffffff\n  mul\n  not\n  and\n  swap1\n  dup4\n  0xffffffffffffffffffffffffffffffffffffffff\n  and\n  mul\n  or\n  swap1\n  sstore\n  pop\n    /* \"RSP.sol\":585:599  new TimeUnit() */\n  mload(0x40)\n  tag_4\n  swap1\n  tag_2\n  jump\t// in\ntag_4:\n  mload(0x40)\n  dup1\n  swap2\n  sub\n  swap1\n  0x00\n  create\n  dup1\n  iszero\n  dup1\n  iszero\n  tag_5\n  jumpi\n  returndatasize\n  0x00\n  dup1\n  returndatacopy\n  revert(0x00, returndatasize)\ntag_5:\n  pop\n    /* \"RSP.sol\":556:599  TimeUnit public revealTime = new TimeUnit() */\n  0x08\n  exp(0x0100, 0x00)\n  dup2\n  sload\n  dup2\n  0xffffffffffffffffffffffffffffffffffffffff\n  mul\n  not\n  and\n  swap1\n  dup4\n  0xffffffffffffffffffffffffffffffffffffffff\n  and\n  mul\n  or\n  swap1\n  sstore\n  pop\n    /* \"RSP.sol\":885:886  0 */\n  0x00\n    /* \"RSP.sol\":862:886  uint public numInput = 0 */\n  0x0a\n  sstore\n    /* \"RSP.sol\":944:1029  constructor(... */\n  callvalue\n  dup1\n  iszero\n  tag_6\n  jumpi\n  0x00\n  dup1\n  revert\ntag_6:\n  pop\n  mload(0x40)\n  sub(codesize, bytecodeSize)\n  dup1\n  bytecodeSize\n  dup4\n  codecopy\n  dup2\n  dup2\n  add\n  0x40\n  mstore\n  dup2\n  add\n  swap1\n  tag_7\n  swap2\n  swap1\n  tag_8\n  jump\t// in\ntag_7:\n    /* \"RSP.sol\":1014:1020  _token */\n  dup1\n    /* \"RSP.sol\":999:1004  token */\n  0x09\n  0x00\n    /* \"RSP.sol\":999:1021  token = IERC20(_token) */\n  0x0100\n  exp\n  dup2\n  sload\n  dup2\n  0xffffffffffffffffffffffffffffffffffffffff\n  mul\n  not\n  and\n  swap1\n  dup4\n  0xffffffffffffffffffffffffffffffffffffffff\n  and\n  mul\n  or\n  swap1\n  sstore\n  pop\n    /* \"RSP.sol\":944:1029  constructor(... */\n  pop\n    /* \"RSP.sol\":158:7951  contract RPS{... */\n  jump(tag_11)\ntag_2:\n  dataSize(sub_1)\n  dup1\n  dataOffset(sub_1)\n  dup4\n  codecopy\n  add\n  swap1\n  jump\t// out\n    /* \"#utility.yul\":88:205   */\ntag_13:\n    /* \"#utility.yul\":197:198   */\n  0x00\n    /* \"#utility.yul\":194:195   */\n  dup1\n    /* \"#utility.yul\":187:199   */\n  revert\n    /* \"#utility.yul\":334:460   */\ntag_15:\n    /* \"#utility.yul\":371:378   */\n  0x00\n    /* \"#utility.yul\":411:453   */\n  0xffffffffffffffffffffffffffffffffffffffff\n    /* \"#utility.yul\":404:409   */\n  dup3\n    /* \"#utility.yul\":400:454   */\n  and\n    /* \"#utility.yul\":389:454   */\n  swap1\n  pop\n    /* \"#utility.yul\":334:460   */\n  swap2\n  swap1\n  pop\n  jump\t// out\n    /* \"#utility.yul\":466:562   */\ntag_16:\n    /* \"#utility.yul\":503:510   */\n  0x00\n    /* \"#utility.yul\":532:556   */\n  tag_25\n    /* \"#utility.yul\":550:555   */\n  dup3\n    /* \"#utility.yul\":532:556   */\n  tag_15\n  jump\t// in\ntag_25:\n    /* \"#utility.yul\":521:556   */\n  swap1\n  pop\n    /* \"#utility.yul\":466:562   */\n  swap2\n  swap1\n  pop\n  jump\t// out\n    /* \"#utility.yul\":568:690   */\ntag_17:\n    /* \"#utility.yul\":641:665   */\n  tag_27\n    /* \"#utility.yul\":659:664   */\n  dup2\n    /* \"#utility.yul\":641:665   */\n  tag_16\n  jump\t// in\ntag_27:\n    /* \"#utility.yul\":634:639   */\n  dup2\n    /* \"#utility.yul\":631:666   */\n  eq\n    /* \"#utility.yul\":621:684   */\n  tag_28\n  jumpi\n    /* \"#utility.yul\":680:681   */\n  0x00\n    /* \"#utility.yul\":677:678   */\n  dup1\n    /* \"#utility.yul\":670:682   */\n  revert\n    /* \"#utility.yul\":621:684   */\ntag_28:\n    /* \"#utility.yul\":568:690   */\n  pop\n  jump\t// out\n    /* \"#utility.yul\":696:839   */\ntag_18:\n    /* \"#utility.yul\":753:758   */\n  0x00\n    /* \"#utility.yul\":784:790   */\n  dup2\n    /* \"#utility.yul\":778:791   */\n  mload\n    /* \"#utility.yul\":769:791   */\n  swap1\n  pop\n    /* \"#utility.yul\":800:833   */\n  tag_30\n    /* \"#utility.yul\":827:832   */\n  dup2\n    /* \"#utility.yul\":800:833   */\n  tag_17\n  jump\t// in\ntag_30:\n    /* \"#utility.yul\":696:839   */\n  swap3\n  swap2\n  pop\n  pop\n  jump\t// out\n    /* \"#utility.yul\":845:1196   */\ntag_8:\n    /* \"#utility.yul\":915:921   */\n  0x00\n    /* \"#utility.yul\":964:966   */\n  0x20\n    /* \"#utility.yul\":952:961   */\n  dup3\n    /* \"#utility.yul\":943:950   */\n  dup5\n    /* \"#utility.yul\":939:962   */\n  sub\n    /* \"#utility.yul\":935:967   */\n  slt\n    /* \"#utility.yul\":932:1051   */\n  iszero\n  tag_32\n  jumpi\n    /* \"#utility.yul\":970:1049   */\n  tag_33\n  tag_13\n  jump\t// in\ntag_33:\n    /* \"#utility.yul\":932:1051   */\ntag_32:\n    /* \"#utility.yul\":1090:1091   */\n  0x00\n    /* \"#utility.yul\":1115:1179   */\n  tag_34\n    /* \"#utility.yul\":1171:1178   */\n  dup5\n    /* \"#utility.yul\":1162:1168   */\n  dup3\n    /* \"#utility.yul\":1151:1160   */\n  dup6\n    /* \"#utility.yul\":1147:1169   */\n  add\n    /* \"#utility.yul\":1115:1179   */\n  tag_18\n  jump\t// in\ntag_34:\n    /* \"#utility.yul\":1105:1179   */\n  swap2\n  pop\n    /* \"#utility.yul\":1061:1189   */\n  pop\n    /* \"#utility.yul\":845:1196   */\n  swap3\n  swap2\n  pop\n  pop\n  jump\t// out\n    /* \"RSP.sol\":158:7951  contract RPS{... */\ntag_11:\n  dataSize(sub_0)\n  dup1\n  dataOffset(sub_0)\n  0x00\n  codecopy\n  0x00\n  return\nstop\n\nsub_0: assembly {\n        /* \"RSP.sol\":158:7951  contract RPS{... */\n      mstore(0x40, 0x80)\n      jumpi(tag_1, lt(calldatasize, 0x04))\n      shr(0xe0, calldataload(0x00))\n      dup1\n      0x9fe3b7b3\n      gt\n      tag_22\n      jumpi\n      dup1\n      0xd891f969\n      gt\n      tag_23\n      jumpi\n      dup1\n      0xd891f969\n      eq\n      tag_17\n      jumpi\n      dup1\n      0xe676b421\n      eq\n      tag_18\n      jumpi\n      dup1\n      0xf71d96cb\n      eq\n      tag_19\n      jumpi\n      dup1\n      0xfaf5625f\n      eq\n      tag_20\n      jumpi\n      dup1\n      0xfc0c546a\n      eq\n      tag_21\n      jumpi\n      jump(tag_1)\n    tag_23:\n      dup1\n      0x9fe3b7b3\n      eq\n      tag_12\n      jumpi\n      dup1\n      0xa040478d\n      eq\n      tag_13\n      jumpi\n      dup1\n      0xaead4af2\n      eq\n      tag_14\n      jumpi\n      dup1\n      0xba829d71\n      eq\n      tag_15\n      jumpi\n      dup1\n      0xd8389dc5\n      eq\n      tag_16\n      jumpi\n      jump(tag_1)\n    tag_22:\n      dup1\n      0x2dc69860\n      gt\n      tag_24\n      jumpi\n      dup1\n      0x2dc69860\n      eq\n      tag_7\n      jumpi\n      dup1\n      0x5565f281\n      eq\n      tag_8\n      jumpi\n      dup1\n      0x5e63d890\n      eq\n      tag_9\n      jumpi\n      dup1\n      0x65ce0ac6\n      eq\n      tag_10\n      jumpi\n      dup1\n      0x90d5d0c3\n      eq\n      tag_11\n      jumpi\n      jump(tag_1)\n    tag_24:\n      dup1\n      0x086f7815\n      eq\n      tag_2\n      jumpi\n      dup1\n      0x15222285\n      eq\n      tag_3\n      jumpi\n      dup1\n      0x190cf745\n      eq\n      tag_4\n      jumpi\n      dup1\n      0x228cb733\n      eq\n      tag_5\n      jumpi\n      dup1\n      0x27b5db8a\n      eq\n      tag_6\n      jumpi\n    tag_1:\n      0x00\n      dup1\n      revert\n        /* \"RSP.sol\":862:886  uint public numInput = 0 */\n    tag_2:\n      callvalue\n      dup1\n      iszero\n      tag_25\n      jumpi\n      0x00\n      dup1\n      revert\n    tag_25:\n      pop\n      tag_26\n      tag_27\n      jump\t// in\n    tag_26:\n      mload(0x40)\n      tag_28\n      swap2\n      swap1\n      tag_29\n      jump\t// in\n    tag_28:\n      mload(0x40)\n      dup1\n      swap2\n      sub\n      swap1\n      return\n        /* \"RSP.sol\":416:442  uint public  revealNum = 0 */\n    tag_3:\n      callvalue\n      dup1\n      iszero\n      tag_30\n      jumpi\n      0x00\n      dup1\n      revert\n    tag_30:\n      pop\n      tag_31\n      tag_32\n      jump\t// in\n    tag_31:\n      mload(0x40)\n      tag_33\n      swap2\n      swap1\n      tag_29\n      jump\t// in\n    tag_33:\n      mload(0x40)\n      dup1\n      swap2\n      sub\n      swap1\n      return\n        /* \"RSP.sol\":329:378  mapping(address => bool) public player_not_played */\n    tag_4:\n      callvalue\n      dup1\n      iszero\n      tag_34\n      jumpi\n      0x00\n      dup1\n      revert\n    tag_34:\n      pop\n      tag_35\n      0x04\n      dup1\n      calldatasize\n      sub\n      dup2\n      add\n      swap1\n      tag_36\n      swap2\n      swap1\n      tag_37\n      jump\t// in\n    tag_36:\n      tag_38\n      jump\t// in\n    tag_35:\n      mload(0x40)\n      tag_39\n      swap2\n      swap1\n      tag_40\n      jump\t// in\n    tag_39:\n      mload(0x40)\n      dup1\n      swap2\n      sub\n      swap1\n      return\n        /* \"RSP.sol\":209:231  uint public reward = 0 */\n    tag_5:\n      callvalue\n      dup1\n      iszero\n      tag_41\n      jumpi\n      0x00\n      dup1\n      revert\n    tag_41:\n      pop\n      tag_42\n      tag_43\n      jump\t// in\n    tag_42:\n      mload(0x40)\n      tag_44\n      swap2\n      swap1\n      tag_29\n      jump\t// in\n    tag_44:\n      mload(0x40)\n      dup1\n      swap2\n      sub\n      swap1\n      return\n        /* \"RSP.sol\":1037:1753  function addPlayer() public payable {... */\n    tag_6:\n      tag_45\n      tag_46\n      jump\t// in\n    tag_45:\n      stop\n        /* \"RSP.sol\":652:691  uint public constant TIME_TO_REVEAL = 5 */\n    tag_7:\n      callvalue\n      dup1\n      iszero\n      tag_47\n      jumpi\n      0x00\n      dup1\n      revert\n    tag_47:\n      pop\n      tag_48\n      tag_49\n      jump\t// in\n    tag_48:\n      mload(0x40)\n      tag_50\n      swap2\n      swap1\n      tag_29\n      jump\t// in\n    tag_50:\n      mload(0x40)\n      dup1\n      swap2\n      sub\n      swap1\n      return\n        /* \"RSP.sol\":893:935  mapping(address => CommitReveal) public cr */\n    tag_8:\n      callvalue\n      dup1\n      iszero\n      tag_51\n      jumpi\n      0x00\n      dup1\n      revert\n    tag_51:\n      pop\n      tag_52\n      0x04\n      dup1\n      calldatasize\n      sub\n      dup2\n      add\n      swap1\n      tag_53\n      swap2\n      swap1\n      tag_37\n      jump\t// in\n    tag_53:\n      tag_54\n      jump\t// in\n    tag_52:\n      mload(0x40)\n      tag_55\n      swap2\n      swap1\n      tag_56\n      jump\t// in\n    tag_55:\n      mload(0x40)\n      dup1\n      swap2\n      sub\n      swap1\n      return\n        /* \"RSP.sol\":506:549  TimeUnit public commitTime = new TimeUnit() */\n    tag_9:\n      callvalue\n      dup1\n      iszero\n      tag_57\n      jumpi\n      0x00\n      dup1\n      revert\n    tag_57:\n      pop\n      tag_58\n      tag_59\n      jump\t// in\n    tag_58:\n      mload(0x40)\n      tag_60\n      swap2\n      swap1\n      tag_61\n      jump\t// in\n    tag_60:\n      mload(0x40)\n      dup1\n      swap2\n      sub\n      swap1\n      return\n        /* \"RSP.sol\":2868:3467  function revealChoice(bytes32 revealData) external {... */\n    tag_10:\n      callvalue\n      dup1\n      iszero\n      tag_62\n      jumpi\n      0x00\n      dup1\n      revert\n    tag_62:\n      pop\n      tag_63\n      0x04\n      dup1\n      calldatasize\n      sub\n      dup2\n      add\n      swap1\n      tag_64\n      swap2\n      swap1\n      tag_65\n      jump\t// in\n    tag_64:\n      tag_66\n      jump\t// in\n    tag_63:\n      stop\n        /* \"RSP.sol\":177:202  uint public numPlayer = 0 */\n    tag_11:\n      callvalue\n      dup1\n      iszero\n      tag_67\n      jumpi\n      0x00\n      dup1\n      revert\n    tag_67:\n      pop\n      tag_68\n      tag_69\n      jump\t// in\n    tag_68:\n      mload(0x40)\n      tag_70\n      swap2\n      swap1\n      tag_29\n      jump\t// in\n    tag_70:\n      mload(0x40)\n      dup1\n      swap2\n      sub\n      swap1\n      return\n        /* \"RSP.sol\":606:645  uint public constant TIME_TO_COMMIT = 5 */\n    tag_12:\n      callvalue\n      dup1\n      iszero\n      tag_71\n      jumpi\n      0x00\n      dup1\n      revert\n    tag_71:\n      pop\n      tag_72\n      tag_73\n      jump\t// in\n    tag_72:\n      mload(0x40)\n      tag_74\n      swap2\n      swap1\n      tag_29\n      jump\t// in\n    tag_74:\n      mload(0x40)\n      dup1\n      swap2\n      sub\n      swap1\n      return\n        /* \"RSP.sol\":238:284  mapping (address => uint) public player_choice */\n    tag_13:\n      callvalue\n      dup1\n      iszero\n      tag_75\n      jumpi\n      0x00\n      dup1\n      revert\n    tag_75:\n      pop\n      tag_76\n      0x04\n      dup1\n      calldatasize\n      sub\n      dup2\n      add\n      swap1\n      tag_77\n      swap2\n      swap1\n      tag_37\n      jump\t// in\n    tag_77:\n      tag_78\n      jump\t// in\n    tag_76:\n      mload(0x40)\n      tag_79\n      swap2\n      swap1\n      tag_29\n      jump\t// in\n    tag_79:\n      mload(0x40)\n      dup1\n      swap2\n      sub\n      swap1\n      return\n        /* \"RSP.sol\":4556:6126  function withdrawIfTimeout() external {... */\n    tag_14:\n      callvalue\n      dup1\n      iszero\n      tag_80\n      jumpi\n      0x00\n      dup1\n      revert\n    tag_80:\n      pop\n      tag_81\n      tag_82\n      jump\t// in\n    tag_81:\n      stop\n        /* \"RSP.sol\":556:599  TimeUnit public revealTime = new TimeUnit() */\n    tag_15:\n      callvalue\n      dup1\n      iszero\n      tag_83\n      jumpi\n      0x00\n      dup1\n      revert\n    tag_83:\n      pop\n      tag_84\n      tag_85\n      jump\t// in\n    tag_84:\n      mload(0x40)\n      tag_86\n      swap2\n      swap1\n      tag_61\n      jump\t// in\n    tag_86:\n      mload(0x40)\n      dup1\n      swap2\n      sub\n      swap1\n      return\n        /* \"RSP.sol\":7434:7546  function hash(bytes32 data) public view returns (bytes32) {... */\n    tag_16:\n      callvalue\n      dup1\n      iszero\n      tag_87\n      jumpi\n      0x00\n      dup1\n      revert\n    tag_87:\n      pop\n      tag_88\n      0x04\n      dup1\n      calldatasize\n      sub\n      dup2\n      add\n      swap1\n      tag_89\n      swap2\n      swap1\n      tag_65\n      jump\t// in\n    tag_89:\n      tag_90\n      jump\t// in\n    tag_88:\n      mload(0x40)\n      tag_91\n      swap2\n      swap1\n      tag_92\n      jump\t// in\n    tag_91:\n      mload(0x40)\n      dup1\n      swap2\n      sub\n      swap1\n      return\n        /* \"RSP.sol\":1761:2860  function input(bytes32 choice) public  {... */\n    tag_17:\n      callvalue\n      dup1\n      iszero\n      tag_93\n      jumpi\n      0x00\n      dup1\n      revert\n    tag_93:\n      pop\n      tag_94\n      0x04\n      dup1\n      calldatasize\n      sub\n      dup2\n      add\n      swap1\n      tag_95\n      swap2\n      swap1\n      tag_65\n      jump\t// in\n    tag_95:\n      tag_96\n      jump\t// in\n    tag_94:\n      stop\n        /* \"RSP.sol\":449:499  mapping (address => bool) public player_not_reveal */\n    tag_18:\n      callvalue\n      dup1\n      iszero\n      tag_97\n      jumpi\n      0x00\n      dup1\n      revert\n    tag_97:\n      pop\n      tag_98\n      0x04\n      dup1\n      calldatasize\n      sub\n      dup2\n      add\n      swap1\n      tag_99\n      swap2\n      swap1\n      tag_37\n      jump\t// in\n    tag_99:\n      tag_100\n      jump\t// in\n    tag_98:\n      mload(0x40)\n      tag_101\n      swap2\n      swap1\n      tag_40\n      jump\t// in\n    tag_101:\n      mload(0x40)\n      dup1\n      swap2\n      sub\n      swap1\n      return\n        /* \"RSP.sol\":385:409  address[] public players */\n    tag_19:\n      callvalue\n      dup1\n      iszero\n      tag_102\n      jumpi\n      0x00\n      dup1\n      revert\n    tag_102:\n      pop\n      tag_103\n      0x04\n      dup1\n      calldatasize\n      sub\n      dup2\n      add\n      swap1\n      tag_104\n      swap2\n      swap1\n      tag_105\n      jump\t// in\n    tag_104:\n      tag_106\n      jump\t// in\n    tag_103:\n      mload(0x40)\n      tag_107\n      swap2\n      swap1\n      tag_108\n      jump\t// in\n    tag_107:\n      mload(0x40)\n      dup1\n      swap2\n      sub\n      swap1\n      return\n        /* \"RSP.sol\":808:853  uint256 public constant STAKE_AMOUNT = 10**12 */\n    tag_20:\n      callvalue\n      dup1\n      iszero\n      tag_109\n      jumpi\n      0x00\n      dup1\n      revert\n    tag_109:\n      pop\n      tag_110\n      tag_111\n      jump\t// in\n    tag_110:\n      mload(0x40)\n      tag_112\n      swap2\n      swap1\n      tag_29\n      jump\t// in\n    tag_112:\n      mload(0x40)\n      dup1\n      swap2\n      sub\n      swap1\n      return\n        /* \"RSP.sol\":700:719  IERC20 public token */\n    tag_21:\n      callvalue\n      dup1\n      iszero\n      tag_113\n      jumpi\n      0x00\n      dup1\n      revert\n    tag_113:\n      pop\n      tag_114\n      tag_115\n      jump\t// in\n    tag_114:\n      mload(0x40)\n      tag_116\n      swap2\n      swap1\n      tag_117\n      jump\t// in\n    tag_116:\n      mload(0x40)\n      dup1\n      swap2\n      sub\n      swap1\n      return\n        /* \"RSP.sol\":862:886  uint public numInput = 0 */\n    tag_27:\n      sload(0x0a)\n      dup2\n      jump\t// out\n        /* \"RSP.sol\":416:442  uint public  revealNum = 0 */\n    tag_32:\n      sload(0x05)\n      dup2\n      jump\t// out\n        /* \"RSP.sol\":329:378  mapping(address => bool) public player_not_played */\n    tag_38:\n      mstore(0x20, 0x03)\n      dup1\n      0x00\n      mstore\n      keccak256(0x00, 0x40)\n      0x00\n      swap2\n      pop\n      sload\n      swap1\n      0x0100\n      exp\n      swap1\n      div\n      0xff\n      and\n      dup2\n      jump\t// out\n        /* \"RSP.sol\":209:231  uint public reward = 0 */\n    tag_43:\n      sload(0x01)\n      dup2\n      jump\t// out\n        /* \"RSP.sol\":1037:1753  function addPlayer() public payable {... */\n    tag_46:\n        /* \"RSP.sol\":1104:1105  2 */\n      0x02\n        /* \"RSP.sol\":1092:1101  numPlayer */\n      sload(0x00)\n        /* \"RSP.sol\":1092:1105  numPlayer < 2 */\n      lt\n        /* \"RSP.sol\":1084:1132  require(numPlayer < 2, \"Already have 2 players\") */\n      tag_119\n      jumpi\n      mload(0x40)\n      0x08c379a000000000000000000000000000000000000000000000000000000000\n      dup2\n      mstore\n      0x04\n      add\n      tag_120\n      swap1\n      tag_121\n      jump\t// in\n    tag_120:\n      mload(0x40)\n      dup1\n      swap2\n      sub\n      swap1\n      revert\n    tag_119:\n        /* \"RSP.sol\":1160:1161  1 */\n      0x01\n        /* \"RSP.sol\":1147:1156  numPlayer */\n      sload(0x00)\n        /* \"RSP.sol\":1147:1161  numPlayer == 1 */\n      sub\n        /* \"RSP.sol\":1143:1254  if (numPlayer == 1) {... */\n      tag_122\n      jumpi\n        /* \"RSP.sol\":1200:1207  players */\n      0x04\n        /* \"RSP.sol\":1208:1209  0 */\n      0x00\n        /* \"RSP.sol\":1200:1210  players[0] */\n      dup2\n      sload\n      dup2\n      lt\n      tag_123\n      jumpi\n      tag_124\n      tag_125\n      jump\t// in\n    tag_124:\n    tag_123:\n      swap1\n      0x00\n      mstore\n      keccak256(0x00, 0x20)\n      add\n      0x00\n      swap1\n      sload\n      swap1\n      0x0100\n      exp\n      swap1\n      div\n      0xffffffffffffffffffffffffffffffffffffffff\n      and\n        /* \"RSP.sol\":1186:1210  msg.sender != players[0] */\n      0xffffffffffffffffffffffffffffffffffffffff\n      and\n        /* \"RSP.sol\":1186:1196  msg.sender */\n      caller\n        /* \"RSP.sol\":1186:1210  msg.sender != players[0] */\n      0xffffffffffffffffffffffffffffffffffffffff\n      and\n      sub\n        /* \"RSP.sol\":1178:1242  require(msg.sender != players[0], \"You are already in the game\") */\n      tag_127\n      jumpi\n      mload(0x40)\n      0x08c379a000000000000000000000000000000000000000000000000000000000\n      dup2\n      mstore\n      0x04\n      add\n      tag_128\n      swap1\n      tag_129\n      jump\t// in\n    tag_128:\n      mload(0x40)\n      dup1\n      swap2\n      sub\n      swap1\n      revert\n    tag_127:\n        /* \"RSP.sol\":1143:1254  if (numPlayer == 1) {... */\n    tag_122:\n        /* \"RSP.sol\":1298:1302  true */\n      0x01\n        /* \"RSP.sol\":1266:1283  player_not_played */\n      0x03\n        /* \"RSP.sol\":1266:1295  player_not_played[msg.sender] */\n      0x00\n        /* \"RSP.sol\":1284:1294  msg.sender */\n      caller\n        /* \"RSP.sol\":1266:1295  player_not_played[msg.sender] */\n      0xffffffffffffffffffffffffffffffffffffffff\n      and\n      0xffffffffffffffffffffffffffffffffffffffff\n      and\n      dup2\n      mstore\n      0x20\n      add\n      swap1\n      dup2\n      mstore\n      0x20\n      add\n      0x00\n      keccak256\n      0x00\n        /* \"RSP.sol\":1266:1302  player_not_played[msg.sender] = true */\n      0x0100\n      exp\n      dup2\n      sload\n      dup2\n      0xff\n      mul\n      not\n      and\n      swap1\n      dup4\n      iszero\n      iszero\n      mul\n      or\n      swap1\n      sstore\n      pop\n        /* \"RSP.sol\":1345:1349  true */\n      0x01\n        /* \"RSP.sol\":1313:1330  player_not_reveal */\n      0x06\n        /* \"RSP.sol\":1313:1342  player_not_reveal[msg.sender] */\n      0x00\n        /* \"RSP.sol\":1331:1341  msg.sender */\n      caller\n        /* \"RSP.sol\":1313:1342  player_not_reveal[msg.sender] */\n      0xffffffffffffffffffffffffffffffffffffffff\n      and\n      0xffffffffffffffffffffffffffffffffffffffff\n      and\n      dup2\n      mstore\n      0x20\n      add\n      swap1\n      dup2\n      mstore\n      0x20\n      add\n      0x00\n      keccak256\n      0x00\n        /* \"RSP.sol\":1313:1349  player_not_reveal[msg.sender] = true */\n      0x0100\n      exp\n      dup2\n      sload\n      dup2\n      0xff\n      mul\n      not\n      and\n      swap1\n      dup4\n      iszero\n      iszero\n      mul\n      or\n      swap1\n      sstore\n      pop\n        /* \"RSP.sol\":1360:1367  players */\n      0x04\n        /* \"RSP.sol\":1373:1383  msg.sender */\n      caller\n        /* \"RSP.sol\":1360:1384  players.push(msg.sender) */\n      swap1\n      dup1\n      0x01\n      dup2\n      sload\n      add\n      dup1\n      dup3\n      sstore\n      dup1\n      swap2\n      pop\n      pop\n      0x01\n      swap1\n      sub\n      swap1\n      0x00\n      mstore\n      keccak256(0x00, 0x20)\n      add\n      0x00\n      swap1\n      swap2\n      swap1\n      swap2\n      swap1\n      swap2\n      0x0100\n      exp\n      dup2\n      sload\n      dup2\n      0xffffffffffffffffffffffffffffffffffffffff\n      mul\n      not\n      and\n      swap1\n      dup4\n      0xffffffffffffffffffffffffffffffffffffffff\n      and\n      mul\n      or\n      swap1\n      sstore\n      pop\n        /* \"RSP.sol\":1395:1404  numPlayer */\n      0x00\n      dup1\n        /* \"RSP.sol\":1395:1406  numPlayer++ */\n      dup2\n      sload\n      dup1\n      swap3\n      swap2\n      swap1\n      tag_131\n      swap1\n      tag_132\n      jump\t// in\n    tag_131:\n      swap2\n      swap1\n      pop\n      sstore\n      pop\n        /* \"RSP.sol\":1517:1535  new CommitReveal() */\n      mload(0x40)\n      tag_133\n      swap1\n      tag_134\n      jump\t// in\n    tag_133:\n      mload(0x40)\n      dup1\n      swap2\n      sub\n      swap1\n      0x00\n      create\n      dup1\n      iszero\n      dup1\n      iszero\n      tag_135\n      jumpi\n      returndatasize\n      0x00\n      dup1\n      returndatacopy\n      revert(0x00, returndatasize)\n    tag_135:\n      pop\n        /* \"RSP.sol\":1500:1502  cr */\n      0x0b\n        /* \"RSP.sol\":1500:1514  cr[msg.sender] */\n      0x00\n        /* \"RSP.sol\":1503:1513  msg.sender */\n      caller\n        /* \"RSP.sol\":1500:1514  cr[msg.sender] */\n      0xffffffffffffffffffffffffffffffffffffffff\n      and\n      0xffffffffffffffffffffffffffffffffffffffff\n      and\n      dup2\n      mstore\n      0x20\n      add\n      swap1\n      dup2\n      mstore\n      0x20\n      add\n      0x00\n      keccak256\n      0x00\n        /* \"RSP.sol\":1500:1535  cr[msg.sender] = new CommitReveal() */\n      0x0100\n      exp\n      dup2\n      sload\n      dup2\n      0xffffffffffffffffffffffffffffffffffffffff\n      mul\n      not\n      and\n      swap1\n      dup4\n      0xffffffffffffffffffffffffffffffffffffffff\n      and\n      mul\n      or\n      swap1\n      sstore\n      pop\n        /* \"RSP.sol\":1691:1692  2 */\n      0x02\n        /* \"RSP.sol\":1678:1687  numPlayer */\n      sload(0x00)\n        /* \"RSP.sol\":1678:1692  numPlayer == 2 */\n      sub\n        /* \"RSP.sol\":1674:1746  if (numPlayer == 2) {... */\n      tag_136\n      jumpi\n        /* \"RSP.sol\":1709:1719  commitTime */\n      0x07\n      0x00\n      swap1\n      sload\n      swap1\n      0x0100\n      exp\n      swap1\n      div\n      0xffffffffffffffffffffffffffffffffffffffff\n      and\n        /* \"RSP.sol\":1709:1732  commitTime.setStartTime */\n      0xffffffffffffffffffffffffffffffffffffffff\n      and\n      0xa63f7c53\n        /* \"RSP.sol\":1709:1734  commitTime.setStartTime() */\n      mload(0x40)\n      dup2\n      0xffffffff\n      and\n      0xe0\n      shl\n      dup2\n      mstore\n      0x04\n      add\n      0x00\n      mload(0x40)\n      dup1\n      dup4\n      sub\n      dup2\n      0x00\n      dup8\n      dup1\n      extcodesize\n      iszero\n      dup1\n      iszero\n      tag_137\n      jumpi\n      0x00\n      dup1\n      revert\n    tag_137:\n      pop\n      gas\n      call\n      iszero\n      dup1\n      iszero\n      tag_139\n      jumpi\n      returndatasize\n      0x00\n      dup1\n      returndatacopy\n      revert(0x00, returndatasize)\n    tag_139:\n      pop\n      pop\n      pop\n      pop\n        /* \"RSP.sol\":1674:1746  if (numPlayer == 2) {... */\n    tag_136:\n        /* \"RSP.sol\":1037:1753  function addPlayer() public payable {... */\n      jump\t// out\n        /* \"RSP.sol\":652:691  uint public constant TIME_TO_REVEAL = 5 */\n    tag_49:\n        /* \"RSP.sol\":690:691  5 */\n      0x05\n        /* \"RSP.sol\":652:691  uint public constant TIME_TO_REVEAL = 5 */\n      dup2\n      jump\t// out\n        /* \"RSP.sol\":893:935  mapping(address => CommitReveal) public cr */\n    tag_54:\n      mstore(0x20, 0x0b)\n      dup1\n      0x00\n      mstore\n      keccak256(0x00, 0x40)\n      0x00\n      swap2\n      pop\n      sload\n      swap1\n      0x0100\n      exp\n      swap1\n      div\n      0xffffffffffffffffffffffffffffffffffffffff\n      and\n      dup2\n      jump\t// out\n        /* \"RSP.sol\":506:549  TimeUnit public commitTime = new TimeUnit() */\n    tag_59:\n      0x07\n      0x00\n      swap1\n      sload\n      swap1\n      0x0100\n      exp\n      swap1\n      div\n      0xffffffffffffffffffffffffffffffffffffffff\n      and\n      dup2\n      jump\t// out\n        /* \"RSP.sol\":2868:3467  function revealChoice(bytes32 revealData) external {... */\n    tag_66:\n        /* \"RSP.sol\":2950:2951  2 */\n      0x02\n        /* \"RSP.sol\":2938:2946  numInput */\n      sload(0x0a)\n        /* \"RSP.sol\":2938:2951  numInput == 2 */\n      eq\n        /* \"RSP.sol\":2930:2952  require(numInput == 2) */\n      tag_141\n      jumpi\n      0x00\n      dup1\n      revert\n    tag_141:\n        /* \"RSP.sol\":690:691  5 */\n      0x05\n        /* \"RSP.sol\":2971:2981  revealTime */\n      0x08\n      0x00\n      swap1\n      sload\n      swap1\n      0x0100\n      exp\n      swap1\n      div\n      0xffffffffffffffffffffffffffffffffffffffff\n      and\n        /* \"RSP.sol\":2971:2996  revealTime.elapsedMinutes */\n      0xffffffffffffffffffffffffffffffffffffffff\n      and\n      0xd97c8416\n        /* \"RSP.sol\":2971:2998  revealTime.elapsedMinutes() */\n      mload(0x40)\n      dup2\n      0xffffffff\n      and\n      0xe0\n      shl\n      dup2\n      mstore\n      0x04\n      add\n      0x20\n      mload(0x40)\n      dup1\n      dup4\n      sub\n      dup2\n      dup7\n      gas\n      staticcall\n      iszero\n      dup1\n      iszero\n      tag_143\n      jumpi\n      returndatasize\n      0x00\n      dup1\n      returndatacopy\n      revert(0x00, returndatasize)\n    tag_143:\n      pop\n      pop\n      pop\n      pop\n      mload(0x40)\n      returndatasize\n      not(0x1f)\n      0x1f\n      dup3\n      add\n      and\n      dup3\n      add\n      dup1\n      0x40\n      mstore\n      pop\n      dup2\n      add\n      swap1\n      tag_144\n      swap2\n      swap1\n      tag_145\n      jump\t// in\n    tag_144:\n        /* \"RSP.sol\":2971:3015  revealTime.elapsedMinutes() < TIME_TO_REVEAL */\n      lt\n        /* \"RSP.sol\":2963:3027  require(revealTime.elapsedMinutes() < TIME_TO_REVEAL, \"Timeout\") */\n      tag_146\n      jumpi\n      mload(0x40)\n      0x08c379a000000000000000000000000000000000000000000000000000000000\n      dup2\n      mstore\n      0x04\n      add\n      tag_147\n      swap1\n      tag_148\n      jump\t// in\n    tag_147:\n      mload(0x40)\n      dup1\n      swap2\n      sub\n      swap1\n      revert\n    tag_146:\n        /* \"RSP.sol\":3046:3063  player_not_reveal */\n      0x06\n        /* \"RSP.sol\":3046:3075  player_not_reveal[msg.sender] */\n      0x00\n        /* \"RSP.sol\":3064:3074  msg.sender */\n      caller\n        /* \"RSP.sol\":3046:3075  player_not_reveal[msg.sender] */\n      0xffffffffffffffffffffffffffffffffffffffff\n      and\n      0xffffffffffffffffffffffffffffffffffffffff\n      and\n      dup2\n      mstore\n      0x20\n      add\n      swap1\n      dup2\n      mstore\n      0x20\n      add\n      0x00\n      keccak256\n      0x00\n      swap1\n      sload\n      swap1\n      0x0100\n      exp\n      swap1\n      div\n      0xff\n      and\n        /* \"RSP.sol\":3038:3098  require(player_not_reveal[msg.sender], \"Player is revealed\") */\n      tag_149\n      jumpi\n      mload(0x40)\n      0x08c379a000000000000000000000000000000000000000000000000000000000\n      dup2\n      mstore\n      0x04\n      add\n      tag_150\n      swap1\n      tag_151\n      jump\t// in\n    tag_150:\n      mload(0x40)\n      dup1\n      swap2\n      sub\n      swap1\n      revert\n    tag_149:\n        /* \"RSP.sol\":3109:3111  cr */\n      0x0b\n        /* \"RSP.sol\":3109:3123  cr[msg.sender] */\n      0x00\n        /* \"RSP.sol\":3112:3122  msg.sender */\n      caller\n        /* \"RSP.sol\":3109:3123  cr[msg.sender] */\n      0xffffffffffffffffffffffffffffffffffffffff\n      and\n      0xffffffffffffffffffffffffffffffffffffffff\n      and\n      dup2\n      mstore\n      0x20\n      add\n      swap1\n      dup2\n      mstore\n      0x20\n      add\n      0x00\n      keccak256\n      0x00\n      swap1\n      sload\n      swap1\n      0x0100\n      exp\n      swap1\n      div\n      0xffffffffffffffffffffffffffffffffffffffff\n      and\n        /* \"RSP.sol\":3109:3130  cr[msg.sender].reveal */\n      0xffffffffffffffffffffffffffffffffffffffff\n      and\n      0x701fd0f1\n        /* \"RSP.sol\":3131:3141  revealData */\n      dup3\n        /* \"RSP.sol\":3109:3142  cr[msg.sender].reveal(revealData) */\n      mload(0x40)\n      dup3\n      0xffffffff\n      and\n      0xe0\n      shl\n      dup2\n      mstore\n      0x04\n      add\n      tag_152\n      swap2\n      swap1\n      tag_92\n      jump\t// in\n    tag_152:\n      0x00\n      mload(0x40)\n      dup1\n      dup4\n      sub\n      dup2\n      0x00\n      dup8\n      dup1\n      extcodesize\n      iszero\n      dup1\n      iszero\n      tag_153\n      jumpi\n      0x00\n      dup1\n      revert\n    tag_153:\n      pop\n      gas\n      call\n      iszero\n      dup1\n      iszero\n      tag_155\n      jumpi\n      returndatasize\n      0x00\n      dup1\n      returndatacopy\n      revert(0x00, returndatasize)\n    tag_155:\n      pop\n      pop\n      pop\n      pop\n        /* \"RSP.sol\":3194:3204  revealData */\n      dup1\n        /* \"RSP.sol\":3205:3207  31 */\n      0x1f\n        /* \"RSP.sol\":3194:3208  revealData[31] */\n      0x20\n      dup2\n      lt\n      tag_156\n      jumpi\n      tag_157\n      tag_125\n      jump\t// in\n    tag_157:\n    tag_156:\n      byte\n      0xf8\n      shl\n        /* \"RSP.sol\":3181:3210  uint8(bytes1(revealData[31])) */\n      0xf8\n      shr\n        /* \"RSP.sol\":3153:3210  player_choice[msg.sender] = uint8(bytes1(revealData[31])) */\n      0xff\n      and\n        /* \"RSP.sol\":3153:3166  player_choice */\n      0x02\n        /* \"RSP.sol\":3153:3178  player_choice[msg.sender] */\n      0x00\n        /* \"RSP.sol\":3167:3177  msg.sender */\n      caller\n        /* \"RSP.sol\":3153:3178  player_choice[msg.sender] */\n      0xffffffffffffffffffffffffffffffffffffffff\n      and\n      0xffffffffffffffffffffffffffffffffffffffff\n      and\n      dup2\n      mstore\n      0x20\n      add\n      swap1\n      dup2\n      mstore\n      0x20\n      add\n      0x00\n      keccak256\n        /* \"RSP.sol\":3153:3210  player_choice[msg.sender] = uint8(bytes1(revealData[31])) */\n      dup2\n      swap1\n      sstore\n      pop\n        /* \"RSP.sol\":3258:3259  0 */\n      0x00\n        /* \"RSP.sol\":3229:3242  player_choice */\n      0x02\n        /* \"RSP.sol\":3229:3254  player_choice[msg.sender] */\n      0x00\n        /* \"RSP.sol\":3243:3253  msg.sender */\n      caller\n        /* \"RSP.sol\":3229:3254  player_choice[msg.sender] */\n      0xffffffffffffffffffffffffffffffffffffffff\n      and\n      0xffffffffffffffffffffffffffffffffffffffff\n      and\n      dup2\n      mstore\n      0x20\n      add\n      swap1\n      dup2\n      mstore\n      0x20\n      add\n      0x00\n      keccak256\n      sload\n        /* \"RSP.sol\":3229:3259  player_choice[msg.sender] >= 0 */\n      lt\n      iszero\n        /* \"RSP.sol\":3229:3293  player_choice[msg.sender] >= 0 && player_choice[msg.sender] <= 4 */\n      dup1\n      iszero\n      tag_158\n      jumpi\n      pop\n        /* \"RSP.sol\":3292:3293  4 */\n      0x04\n        /* \"RSP.sol\":3263:3276  player_choice */\n      0x02\n        /* \"RSP.sol\":3263:3288  player_choice[msg.sender] */\n      0x00\n        /* \"RSP.sol\":3277:3287  msg.sender */\n      caller\n        /* \"RSP.sol\":3263:3288  player_choice[msg.sender] */\n      0xffffffffffffffffffffffffffffffffffffffff\n      and\n      0xffffffffffffffffffffffffffffffffffffffff\n      and\n      dup2\n      mstore\n      0x20\n      add\n      swap1\n      dup2\n      mstore\n      0x20\n      add\n      0x00\n      keccak256\n      sload\n        /* \"RSP.sol\":3263:3293  player_choice[msg.sender] <= 4 */\n      gt\n      iszero\n        /* \"RSP.sol\":3229:3293  player_choice[msg.sender] >= 0 && player_choice[msg.sender] <= 4 */\n    tag_158:\n        /* \"RSP.sol\":3221:3312  require(player_choice[msg.sender] >= 0 && player_choice[msg.sender] <= 4, \"Invalid choice\") */\n      tag_159\n      jumpi\n      mload(0x40)\n      0x08c379a000000000000000000000000000000000000000000000000000000000\n      dup2\n      mstore\n      0x04\n      add\n      tag_160\n      swap1\n      tag_161\n      jump\t// in\n    tag_160:\n      mload(0x40)\n      dup1\n      swap2\n      sub\n      swap1\n      revert\n    tag_159:\n        /* \"RSP.sol\":3355:3360  false */\n      0x00\n        /* \"RSP.sol\":3323:3340  player_not_reveal */\n      0x06\n        /* \"RSP.sol\":3323:3352  player_not_reveal[msg.sender] */\n      0x00\n        /* \"RSP.sol\":3341:3351  msg.sender */\n      caller\n        /* \"RSP.sol\":3323:3352  player_not_reveal[msg.sender] */\n      0xffffffffffffffffffffffffffffffffffffffff\n      and\n      0xffffffffffffffffffffffffffffffffffffffff\n      and\n      dup2\n      mstore\n      0x20\n      add\n      swap1\n      dup2\n      mstore\n      0x20\n      add\n      0x00\n      keccak256\n      0x00\n        /* \"RSP.sol\":3323:3360  player_not_reveal[msg.sender] = false */\n      0x0100\n      exp\n      dup2\n      sload\n      dup2\n      0xff\n      mul\n      not\n      and\n      swap1\n      dup4\n      iszero\n      iszero\n      mul\n      or\n      swap1\n      sstore\n      pop\n        /* \"RSP.sol\":3371:3380  revealNum */\n      0x05\n      0x00\n        /* \"RSP.sol\":3371:3383  revealNum ++ */\n      dup2\n      sload\n      dup1\n      swap3\n      swap2\n      swap1\n      tag_162\n      swap1\n      tag_132\n      jump\t// in\n    tag_162:\n      swap2\n      swap1\n      pop\n      sstore\n      pop\n        /* \"RSP.sol\":3411:3412  2 */\n      0x02\n        /* \"RSP.sol\":3398:3407  revealNum */\n      sload(0x05)\n        /* \"RSP.sol\":3398:3412  revealNum == 2 */\n      sub\n        /* \"RSP.sol\":3394:3460  if (revealNum == 2){... */\n      tag_163\n      jumpi\n        /* \"RSP.sol\":3428:3448  _checkWinnerAndPay() */\n      tag_164\n        /* \"RSP.sol\":3428:3446  _checkWinnerAndPay */\n      tag_165\n        /* \"RSP.sol\":3428:3448  _checkWinnerAndPay() */\n      jump\t// in\n    tag_164:\n        /* \"RSP.sol\":3394:3460  if (revealNum == 2){... */\n    tag_163:\n        /* \"RSP.sol\":2868:3467  function revealChoice(bytes32 revealData) external {... */\n      pop\n      jump\t// out\n        /* \"RSP.sol\":177:202  uint public numPlayer = 0 */\n    tag_69:\n      sload(0x00)\n      dup2\n      jump\t// out\n        /* \"RSP.sol\":606:645  uint public constant TIME_TO_COMMIT = 5 */\n    tag_73:\n        /* \"RSP.sol\":644:645  5 */\n      0x05\n        /* \"RSP.sol\":606:645  uint public constant TIME_TO_COMMIT = 5 */\n      dup2\n      jump\t// out\n        /* \"RSP.sol\":238:284  mapping (address => uint) public player_choice */\n    tag_78:\n      mstore(0x20, 0x02)\n      dup1\n      0x00\n      mstore\n      keccak256(0x00, 0x40)\n      0x00\n      swap2\n      pop\n      swap1\n      pop\n      sload\n      dup2\n      jump\t// out\n        /* \"RSP.sol\":4556:6126  function withdrawIfTimeout() external {... */\n    tag_82:\n        /* \"RSP.sol\":690:691  5 */\n      0x05\n        /* \"RSP.sol\":4679:4689  revealTime */\n      0x08\n      0x00\n      swap1\n      sload\n      swap1\n      0x0100\n      exp\n      swap1\n      div\n      0xffffffffffffffffffffffffffffffffffffffff\n      and\n        /* \"RSP.sol\":4679:4704  revealTime.elapsedMinutes */\n      0xffffffffffffffffffffffffffffffffffffffff\n      and\n      0xd97c8416\n        /* \"RSP.sol\":4679:4706  revealTime.elapsedMinutes() */\n      mload(0x40)\n      dup2\n      0xffffffff\n      and\n      0xe0\n      shl\n      dup2\n      mstore\n      0x04\n      add\n      0x20\n      mload(0x40)\n      dup1\n      dup4\n      sub\n      dup2\n      dup7\n      gas\n      staticcall\n      iszero\n      dup1\n      iszero\n      tag_168\n      jumpi\n      returndatasize\n      0x00\n      dup1\n      returndatacopy\n      revert(0x00, returndatasize)\n    tag_168:\n      pop\n      pop\n      pop\n      pop\n      mload(0x40)\n      returndatasize\n      not(0x1f)\n      0x1f\n      dup3\n      add\n      and\n      dup3\n      add\n      dup1\n      0x40\n      mstore\n      pop\n      dup2\n      add\n      swap1\n      tag_169\n      swap2\n      swap1\n      tag_145\n      jump\t// in\n    tag_169:\n        /* \"RSP.sol\":4679:4724  revealTime.elapsedMinutes() >= TIME_TO_REVEAL */\n      lt\n      iszero\n        /* \"RSP.sol\":4671:4759  require(revealTime.elapsedMinutes() >= TIME_TO_REVEAL, \"Reveal phase not timed out yet\") */\n      tag_170\n      jumpi\n      mload(0x40)\n      0x08c379a000000000000000000000000000000000000000000000000000000000\n      dup2\n      mstore\n      0x04\n      add\n      tag_171\n      swap1\n      tag_172\n      jump\t// in\n    tag_171:\n      mload(0x40)\n      dup1\n      swap2\n      sub\n      swap1\n      revert\n    tag_170:\n        /* \"RSP.sol\":4952:4953  0 */\n      0x00\n        /* \"RSP.sol\":4943:4949  reward */\n      sload(0x01)\n        /* \"RSP.sol\":4943:4953  reward > 0 */\n      gt\n        /* \"RSP.sol\":4935:4979  require(reward > 0, \"No reward in contract\") */\n      tag_173\n      jumpi\n      mload(0x40)\n      0x08c379a000000000000000000000000000000000000000000000000000000000\n      dup2\n      mstore\n      0x04\n      add\n      tag_174\n      swap1\n      tag_175\n      jump\t// in\n    tag_174:\n      mload(0x40)\n      dup1\n      swap2\n      sub\n      swap1\n      revert\n    tag_173:\n        /* \"RSP.sol\":5064:5065  1 */\n      0x01\n        /* \"RSP.sol\":5051:5060  revealNum */\n      sload(0x05)\n        /* \"RSP.sol\":5051:5065  revealNum == 1 */\n      sub\n        /* \"RSP.sol\":5047:6098  if (revealNum == 1) {... */\n      tag_176\n      jumpi\n        /* \"RSP.sol\":5154:5169  bool p0Revealed */\n      0x00\n        /* \"RSP.sol\":5206:5211  false */\n      dup1\n        /* \"RSP.sol\":5173:5211  player_not_reveal[players[0]] == false */\n      iszero\n      iszero\n        /* \"RSP.sol\":5173:5190  player_not_reveal */\n      0x06\n        /* \"RSP.sol\":5173:5202  player_not_reveal[players[0]] */\n      0x00\n        /* \"RSP.sol\":5191:5198  players */\n      0x04\n        /* \"RSP.sol\":5199:5200  0 */\n      0x00\n        /* \"RSP.sol\":5191:5201  players[0] */\n      dup2\n      sload\n      dup2\n      lt\n      tag_177\n      jumpi\n      tag_178\n      tag_125\n      jump\t// in\n    tag_178:\n    tag_177:\n      swap1\n      0x00\n      mstore\n      keccak256(0x00, 0x20)\n      add\n      0x00\n      swap1\n      sload\n      swap1\n      0x0100\n      exp\n      swap1\n      div\n      0xffffffffffffffffffffffffffffffffffffffff\n      and\n        /* \"RSP.sol\":5173:5202  player_not_reveal[players[0]] */\n      0xffffffffffffffffffffffffffffffffffffffff\n      and\n      0xffffffffffffffffffffffffffffffffffffffff\n      and\n      dup2\n      mstore\n      0x20\n      add\n      swap1\n      dup2\n      mstore\n      0x20\n      add\n      0x00\n      keccak256\n      0x00\n      swap1\n      sload\n      swap1\n      0x0100\n      exp\n      swap1\n      div\n      0xff\n      and\n        /* \"RSP.sol\":5173:5211  player_not_reveal[players[0]] == false */\n      iszero\n      iszero\n      eq\n        /* \"RSP.sol\":5154:5212  bool p0Revealed = (player_not_reveal[players[0]] == false) */\n      swap1\n      pop\n        /* \"RSP.sol\":5227:5242  bool p1Revealed */\n      0x00\n        /* \"RSP.sol\":5279:5284  false */\n      dup1\n        /* \"RSP.sol\":5246:5284  player_not_reveal[players[1]] == false */\n      iszero\n      iszero\n        /* \"RSP.sol\":5246:5263  player_not_reveal */\n      0x06\n        /* \"RSP.sol\":5246:5275  player_not_reveal[players[1]] */\n      0x00\n        /* \"RSP.sol\":5264:5271  players */\n      0x04\n        /* \"RSP.sol\":5272:5273  1 */\n      0x01\n        /* \"RSP.sol\":5264:5274  players[1] */\n      dup2\n      sload\n      dup2\n      lt\n      tag_180\n      jumpi\n      tag_181\n      tag_125\n      jump\t// in\n    tag_181:\n    tag_180:\n      swap1\n      0x00\n      mstore\n      keccak256(0x00, 0x20)\n      add\n      0x00\n      swap1\n      sload\n      swap1\n      0x0100\n      exp\n      swap1\n      div\n      0xffffffffffffffffffffffffffffffffffffffff\n      and\n        /* \"RSP.sol\":5246:5275  player_not_reveal[players[1]] */\n      0xffffffffffffffffffffffffffffffffffffffff\n      and\n      0xffffffffffffffffffffffffffffffffffffffff\n      and\n      dup2\n      mstore\n      0x20\n      add\n      swap1\n      dup2\n      mstore\n      0x20\n      add\n      0x00\n      keccak256\n      0x00\n      swap1\n      sload\n      swap1\n      0x0100\n      exp\n      swap1\n      div\n      0xff\n      and\n        /* \"RSP.sol\":5246:5284  player_not_reveal[players[1]] == false */\n      iszero\n      iszero\n      eq\n        /* \"RSP.sol\":5227:5285  bool p1Revealed = (player_not_reveal[players[1]] == false) */\n      swap1\n      pop\n        /* \"RSP.sol\":5306:5316  p0Revealed */\n      dup2\n        /* \"RSP.sol\":5306:5331  p0Revealed && !p1Revealed */\n      dup1\n      iszero\n      tag_183\n      jumpi\n      pop\n        /* \"RSP.sol\":5321:5331  p1Revealed */\n      dup1\n        /* \"RSP.sol\":5320:5331  !p1Revealed */\n      iszero\n        /* \"RSP.sol\":5306:5331  p0Revealed && !p1Revealed */\n    tag_183:\n        /* \"RSP.sol\":5302:5770  if (p0Revealed && !p1Revealed) {... */\n      iszero\n      tag_184\n      jumpi\n        /* \"RSP.sol\":5374:5381  players */\n      0x04\n        /* \"RSP.sol\":5382:5383  0 */\n      0x00\n        /* \"RSP.sol\":5374:5384  players[0] */\n      dup2\n      sload\n      dup2\n      lt\n      tag_185\n      jumpi\n      tag_186\n      tag_125\n      jump\t// in\n    tag_186:\n    tag_185:\n      swap1\n      0x00\n      mstore\n      keccak256(0x00, 0x20)\n      add\n      0x00\n      swap1\n      sload\n      swap1\n      0x0100\n      exp\n      swap1\n      div\n      0xffffffffffffffffffffffffffffffffffffffff\n      and\n        /* \"RSP.sol\":5360:5384  msg.sender == players[0] */\n      0xffffffffffffffffffffffffffffffffffffffff\n      and\n        /* \"RSP.sol\":5360:5370  msg.sender */\n      caller\n        /* \"RSP.sol\":5360:5384  msg.sender == players[0] */\n      0xffffffffffffffffffffffffffffffffffffffff\n      and\n      eq\n        /* \"RSP.sol\":5352:5419  require(msg.sender == players[0], \"Only the revealer can withdraw\") */\n      tag_188\n      jumpi\n      mload(0x40)\n      0x08c379a000000000000000000000000000000000000000000000000000000000\n      dup2\n      mstore\n      0x04\n      add\n      tag_189\n      swap1\n      tag_190\n      jump\t// in\n    tag_189:\n      mload(0x40)\n      dup1\n      swap2\n      sub\n      swap1\n      revert\n    tag_188:\n        /* \"RSP.sol\":5438:5443  token */\n      0x09\n      0x00\n      swap1\n      sload\n      swap1\n      0x0100\n      exp\n      swap1\n      div\n      0xffffffffffffffffffffffffffffffffffffffff\n      and\n        /* \"RSP.sol\":5438:5452  token.transfer */\n      0xffffffffffffffffffffffffffffffffffffffff\n      and\n      0xa9059cbb\n        /* \"RSP.sol\":5453:5460  players */\n      0x04\n        /* \"RSP.sol\":5461:5462  0 */\n      0x00\n        /* \"RSP.sol\":5453:5463  players[0] */\n      dup2\n      sload\n      dup2\n      lt\n      tag_191\n      jumpi\n      tag_192\n      tag_125\n      jump\t// in\n    tag_192:\n    tag_191:\n      swap1\n      0x00\n      mstore\n      keccak256(0x00, 0x20)\n      add\n      0x00\n      swap1\n      sload\n      swap1\n      0x0100\n      exp\n      swap1\n      div\n      0xffffffffffffffffffffffffffffffffffffffff\n      and\n        /* \"RSP.sol\":5465:5471  reward */\n      sload(0x01)\n        /* \"RSP.sol\":5438:5472  token.transfer(players[0], reward) */\n      mload(0x40)\n      dup4\n      0xffffffff\n      and\n      0xe0\n      shl\n      dup2\n      mstore\n      0x04\n      add\n      tag_194\n      swap3\n      swap2\n      swap1\n      tag_195\n      jump\t// in\n    tag_194:\n      0x20\n      mload(0x40)\n      dup1\n      dup4\n      sub\n      dup2\n      0x00\n      dup8\n      gas\n      call\n      iszero\n      dup1\n      iszero\n      tag_197\n      jumpi\n      returndatasize\n      0x00\n      dup1\n      returndatacopy\n      revert(0x00, returndatasize)\n    tag_197:\n      pop\n      pop\n      pop\n      pop\n      mload(0x40)\n      returndatasize\n      not(0x1f)\n      0x1f\n      dup3\n      add\n      and\n      dup3\n      add\n      dup1\n      0x40\n      mstore\n      pop\n      dup2\n      add\n      swap1\n      tag_198\n      swap2\n      swap1\n      tag_199\n      jump\t// in\n    tag_198:\n      pop\n        /* \"RSP.sol\":5302:5770  if (p0Revealed && !p1Revealed) {... */\n      jump(tag_200)\n    tag_184:\n        /* \"RSP.sol\":5512:5522  p0Revealed */\n      dup2\n        /* \"RSP.sol\":5511:5522  !p0Revealed */\n      iszero\n        /* \"RSP.sol\":5511:5536  !p0Revealed && p1Revealed */\n      dup1\n      iszero\n      tag_201\n      jumpi\n      pop\n        /* \"RSP.sol\":5526:5536  p1Revealed */\n      dup1\n        /* \"RSP.sol\":5511:5536  !p0Revealed && p1Revealed */\n    tag_201:\n        /* \"RSP.sol\":5507:5770  if (!p0Revealed && p1Revealed) {... */\n      iszero\n      tag_202\n      jumpi\n        /* \"RSP.sol\":5579:5586  players */\n      0x04\n        /* \"RSP.sol\":5587:5588  1 */\n      0x01\n        /* \"RSP.sol\":5579:5589  players[1] */\n      dup2\n      sload\n      dup2\n      lt\n      tag_203\n      jumpi\n      tag_204\n      tag_125\n      jump\t// in\n    tag_204:\n    tag_203:\n      swap1\n      0x00\n      mstore\n      keccak256(0x00, 0x20)\n      add\n      0x00\n      swap1\n      sload\n      swap1\n      0x0100\n      exp\n      swap1\n      div\n      0xffffffffffffffffffffffffffffffffffffffff\n      and\n        /* \"RSP.sol\":5565:5589  msg.sender == players[1] */\n      0xffffffffffffffffffffffffffffffffffffffff\n      and\n        /* \"RSP.sol\":5565:5575  msg.sender */\n      caller\n        /* \"RSP.sol\":5565:5589  msg.sender == players[1] */\n      0xffffffffffffffffffffffffffffffffffffffff\n      and\n      eq\n        /* \"RSP.sol\":5557:5624  require(msg.sender == players[1], \"Only the revealer can withdraw\") */\n      tag_206\n      jumpi\n      mload(0x40)\n      0x08c379a000000000000000000000000000000000000000000000000000000000\n      dup2\n      mstore\n      0x04\n      add\n      tag_207\n      swap1\n      tag_190\n      jump\t// in\n    tag_207:\n      mload(0x40)\n      dup1\n      swap2\n      sub\n      swap1\n      revert\n    tag_206:\n        /* \"RSP.sol\":5643:5648  token */\n      0x09\n      0x00\n      swap1\n      sload\n      swap1\n      0x0100\n      exp\n      swap1\n      div\n      0xffffffffffffffffffffffffffffffffffffffff\n      and\n        /* \"RSP.sol\":5643:5657  token.transfer */\n      0xffffffffffffffffffffffffffffffffffffffff\n      and\n      0xa9059cbb\n        /* \"RSP.sol\":5658:5665  players */\n      0x04\n        /* \"RSP.sol\":5666:5667  1 */\n      0x01\n        /* \"RSP.sol\":5658:5668  players[1] */\n      dup2\n      sload\n      dup2\n      lt\n      tag_208\n      jumpi\n      tag_209\n      tag_125\n      jump\t// in\n    tag_209:\n    tag_208:\n      swap1\n      0x00\n      mstore\n      keccak256(0x00, 0x20)\n      add\n      0x00\n      swap1\n      sload\n      swap1\n      0x0100\n      exp\n      swap1\n      div\n      0xffffffffffffffffffffffffffffffffffffffff\n      and\n        /* \"RSP.sol\":5670:5676  reward */\n      sload(0x01)\n        /* \"RSP.sol\":5643:5677  token.transfer(players[1], reward) */\n      mload(0x40)\n      dup4\n      0xffffffff\n      and\n      0xe0\n      shl\n      dup2\n      mstore\n      0x04\n      add\n      tag_211\n      swap3\n      swap2\n      swap1\n      tag_195\n      jump\t// in\n    tag_211:\n      0x20\n      mload(0x40)\n      dup1\n      dup4\n      sub\n      dup2\n      0x00\n      dup8\n      gas\n      call\n      iszero\n      dup1\n      iszero\n      tag_213\n      jumpi\n      returndatasize\n      0x00\n      dup1\n      returndatacopy\n      revert(0x00, returndatasize)\n    tag_213:\n      pop\n      pop\n      pop\n      pop\n      mload(0x40)\n      returndatasize\n      not(0x1f)\n      0x1f\n      dup3\n      add\n      and\n      dup3\n      add\n      dup1\n      0x40\n      mstore\n      pop\n      dup2\n      add\n      swap1\n      tag_214\n      swap2\n      swap1\n      tag_199\n      jump\t// in\n    tag_214:\n      pop\n        /* \"RSP.sol\":5507:5770  if (!p0Revealed && p1Revealed) {... */\n      jump(tag_215)\n    tag_202:\n        /* \"RSP.sol\":5731:5754  revert(\"Invalid state\") */\n      mload(0x40)\n      0x08c379a000000000000000000000000000000000000000000000000000000000\n      dup2\n      mstore\n      0x04\n      add\n      tag_216\n      swap1\n      tag_217\n      jump\t// in\n    tag_216:\n      mload(0x40)\n      dup1\n      swap2\n      sub\n      swap1\n      revert\n        /* \"RSP.sol\":5507:5770  if (!p0Revealed && p1Revealed) {... */\n    tag_215:\n        /* \"RSP.sol\":5302:5770  if (p0Revealed && !p1Revealed) {... */\n    tag_200:\n        /* \"RSP.sol\":5067:5781  {... */\n      pop\n      pop\n        /* \"RSP.sol\":5047:6098  if (revealNum == 1) {... */\n      jump(tag_218)\n    tag_176:\n        /* \"RSP.sol\":5865:5866  0 */\n      0x00\n        /* \"RSP.sol\":5852:5861  revealNum */\n      sload(0x05)\n        /* \"RSP.sol\":5852:5866  revealNum == 0 */\n      sub\n        /* \"RSP.sol\":5848:6098  if (revealNum == 0) {... */\n      tag_219\n      jumpi\n        /* \"RSP.sol\":5957:5962  token */\n      0x09\n      0x00\n      swap1\n      sload\n      swap1\n      0x0100\n      exp\n      swap1\n      div\n      0xffffffffffffffffffffffffffffffffffffffff\n      and\n        /* \"RSP.sol\":5957:5971  token.transfer */\n      0xffffffffffffffffffffffffffffffffffffffff\n      and\n      0xa9059cbb\n        /* \"RSP.sol\":5972:5982  msg.sender */\n      caller\n        /* \"RSP.sol\":5984:5990  reward */\n      sload(0x01)\n        /* \"RSP.sol\":5957:5991  token.transfer(msg.sender, reward) */\n      mload(0x40)\n      dup4\n      0xffffffff\n      and\n      0xe0\n      shl\n      dup2\n      mstore\n      0x04\n      add\n      tag_220\n      swap3\n      swap2\n      swap1\n      tag_195\n      jump\t// in\n    tag_220:\n      0x20\n      mload(0x40)\n      dup1\n      dup4\n      sub\n      dup2\n      0x00\n      dup8\n      gas\n      call\n      iszero\n      dup1\n      iszero\n      tag_222\n      jumpi\n      returndatasize\n      0x00\n      dup1\n      returndatacopy\n      revert(0x00, returndatasize)\n    tag_222:\n      pop\n      pop\n      pop\n      pop\n      mload(0x40)\n      returndatasize\n      not(0x1f)\n      0x1f\n      dup3\n      add\n      and\n      dup3\n      add\n      dup1\n      0x40\n      mstore\n      pop\n      dup2\n      add\n      swap1\n      tag_223\n      swap2\n      swap1\n      tag_199\n      jump\t// in\n    tag_223:\n      pop\n        /* \"RSP.sol\":5848:6098  if (revealNum == 0) {... */\n      jump(tag_224)\n    tag_219:\n        /* \"RSP.sol\":6033:6086  revert(\"Both players revealed - not applicable here\") */\n      mload(0x40)\n      0x08c379a000000000000000000000000000000000000000000000000000000000\n      dup2\n      mstore\n      0x04\n      add\n      tag_225\n      swap1\n      tag_226\n      jump\t// in\n    tag_225:\n      mload(0x40)\n      dup1\n      swap2\n      sub\n      swap1\n      revert\n        /* \"RSP.sol\":5848:6098  if (revealNum == 0) {... */\n    tag_224:\n        /* \"RSP.sol\":5047:6098  if (revealNum == 1) {... */\n    tag_218:\n        /* \"RSP.sol\":6110:6118  _reset() */\n      tag_227\n        /* \"RSP.sol\":6110:6116  _reset */\n      tag_228\n        /* \"RSP.sol\":6110:6118  _reset() */\n      jump\t// in\n    tag_227:\n        /* \"RSP.sol\":4556:6126  function withdrawIfTimeout() external {... */\n      jump\t// out\n        /* \"RSP.sol\":556:599  TimeUnit public revealTime = new TimeUnit() */\n    tag_85:\n      0x08\n      0x00\n      swap1\n      sload\n      swap1\n      0x0100\n      exp\n      swap1\n      div\n      0xffffffffffffffffffffffffffffffffffffffff\n      and\n      dup2\n      jump\t// out\n        /* \"RSP.sol\":7434:7546  function hash(bytes32 data) public view returns (bytes32) {... */\n    tag_90:\n        /* \"RSP.sol\":7483:7490  bytes32 */\n      0x00\n        /* \"RSP.sol\":7510:7512  cr */\n      0x0b\n        /* \"RSP.sol\":7510:7524  cr[msg.sender] */\n      0x00\n        /* \"RSP.sol\":7513:7523  msg.sender */\n      caller\n        /* \"RSP.sol\":7510:7524  cr[msg.sender] */\n      0xffffffffffffffffffffffffffffffffffffffff\n      and\n      0xffffffffffffffffffffffffffffffffffffffff\n      and\n      dup2\n      mstore\n      0x20\n      add\n      swap1\n      dup2\n      mstore\n      0x20\n      add\n      0x00\n      keccak256\n      0x00\n      swap1\n      sload\n      swap1\n      0x0100\n      exp\n      swap1\n      div\n      0xffffffffffffffffffffffffffffffffffffffff\n      and\n        /* \"RSP.sol\":7510:7532  cr[msg.sender].getHash */\n      0xffffffffffffffffffffffffffffffffffffffff\n      and\n      0x3cf5040a\n        /* \"RSP.sol\":7533:7537  data */\n      dup4\n        /* \"RSP.sol\":7510:7538  cr[msg.sender].getHash(data) */\n      mload(0x40)\n      dup3\n      0xffffffff\n      and\n      0xe0\n      shl\n      dup2\n      mstore\n      0x04\n      add\n      tag_230\n      swap2\n      swap1\n      tag_92\n      jump\t// in\n    tag_230:\n      0x20\n      mload(0x40)\n      dup1\n      dup4\n      sub\n      dup2\n      dup7\n      gas\n      staticcall\n      iszero\n      dup1\n      iszero\n      tag_232\n      jumpi\n      returndatasize\n      0x00\n      dup1\n      returndatacopy\n      revert(0x00, returndatasize)\n    tag_232:\n      pop\n      pop\n      pop\n      pop\n      mload(0x40)\n      returndatasize\n      not(0x1f)\n      0x1f\n      dup3\n      add\n      and\n      dup3\n      add\n      dup1\n      0x40\n      mstore\n      pop\n      dup2\n      add\n      swap1\n      tag_233\n      swap2\n      swap1\n      tag_234\n      jump\t// in\n    tag_233:\n        /* \"RSP.sol\":7503:7538  return cr[msg.sender].getHash(data) */\n      swap1\n      pop\n        /* \"RSP.sol\":7434:7546  function hash(bytes32 data) public view returns (bytes32) {... */\n      swap2\n      swap1\n      pop\n      jump\t// out\n        /* \"RSP.sol\":1761:2860  function input(bytes32 choice) public  {... */\n    tag_96:\n        /* \"RSP.sol\":1832:1833  2 */\n      0x02\n        /* \"RSP.sol\":1819:1828  numPlayer */\n      sload(0x00)\n        /* \"RSP.sol\":1819:1833  numPlayer == 2 */\n      eq\n        /* \"RSP.sol\":1811:1834  require(numPlayer == 2) */\n      tag_236\n      jumpi\n      0x00\n      dup1\n      revert\n    tag_236:\n        /* \"RSP.sol\":1853:1870  player_not_played */\n      0x03\n        /* \"RSP.sol\":1853:1882  player_not_played[msg.sender] */\n      0x00\n        /* \"RSP.sol\":1871:1881  msg.sender */\n      caller\n        /* \"RSP.sol\":1853:1882  player_not_played[msg.sender] */\n      0xffffffffffffffffffffffffffffffffffffffff\n      and\n      0xffffffffffffffffffffffffffffffffffffffff\n      and\n      dup2\n      mstore\n      0x20\n      add\n      swap1\n      dup2\n      mstore\n      0x20\n      add\n      0x00\n      keccak256\n      0x00\n      swap1\n      sload\n      swap1\n      0x0100\n      exp\n      swap1\n      div\n      0xff\n      and\n        /* \"RSP.sol\":1845:1883  require(player_not_played[msg.sender]) */\n      tag_237\n      jumpi\n      0x00\n      dup1\n      revert\n    tag_237:\n        /* \"RSP.sol\":644:645  5 */\n      0x05\n        /* \"RSP.sol\":1902:1912  commitTime */\n      0x07\n      0x00\n      swap1\n      sload\n      swap1\n      0x0100\n      exp\n      swap1\n      div\n      0xffffffffffffffffffffffffffffffffffffffff\n      and\n        /* \"RSP.sol\":1902:1927  commitTime.elapsedMinutes */\n      0xffffffffffffffffffffffffffffffffffffffff\n      and\n      0xd97c8416\n        /* \"RSP.sol\":1902:1929  commitTime.elapsedMinutes() */\n      mload(0x40)\n      dup2\n      0xffffffff\n      and\n      0xe0\n      shl\n      dup2\n      mstore\n      0x04\n      add\n      0x20\n      mload(0x40)\n      dup1\n      dup4\n      sub\n      dup2\n      dup7\n      gas\n      staticcall\n      iszero\n      dup1\n      iszero\n      tag_239\n      jumpi\n      returndatasize\n      0x00\n      dup1\n      returndatacopy\n      revert(0x00, returndatasize)\n    tag_239:\n      pop\n      pop\n      pop\n      pop\n      mload(0x40)\n      returndatasize\n      not(0x1f)\n      0x1f\n      dup3\n      add\n      and\n      dup3\n      add\n      dup1\n      0x40\n      mstore\n      pop\n      dup2\n      add\n      swap1\n      tag_240\n      swap2\n      swap1\n      tag_145\n      jump\t// in\n    tag_240:\n        /* \"RSP.sol\":1902:1946  commitTime.elapsedMinutes() < TIME_TO_COMMIT */\n      lt\n        /* \"RSP.sol\":1894:1973  require(commitTime.elapsedMinutes() < TIME_TO_COMMIT, \"Commit phase timed out\") */\n      tag_241\n      jumpi\n      mload(0x40)\n      0x08c379a000000000000000000000000000000000000000000000000000000000\n      dup2\n      mstore\n      0x04\n      add\n      tag_242\n      swap1\n      tag_243\n      jump\t// in\n    tag_242:\n      mload(0x40)\n      dup1\n      swap2\n      sub\n      swap1\n      revert\n    tag_241:\n        /* \"RSP.sol\":2016:2021  false */\n      0x00\n        /* \"RSP.sol\":1984:2001  player_not_played */\n      0x03\n        /* \"RSP.sol\":1984:2013  player_not_played[msg.sender] */\n      0x00\n        /* \"RSP.sol\":2002:2012  msg.sender */\n      caller\n        /* \"RSP.sol\":1984:2013  player_not_played[msg.sender] */\n      0xffffffffffffffffffffffffffffffffffffffff\n      and\n      0xffffffffffffffffffffffffffffffffffffffff\n      and\n      dup2\n      mstore\n      0x20\n      add\n      swap1\n      dup2\n      mstore\n      0x20\n      add\n      0x00\n      keccak256\n      0x00\n        /* \"RSP.sol\":1984:2021  player_not_played[msg.sender] = false */\n      0x0100\n      exp\n      dup2\n      sload\n      dup2\n      0xff\n      mul\n      not\n      and\n      swap1\n      dup4\n      iszero\n      iszero\n      mul\n      or\n      swap1\n      sstore\n      pop\n        /* \"RSP.sol\":2032:2040  numInput */\n      0x0a\n      0x00\n        /* \"RSP.sol\":2032:2042  numInput++ */\n      dup2\n      sload\n      dup1\n      swap3\n      swap2\n      swap1\n      tag_244\n      swap1\n      tag_132\n      jump\t// in\n    tag_244:\n      swap2\n      swap1\n      pop\n      sstore\n      pop\n        /* \"RSP.sol\":2053:2055  cr */\n      0x0b\n        /* \"RSP.sol\":2053:2067  cr[msg.sender] */\n      0x00\n        /* \"RSP.sol\":2056:2066  msg.sender */\n      caller\n        /* \"RSP.sol\":2053:2067  cr[msg.sender] */\n      0xffffffffffffffffffffffffffffffffffffffff\n      and\n      0xffffffffffffffffffffffffffffffffffffffff\n      and\n      dup2\n      mstore\n      0x20\n      add\n      swap1\n      dup2\n      mstore\n      0x20\n      add\n      0x00\n      keccak256\n      0x00\n      swap1\n      sload\n      swap1\n      0x0100\n      exp\n      swap1\n      div\n      0xffffffffffffffffffffffffffffffffffffffff\n      and\n        /* \"RSP.sol\":2053:2074  cr[msg.sender].commit */\n      0xffffffffffffffffffffffffffffffffffffffff\n      and\n      0xf14fcbc8\n        /* \"RSP.sol\":2075:2081  choice */\n      dup3\n        /* \"RSP.sol\":2053:2082  cr[msg.sender].commit(choice) */\n      mload(0x40)\n      dup3\n      0xffffffff\n      and\n      0xe0\n      shl\n      dup2\n      mstore\n      0x04\n      add\n      tag_245\n      swap2\n      swap1\n      tag_92\n      jump\t// in\n    tag_245:\n      0x00\n      mload(0x40)\n      dup1\n      dup4\n      sub\n      dup2\n      0x00\n      dup8\n      dup1\n      extcodesize\n      iszero\n      dup1\n      iszero\n      tag_246\n      jumpi\n      0x00\n      dup1\n      revert\n    tag_246:\n      pop\n      gas\n      call\n      iszero\n      dup1\n      iszero\n      tag_248\n      jumpi\n      returndatasize\n      0x00\n      dup1\n      returndatacopy\n      revert(0x00, returndatasize)\n    tag_248:\n      pop\n      pop\n      pop\n      pop\n        /* \"RSP.sol\":2109:2110  2 */\n      0x02\n        /* \"RSP.sol\":2097:2105  numInput */\n      sload(0x0a)\n        /* \"RSP.sol\":2097:2110  numInput == 2 */\n      sub\n        /* \"RSP.sol\":2093:2853  if (numInput == 2) {... */\n      tag_249\n      jumpi\n        /* \"RSP.sol\":847:853  10**12 */\n      0xe8d4a51000\n        /* \"RSP.sol\":2135:2140  token */\n      0x09\n      0x00\n      swap1\n      sload\n      swap1\n      0x0100\n      exp\n      swap1\n      div\n      0xffffffffffffffffffffffffffffffffffffffff\n      and\n        /* \"RSP.sol\":2135:2150  token.allowance */\n      0xffffffffffffffffffffffffffffffffffffffff\n      and\n      0xdd62ed3e\n        /* \"RSP.sol\":2151:2158  players */\n      0x04\n        /* \"RSP.sol\":2159:2160  0 */\n      0x00\n        /* \"RSP.sol\":2151:2161  players[0] */\n      dup2\n      sload\n      dup2\n      lt\n      tag_250\n      jumpi\n      tag_251\n      tag_125\n      jump\t// in\n    tag_251:\n    tag_250:\n      swap1\n      0x00\n      mstore\n      keccak256(0x00, 0x20)\n      add\n      0x00\n      swap1\n      sload\n      swap1\n      0x0100\n      exp\n      swap1\n      div\n      0xffffffffffffffffffffffffffffffffffffffff\n      and\n        /* \"RSP.sol\":2171:2175  this */\n      address\n        /* \"RSP.sol\":2135:2177  token.allowance(players[0], address(this)) */\n      mload(0x40)\n      dup4\n      0xffffffff\n      and\n      0xe0\n      shl\n      dup2\n      mstore\n      0x04\n      add\n      tag_253\n      swap3\n      swap2\n      swap1\n      tag_254\n      jump\t// in\n    tag_253:\n      0x20\n      mload(0x40)\n      dup1\n      dup4\n      sub\n      dup2\n      dup7\n      gas\n      staticcall\n      iszero\n      dup1\n      iszero\n      tag_256\n      jumpi\n      returndatasize\n      0x00\n      dup1\n      returndatacopy\n      revert(0x00, returndatasize)\n    tag_256:\n      pop\n      pop\n      pop\n      pop\n      mload(0x40)\n      returndatasize\n      not(0x1f)\n      0x1f\n      dup3\n      add\n      and\n      dup3\n      add\n      dup1\n      0x40\n      mstore\n      pop\n      dup2\n      add\n      swap1\n      tag_257\n      swap2\n      swap1\n      tag_145\n      jump\t// in\n    tag_257:\n        /* \"RSP.sol\":2135:2193  token.allowance(players[0], address(this)) >= STAKE_AMOUNT */\n      lt\n      iszero\n        /* \"RSP.sol\":2127:2226  require(token.allowance(players[0], address(this)) >= STAKE_AMOUNT, \"Player0 allowance not enough\") */\n      tag_258\n      jumpi\n      mload(0x40)\n      0x08c379a000000000000000000000000000000000000000000000000000000000\n      dup2\n      mstore\n      0x04\n      add\n      tag_259\n      swap1\n      tag_260\n      jump\t// in\n    tag_259:\n      mload(0x40)\n      dup1\n      swap2\n      sub\n      swap1\n      revert\n    tag_258:\n        /* \"RSP.sol\":847:853  10**12 */\n      0xe8d4a51000\n        /* \"RSP.sol\":2249:2254  token */\n      0x09\n      0x00\n      swap1\n      sload\n      swap1\n      0x0100\n      exp\n      swap1\n      div\n      0xffffffffffffffffffffffffffffffffffffffff\n      and\n        /* \"RSP.sol\":2249:2264  token.allowance */\n      0xffffffffffffffffffffffffffffffffffffffff\n      and\n      0xdd62ed3e\n        /* \"RSP.sol\":2265:2272  players */\n      0x04\n        /* \"RSP.sol\":2273:2274  1 */\n      0x01\n        /* \"RSP.sol\":2265:2275  players[1] */\n      dup2\n      sload\n      dup2\n      lt\n      tag_261\n      jumpi\n      tag_262\n      tag_125\n      jump\t// in\n    tag_262:\n    tag_261:\n      swap1\n      0x00\n      mstore\n      keccak256(0x00, 0x20)\n      add\n      0x00\n      swap1\n      sload\n      swap1\n      0x0100\n      exp\n      swap1\n      div\n      0xffffffffffffffffffffffffffffffffffffffff\n      and\n        /* \"RSP.sol\":2285:2289  this */\n      address\n        /* \"RSP.sol\":2249:2291  token.allowance(players[1], address(this)) */\n      mload(0x40)\n      dup4\n      0xffffffff\n      and\n      0xe0\n      shl\n      dup2\n      mstore\n      0x04\n      add\n      tag_264\n      swap3\n      swap2\n      swap1\n      tag_254\n      jump\t// in\n    tag_264:\n      0x20\n      mload(0x40)\n      dup1\n      dup4\n      sub\n      dup2\n      dup7\n      gas\n      staticcall\n      iszero\n      dup1\n      iszero\n      tag_266\n      jumpi\n      returndatasize\n      0x00\n      dup1\n      returndatacopy\n      revert(0x00, returndatasize)\n    tag_266:\n      pop\n      pop\n      pop\n      pop\n      mload(0x40)\n      returndatasize\n      not(0x1f)\n      0x1f\n      dup3\n      add\n      and\n      dup3\n      add\n      dup1\n      0x40\n      mstore\n      pop\n      dup2\n      add\n      swap1\n      tag_267\n      swap2\n      swap1\n      tag_145\n      jump\t// in\n    tag_267:\n        /* \"RSP.sol\":2249:2307  token.allowance(players[1], address(this)) >= STAKE_AMOUNT */\n      lt\n      iszero\n        /* \"RSP.sol\":2241:2340  require(token.allowance(players[1], address(this)) >= STAKE_AMOUNT, \"Player1 allowance not enough\") */\n      tag_268\n      jumpi\n      mload(0x40)\n      0x08c379a000000000000000000000000000000000000000000000000000000000\n      dup2\n      mstore\n      0x04\n      add\n      tag_269\n      swap1\n      tag_270\n      jump\t// in\n    tag_269:\n      mload(0x40)\n      dup1\n      swap2\n      sub\n      swap1\n      revert\n    tag_268:\n        /* \"RSP.sol\":2479:2492  bool success0 */\n      0x00\n        /* \"RSP.sol\":2495:2500  token */\n      0x09\n      0x00\n      swap1\n      sload\n      swap1\n      0x0100\n      exp\n      swap1\n      div\n      0xffffffffffffffffffffffffffffffffffffffff\n      and\n        /* \"RSP.sol\":2495:2513  token.transferFrom */\n      0xffffffffffffffffffffffffffffffffffffffff\n      and\n      0x23b872dd\n        /* \"RSP.sol\":2514:2521  players */\n      0x04\n        /* \"RSP.sol\":2522:2523  0 */\n      0x00\n        /* \"RSP.sol\":2514:2524  players[0] */\n      dup2\n      sload\n      dup2\n      lt\n      tag_271\n      jumpi\n      tag_272\n      tag_125\n      jump\t// in\n    tag_272:\n    tag_271:\n      swap1\n      0x00\n      mstore\n      keccak256(0x00, 0x20)\n      add\n      0x00\n      swap1\n      sload\n      swap1\n      0x0100\n      exp\n      swap1\n      div\n      0xffffffffffffffffffffffffffffffffffffffff\n      and\n        /* \"RSP.sol\":2534:2538  this */\n      address\n        /* \"RSP.sol\":847:853  10**12 */\n      0xe8d4a51000\n        /* \"RSP.sol\":2495:2554  token.transferFrom(players[0], address(this), STAKE_AMOUNT) */\n      mload(0x40)\n      dup5\n      0xffffffff\n      and\n      0xe0\n      shl\n      dup2\n      mstore\n      0x04\n      add\n      tag_274\n      swap4\n      swap3\n      swap2\n      swap1\n      tag_275\n      jump\t// in\n    tag_274:\n      0x20\n      mload(0x40)\n      dup1\n      dup4\n      sub\n      dup2\n      0x00\n      dup8\n      gas\n      call\n      iszero\n      dup1\n      iszero\n      tag_277\n      jumpi\n      returndatasize\n      0x00\n      dup1\n      returndatacopy\n      revert(0x00, returndatasize)\n    tag_277:\n      pop\n      pop\n      pop\n      pop\n      mload(0x40)\n      returndatasize\n      not(0x1f)\n      0x1f\n      dup3\n      add\n      and\n      dup3\n      add\n      dup1\n      0x40\n      mstore\n      pop\n      dup2\n      add\n      swap1\n      tag_278\n      swap2\n      swap1\n      tag_199\n      jump\t// in\n    tag_278:\n        /* \"RSP.sol\":2479:2554  bool success0 = token.transferFrom(players[0], address(this), STAKE_AMOUNT) */\n      swap1\n      pop\n        /* \"RSP.sol\":2569:2582  bool success1 */\n      0x00\n        /* \"RSP.sol\":2585:2590  token */\n      0x09\n      0x00\n      swap1\n      sload\n      swap1\n      0x0100\n      exp\n      swap1\n      div\n      0xffffffffffffffffffffffffffffffffffffffff\n      and\n        /* \"RSP.sol\":2585:2603  token.transferFrom */\n      0xffffffffffffffffffffffffffffffffffffffff\n      and\n      0x23b872dd\n        /* \"RSP.sol\":2604:2611  players */\n      0x04\n        /* \"RSP.sol\":2612:2613  1 */\n      0x01\n        /* \"RSP.sol\":2604:2614  players[1] */\n      dup2\n      sload\n      dup2\n      lt\n      tag_279\n      jumpi\n      tag_280\n      tag_125\n      jump\t// in\n    tag_280:\n    tag_279:\n      swap1\n      0x00\n      mstore\n      keccak256(0x00, 0x20)\n      add\n      0x00\n      swap1\n      sload\n      swap1\n      0x0100\n      exp\n      swap1\n      div\n      0xffffffffffffffffffffffffffffffffffffffff\n      and\n        /* \"RSP.sol\":2624:2628  this */\n      address\n        /* \"RSP.sol\":847:853  10**12 */\n      0xe8d4a51000\n        /* \"RSP.sol\":2585:2644  token.transferFrom(players[1], address(this), STAKE_AMOUNT) */\n      mload(0x40)\n      dup5\n      0xffffffff\n      and\n      0xe0\n      shl\n      dup2\n      mstore\n      0x04\n      add\n      tag_282\n      swap4\n      swap3\n      swap2\n      swap1\n      tag_275\n      jump\t// in\n    tag_282:\n      0x20\n      mload(0x40)\n      dup1\n      dup4\n      sub\n      dup2\n      0x00\n      dup8\n      gas\n      call\n      iszero\n      dup1\n      iszero\n      tag_284\n      jumpi\n      returndatasize\n      0x00\n      dup1\n      returndatacopy\n      revert(0x00, returndatasize)\n    tag_284:\n      pop\n      pop\n      pop\n      pop\n      mload(0x40)\n      returndatasize\n      not(0x1f)\n      0x1f\n      dup3\n      add\n      and\n      dup3\n      add\n      dup1\n      0x40\n      mstore\n      pop\n      dup2\n      add\n      swap1\n      tag_285\n      swap2\n      swap1\n      tag_199\n      jump\t// in\n    tag_285:\n        /* \"RSP.sol\":2569:2644  bool success1 = token.transferFrom(players[1], address(this), STAKE_AMOUNT) */\n      swap1\n      pop\n        /* \"RSP.sol\":2667:2675  success0 */\n      dup2\n        /* \"RSP.sol\":2667:2687  success0 && success1 */\n      dup1\n      iszero\n      tag_286\n      jumpi\n      pop\n        /* \"RSP.sol\":2679:2687  success1 */\n      dup1\n        /* \"RSP.sol\":2667:2687  success0 && success1 */\n    tag_286:\n        /* \"RSP.sol\":2659:2711  require(success0 && success1, \"transferFrom failed\") */\n      tag_287\n      jumpi\n      mload(0x40)\n      0x08c379a000000000000000000000000000000000000000000000000000000000\n      dup2\n      mstore\n      0x04\n      add\n      tag_288\n      swap1\n      tag_289\n      jump\t// in\n    tag_288:\n      mload(0x40)\n      dup1\n      swap2\n      sub\n      swap1\n      revert\n    tag_287:\n        /* \"RSP.sol\":2800:2801  2 */\n      0x02\n        /* \"RSP.sol\":847:853  10**12 */\n      0xe8d4a51000\n        /* \"RSP.sol\":2785:2801  STAKE_AMOUNT * 2 */\n      tag_290\n      swap2\n      swap1\n      tag_291\n      jump\t// in\n    tag_290:\n        /* \"RSP.sol\":2776:2782  reward */\n      0x01\n        /* \"RSP.sol\":2776:2801  reward = STAKE_AMOUNT * 2 */\n      dup2\n      swap1\n      sstore\n      pop\n        /* \"RSP.sol\":2816:2826  revealTime */\n      0x08\n      0x00\n      swap1\n      sload\n      swap1\n      0x0100\n      exp\n      swap1\n      div\n      0xffffffffffffffffffffffffffffffffffffffff\n      and\n        /* \"RSP.sol\":2816:2839  revealTime.setStartTime */\n      0xffffffffffffffffffffffffffffffffffffffff\n      and\n      0xa63f7c53\n        /* \"RSP.sol\":2816:2841  revealTime.setStartTime() */\n      mload(0x40)\n      dup2\n      0xffffffff\n      and\n      0xe0\n      shl\n      dup2\n      mstore\n      0x04\n      add\n      0x00\n      mload(0x40)\n      dup1\n      dup4\n      sub\n      dup2\n      0x00\n      dup8\n      dup1\n      extcodesize\n      iszero\n      dup1\n      iszero\n      tag_292\n      jumpi\n      0x00\n      dup1\n      revert\n    tag_292:\n      pop\n      gas\n      call\n      iszero\n      dup1\n      iszero\n      tag_294\n      jumpi\n      returndatasize\n      0x00\n      dup1\n      returndatacopy\n      revert(0x00, returndatasize)\n    tag_294:\n      pop\n      pop\n      pop\n      pop\n        /* \"RSP.sol\":2112:2853  {... */\n      pop\n      pop\n        /* \"RSP.sol\":2093:2853  if (numInput == 2) {... */\n    tag_249:\n        /* \"RSP.sol\":1761:2860  function input(bytes32 choice) public  {... */\n      pop\n      jump\t// out\n        /* \"RSP.sol\":449:499  mapping (address => bool) public player_not_reveal */\n    tag_100:\n      mstore(0x20, 0x06)\n      dup1\n      0x00\n      mstore\n      keccak256(0x00, 0x40)\n      0x00\n      swap2\n      pop\n      sload\n      swap1\n      0x0100\n      exp\n      swap1\n      div\n      0xff\n      and\n      dup2\n      jump\t// out\n        /* \"RSP.sol\":385:409  address[] public players */\n    tag_106:\n      0x04\n      dup2\n      dup2\n      sload\n      dup2\n      lt\n      tag_295\n      jumpi\n      0x00\n      dup1\n      revert\n    tag_295:\n      swap1\n      0x00\n      mstore\n      keccak256(0x00, 0x20)\n      add\n      0x00\n      swap2\n      pop\n      sload\n      swap1\n      0x0100\n      exp\n      swap1\n      div\n      0xffffffffffffffffffffffffffffffffffffffff\n      and\n      dup2\n      jump\t// out\n        /* \"RSP.sol\":808:853  uint256 public constant STAKE_AMOUNT = 10**12 */\n    tag_111:\n        /* \"RSP.sol\":847:853  10**12 */\n      0xe8d4a51000\n        /* \"RSP.sol\":808:853  uint256 public constant STAKE_AMOUNT = 10**12 */\n      dup2\n      jump\t// out\n        /* \"RSP.sol\":700:719  IERC20 public token */\n    tag_115:\n      0x09\n      0x00\n      swap1\n      sload\n      swap1\n      0x0100\n      exp\n      swap1\n      div\n      0xffffffffffffffffffffffffffffffffffffffff\n      and\n      dup2\n      jump\t// out\n        /* \"RSP.sol\":3475:4548  function _checkWinnerAndPay() private {... */\n    tag_165:\n        /* \"RSP.sol\":3524:3537  uint p0Choice */\n      0x00\n        /* \"RSP.sol\":3540:3553  player_choice */\n      0x02\n        /* \"RSP.sol\":3540:3565  player_choice[players[0]] */\n      0x00\n        /* \"RSP.sol\":3554:3561  players */\n      0x04\n        /* \"RSP.sol\":3562:3563  0 */\n      0x00\n        /* \"RSP.sol\":3554:3564  players[0] */\n      dup2\n      sload\n      dup2\n      lt\n      tag_298\n      jumpi\n      tag_299\n      tag_125\n      jump\t// in\n    tag_299:\n    tag_298:\n      swap1\n      0x00\n      mstore\n      keccak256(0x00, 0x20)\n      add\n      0x00\n      swap1\n      sload\n      swap1\n      0x0100\n      exp\n      swap1\n      div\n      0xffffffffffffffffffffffffffffffffffffffff\n      and\n        /* \"RSP.sol\":3540:3565  player_choice[players[0]] */\n      0xffffffffffffffffffffffffffffffffffffffff\n      and\n      0xffffffffffffffffffffffffffffffffffffffff\n      and\n      dup2\n      mstore\n      0x20\n      add\n      swap1\n      dup2\n      mstore\n      0x20\n      add\n      0x00\n      keccak256\n      sload\n        /* \"RSP.sol\":3524:3565  uint p0Choice = player_choice[players[0]] */\n      swap1\n      pop\n        /* \"RSP.sol\":3576:3589  uint p1Choice */\n      0x00\n        /* \"RSP.sol\":3592:3605  player_choice */\n      0x02\n        /* \"RSP.sol\":3592:3617  player_choice[players[1]] */\n      0x00\n        /* \"RSP.sol\":3606:3613  players */\n      0x04\n        /* \"RSP.sol\":3614:3615  1 */\n      0x01\n        /* \"RSP.sol\":3606:3616  players[1] */\n      dup2\n      sload\n      dup2\n      lt\n      tag_301\n      jumpi\n      tag_302\n      tag_125\n      jump\t// in\n    tag_302:\n    tag_301:\n      swap1\n      0x00\n      mstore\n      keccak256(0x00, 0x20)\n      add\n      0x00\n      swap1\n      sload\n      swap1\n      0x0100\n      exp\n      swap1\n      div\n      0xffffffffffffffffffffffffffffffffffffffff\n      and\n        /* \"RSP.sol\":3592:3617  player_choice[players[1]] */\n      0xffffffffffffffffffffffffffffffffffffffff\n      and\n      0xffffffffffffffffffffffffffffffffffffffff\n      and\n      dup2\n      mstore\n      0x20\n      add\n      swap1\n      dup2\n      mstore\n      0x20\n      add\n      0x00\n      keccak256\n      sload\n        /* \"RSP.sol\":3576:3617  uint p1Choice = player_choice[players[1]] */\n      swap1\n      pop\n        /* \"RSP.sol\":3628:3644  address account0 */\n      0x00\n        /* \"RSP.sol\":3647:3654  players */\n      0x04\n        /* \"RSP.sol\":3655:3656  0 */\n      0x00\n        /* \"RSP.sol\":3647:3657  players[0] */\n      dup2\n      sload\n      dup2\n      lt\n      tag_304\n      jumpi\n      tag_305\n      tag_125\n      jump\t// in\n    tag_305:\n    tag_304:\n      swap1\n      0x00\n      mstore\n      keccak256(0x00, 0x20)\n      add\n      0x00\n      swap1\n      sload\n      swap1\n      0x0100\n      exp\n      swap1\n      div\n      0xffffffffffffffffffffffffffffffffffffffff\n      and\n        /* \"RSP.sol\":3628:3657  address account0 = players[0] */\n      swap1\n      pop\n        /* \"RSP.sol\":3668:3684  address account1 */\n      0x00\n        /* \"RSP.sol\":3687:3694  players */\n      0x04\n        /* \"RSP.sol\":3695:3696  1 */\n      0x01\n        /* \"RSP.sol\":3687:3697  players[1] */\n      dup2\n      sload\n      dup2\n      lt\n      tag_307\n      jumpi\n      tag_308\n      tag_125\n      jump\t// in\n    tag_308:\n    tag_307:\n      swap1\n      0x00\n      mstore\n      keccak256(0x00, 0x20)\n      add\n      0x00\n      swap1\n      sload\n      swap1\n      0x0100\n      exp\n      swap1\n      div\n      0xffffffffffffffffffffffffffffffffffffffff\n      and\n        /* \"RSP.sol\":3668:3697  address account1 = players[1] */\n      swap1\n      pop\n        /* \"RSP.sol\":4047:4055  p1Choice */\n      dup3\n        /* \"RSP.sol\":4042:4043  5 */\n      0x05\n        /* \"RSP.sol\":4037:4038  1 */\n      0x01\n        /* \"RSP.sol\":4026:4034  p0Choice */\n      dup7\n        /* \"RSP.sol\":4026:4038  p0Choice + 1 */\n      tag_310\n      swap2\n      swap1\n      tag_311\n      jump\t// in\n    tag_310:\n        /* \"RSP.sol\":4025:4043  (p0Choice + 1) % 5 */\n      tag_312\n      swap2\n      swap1\n      tag_313\n      jump\t// in\n    tag_312:\n        /* \"RSP.sol\":4025:4055  (p0Choice + 1) % 5 == p1Choice */\n      eq\n        /* \"RSP.sol\":4025:4089  (p0Choice + 1) % 5 == p1Choice || (p0Choice + 3) % 5 == p1Choice */\n      dup1\n      tag_314\n      jumpi\n      pop\n        /* \"RSP.sol\":4081:4089  p1Choice */\n      dup3\n        /* \"RSP.sol\":4076:4077  5 */\n      0x05\n        /* \"RSP.sol\":4071:4072  3 */\n      0x03\n        /* \"RSP.sol\":4060:4068  p0Choice */\n      dup7\n        /* \"RSP.sol\":4060:4072  p0Choice + 3 */\n      tag_315\n      swap2\n      swap1\n      tag_311\n      jump\t// in\n    tag_315:\n        /* \"RSP.sol\":4059:4077  (p0Choice + 3) % 5 */\n      tag_316\n      swap2\n      swap1\n      tag_313\n      jump\t// in\n    tag_316:\n        /* \"RSP.sol\":4059:4089  (p0Choice + 3) % 5 == p1Choice */\n      eq\n        /* \"RSP.sol\":4025:4089  (p0Choice + 1) % 5 == p1Choice || (p0Choice + 3) % 5 == p1Choice */\n    tag_314:\n        /* \"RSP.sol\":4021:4520  if ((p0Choice + 1) % 5 == p1Choice || (p0Choice + 3) % 5 == p1Choice) {... */\n      iszero\n      tag_317\n      jumpi\n        /* \"RSP.sol\":4142:4147  token */\n      0x09\n      0x00\n      swap1\n      sload\n      swap1\n      0x0100\n      exp\n      swap1\n      div\n      0xffffffffffffffffffffffffffffffffffffffff\n      and\n        /* \"RSP.sol\":4142:4156  token.transfer */\n      0xffffffffffffffffffffffffffffffffffffffff\n      and\n      0xa9059cbb\n        /* \"RSP.sol\":4157:4165  account1 */\n      dup3\n        /* \"RSP.sol\":4167:4173  reward */\n      sload(0x01)\n        /* \"RSP.sol\":4142:4174  token.transfer(account1, reward) */\n      mload(0x40)\n      dup4\n      0xffffffff\n      and\n      0xe0\n      shl\n      dup2\n      mstore\n      0x04\n      add\n      tag_318\n      swap3\n      swap2\n      swap1\n      tag_195\n      jump\t// in\n    tag_318:\n      0x20\n      mload(0x40)\n      dup1\n      dup4\n      sub\n      dup2\n      0x00\n      dup8\n      gas\n      call\n      iszero\n      dup1\n      iszero\n      tag_320\n      jumpi\n      returndatasize\n      0x00\n      dup1\n      returndatacopy\n      revert(0x00, returndatasize)\n    tag_320:\n      pop\n      pop\n      pop\n      pop\n      mload(0x40)\n      returndatasize\n      not(0x1f)\n      0x1f\n      dup3\n      add\n      and\n      dup3\n      add\n      dup1\n      0x40\n      mstore\n      pop\n      dup2\n      add\n      swap1\n      tag_321\n      swap2\n      swap1\n      tag_199\n      jump\t// in\n    tag_321:\n      pop\n        /* \"RSP.sol\":4021:4520  if ((p0Choice + 1) % 5 == p1Choice || (p0Choice + 3) % 5 == p1Choice) {... */\n      jump(tag_322)\n    tag_317:\n        /* \"RSP.sol\":4217:4225  p0Choice */\n      dup4\n        /* \"RSP.sol\":4205:4213  p1Choice */\n      dup4\n        /* \"RSP.sol\":4205:4225  p1Choice == p0Choice */\n      sub\n        /* \"RSP.sol\":4201:4520  if (p1Choice == p0Choice) {... */\n      tag_323\n      jumpi\n        /* \"RSP.sol\":4311:4316  token */\n      0x09\n      0x00\n      swap1\n      sload\n      swap1\n      0x0100\n      exp\n      swap1\n      div\n      0xffffffffffffffffffffffffffffffffffffffff\n      and\n        /* \"RSP.sol\":4311:4325  token.transfer */\n      0xffffffffffffffffffffffffffffffffffffffff\n      and\n      0xa9059cbb\n        /* \"RSP.sol\":4326:4334  account0 */\n      dup4\n        /* \"RSP.sol\":4345:4346  2 */\n      0x02\n        /* \"RSP.sol\":4336:4342  reward */\n      sload(0x01)\n        /* \"RSP.sol\":4336:4346  reward / 2 */\n      tag_324\n      swap2\n      swap1\n      tag_325\n      jump\t// in\n    tag_324:\n        /* \"RSP.sol\":4311:4347  token.transfer(account0, reward / 2) */\n      mload(0x40)\n      dup4\n      0xffffffff\n      and\n      0xe0\n      shl\n      dup2\n      mstore\n      0x04\n      add\n      tag_326\n      swap3\n      swap2\n      swap1\n      tag_195\n      jump\t// in\n    tag_326:\n      0x20\n      mload(0x40)\n      dup1\n      dup4\n      sub\n      dup2\n      0x00\n      dup8\n      gas\n      call\n      iszero\n      dup1\n      iszero\n      tag_328\n      jumpi\n      returndatasize\n      0x00\n      dup1\n      returndatacopy\n      revert(0x00, returndatasize)\n    tag_328:\n      pop\n      pop\n      pop\n      pop\n      mload(0x40)\n      returndatasize\n      not(0x1f)\n      0x1f\n      dup3\n      add\n      and\n      dup3\n      add\n      dup1\n      0x40\n      mstore\n      pop\n      dup2\n      add\n      swap1\n      tag_329\n      swap2\n      swap1\n      tag_199\n      jump\t// in\n    tag_329:\n      pop\n        /* \"RSP.sol\":4362:4367  token */\n      0x09\n      0x00\n      swap1\n      sload\n      swap1\n      0x0100\n      exp\n      swap1\n      div\n      0xffffffffffffffffffffffffffffffffffffffff\n      and\n        /* \"RSP.sol\":4362:4376  token.transfer */\n      0xffffffffffffffffffffffffffffffffffffffff\n      and\n      0xa9059cbb\n        /* \"RSP.sol\":4377:4385  account1 */\n      dup3\n        /* \"RSP.sol\":4396:4397  2 */\n      0x02\n        /* \"RSP.sol\":4387:4393  reward */\n      sload(0x01)\n        /* \"RSP.sol\":4387:4397  reward / 2 */\n      tag_330\n      swap2\n      swap1\n      tag_325\n      jump\t// in\n    tag_330:\n        /* \"RSP.sol\":4362:4398  token.transfer(account1, reward / 2) */\n      mload(0x40)\n      dup4\n      0xffffffff\n      and\n      0xe0\n      shl\n      dup2\n      mstore\n      0x04\n      add\n      tag_331\n      swap3\n      swap2\n      swap1\n      tag_195\n      jump\t// in\n    tag_331:\n      0x20\n      mload(0x40)\n      dup1\n      dup4\n      sub\n      dup2\n      0x00\n      dup8\n      gas\n      call\n      iszero\n      dup1\n      iszero\n      tag_333\n      jumpi\n      returndatasize\n      0x00\n      dup1\n      returndatacopy\n      revert(0x00, returndatasize)\n    tag_333:\n      pop\n      pop\n      pop\n      pop\n      mload(0x40)\n      returndatasize\n      not(0x1f)\n      0x1f\n      dup3\n      add\n      and\n      dup3\n      add\n      dup1\n      0x40\n      mstore\n      pop\n      dup2\n      add\n      swap1\n      tag_334\n      swap2\n      swap1\n      tag_199\n      jump\t// in\n    tag_334:\n      pop\n        /* \"RSP.sol\":4201:4520  if (p1Choice == p0Choice) {... */\n      jump(tag_335)\n    tag_323:\n        /* \"RSP.sol\":4476:4481  token */\n      0x09\n      0x00\n      swap1\n      sload\n      swap1\n      0x0100\n      exp\n      swap1\n      div\n      0xffffffffffffffffffffffffffffffffffffffff\n      and\n        /* \"RSP.sol\":4476:4490  token.transfer */\n      0xffffffffffffffffffffffffffffffffffffffff\n      and\n      0xa9059cbb\n        /* \"RSP.sol\":4491:4499  account0 */\n      dup4\n        /* \"RSP.sol\":4501:4507  reward */\n      sload(0x01)\n        /* \"RSP.sol\":4476:4508  token.transfer(account0, reward) */\n      mload(0x40)\n      dup4\n      0xffffffff\n      and\n      0xe0\n      shl\n      dup2\n      mstore\n      0x04\n      add\n      tag_336\n      swap3\n      swap2\n      swap1\n      tag_195\n      jump\t// in\n    tag_336:\n      0x20\n      mload(0x40)\n      dup1\n      dup4\n      sub\n      dup2\n      0x00\n      dup8\n      gas\n      call\n      iszero\n      dup1\n      iszero\n      tag_338\n      jumpi\n      returndatasize\n      0x00\n      dup1\n      returndatacopy\n      revert(0x00, returndatasize)\n    tag_338:\n      pop\n      pop\n      pop\n      pop\n      mload(0x40)\n      returndatasize\n      not(0x1f)\n      0x1f\n      dup3\n      add\n      and\n      dup3\n      add\n      dup1\n      0x40\n      mstore\n      pop\n      dup2\n      add\n      swap1\n      tag_339\n      swap2\n      swap1\n      tag_199\n      jump\t// in\n    tag_339:\n      pop\n        /* \"RSP.sol\":4201:4520  if (p1Choice == p0Choice) {... */\n    tag_335:\n        /* \"RSP.sol\":4021:4520  if ((p0Choice + 1) % 5 == p1Choice || (p0Choice + 3) % 5 == p1Choice) {... */\n    tag_322:\n        /* \"RSP.sol\":4532:4540  _reset() */\n      tag_340\n        /* \"RSP.sol\":4532:4538  _reset */\n      tag_228\n        /* \"RSP.sol\":4532:4540  _reset() */\n      jump\t// in\n    tag_340:\n        /* \"RSP.sol\":3513:4548  {... */\n      pop\n      pop\n      pop\n      pop\n        /* \"RSP.sol\":3475:4548  function _checkWinnerAndPay() private {... */\n      jump\t// out\n        /* \"RSP.sol\":7050:7426  function _reset() private {... */\n    tag_228:\n        /* \"RSP.sol\":7092:7098  uint i */\n      0x00\n        /* \"RSP.sol\":7087:7326  for (uint i = 0; i < players.length; i++) {... */\n    tag_342:\n        /* \"RSP.sol\":7108:7115  players */\n      0x04\n        /* \"RSP.sol\":7108:7122  players.length */\n      dup1\n      sload\n      swap1\n      pop\n        /* \"RSP.sol\":7104:7105  i */\n      dup2\n        /* \"RSP.sol\":7104:7122  i < players.length */\n      lt\n        /* \"RSP.sol\":7087:7326  for (uint i = 0; i < players.length; i++) {... */\n      iszero\n      tag_343\n      jumpi\n        /* \"RSP.sol\":7151:7168  player_not_played */\n      0x03\n        /* \"RSP.sol\":7151:7180  player_not_played[players[i]] */\n      0x00\n        /* \"RSP.sol\":7169:7176  players */\n      0x04\n        /* \"RSP.sol\":7177:7178  i */\n      dup4\n        /* \"RSP.sol\":7169:7179  players[i] */\n      dup2\n      sload\n      dup2\n      lt\n      tag_345\n      jumpi\n      tag_346\n      tag_125\n      jump\t// in\n    tag_346:\n    tag_345:\n      swap1\n      0x00\n      mstore\n      keccak256(0x00, 0x20)\n      add\n      0x00\n      swap1\n      sload\n      swap1\n      0x0100\n      exp\n      swap1\n      div\n      0xffffffffffffffffffffffffffffffffffffffff\n      and\n        /* \"RSP.sol\":7151:7180  player_not_played[players[i]] */\n      0xffffffffffffffffffffffffffffffffffffffff\n      and\n      0xffffffffffffffffffffffffffffffffffffffff\n      and\n      dup2\n      mstore\n      0x20\n      add\n      swap1\n      dup2\n      mstore\n      0x20\n      add\n      0x00\n      keccak256\n      0x00\n        /* \"RSP.sol\":7144:7180  delete player_not_played[players[i]] */\n      0x0100\n      exp\n      dup2\n      sload\n      swap1\n      0xff\n      mul\n      not\n      and\n      swap1\n      sstore\n        /* \"RSP.sol\":7202:7215  player_choice */\n      0x02\n        /* \"RSP.sol\":7202:7227  player_choice[players[i]] */\n      0x00\n        /* \"RSP.sol\":7216:7223  players */\n      0x04\n        /* \"RSP.sol\":7224:7225  i */\n      dup4\n        /* \"RSP.sol\":7216:7226  players[i] */\n      dup2\n      sload\n      dup2\n      lt\n      tag_348\n      jumpi\n      tag_349\n      tag_125\n      jump\t// in\n    tag_349:\n    tag_348:\n      swap1\n      0x00\n      mstore\n      keccak256(0x00, 0x20)\n      add\n      0x00\n      swap1\n      sload\n      swap1\n      0x0100\n      exp\n      swap1\n      div\n      0xffffffffffffffffffffffffffffffffffffffff\n      and\n        /* \"RSP.sol\":7202:7227  player_choice[players[i]] */\n      0xffffffffffffffffffffffffffffffffffffffff\n      and\n      0xffffffffffffffffffffffffffffffffffffffff\n      and\n      dup2\n      mstore\n      0x20\n      add\n      swap1\n      dup2\n      mstore\n      0x20\n      add\n      0x00\n      keccak256\n        /* \"RSP.sol\":7195:7227  delete player_choice[players[i]] */\n      0x00\n      swap1\n      sstore\n        /* \"RSP.sol\":7249:7266  player_not_reveal */\n      0x06\n        /* \"RSP.sol\":7249:7278  player_not_reveal[players[i]] */\n      0x00\n        /* \"RSP.sol\":7267:7274  players */\n      0x04\n        /* \"RSP.sol\":7275:7276  i */\n      dup4\n        /* \"RSP.sol\":7267:7277  players[i] */\n      dup2\n      sload\n      dup2\n      lt\n      tag_351\n      jumpi\n      tag_352\n      tag_125\n      jump\t// in\n    tag_352:\n    tag_351:\n      swap1\n      0x00\n      mstore\n      keccak256(0x00, 0x20)\n      add\n      0x00\n      swap1\n      sload\n      swap1\n      0x0100\n      exp\n      swap1\n      div\n      0xffffffffffffffffffffffffffffffffffffffff\n      and\n        /* \"RSP.sol\":7249:7278  player_not_reveal[players[i]] */\n      0xffffffffffffffffffffffffffffffffffffffff\n      and\n      0xffffffffffffffffffffffffffffffffffffffff\n      and\n      dup2\n      mstore\n      0x20\n      add\n      swap1\n      dup2\n      mstore\n      0x20\n      add\n      0x00\n      keccak256\n      0x00\n        /* \"RSP.sol\":7242:7278  delete player_not_reveal[players[i]] */\n      0x0100\n      exp\n      dup2\n      sload\n      swap1\n      0xff\n      mul\n      not\n      and\n      swap1\n      sstore\n        /* \"RSP.sol\":7300:7302  cr */\n      0x0b\n        /* \"RSP.sol\":7300:7314  cr[players[i]] */\n      0x00\n        /* \"RSP.sol\":7303:7310  players */\n      0x04\n        /* \"RSP.sol\":7311:7312  i */\n      dup4\n        /* \"RSP.sol\":7303:7313  players[i] */\n      dup2\n      sload\n      dup2\n      lt\n      tag_354\n      jumpi\n      tag_355\n      tag_125\n      jump\t// in\n    tag_355:\n    tag_354:\n      swap1\n      0x00\n      mstore\n      keccak256(0x00, 0x20)\n      add\n      0x00\n      swap1\n      sload\n      swap1\n      0x0100\n      exp\n      swap1\n      div\n      0xffffffffffffffffffffffffffffffffffffffff\n      and\n        /* \"RSP.sol\":7300:7314  cr[players[i]] */\n      0xffffffffffffffffffffffffffffffffffffffff\n      and\n      0xffffffffffffffffffffffffffffffffffffffff\n      and\n      dup2\n      mstore\n      0x20\n      add\n      swap1\n      dup2\n      mstore\n      0x20\n      add\n      0x00\n      keccak256\n      0x00\n        /* \"RSP.sol\":7293:7314  delete cr[players[i]] */\n      0x0100\n      exp\n      dup2\n      sload\n      swap1\n      0xffffffffffffffffffffffffffffffffffffffff\n      mul\n      not\n      and\n      swap1\n      sstore\n        /* \"RSP.sol\":7124:7127  i++ */\n      dup1\n      dup1\n      0x01\n      add\n      swap2\n      pop\n      pop\n        /* \"RSP.sol\":7087:7326  for (uint i = 0; i < players.length; i++) {... */\n      jump(tag_342)\n    tag_343:\n      pop\n        /* \"RSP.sol\":7343:7350  players */\n      0x04\n      0x00\n        /* \"RSP.sol\":7336:7350  delete players */\n      tag_357\n      swap2\n      swap1\n      tag_358\n      jump\t// in\n    tag_357:\n        /* \"RSP.sol\":7373:7374  0 */\n      0x00\n        /* \"RSP.sol\":7361:7370  numPlayer */\n      dup1\n        /* \"RSP.sol\":7361:7374  numPlayer = 0 */\n      dup2\n      swap1\n      sstore\n      pop\n        /* \"RSP.sol\":7396:7397  0 */\n      0x00\n        /* \"RSP.sol\":7385:7393  numInput */\n      0x0a\n        /* \"RSP.sol\":7385:7397  numInput = 0 */\n      dup2\n      swap1\n      sstore\n      pop\n        /* \"RSP.sol\":7417:7418  0 */\n      0x00\n        /* \"RSP.sol\":7408:7414  reward */\n      0x01\n        /* \"RSP.sol\":7408:7418  reward = 0 */\n      dup2\n      swap1\n      sstore\n      pop\n        /* \"RSP.sol\":7050:7426  function _reset() private {... */\n      jump\t// out\n    tag_134:\n      dataSize(sub_0)\n      dup1\n      dataOffset(sub_0)\n      dup4\n      codecopy\n      add\n      swap1\n      jump\t// out\n    tag_358:\n      pop\n      dup1\n      sload\n      0x00\n      dup3\n      sstore\n      swap1\n      0x00\n      mstore\n      keccak256(0x00, 0x20)\n      swap1\n      dup2\n      add\n      swap1\n      tag_360\n      swap2\n      swap1\n      tag_361\n      jump\t// in\n    tag_360:\n      pop\n      jump\t// out\n    tag_361:\n    tag_362:\n      dup1\n      dup3\n      gt\n      iszero\n      tag_363\n      jumpi\n      0x00\n      dup2\n      0x00\n      swap1\n      sstore\n      pop\n      0x01\n      add\n      jump(tag_362)\n    tag_363:\n      pop\n      swap1\n      jump\t// out\n        /* \"#utility.yul\":7:84   */\n    tag_364:\n        /* \"#utility.yul\":44:51   */\n      0x00\n        /* \"#utility.yul\":73:78   */\n      dup2\n        /* \"#utility.yul\":62:78   */\n      swap1\n      pop\n        /* \"#utility.yul\":7:84   */\n      swap2\n      swap1\n      pop\n      jump\t// out\n        /* \"#utility.yul\":90:208   */\n    tag_365:\n        /* \"#utility.yul\":177:201   */\n      tag_429\n        /* \"#utility.yul\":195:200   */\n      dup2\n        /* \"#utility.yul\":177:201   */\n      tag_364\n      jump\t// in\n    tag_429:\n        /* \"#utility.yul\":172:175   */\n      dup3\n        /* \"#utility.yul\":165:202   */\n      mstore\n        /* \"#utility.yul\":90:208   */\n      pop\n      pop\n      jump\t// out\n        /* \"#utility.yul\":214:436   */\n    tag_29:\n        /* \"#utility.yul\":307:311   */\n      0x00\n        /* \"#utility.yul\":345:347   */\n      0x20\n        /* \"#utility.yul\":334:343   */\n      dup3\n        /* \"#utility.yul\":330:348   */\n      add\n        /* \"#utility.yul\":322:348   */\n      swap1\n      pop\n        /* \"#utility.yul\":358:429   */\n      tag_431\n        /* \"#utility.yul\":426:427   */\n      0x00\n        /* \"#utility.yul\":415:424   */\n      dup4\n        /* \"#utility.yul\":411:428   */\n      add\n        /* \"#utility.yul\":402:408   */\n      dup5\n        /* \"#utility.yul\":358:429   */\n      tag_365\n      jump\t// in\n    tag_431:\n        /* \"#utility.yul\":214:436   */\n      swap3\n      swap2\n      pop\n      pop\n      jump\t// out\n        /* \"#utility.yul\":523:640   */\n    tag_367:\n        /* \"#utility.yul\":632:633   */\n      0x00\n        /* \"#utility.yul\":629:630   */\n      dup1\n        /* \"#utility.yul\":622:634   */\n      revert\n        /* \"#utility.yul\":769:895   */\n    tag_369:\n        /* \"#utility.yul\":806:813   */\n      0x00\n        /* \"#utility.yul\":846:888   */\n      0xffffffffffffffffffffffffffffffffffffffff\n        /* \"#utility.yul\":839:844   */\n      dup3\n        /* \"#utility.yul\":835:889   */\n      and\n        /* \"#utility.yul\":824:889   */\n      swap1\n      pop\n        /* \"#utility.yul\":769:895   */\n      swap2\n      swap1\n      pop\n      jump\t// out\n        /* \"#utility.yul\":901:997   */\n    tag_370:\n        /* \"#utility.yul\":938:945   */\n      0x00\n        /* \"#utility.yul\":967:991   */\n      tag_437\n        /* \"#utility.yul\":985:990   */\n      dup3\n        /* \"#utility.yul\":967:991   */\n      tag_369\n      jump\t// in\n    tag_437:\n        /* \"#utility.yul\":956:991   */\n      swap1\n      pop\n        /* \"#utility.yul\":901:997   */\n      swap2\n      swap1\n      pop\n      jump\t// out\n        /* \"#utility.yul\":1003:1125   */\n    tag_371:\n        /* \"#utility.yul\":1076:1100   */\n      tag_439\n        /* \"#utility.yul\":1094:1099   */\n      dup2\n        /* \"#utility.yul\":1076:1100   */\n      tag_370\n      jump\t// in\n    tag_439:\n        /* \"#utility.yul\":1069:1074   */\n      dup2\n        /* \"#utility.yul\":1066:1101   */\n      eq\n        /* \"#utility.yul\":1056:1119   */\n      tag_440\n      jumpi\n        /* \"#utility.yul\":1115:1116   */\n      0x00\n        /* \"#utility.yul\":1112:1113   */\n      dup1\n        /* \"#utility.yul\":1105:1117   */\n      revert\n        /* \"#utility.yul\":1056:1119   */\n    tag_440:\n        /* \"#utility.yul\":1003:1125   */\n      pop\n      jump\t// out\n        /* \"#utility.yul\":1131:1270   */\n    tag_372:\n        /* \"#utility.yul\":1177:1182   */\n      0x00\n        /* \"#utility.yul\":1215:1221   */\n      dup2\n        /* \"#utility.yul\":1202:1222   */\n      calldataload\n        /* \"#utility.yul\":1193:1222   */\n      swap1\n      pop\n        /* \"#utility.yul\":1231:1264   */\n      tag_442\n        /* \"#utility.yul\":1258:1263   */\n      dup2\n        /* \"#utility.yul\":1231:1264   */\n      tag_371\n      jump\t// in\n    tag_442:\n        /* \"#utility.yul\":1131:1270   */\n      swap3\n      swap2\n      pop\n      pop\n      jump\t// out\n        /* \"#utility.yul\":1276:1605   */\n    tag_37:\n        /* \"#utility.yul\":1335:1341   */\n      0x00\n        /* \"#utility.yul\":1384:1386   */\n      0x20\n        /* \"#utility.yul\":1372:1381   */\n      dup3\n        /* \"#utility.yul\":1363:1370   */\n      dup5\n        /* \"#utility.yul\":1359:1382   */\n      sub\n        /* \"#utility.yul\":1355:1387   */\n      slt\n        /* \"#utility.yul\":1352:1471   */\n      iszero\n      tag_444\n      jumpi\n        /* \"#utility.yul\":1390:1469   */\n      tag_445\n      tag_367\n      jump\t// in\n    tag_445:\n        /* \"#utility.yul\":1352:1471   */\n    tag_444:\n        /* \"#utility.yul\":1510:1511   */\n      0x00\n        /* \"#utility.yul\":1535:1588   */\n      tag_446\n        /* \"#utility.yul\":1580:1587   */\n      dup5\n        /* \"#utility.yul\":1571:1577   */\n      dup3\n        /* \"#utility.yul\":1560:1569   */\n      dup6\n        /* \"#utility.yul\":1556:1578   */\n      add\n        /* \"#utility.yul\":1535:1588   */\n      tag_372\n      jump\t// in\n    tag_446:\n        /* \"#utility.yul\":1525:1588   */\n      swap2\n      pop\n        /* \"#utility.yul\":1481:1598   */\n      pop\n        /* \"#utility.yul\":1276:1605   */\n      swap3\n      swap2\n      pop\n      pop\n      jump\t// out\n        /* \"#utility.yul\":1611:1701   */\n    tag_373:\n        /* \"#utility.yul\":1645:1652   */\n      0x00\n        /* \"#utility.yul\":1688:1693   */\n      dup2\n        /* \"#utility.yul\":1681:1694   */\n      iszero\n        /* \"#utility.yul\":1674:1695   */\n      iszero\n        /* \"#utility.yul\":1663:1695   */\n      swap1\n      pop\n        /* \"#utility.yul\":1611:1701   */\n      swap2\n      swap1\n      pop\n      jump\t// out\n        /* \"#utility.yul\":1707:1816   */\n    tag_374:\n        /* \"#utility.yul\":1788:1809   */\n      tag_449\n        /* \"#utility.yul\":1803:1808   */\n      dup2\n        /* \"#utility.yul\":1788:1809   */\n      tag_373\n      jump\t// in\n    tag_449:\n        /* \"#utility.yul\":1783:1786   */\n      dup3\n        /* \"#utility.yul\":1776:1810   */\n      mstore\n        /* \"#utility.yul\":1707:1816   */\n      pop\n      pop\n      jump\t// out\n        /* \"#utility.yul\":1822:2032   */\n    tag_40:\n        /* \"#utility.yul\":1909:1913   */\n      0x00\n        /* \"#utility.yul\":1947:1949   */\n      0x20\n        /* \"#utility.yul\":1936:1945   */\n      dup3\n        /* \"#utility.yul\":1932:1950   */\n      add\n        /* \"#utility.yul\":1924:1950   */\n      swap1\n      pop\n        /* \"#utility.yul\":1960:2025   */\n      tag_451\n        /* \"#utility.yul\":2022:2023   */\n      0x00\n        /* \"#utility.yul\":2011:2020   */\n      dup4\n        /* \"#utility.yul\":2007:2024   */\n      add\n        /* \"#utility.yul\":1998:2004   */\n      dup5\n        /* \"#utility.yul\":1960:2025   */\n      tag_374\n      jump\t// in\n    tag_451:\n        /* \"#utility.yul\":1822:2032   */\n      swap3\n      swap2\n      pop\n      pop\n      jump\t// out\n        /* \"#utility.yul\":2038:2098   */\n    tag_375:\n        /* \"#utility.yul\":2066:2069   */\n      0x00\n        /* \"#utility.yul\":2087:2092   */\n      dup2\n        /* \"#utility.yul\":2080:2092   */\n      swap1\n      pop\n        /* \"#utility.yul\":2038:2098   */\n      swap2\n      swap1\n      pop\n      jump\t// out\n        /* \"#utility.yul\":2104:2246   */\n    tag_376:\n        /* \"#utility.yul\":2154:2163   */\n      0x00\n        /* \"#utility.yul\":2187:2240   */\n      tag_454\n        /* \"#utility.yul\":2205:2239   */\n      tag_455\n        /* \"#utility.yul\":2214:2238   */\n      tag_456\n        /* \"#utility.yul\":2232:2237   */\n      dup5\n        /* \"#utility.yul\":2214:2238   */\n      tag_369\n      jump\t// in\n    tag_456:\n        /* \"#utility.yul\":2205:2239   */\n      tag_375\n      jump\t// in\n    tag_455:\n        /* \"#utility.yul\":2187:2240   */\n      tag_369\n      jump\t// in\n    tag_454:\n        /* \"#utility.yul\":2174:2240   */\n      swap1\n      pop\n        /* \"#utility.yul\":2104:2246   */\n      swap2\n      swap1\n      pop\n      jump\t// out\n        /* \"#utility.yul\":2252:2378   */\n    tag_377:\n        /* \"#utility.yul\":2302:2311   */\n      0x00\n        /* \"#utility.yul\":2335:2372   */\n      tag_458\n        /* \"#utility.yul\":2366:2371   */\n      dup3\n        /* \"#utility.yul\":2335:2372   */\n      tag_376\n      jump\t// in\n    tag_458:\n        /* \"#utility.yul\":2322:2372   */\n      swap1\n      pop\n        /* \"#utility.yul\":2252:2378   */\n      swap2\n      swap1\n      pop\n      jump\t// out\n        /* \"#utility.yul\":2384:2530   */\n    tag_378:\n        /* \"#utility.yul\":2454:2463   */\n      0x00\n        /* \"#utility.yul\":2487:2524   */\n      tag_460\n        /* \"#utility.yul\":2518:2523   */\n      dup3\n        /* \"#utility.yul\":2487:2524   */\n      tag_377\n      jump\t// in\n    tag_460:\n        /* \"#utility.yul\":2474:2524   */\n      swap1\n      pop\n        /* \"#utility.yul\":2384:2530   */\n      swap2\n      swap1\n      pop\n      jump\t// out\n        /* \"#utility.yul\":2536:2707   */\n    tag_379:\n        /* \"#utility.yul\":2643:2700   */\n      tag_462\n        /* \"#utility.yul\":2694:2699   */\n      dup2\n        /* \"#utility.yul\":2643:2700   */\n      tag_378\n      jump\t// in\n    tag_462:\n        /* \"#utility.yul\":2638:2641   */\n      dup3\n        /* \"#utility.yul\":2631:2701   */\n      mstore\n        /* \"#utility.yul\":2536:2707   */\n      pop\n      pop\n      jump\t// out\n        /* \"#utility.yul\":2713:2975   */\n    tag_56:\n        /* \"#utility.yul\":2826:2830   */\n      0x00\n        /* \"#utility.yul\":2864:2866   */\n      0x20\n        /* \"#utility.yul\":2853:2862   */\n      dup3\n        /* \"#utility.yul\":2849:2867   */\n      add\n        /* \"#utility.yul\":2841:2867   */\n      swap1\n      pop\n        /* \"#utility.yul\":2877:2968   */\n      tag_464\n        /* \"#utility.yul\":2965:2966   */\n      0x00\n        /* \"#utility.yul\":2954:2963   */\n      dup4\n        /* \"#utility.yul\":2950:2967   */\n      add\n        /* \"#utility.yul\":2941:2947   */\n      dup5\n        /* \"#utility.yul\":2877:2968   */\n      tag_379\n      jump\t// in\n    tag_464:\n        /* \"#utility.yul\":2713:2975   */\n      swap3\n      swap2\n      pop\n      pop\n      jump\t// out\n        /* \"#utility.yul\":2981:3123   */\n    tag_380:\n        /* \"#utility.yul\":3047:3056   */\n      0x00\n        /* \"#utility.yul\":3080:3117   */\n      tag_466\n        /* \"#utility.yul\":3111:3116   */\n      dup3\n        /* \"#utility.yul\":3080:3117   */\n      tag_377\n      jump\t// in\n    tag_466:\n        /* \"#utility.yul\":3067:3117   */\n      swap1\n      pop\n        /* \"#utility.yul\":2981:3123   */\n      swap2\n      swap1\n      pop\n      jump\t// out\n        /* \"#utility.yul\":3129:3292   */\n    tag_381:\n        /* \"#utility.yul\":3232:3285   */\n      tag_468\n        /* \"#utility.yul\":3279:3284   */\n      dup2\n        /* \"#utility.yul\":3232:3285   */\n      tag_380\n      jump\t// in\n    tag_468:\n        /* \"#utility.yul\":3227:3230   */\n      dup3\n        /* \"#utility.yul\":3220:3286   */\n      mstore\n        /* \"#utility.yul\":3129:3292   */\n      pop\n      pop\n      jump\t// out\n        /* \"#utility.yul\":3298:3552   */\n    tag_61:\n        /* \"#utility.yul\":3407:3411   */\n      0x00\n        /* \"#utility.yul\":3445:3447   */\n      0x20\n        /* \"#utility.yul\":3434:3443   */\n      dup3\n        /* \"#utility.yul\":3430:3448   */\n      add\n        /* \"#utility.yul\":3422:3448   */\n      swap1\n      pop\n        /* \"#utility.yul\":3458:3545   */\n      tag_470\n        /* \"#utility.yul\":3542:3543   */\n      0x00\n        /* \"#utility.yul\":3531:3540   */\n      dup4\n        /* \"#utility.yul\":3527:3544   */\n      add\n        /* \"#utility.yul\":3518:3524   */\n      dup5\n        /* \"#utility.yul\":3458:3545   */\n      tag_381\n      jump\t// in\n    tag_470:\n        /* \"#utility.yul\":3298:3552   */\n      swap3\n      swap2\n      pop\n      pop\n      jump\t// out\n        /* \"#utility.yul\":3558:3635   */\n    tag_382:\n        /* \"#utility.yul\":3595:3602   */\n      0x00\n        /* \"#utility.yul\":3624:3629   */\n      dup2\n        /* \"#utility.yul\":3613:3629   */\n      swap1\n      pop\n        /* \"#utility.yul\":3558:3635   */\n      swap2\n      swap1\n      pop\n      jump\t// out\n        /* \"#utility.yul\":3641:3763   */\n    tag_383:\n        /* \"#utility.yul\":3714:3738   */\n      tag_473\n        /* \"#utility.yul\":3732:3737   */\n      dup2\n        /* \"#utility.yul\":3714:3738   */\n      tag_382\n      jump\t// in\n    tag_473:\n        /* \"#utility.yul\":3707:3712   */\n      dup2\n        /* \"#utility.yul\":3704:3739   */\n      eq\n        /* \"#utility.yul\":3694:3757   */\n      tag_474\n      jumpi\n        /* \"#utility.yul\":3753:3754   */\n      0x00\n        /* \"#utility.yul\":3750:3751   */\n      dup1\n        /* \"#utility.yul\":3743:3755   */\n      revert\n        /* \"#utility.yul\":3694:3757   */\n    tag_474:\n        /* \"#utility.yul\":3641:3763   */\n      pop\n      jump\t// out\n        /* \"#utility.yul\":3769:3908   */\n    tag_384:\n        /* \"#utility.yul\":3815:3820   */\n      0x00\n        /* \"#utility.yul\":3853:3859   */\n      dup2\n        /* \"#utility.yul\":3840:3860   */\n      calldataload\n        /* \"#utility.yul\":3831:3860   */\n      swap1\n      pop\n        /* \"#utility.yul\":3869:3902   */\n      tag_476\n        /* \"#utility.yul\":3896:3901   */\n      dup2\n        /* \"#utility.yul\":3869:3902   */\n      tag_383\n      jump\t// in\n    tag_476:\n        /* \"#utility.yul\":3769:3908   */\n      swap3\n      swap2\n      pop\n      pop\n      jump\t// out\n        /* \"#utility.yul\":3914:4243   */\n    tag_65:\n        /* \"#utility.yul\":3973:3979   */\n      0x00\n        /* \"#utility.yul\":4022:4024   */\n      0x20\n        /* \"#utility.yul\":4010:4019   */\n      dup3\n        /* \"#utility.yul\":4001:4008   */\n      dup5\n        /* \"#utility.yul\":3997:4020   */\n      sub\n        /* \"#utility.yul\":3993:4025   */\n      slt\n        /* \"#utility.yul\":3990:4109   */\n      iszero\n      tag_478\n      jumpi\n        /* \"#utility.yul\":4028:4107   */\n      tag_479\n      tag_367\n      jump\t// in\n    tag_479:\n        /* \"#utility.yul\":3990:4109   */\n    tag_478:\n        /* \"#utility.yul\":4148:4149   */\n      0x00\n        /* \"#utility.yul\":4173:4226   */\n      tag_480\n        /* \"#utility.yul\":4218:4225   */\n      dup5\n        /* \"#utility.yul\":4209:4215   */\n      dup3\n        /* \"#utility.yul\":4198:4207   */\n      dup6\n        /* \"#utility.yul\":4194:4216   */\n      add\n        /* \"#utility.yul\":4173:4226   */\n      tag_384\n      jump\t// in\n    tag_480:\n        /* \"#utility.yul\":4163:4226   */\n      swap2\n      pop\n        /* \"#utility.yul\":4119:4236   */\n      pop\n        /* \"#utility.yul\":3914:4243   */\n      swap3\n      swap2\n      pop\n      pop\n      jump\t// out\n        /* \"#utility.yul\":4249:4367   */\n    tag_385:\n        /* \"#utility.yul\":4336:4360   */\n      tag_482\n        /* \"#utility.yul\":4354:4359   */\n      dup2\n        /* \"#utility.yul\":4336:4360   */\n      tag_382\n      jump\t// in\n    tag_482:\n        /* \"#utility.yul\":4331:4334   */\n      dup3\n        /* \"#utility.yul\":4324:4361   */\n      mstore\n        /* \"#utility.yul\":4249:4367   */\n      pop\n      pop\n      jump\t// out\n        /* \"#utility.yul\":4373:4595   */\n    tag_92:\n        /* \"#utility.yul\":4466:4470   */\n      0x00\n        /* \"#utility.yul\":4504:4506   */\n      0x20\n        /* \"#utility.yul\":4493:4502   */\n      dup3\n        /* \"#utility.yul\":4489:4507   */\n      add\n        /* \"#utility.yul\":4481:4507   */\n      swap1\n      pop\n        /* \"#utility.yul\":4517:4588   */\n      tag_484\n        /* \"#utility.yul\":4585:4586   */\n      0x00\n        /* \"#utility.yul\":4574:4583   */\n      dup4\n        /* \"#utility.yul\":4570:4587   */\n      add\n        /* \"#utility.yul\":4561:4567   */\n      dup5\n        /* \"#utility.yul\":4517:4588   */\n      tag_385\n      jump\t// in\n    tag_484:\n        /* \"#utility.yul\":4373:4595   */\n      swap3\n      swap2\n      pop\n      pop\n      jump\t// out\n        /* \"#utility.yul\":4601:4723   */\n    tag_386:\n        /* \"#utility.yul\":4674:4698   */\n      tag_486\n        /* \"#utility.yul\":4692:4697   */\n      dup2\n        /* \"#utility.yul\":4674:4698   */\n      tag_364\n      jump\t// in\n    tag_486:\n        /* \"#utility.yul\":4667:4672   */\n      dup2\n        /* \"#utility.yul\":4664:4699   */\n      eq\n        /* \"#utility.yul\":4654:4717   */\n      tag_487\n      jumpi\n        /* \"#utility.yul\":4713:4714   */\n      0x00\n        /* \"#utility.yul\":4710:4711   */\n      dup1\n        /* \"#utility.yul\":4703:4715   */\n      revert\n        /* \"#utility.yul\":4654:4717   */\n    tag_487:\n        /* \"#utility.yul\":4601:4723   */\n      pop\n      jump\t// out\n        /* \"#utility.yul\":4729:4868   */\n    tag_387:\n        /* \"#utility.yul\":4775:4780   */\n      0x00\n        /* \"#utility.yul\":4813:4819   */\n      dup2\n        /* \"#utility.yul\":4800:4820   */\n      calldataload\n        /* \"#utility.yul\":4791:4820   */\n      swap1\n      pop\n        /* \"#utility.yul\":4829:4862   */\n      tag_489\n        /* \"#utility.yul\":4856:4861   */\n      dup2\n        /* \"#utility.yul\":4829:4862   */\n      tag_386\n      jump\t// in\n    tag_489:\n        /* \"#utility.yul\":4729:4868   */\n      swap3\n      swap2\n      pop\n      pop\n      jump\t// out\n        /* \"#utility.yul\":4874:5203   */\n    tag_105:\n        /* \"#utility.yul\":4933:4939   */\n      0x00\n        /* \"#utility.yul\":4982:4984   */\n      0x20\n        /* \"#utility.yul\":4970:4979   */\n      dup3\n        /* \"#utility.yul\":4961:4968   */\n      dup5\n        /* \"#utility.yul\":4957:4980   */\n      sub\n        /* \"#utility.yul\":4953:4985   */\n      slt\n        /* \"#utility.yul\":4950:5069   */\n      iszero\n      tag_491\n      jumpi\n        /* \"#utility.yul\":4988:5067   */\n      tag_492\n      tag_367\n      jump\t// in\n    tag_492:\n        /* \"#utility.yul\":4950:5069   */\n    tag_491:\n        /* \"#utility.yul\":5108:5109   */\n      0x00\n        /* \"#utility.yul\":5133:5186   */\n      tag_493\n        /* \"#utility.yul\":5178:5185   */\n      dup5\n        /* \"#utility.yul\":5169:5175   */\n      dup3\n        /* \"#utility.yul\":5158:5167   */\n      dup6\n        /* \"#utility.yul\":5154:5176   */\n      add\n        /* \"#utility.yul\":5133:5186   */\n      tag_387\n      jump\t// in\n    tag_493:\n        /* \"#utility.yul\":5123:5186   */\n      swap2\n      pop\n        /* \"#utility.yul\":5079:5196   */\n      pop\n        /* \"#utility.yul\":4874:5203   */\n      swap3\n      swap2\n      pop\n      pop\n      jump\t// out\n        /* \"#utility.yul\":5209:5327   */\n    tag_388:\n        /* \"#utility.yul\":5296:5320   */\n      tag_495\n        /* \"#utility.yul\":5314:5319   */\n      dup2\n        /* \"#utility.yul\":5296:5320   */\n      tag_370\n      jump\t// in\n    tag_495:\n        /* \"#utility.yul\":5291:5294   */\n      dup3\n        /* \"#utility.yul\":5284:5321   */\n      mstore\n        /* \"#utility.yul\":5209:5327   */\n      pop\n      pop\n      jump\t// out\n        /* \"#utility.yul\":5333:5555   */\n    tag_108:\n        /* \"#utility.yul\":5426:5430   */\n      0x00\n        /* \"#utility.yul\":5464:5466   */\n      0x20\n        /* \"#utility.yul\":5453:5462   */\n      dup3\n        /* \"#utility.yul\":5449:5467   */\n      add\n        /* \"#utility.yul\":5441:5467   */\n      swap1\n      pop\n        /* \"#utility.yul\":5477:5548   */\n      tag_497\n        /* \"#utility.yul\":5545:5546   */\n      0x00\n        /* \"#utility.yul\":5534:5543   */\n      dup4\n        /* \"#utility.yul\":5530:5547   */\n      add\n        /* \"#utility.yul\":5521:5527   */\n      dup5\n        /* \"#utility.yul\":5477:5548   */\n      tag_388\n      jump\t// in\n    tag_497:\n        /* \"#utility.yul\":5333:5555   */\n      swap3\n      swap2\n      pop\n      pop\n      jump\t// out\n        /* \"#utility.yul\":5561:5701   */\n    tag_389:\n        /* \"#utility.yul\":5625:5634   */\n      0x00\n        /* \"#utility.yul\":5658:5695   */\n      tag_499\n        /* \"#utility.yul\":5689:5694   */\n      dup3\n        /* \"#utility.yul\":5658:5695   */\n      tag_377\n      jump\t// in\n    tag_499:\n        /* \"#utility.yul\":5645:5695   */\n      swap1\n      pop\n        /* \"#utility.yul\":5561:5701   */\n      swap2\n      swap1\n      pop\n      jump\t// out\n        /* \"#utility.yul\":5707:5866   */\n    tag_390:\n        /* \"#utility.yul\":5808:5859   */\n      tag_501\n        /* \"#utility.yul\":5853:5858   */\n      dup2\n        /* \"#utility.yul\":5808:5859   */\n      tag_389\n      jump\t// in\n    tag_501:\n        /* \"#utility.yul\":5803:5806   */\n      dup3\n        /* \"#utility.yul\":5796:5860   */\n      mstore\n        /* \"#utility.yul\":5707:5866   */\n      pop\n      pop\n      jump\t// out\n        /* \"#utility.yul\":5872:6122   */\n    tag_117:\n        /* \"#utility.yul\":5979:5983   */\n      0x00\n        /* \"#utility.yul\":6017:6019   */\n      0x20\n        /* \"#utility.yul\":6006:6015   */\n      dup3\n        /* \"#utility.yul\":6002:6020   */\n      add\n        /* \"#utility.yul\":5994:6020   */\n      swap1\n      pop\n        /* \"#utility.yul\":6030:6115   */\n      tag_503\n        /* \"#utility.yul\":6112:6113   */\n      0x00\n        /* \"#utility.yul\":6101:6110   */\n      dup4\n        /* \"#utility.yul\":6097:6114   */\n      add\n        /* \"#utility.yul\":6088:6094   */\n      dup5\n        /* \"#utility.yul\":6030:6115   */\n      tag_390\n      jump\t// in\n    tag_503:\n        /* \"#utility.yul\":5872:6122   */\n      swap3\n      swap2\n      pop\n      pop\n      jump\t// out\n        /* \"#utility.yul\":6128:6297   */\n    tag_391:\n        /* \"#utility.yul\":6212:6223   */\n      0x00\n        /* \"#utility.yul\":6246:6252   */\n      dup3\n        /* \"#utility.yul\":6241:6244   */\n      dup3\n        /* \"#utility.yul\":6234:6253   */\n      mstore\n        /* \"#utility.yul\":6286:6290   */\n      0x20\n        /* \"#utility.yul\":6281:6284   */\n      dup3\n        /* \"#utility.yul\":6277:6291   */\n      add\n        /* \"#utility.yul\":6262:6291   */\n      swap1\n      pop\n        /* \"#utility.yul\":6128:6297   */\n      swap3\n      swap2\n      pop\n      pop\n      jump\t// out\n        /* \"#utility.yul\":6303:6475   */\n    tag_392:\n        /* \"#utility.yul\":6443:6467   */\n      0x416c72656164792068617665203220706c617965727300000000000000000000\n        /* \"#utility.yul\":6439:6440   */\n      0x00\n        /* \"#utility.yul\":6431:6437   */\n      dup3\n        /* \"#utility.yul\":6427:6441   */\n      add\n        /* \"#utility.yul\":6420:6468   */\n      mstore\n        /* \"#utility.yul\":6303:6475   */\n      pop\n      jump\t// out\n        /* \"#utility.yul\":6481:6847   */\n    tag_393:\n        /* \"#utility.yul\":6623:6626   */\n      0x00\n        /* \"#utility.yul\":6644:6711   */\n      tag_507\n        /* \"#utility.yul\":6708:6710   */\n      0x16\n        /* \"#utility.yul\":6703:6706   */\n      dup4\n        /* \"#utility.yul\":6644:6711   */\n      tag_391\n      jump\t// in\n    tag_507:\n        /* \"#utility.yul\":6637:6711   */\n      swap2\n      pop\n        /* \"#utility.yul\":6720:6813   */\n      tag_508\n        /* \"#utility.yul\":6809:6812   */\n      dup3\n        /* \"#utility.yul\":6720:6813   */\n      tag_392\n      jump\t// in\n    tag_508:\n        /* \"#utility.yul\":6838:6840   */\n      0x20\n        /* \"#utility.yul\":6833:6836   */\n      dup3\n        /* \"#utility.yul\":6829:6841   */\n      add\n        /* \"#utility.yul\":6822:6841   */\n      swap1\n      pop\n        /* \"#utility.yul\":6481:6847   */\n      swap2\n      swap1\n      pop\n      jump\t// out\n        /* \"#utility.yul\":6853:7272   */\n    tag_121:\n        /* \"#utility.yul\":7019:7023   */\n      0x00\n        /* \"#utility.yul\":7057:7059   */\n      0x20\n        /* \"#utility.yul\":7046:7055   */\n      dup3\n        /* \"#utility.yul\":7042:7060   */\n      add\n        /* \"#utility.yul\":7034:7060   */\n      swap1\n      pop\n        /* \"#utility.yul\":7106:7115   */\n      dup2\n        /* \"#utility.yul\":7100:7104   */\n      dup2\n        /* \"#utility.yul\":7096:7116   */\n      sub\n        /* \"#utility.yul\":7092:7093   */\n      0x00\n        /* \"#utility.yul\":7081:7090   */\n      dup4\n        /* \"#utility.yul\":7077:7094   */\n      add\n        /* \"#utility.yul\":7070:7117   */\n      mstore\n        /* \"#utility.yul\":7134:7265   */\n      tag_510\n        /* \"#utility.yul\":7260:7264   */\n      dup2\n        /* \"#utility.yul\":7134:7265   */\n      tag_393\n      jump\t// in\n    tag_510:\n        /* \"#utility.yul\":7126:7265   */\n      swap1\n      pop\n        /* \"#utility.yul\":6853:7272   */\n      swap2\n      swap1\n      pop\n      jump\t// out\n        /* \"#utility.yul\":7278:7458   */\n    tag_125:\n        /* \"#utility.yul\":7326:7403   */\n      0x4e487b7100000000000000000000000000000000000000000000000000000000\n        /* \"#utility.yul\":7323:7324   */\n      0x00\n        /* \"#utility.yul\":7316:7404   */\n      mstore\n        /* \"#utility.yul\":7423:7427   */\n      0x32\n        /* \"#utility.yul\":7420:7421   */\n      0x04\n        /* \"#utility.yul\":7413:7428   */\n      mstore\n        /* \"#utility.yul\":7447:7451   */\n      0x24\n        /* \"#utility.yul\":7444:7445   */\n      0x00\n        /* \"#utility.yul\":7437:7452   */\n      revert\n        /* \"#utility.yul\":7464:7641   */\n    tag_394:\n        /* \"#utility.yul\":7604:7633   */\n      0x596f752061726520616c726561647920696e207468652067616d650000000000\n        /* \"#utility.yul\":7600:7601   */\n      0x00\n        /* \"#utility.yul\":7592:7598   */\n      dup3\n        /* \"#utility.yul\":7588:7602   */\n      add\n        /* \"#utility.yul\":7581:7634   */\n      mstore\n        /* \"#utility.yul\":7464:7641   */\n      pop\n      jump\t// out\n        /* \"#utility.yul\":7647:8013   */\n    tag_395:\n        /* \"#utility.yul\":7789:7792   */\n      0x00\n        /* \"#utility.yul\":7810:7877   */\n      tag_514\n        /* \"#utility.yul\":7874:7876   */\n      0x1b\n        /* \"#utility.yul\":7869:7872   */\n      dup4\n        /* \"#utility.yul\":7810:7877   */\n      tag_391\n      jump\t// in\n    tag_514:\n        /* \"#utility.yul\":7803:7877   */\n      swap2\n      pop\n        /* \"#utility.yul\":7886:7979   */\n      tag_515\n        /* \"#utility.yul\":7975:7978   */\n      dup3\n        /* \"#utility.yul\":7886:7979   */\n      tag_394\n      jump\t// in\n    tag_515:\n        /* \"#utility.yul\":8004:8006   */\n      0x20\n        /* \"#utility.yul\":7999:8002   */\n      dup3\n        /* \"#utility.yul\":7995:8007   */\n      add\n        /* \"#utility.yul\":7988:8007   */\n      swap1\n      pop\n        /* \"#utility.yul\":7647:8013   */\n      swap2\n      swap1\n      pop\n      jump\t// out\n        /* \"#utility.yul\":8019:8438   */\n    tag_129:\n        /* \"#utility.yul\":8185:8189   */\n      0x00\n        /* \"#utility.yul\":8223:8225   */\n      0x20\n        /* \"#utility.yul\":8212:8221   */\n      dup3\n        /* \"#utility.yul\":8208:8226   */\n      add\n        /* \"#utility.yul\":8200:8226   */\n      swap1\n      pop\n        /* \"#utility.yul\":8272:8281   */\n      dup2\n        /* \"#utility.yul\":8266:8270   */\n      dup2\n        /* \"#utility.yul\":8262:8282   */\n      sub\n        /* \"#utility.yul\":8258:8259   */\n      0x00\n        /* \"#utility.yul\":8247:8256   */\n      dup4\n        /* \"#utility.yul\":8243:8260   */\n      add\n        /* \"#utility.yul\":8236:8283   */\n      mstore\n        /* \"#utility.yul\":8300:8431   */\n      tag_517\n        /* \"#utility.yul\":8426:8430   */\n      dup2\n        /* \"#utility.yul\":8300:8431   */\n      tag_395\n      jump\t// in\n    tag_517:\n        /* \"#utility.yul\":8292:8431   */\n      swap1\n      pop\n        /* \"#utility.yul\":8019:8438   */\n      swap2\n      swap1\n      pop\n      jump\t// out\n        /* \"#utility.yul\":8444:8624   */\n    tag_396:\n        /* \"#utility.yul\":8492:8569   */\n      0x4e487b7100000000000000000000000000000000000000000000000000000000\n        /* \"#utility.yul\":8489:8490   */\n      0x00\n        /* \"#utility.yul\":8482:8570   */\n      mstore\n        /* \"#utility.yul\":8589:8593   */\n      0x11\n        /* \"#utility.yul\":8586:8587   */\n      0x04\n        /* \"#utility.yul\":8579:8594   */\n      mstore\n        /* \"#utility.yul\":8613:8617   */\n      0x24\n        /* \"#utility.yul\":8610:8611   */\n      0x00\n        /* \"#utility.yul\":8603:8618   */\n      revert\n        /* \"#utility.yul\":8630:8863   */\n    tag_132:\n        /* \"#utility.yul\":8669:8672   */\n      0x00\n        /* \"#utility.yul\":8692:8716   */\n      tag_520\n        /* \"#utility.yul\":8710:8715   */\n      dup3\n        /* \"#utility.yul\":8692:8716   */\n      tag_364\n      jump\t// in\n    tag_520:\n        /* \"#utility.yul\":8683:8716   */\n      swap2\n      pop\n        /* \"#utility.yul\":8738:8804   */\n      0xffffffffffffffffffffffffffffffffffffffffffffffffffffffffffffffff\n        /* \"#utility.yul\":8731:8736   */\n      dup3\n        /* \"#utility.yul\":8728:8805   */\n      sub\n        /* \"#utility.yul\":8725:8828   */\n      tag_521\n      jumpi\n        /* \"#utility.yul\":8808:8826   */\n      tag_522\n      tag_396\n      jump\t// in\n    tag_522:\n        /* \"#utility.yul\":8725:8828   */\n    tag_521:\n        /* \"#utility.yul\":8855:8856   */\n      0x01\n        /* \"#utility.yul\":8848:8853   */\n      dup3\n        /* \"#utility.yul\":8844:8857   */\n      add\n        /* \"#utility.yul\":8837:8857   */\n      swap1\n      pop\n        /* \"#utility.yul\":8630:8863   */\n      swap2\n      swap1\n      pop\n      jump\t// out\n        /* \"#utility.yul\":8869:9012   */\n    tag_397:\n        /* \"#utility.yul\":8926:8931   */\n      0x00\n        /* \"#utility.yul\":8957:8963   */\n      dup2\n        /* \"#utility.yul\":8951:8964   */\n      mload\n        /* \"#utility.yul\":8942:8964   */\n      swap1\n      pop\n        /* \"#utility.yul\":8973:9006   */\n      tag_524\n        /* \"#utility.yul\":9000:9005   */\n      dup2\n        /* \"#utility.yul\":8973:9006   */\n      tag_386\n      jump\t// in\n    tag_524:\n        /* \"#utility.yul\":8869:9012   */\n      swap3\n      swap2\n      pop\n      pop\n      jump\t// out\n        /* \"#utility.yul\":9018:9369   */\n    tag_145:\n        /* \"#utility.yul\":9088:9094   */\n      0x00\n        /* \"#utility.yul\":9137:9139   */\n      0x20\n        /* \"#utility.yul\":9125:9134   */\n      dup3\n        /* \"#utility.yul\":9116:9123   */\n      dup5\n        /* \"#utility.yul\":9112:9135   */\n      sub\n        /* \"#utility.yul\":9108:9140   */\n      slt\n        /* \"#utility.yul\":9105:9224   */\n      iszero\n      tag_526\n      jumpi\n        /* \"#utility.yul\":9143:9222   */\n      tag_527\n      tag_367\n      jump\t// in\n    tag_527:\n        /* \"#utility.yul\":9105:9224   */\n    tag_526:\n        /* \"#utility.yul\":9263:9264   */\n      0x00\n        /* \"#utility.yul\":9288:9352   */\n      tag_528\n        /* \"#utility.yul\":9344:9351   */\n      dup5\n        /* \"#utility.yul\":9335:9341   */\n      dup3\n        /* \"#utility.yul\":9324:9333   */\n      dup6\n        /* \"#utility.yul\":9320:9342   */\n      add\n        /* \"#utility.yul\":9288:9352   */\n      tag_397\n      jump\t// in\n    tag_528:\n        /* \"#utility.yul\":9278:9352   */\n      swap2\n      pop\n        /* \"#utility.yul\":9234:9362   */\n      pop\n        /* \"#utility.yul\":9018:9369   */\n      swap3\n      swap2\n      pop\n      pop\n      jump\t// out\n        /* \"#utility.yul\":9375:9532   */\n    tag_398:\n        /* \"#utility.yul\":9515:9524   */\n      0x54696d656f757400000000000000000000000000000000000000000000000000\n        /* \"#utility.yul\":9511:9512   */\n      0x00\n        /* \"#utility.yul\":9503:9509   */\n      dup3\n        /* \"#utility.yul\":9499:9513   */\n      add\n        /* \"#utility.yul\":9492:9525   */\n      mstore\n        /* \"#utility.yul\":9375:9532   */\n      pop\n      jump\t// out\n        /* \"#utility.yul\":9538:9903   */\n    tag_399:\n        /* \"#utility.yul\":9680:9683   */\n      0x00\n        /* \"#utility.yul\":9701:9767   */\n      tag_531\n        /* \"#utility.yul\":9765:9766   */\n      0x07\n        /* \"#utility.yul\":9760:9763   */\n      dup4\n        /* \"#utility.yul\":9701:9767   */\n      tag_391\n      jump\t// in\n    tag_531:\n        /* \"#utility.yul\":9694:9767   */\n      swap2\n      pop\n        /* \"#utility.yul\":9776:9869   */\n      tag_532\n        /* \"#utility.yul\":9865:9868   */\n      dup3\n        /* \"#utility.yul\":9776:9869   */\n      tag_398\n      jump\t// in\n    tag_532:\n        /* \"#utility.yul\":9894:9896   */\n      0x20\n        /* \"#utility.yul\":9889:9892   */\n      dup3\n        /* \"#utility.yul\":9885:9897   */\n      add\n        /* \"#utility.yul\":9878:9897   */\n      swap1\n      pop\n        /* \"#utility.yul\":9538:9903   */\n      swap2\n      swap1\n      pop\n      jump\t// out\n        /* \"#utility.yul\":9909:10328   */\n    tag_148:\n        /* \"#utility.yul\":10075:10079   */\n      0x00\n        /* \"#utility.yul\":10113:10115   */\n      0x20\n        /* \"#utility.yul\":10102:10111   */\n      dup3\n        /* \"#utility.yul\":10098:10116   */\n      add\n        /* \"#utility.yul\":10090:10116   */\n      swap1\n      pop\n        /* \"#utility.yul\":10162:10171   */\n      dup2\n        /* \"#utility.yul\":10156:10160   */\n      dup2\n        /* \"#utility.yul\":10152:10172   */\n      sub\n        /* \"#utility.yul\":10148:10149   */\n      0x00\n        /* \"#utility.yul\":10137:10146   */\n      dup4\n        /* \"#utility.yul\":10133:10150   */\n      add\n        /* \"#utility.yul\":10126:10173   */\n      mstore\n        /* \"#utility.yul\":10190:10321   */\n      tag_534\n        /* \"#utility.yul\":10316:10320   */\n      dup2\n        /* \"#utility.yul\":10190:10321   */\n      tag_399\n      jump\t// in\n    tag_534:\n        /* \"#utility.yul\":10182:10321   */\n      swap1\n      pop\n        /* \"#utility.yul\":9909:10328   */\n      swap2\n      swap1\n      pop\n      jump\t// out\n        /* \"#utility.yul\":10334:10502   */\n    tag_400:\n        /* \"#utility.yul\":10474:10494   */\n      0x506c617965722069732072657665616c65640000000000000000000000000000\n        /* \"#utility.yul\":10470:10471   */\n      0x00\n        /* \"#utility.yul\":10462:10468   */\n      dup3\n        /* \"#utility.yul\":10458:10472   */\n      add\n        /* \"#utility.yul\":10451:10495   */\n      mstore\n        /* \"#utility.yul\":10334:10502   */\n      pop\n      jump\t// out\n        /* \"#utility.yul\":10508:10874   */\n    tag_401:\n        /* \"#utility.yul\":10650:10653   */\n      0x00\n        /* \"#utility.yul\":10671:10738   */\n      tag_537\n        /* \"#utility.yul\":10735:10737   */\n      0x12\n        /* \"#utility.yul\":10730:10733   */\n      dup4\n        /* \"#utility.yul\":10671:10738   */\n      tag_391\n      jump\t// in\n    tag_537:\n        /* \"#utility.yul\":10664:10738   */\n      swap2\n      pop\n        /* \"#utility.yul\":10747:10840   */\n      tag_538\n        /* \"#utility.yul\":10836:10839   */\n      dup3\n        /* \"#utility.yul\":10747:10840   */\n      tag_400\n      jump\t// in\n    tag_538:\n        /* \"#utility.yul\":10865:10867   */\n      0x20\n        /* \"#utility.yul\":10860:10863   */\n      dup3\n        /* \"#utility.yul\":10856:10868   */\n      add\n        /* \"#utility.yul\":10849:10868   */\n      swap1\n      pop\n        /* \"#utility.yul\":10508:10874   */\n      swap2\n      swap1\n      pop\n      jump\t// out\n        /* \"#utility.yul\":10880:11299   */\n    tag_151:\n        /* \"#utility.yul\":11046:11050   */\n      0x00\n        /* \"#utility.yul\":11084:11086   */\n      0x20\n        /* \"#utility.yul\":11073:11082   */\n      dup3\n        /* \"#utility.yul\":11069:11087   */\n      add\n        /* \"#utility.yul\":11061:11087   */\n      swap1\n      pop\n        /* \"#utility.yul\":11133:11142   */\n      dup2\n        /* \"#utility.yul\":11127:11131   */\n      dup2\n        /* \"#utility.yul\":11123:11143   */\n      sub\n        /* \"#utility.yul\":11119:11120   */\n      0x00\n        /* \"#utility.yul\":11108:11117   */\n      dup4\n        /* \"#utility.yul\":11104:11121   */\n      add\n        /* \"#utility.yul\":11097:11144   */\n      mstore\n        /* \"#utility.yul\":11161:11292   */\n      tag_540\n        /* \"#utility.yul\":11287:11291   */\n      dup2\n        /* \"#utility.yul\":11161:11292   */\n      tag_401\n      jump\t// in\n    tag_540:\n        /* \"#utility.yul\":11153:11292   */\n      swap1\n      pop\n        /* \"#utility.yul\":10880:11299   */\n      swap2\n      swap1\n      pop\n      jump\t// out\n        /* \"#utility.yul\":11305:11469   */\n    tag_402:\n        /* \"#utility.yul\":11445:11461   */\n      0x496e76616c69642063686f696365000000000000000000000000000000000000\n        /* \"#utility.yul\":11441:11442   */\n      0x00\n        /* \"#utility.yul\":11433:11439   */\n      dup3\n        /* \"#utility.yul\":11429:11443   */\n      add\n        /* \"#utility.yul\":11422:11462   */\n      mstore\n        /* \"#utility.yul\":11305:11469   */\n      pop\n      jump\t// out\n        /* \"#utility.yul\":11475:11841   */\n    tag_403:\n        /* \"#utility.yul\":11617:11620   */\n      0x00\n        /* \"#utility.yul\":11638:11705   */\n      tag_543\n        /* \"#utility.yul\":11702:11704   */\n      0x0e\n        /* \"#utility.yul\":11697:11700   */\n      dup4\n        /* \"#utility.yul\":11638:11705   */\n      tag_391\n      jump\t// in\n    tag_543:\n        /* \"#utility.yul\":11631:11705   */\n      swap2\n      pop\n        /* \"#utility.yul\":11714:11807   */\n      tag_544\n        /* \"#utility.yul\":11803:11806   */\n      dup3\n        /* \"#utility.yul\":11714:11807   */\n      tag_402\n      jump\t// in\n    tag_544:\n        /* \"#utility.yul\":11832:11834   */\n      0x20\n        /* \"#utility.yul\":11827:11830   */\n      dup3\n        /* \"#utility.yul\":11823:11835   */\n      add\n        /* \"#utility.yul\":11816:11835   */\n      swap1\n      pop\n        /* \"#utility.yul\":11475:11841   */\n      swap2\n      swap1\n      pop\n      jump\t// out\n        /* \"#utility.yul\":11847:12266   */\n    tag_161:\n        /* \"#utility.yul\":12013:12017   */\n      0x00\n        /* \"#utility.yul\":12051:12053   */\n      0x20\n        /* \"#utility.yul\":12040:12049   */\n      dup3\n        /* \"#utility.yul\":12036:12054   */\n      add\n        /* \"#utility.yul\":12028:12054   */\n      swap1\n      pop\n        /* \"#utility.yul\":12100:12109   */\n      dup2\n        /* \"#utility.yul\":12094:12098   */\n      dup2\n        /* \"#utility.yul\":12090:12110   */\n      sub\n        /* \"#utility.yul\":12086:12087   */\n      0x00\n        /* \"#utility.yul\":12075:12084   */\n      dup4\n        /* \"#utility.yul\":12071:12088   */\n      add\n        /* \"#utility.yul\":12064:12111   */\n      mstore\n        /* \"#utility.yul\":12128:12259   */\n      tag_546\n        /* \"#utility.yul\":12254:12258   */\n      dup2\n        /* \"#utility.yul\":12128:12259   */\n      tag_403\n      jump\t// in\n    tag_546:\n        /* \"#utility.yul\":12120:12259   */\n      swap1\n      pop\n        /* \"#utility.yul\":11847:12266   */\n      swap2\n      swap1\n      pop\n      jump\t// out\n        /* \"#utility.yul\":12272:12452   */\n    tag_404:\n        /* \"#utility.yul\":12412:12444   */\n      0x52657665616c207068617365206e6f742074696d6564206f7574207965740000\n        /* \"#utility.yul\":12408:12409   */\n      0x00\n        /* \"#utility.yul\":12400:12406   */\n      dup3\n        /* \"#utility.yul\":12396:12410   */\n      add\n        /* \"#utility.yul\":12389:12445   */\n      mstore\n        /* \"#utility.yul\":12272:12452   */\n      pop\n      jump\t// out\n        /* \"#utility.yul\":12458:12824   */\n    tag_405:\n        /* \"#utility.yul\":12600:12603   */\n      0x00\n        /* \"#utility.yul\":12621:12688   */\n      tag_549\n        /* \"#utility.yul\":12685:12687   */\n      0x1e\n        /* \"#utility.yul\":12680:12683   */\n      dup4\n        /* \"#utility.yul\":12621:12688   */\n      tag_391\n      jump\t// in\n    tag_549:\n        /* \"#utility.yul\":12614:12688   */\n      swap2\n      pop\n        /* \"#utility.yul\":12697:12790   */\n      tag_550\n        /* \"#utility.yul\":12786:12789   */\n      dup3\n        /* \"#utility.yul\":12697:12790   */\n      tag_404\n      jump\t// in\n    tag_550:\n        /* \"#utility.yul\":12815:12817   */\n      0x20\n        /* \"#utility.yul\":12810:12813   */\n      dup3\n        /* \"#utility.yul\":12806:12818   */\n      add\n        /* \"#utility.yul\":12799:12818   */\n      swap1\n      pop\n        /* \"#utility.yul\":12458:12824   */\n      swap2\n      swap1\n      pop\n      jump\t// out\n        /* \"#utility.yul\":12830:13249   */\n    tag_172:\n        /* \"#utility.yul\":12996:13000   */\n      0x00\n        /* \"#utility.yul\":13034:13036   */\n      0x20\n        /* \"#utility.yul\":13023:13032   */\n      dup3\n        /* \"#utility.yul\":13019:13037   */\n      add\n        /* \"#utility.yul\":13011:13037   */\n      swap1\n      pop\n        /* \"#utility.yul\":13083:13092   */\n      dup2\n        /* \"#utility.yul\":13077:13081   */\n      dup2\n        /* \"#utility.yul\":13073:13093   */\n      sub\n        /* \"#utility.yul\":13069:13070   */\n      0x00\n        /* \"#utility.yul\":13058:13067   */\n      dup4\n        /* \"#utility.yul\":13054:13071   */\n      add\n        /* \"#utility.yul\":13047:13094   */\n      mstore\n        /* \"#utility.yul\":13111:13242   */\n      tag_552\n        /* \"#utility.yul\":13237:13241   */\n      dup2\n        /* \"#utility.yul\":13111:13242   */\n      tag_405\n      jump\t// in\n    tag_552:\n        /* \"#utility.yul\":13103:13242   */\n      swap1\n      pop\n        /* \"#utility.yul\":12830:13249   */\n      swap2\n      swap1\n      pop\n      jump\t// out\n        /* \"#utility.yul\":13255:13426   */\n    tag_406:\n        /* \"#utility.yul\":13395:13418   */\n      0x4e6f2072657761726420696e20636f6e74726163740000000000000000000000\n        /* \"#utility.yul\":13391:13392   */\n      0x00\n        /* \"#utility.yul\":13383:13389   */\n      dup3\n        /* \"#utility.yul\":13379:13393   */\n      add\n        /* \"#utility.yul\":13372:13419   */\n      mstore\n        /* \"#utility.yul\":13255:13426   */\n      pop\n      jump\t// out\n        /* \"#utility.yul\":13432:13798   */\n    tag_407:\n        /* \"#utility.yul\":13574:13577   */\n      0x00\n        /* \"#utility.yul\":13595:13662   */\n      tag_555\n        /* \"#utility.yul\":13659:13661   */\n      0x15\n        /* \"#utility.yul\":13654:13657   */\n      dup4\n        /* \"#utility.yul\":13595:13662   */\n      tag_391\n      jump\t// in\n    tag_555:\n        /* \"#utility.yul\":13588:13662   */\n      swap2\n      pop\n        /* \"#utility.yul\":13671:13764   */\n      tag_556\n        /* \"#utility.yul\":13760:13763   */\n      dup3\n        /* \"#utility.yul\":13671:13764   */\n      tag_406\n      jump\t// in\n    tag_556:\n        /* \"#utility.yul\":13789:13791   */\n      0x20\n        /* \"#utility.yul\":13784:13787   */\n      dup3\n        /* \"#utility.yul\":13780:13792   */\n      add\n        /* \"#utility.yul\":13773:13792   */\n      swap1\n      pop\n        /* \"#utility.yul\":13432:13798   */\n      swap2\n      swap1\n      pop\n      jump\t// out\n        /* \"#utility.yul\":13804:14223   */\n    tag_175:\n        /* \"#utility.yul\":13970:13974   */\n      0x00\n        /* \"#utility.yul\":14008:14010   */\n      0x20\n        /* \"#utility.yul\":13997:14006   */\n      dup3\n        /* \"#utility.yul\":13993:14011   */\n      add\n        /* \"#utility.yul\":13985:14011   */\n      swap1\n      pop\n        /* \"#utility.yul\":14057:14066   */\n      dup2\n        /* \"#utility.yul\":14051:14055   */\n      dup2\n        /* \"#utility.yul\":14047:14067   */\n      sub\n        /* \"#utility.yul\":14043:14044   */\n      0x00\n        /* \"#utility.yul\":14032:14041   */\n      dup4\n        /* \"#utility.yul\":14028:14045   */\n      add\n        /* \"#utility.yul\":14021:14068   */\n      mstore\n        /* \"#utility.yul\":14085:14216   */\n      tag_558\n        /* \"#utility.yul\":14211:14215   */\n      dup2\n        /* \"#utility.yul\":14085:14216   */\n      tag_407\n      jump\t// in\n    tag_558:\n        /* \"#utility.yul\":14077:14216   */\n      swap1\n      pop\n        /* \"#utility.yul\":13804:14223   */\n      swap2\n      swap1\n      pop\n      jump\t// out\n        /* \"#utility.yul\":14229:14409   */\n    tag_408:\n        /* \"#utility.yul\":14369:14401   */\n      0x4f6e6c79207468652072657665616c65722063616e2077697468647261770000\n        /* \"#utility.yul\":14365:14366   */\n      0x00\n        /* \"#utility.yul\":14357:14363   */\n      dup3\n        /* \"#utility.yul\":14353:14367   */\n      add\n        /* \"#utility.yul\":14346:14402   */\n      mstore\n        /* \"#utility.yul\":14229:14409   */\n      pop\n      jump\t// out\n        /* \"#utility.yul\":14415:14781   */\n    tag_409:\n        /* \"#utility.yul\":14557:14560   */\n      0x00\n        /* \"#utility.yul\":14578:14645   */\n      tag_561\n        /* \"#utility.yul\":14642:14644   */\n      0x1e\n        /* \"#utility.yul\":14637:14640   */\n      dup4\n        /* \"#utility.yul\":14578:14645   */\n      tag_391\n      jump\t// in\n    tag_561:\n        /* \"#utility.yul\":14571:14645   */\n      swap2\n      pop\n        /* \"#utility.yul\":14654:14747   */\n      tag_562\n        /* \"#utility.yul\":14743:14746   */\n      dup3\n        /* \"#utility.yul\":14654:14747   */\n      tag_408\n      jump\t// in\n    tag_562:\n        /* \"#utility.yul\":14772:14774   */\n      0x20\n        /* \"#utility.yul\":14767:14770   */\n      dup3\n        /* \"#utility.yul\":14763:14775   */\n      add\n        /* \"#utility.yul\":14756:14775   */\n      swap1\n      pop\n        /* \"#utility.yul\":14415:14781   */\n      swap2\n      swap1\n      pop\n      jump\t// out\n        /* \"#utility.yul\":14787:15206   */\n    tag_190:\n        /* \"#utility.yul\":14953:14957   */\n      0x00\n        /* \"#utility.yul\":14991:14993   */\n      0x20\n        /* \"#utility.yul\":14980:14989   */\n      dup3\n        /* \"#utility.yul\":14976:14994   */\n      add\n        /* \"#utility.yul\":14968:14994   */\n      swap1\n      pop\n        /* \"#utility.yul\":15040:15049   */\n      dup2\n        /* \"#utility.yul\":15034:15038   */\n      dup2\n        /* \"#utility.yul\":15030:15050   */\n      sub\n        /* \"#utility.yul\":15026:15027   */\n      0x00\n        /* \"#utility.yul\":15015:15024   */\n      dup4\n        /* \"#utility.yul\":15011:15028   */\n      add\n        /* \"#utility.yul\":15004:15051   */\n      mstore\n        /* \"#utility.yul\":15068:15199   */\n      tag_564\n        /* \"#utility.yul\":15194:15198   */\n      dup2\n        /* \"#utility.yul\":15068:15199   */\n      tag_409\n      jump\t// in\n    tag_564:\n        /* \"#utility.yul\":15060:15199   */\n      swap1\n      pop\n        /* \"#utility.yul\":14787:15206   */\n      swap2\n      swap1\n      pop\n      jump\t// out\n        /* \"#utility.yul\":15212:15544   */\n    tag_195:\n        /* \"#utility.yul\":15333:15337   */\n      0x00\n        /* \"#utility.yul\":15371:15373   */\n      0x40\n        /* \"#utility.yul\":15360:15369   */\n      dup3\n        /* \"#utility.yul\":15356:15374   */\n      add\n        /* \"#utility.yul\":15348:15374   */\n      swap1\n      pop\n        /* \"#utility.yul\":15384:15455   */\n      tag_566\n        /* \"#utility.yul\":15452:15453   */\n      0x00\n        /* \"#utility.yul\":15441:15450   */\n      dup4\n        /* \"#utility.yul\":15437:15454   */\n      add\n        /* \"#utility.yul\":15428:15434   */\n      dup6\n        /* \"#utility.yul\":15384:15455   */\n      tag_388\n      jump\t// in\n    tag_566:\n        /* \"#utility.yul\":15465:15537   */\n      tag_567\n        /* \"#utility.yul\":15533:15535   */\n      0x20\n        /* \"#utility.yul\":15522:15531   */\n      dup4\n        /* \"#utility.yul\":15518:15536   */\n      add\n        /* \"#utility.yul\":15509:15515   */\n      dup5\n        /* \"#utility.yul\":15465:15537   */\n      tag_365\n      jump\t// in\n    tag_567:\n        /* \"#utility.yul\":15212:15544   */\n      swap4\n      swap3\n      pop\n      pop\n      pop\n      jump\t// out\n        /* \"#utility.yul\":15550:15666   */\n    tag_410:\n        /* \"#utility.yul\":15620:15641   */\n      tag_569\n        /* \"#utility.yul\":15635:15640   */\n      dup2\n        /* \"#utility.yul\":15620:15641   */\n      tag_373\n      jump\t// in\n    tag_569:\n        /* \"#utility.yul\":15613:15618   */\n      dup2\n        /* \"#utility.yul\":15610:15642   */\n      eq\n        /* \"#utility.yul\":15600:15660   */\n      tag_570\n      jumpi\n        /* \"#utility.yul\":15656:15657   */\n      0x00\n        /* \"#utility.yul\":15653:15654   */\n      dup1\n        /* \"#utility.yul\":15646:15658   */\n      revert\n        /* \"#utility.yul\":15600:15660   */\n    tag_570:\n        /* \"#utility.yul\":15550:15666   */\n      pop\n      jump\t// out\n        /* \"#utility.yul\":15672:15809   */\n    tag_411:\n        /* \"#utility.yul\":15726:15731   */\n      0x00\n        /* \"#utility.yul\":15757:15763   */\n      dup2\n        /* \"#utility.yul\":15751:15764   */\n      mload\n        /* \"#utility.yul\":15742:15764   */\n      swap1\n      pop\n        /* \"#utility.yul\":15773:15803   */\n      tag_572\n        /* \"#utility.yul\":15797:15802   */\n      dup2\n        /* \"#utility.yul\":15773:15803   */\n      tag_410\n      jump\t// in\n    tag_572:\n        /* \"#utility.yul\":15672:15809   */\n      swap3\n      swap2\n      pop\n      pop\n      jump\t// out\n        /* \"#utility.yul\":15815:16160   */\n    tag_199:\n        /* \"#utility.yul\":15882:15888   */\n      0x00\n        /* \"#utility.yul\":15931:15933   */\n      0x20\n        /* \"#utility.yul\":15919:15928   */\n      dup3\n        /* \"#utility.yul\":15910:15917   */\n      dup5\n        /* \"#utility.yul\":15906:15929   */\n      sub\n        /* \"#utility.yul\":15902:15934   */\n      slt\n        /* \"#utility.yul\":15899:16018   */\n      iszero\n      tag_574\n      jumpi\n        /* \"#utility.yul\":15937:16016   */\n      tag_575\n      tag_367\n      jump\t// in\n    tag_575:\n        /* \"#utility.yul\":15899:16018   */\n    tag_574:\n        /* \"#utility.yul\":16057:16058   */\n      0x00\n        /* \"#utility.yul\":16082:16143   */\n      tag_576\n        /* \"#utility.yul\":16135:16142   */\n      dup5\n        /* \"#utility.yul\":16126:16132   */\n      dup3\n        /* \"#utility.yul\":16115:16124   */\n      dup6\n        /* \"#utility.yul\":16111:16133   */\n      add\n        /* \"#utility.yul\":16082:16143   */\n      tag_411\n      jump\t// in\n    tag_576:\n        /* \"#utility.yul\":16072:16143   */\n      swap2\n      pop\n        /* \"#utility.yul\":16028:16153   */\n      pop\n        /* \"#utility.yul\":15815:16160   */\n      swap3\n      swap2\n      pop\n      pop\n      jump\t// out\n        /* \"#utility.yul\":16166:16329   */\n    tag_412:\n        /* \"#utility.yul\":16306:16321   */\n      0x496e76616c696420737461746500000000000000000000000000000000000000\n        /* \"#utility.yul\":16302:16303   */\n      0x00\n        /* \"#utility.yul\":16294:16300   */\n      dup3\n        /* \"#utility.yul\":16290:16304   */\n      add\n        /* \"#utility.yul\":16283:16322   */\n      mstore\n        /* \"#utility.yul\":16166:16329   */\n      pop\n      jump\t// out\n        /* \"#utility.yul\":16335:16701   */\n    tag_413:\n        /* \"#utility.yul\":16477:16480   */\n      0x00\n        /* \"#utility.yul\":16498:16565   */\n      tag_579\n        /* \"#utility.yul\":16562:16564   */\n      0x0d\n        /* \"#utility.yul\":16557:16560   */\n      dup4\n        /* \"#utility.yul\":16498:16565   */\n      tag_391\n      jump\t// in\n    tag_579:\n        /* \"#utility.yul\":16491:16565   */\n      swap2\n      pop\n        /* \"#utility.yul\":16574:16667   */\n      tag_580\n        /* \"#utility.yul\":16663:16666   */\n      dup3\n        /* \"#utility.yul\":16574:16667   */\n      tag_412\n      jump\t// in\n    tag_580:\n        /* \"#utility.yul\":16692:16694   */\n      0x20\n        /* \"#utility.yul\":16687:16690   */\n      dup3\n        /* \"#utility.yul\":16683:16695   */\n      add\n        /* \"#utility.yul\":16676:16695   */\n      swap1\n      pop\n        /* \"#utility.yul\":16335:16701   */\n      swap2\n      swap1\n      pop\n      jump\t// out\n        /* \"#utility.yul\":16707:17126   */\n    tag_217:\n        /* \"#utility.yul\":16873:16877   */\n      0x00\n        /* \"#utility.yul\":16911:16913   */\n      0x20\n        /* \"#utility.yul\":16900:16909   */\n      dup3\n        /* \"#utility.yul\":16896:16914   */\n      add\n        /* \"#utility.yul\":16888:16914   */\n      swap1\n      pop\n        /* \"#utility.yul\":16960:16969   */\n      dup2\n        /* \"#utility.yul\":16954:16958   */\n      dup2\n        /* \"#utility.yul\":16950:16970   */\n      sub\n        /* \"#utility.yul\":16946:16947   */\n      0x00\n        /* \"#utility.yul\":16935:16944   */\n      dup4\n        /* \"#utility.yul\":16931:16948   */\n      add\n        /* \"#utility.yul\":16924:16971   */\n      mstore\n        /* \"#utility.yul\":16988:17119   */\n      tag_582\n        /* \"#utility.yul\":17114:17118   */\n      dup2\n        /* \"#utility.yul\":16988:17119   */\n      tag_413\n      jump\t// in\n    tag_582:\n        /* \"#utility.yul\":16980:17119   */\n      swap1\n      pop\n        /* \"#utility.yul\":16707:17126   */\n      swap2\n      swap1\n      pop\n      jump\t// out\n        /* \"#utility.yul\":17132:17362   */\n    tag_414:\n        /* \"#utility.yul\":17272:17306   */\n      0x426f746820706c61796572732072657665616c6564202d206e6f74206170706c\n        /* \"#utility.yul\":17268:17269   */\n      0x00\n        /* \"#utility.yul\":17260:17266   */\n      dup3\n        /* \"#utility.yul\":17256:17270   */\n      add\n        /* \"#utility.yul\":17249:17307   */\n      mstore\n        /* \"#utility.yul\":17341:17354   */\n      0x696361626c652068657265000000000000000000000000000000000000000000\n        /* \"#utility.yul\":17336:17338   */\n      0x20\n        /* \"#utility.yul\":17328:17334   */\n      dup3\n        /* \"#utility.yul\":17324:17339   */\n      add\n        /* \"#utility.yul\":17317:17355   */\n      mstore\n        /* \"#utility.yul\":17132:17362   */\n      pop\n      jump\t// out\n        /* \"#utility.yul\":17368:17734   */\n    tag_415:\n        /* \"#utility.yul\":17510:17513   */\n      0x00\n        /* \"#utility.yul\":17531:17598   */\n      tag_585\n        /* \"#utility.yul\":17595:17597   */\n      0x2b\n        /* \"#utility.yul\":17590:17593   */\n      dup4\n        /* \"#utility.yul\":17531:17598   */\n      tag_391\n      jump\t// in\n    tag_585:\n        /* \"#utility.yul\":17524:17598   */\n      swap2\n      pop\n        /* \"#utility.yul\":17607:17700   */\n      tag_586\n        /* \"#utility.yul\":17696:17699   */\n      dup3\n        /* \"#utility.yul\":17607:17700   */\n      tag_414\n      jump\t// in\n    tag_586:\n        /* \"#utility.yul\":17725:17727   */\n      0x40\n        /* \"#utility.yul\":17720:17723   */\n      dup3\n        /* \"#utility.yul\":17716:17728   */\n      add\n        /* \"#utility.yul\":17709:17728   */\n      swap1\n      pop\n        /* \"#utility.yul\":17368:17734   */\n      swap2\n      swap1\n      pop\n      jump\t// out\n        /* \"#utility.yul\":17740:18159   */\n    tag_226:\n        /* \"#utility.yul\":17906:17910   */\n      0x00\n        /* \"#utility.yul\":17944:17946   */\n      0x20\n        /* \"#utility.yul\":17933:17942   */\n      dup3\n        /* \"#utility.yul\":17929:17947   */\n      add\n        /* \"#utility.yul\":17921:17947   */\n      swap1\n      pop\n        /* \"#utility.yul\":17993:18002   */\n      dup2\n        /* \"#utility.yul\":17987:17991   */\n      dup2\n        /* \"#utility.yul\":17983:18003   */\n      sub\n        /* \"#utility.yul\":17979:17980   */\n      0x00\n        /* \"#utility.yul\":17968:17977   */\n      dup4\n        /* \"#utility.yul\":17964:17981   */\n      add\n        /* \"#utility.yul\":17957:18004   */\n      mstore\n        /* \"#utility.yul\":18021:18152   */\n      tag_588\n        /* \"#utility.yul\":18147:18151   */\n      dup2\n        /* \"#utility.yul\":18021:18152   */\n      tag_415\n      jump\t// in\n    tag_588:\n        /* \"#utility.yul\":18013:18152   */\n      swap1\n      pop\n        /* \"#utility.yul\":17740:18159   */\n      swap2\n      swap1\n      pop\n      jump\t// out\n        /* \"#utility.yul\":18165:18308   */\n    tag_416:\n        /* \"#utility.yul\":18222:18227   */\n      0x00\n        /* \"#utility.yul\":18253:18259   */\n      dup2\n        /* \"#utility.yul\":18247:18260   */\n      mload\n        /* \"#utility.yul\":18238:18260   */\n      swap1\n      pop\n        /* \"#utility.yul\":18269:18302   */\n      tag_590\n        /* \"#utility.yul\":18296:18301   */\n      dup2\n        /* \"#utility.yul\":18269:18302   */\n      tag_383\n      jump\t// in\n    tag_590:\n        /* \"#utility.yul\":18165:18308   */\n      swap3\n      swap2\n      pop\n      pop\n      jump\t// out\n        /* \"#utility.yul\":18314:18665   */\n    tag_234:\n        /* \"#utility.yul\":18384:18390   */\n      0x00\n        /* \"#utility.yul\":18433:18435   */\n      0x20\n        /* \"#utility.yul\":18421:18430   */\n      dup3\n        /* \"#utility.yul\":18412:18419   */\n      dup5\n        /* \"#utility.yul\":18408:18431   */\n      sub\n        /* \"#utility.yul\":18404:18436   */\n      slt\n        /* \"#utility.yul\":18401:18520   */\n      iszero\n      tag_592\n      jumpi\n        /* \"#utility.yul\":18439:18518   */\n      tag_593\n      tag_367\n      jump\t// in\n    tag_593:\n        /* \"#utility.yul\":18401:18520   */\n    tag_592:\n        /* \"#utility.yul\":18559:18560   */\n      0x00\n        /* \"#utility.yul\":18584:18648   */\n      tag_594\n        /* \"#utility.yul\":18640:18647   */\n      dup5\n        /* \"#utility.yul\":18631:18637   */\n      dup3\n        /* \"#utility.yul\":18620:18629   */\n      dup6\n        /* \"#utility.yul\":18616:18638   */\n      add\n        /* \"#utility.yul\":18584:18648   */\n      tag_416\n      jump\t// in\n    tag_594:\n        /* \"#utility.yul\":18574:18648   */\n      swap2\n      pop\n        /* \"#utility.yul\":18530:18658   */\n      pop\n        /* \"#utility.yul\":18314:18665   */\n      swap3\n      swap2\n      pop\n      pop\n      jump\t// out\n        /* \"#utility.yul\":18671:18843   */\n    tag_417:\n        /* \"#utility.yul\":18811:18835   */\n      0x436f6d6d69742070686173652074696d6564206f757400000000000000000000\n        /* \"#utility.yul\":18807:18808   */\n      0x00\n        /* \"#utility.yul\":18799:18805   */\n      dup3\n        /* \"#utility.yul\":18795:18809   */\n      add\n        /* \"#utility.yul\":18788:18836   */\n      mstore\n        /* \"#utility.yul\":18671:18843   */\n      pop\n      jump\t// out\n        /* \"#utility.yul\":18849:19215   */\n    tag_418:\n        /* \"#utility.yul\":18991:18994   */\n      0x00\n        /* \"#utility.yul\":19012:19079   */\n      tag_597\n        /* \"#utility.yul\":19076:19078   */\n      0x16\n        /* \"#utility.yul\":19071:19074   */\n      dup4\n        /* \"#utility.yul\":19012:19079   */\n      tag_391\n      jump\t// in\n    tag_597:\n        /* \"#utility.yul\":19005:19079   */\n      swap2\n      pop\n        /* \"#utility.yul\":19088:19181   */\n      tag_598\n        /* \"#utility.yul\":19177:19180   */\n      dup3\n        /* \"#utility.yul\":19088:19181   */\n      tag_417\n      jump\t// in\n    tag_598:\n        /* \"#utility.yul\":19206:19208   */\n      0x20\n        /* \"#utility.yul\":19201:19204   */\n      dup3\n        /* \"#utility.yul\":19197:19209   */\n      add\n        /* \"#utility.yul\":19190:19209   */\n      swap1\n      pop\n        /* \"#utility.yul\":18849:19215   */\n      swap2\n      swap1\n      pop\n      jump\t// out\n        /* \"#utility.yul\":19221:19640   */\n    tag_243:\n        /* \"#utility.yul\":19387:19391   */\n      0x00\n        /* \"#utility.yul\":19425:19427   */\n      0x20\n        /* \"#utility.yul\":19414:19423   */\n      dup3\n        /* \"#utility.yul\":19410:19428   */\n      add\n        /* \"#utility.yul\":19402:19428   */\n      swap1\n      pop\n        /* \"#utility.yul\":19474:19483   */\n      dup2\n        /* \"#utility.yul\":19468:19472   */\n      dup2\n        /* \"#utility.yul\":19464:19484   */\n      sub\n        /* \"#utility.yul\":19460:19461   */\n      0x00\n        /* \"#utility.yul\":19449:19458   */\n      dup4\n        /* \"#utility.yul\":19445:19462   */\n      add\n        /* \"#utility.yul\":19438:19485   */\n      mstore\n        /* \"#utility.yul\":19502:19633   */\n      tag_600\n        /* \"#utility.yul\":19628:19632   */\n      dup2\n        /* \"#utility.yul\":19502:19633   */\n      tag_418\n      jump\t// in\n    tag_600:\n        /* \"#utility.yul\":19494:19633   */\n      swap1\n      pop\n        /* \"#utility.yul\":19221:19640   */\n      swap2\n      swap1\n      pop\n      jump\t// out\n        /* \"#utility.yul\":19646:19978   */\n    tag_254:\n        /* \"#utility.yul\":19767:19771   */\n      0x00\n        /* \"#utility.yul\":19805:19807   */\n      0x40\n        /* \"#utility.yul\":19794:19803   */\n      dup3\n        /* \"#utility.yul\":19790:19808   */\n      add\n        /* \"#utility.yul\":19782:19808   */\n      swap1\n      pop\n        /* \"#utility.yul\":19818:19889   */\n      tag_602\n        /* \"#utility.yul\":19886:19887   */\n      0x00\n        /* \"#utility.yul\":19875:19884   */\n      dup4\n        /* \"#utility.yul\":19871:19888   */\n      add\n        /* \"#utility.yul\":19862:19868   */\n      dup6\n        /* \"#utility.yul\":19818:19889   */\n      tag_388\n      jump\t// in\n    tag_602:\n        /* \"#utility.yul\":19899:19971   */\n      tag_603\n        /* \"#utility.yul\":19967:19969   */\n      0x20\n        /* \"#utility.yul\":19956:19965   */\n      dup4\n        /* \"#utility.yul\":19952:19970   */\n      add\n        /* \"#utility.yul\":19943:19949   */\n      dup5\n        /* \"#utility.yul\":19899:19971   */\n      tag_388\n      jump\t// in\n    tag_603:\n        /* \"#utility.yul\":19646:19978   */\n      swap4\n      swap3\n      pop\n      pop\n      pop\n      jump\t// out\n        /* \"#utility.yul\":19984:20162   */\n    tag_419:\n        /* \"#utility.yul\":20124:20154   */\n      0x506c617965723020616c6c6f77616e6365206e6f7420656e6f75676800000000\n        /* \"#utility.yul\":20120:20121   */\n      0x00\n        /* \"#utility.yul\":20112:20118   */\n      dup3\n        /* \"#utility.yul\":20108:20122   */\n      add\n        /* \"#utility.yul\":20101:20155   */\n      mstore\n        /* \"#utility.yul\":19984:20162   */\n      pop\n      jump\t// out\n        /* \"#utility.yul\":20168:20534   */\n    tag_420:\n        /* \"#utility.yul\":20310:20313   */\n      0x00\n        /* \"#utility.yul\":20331:20398   */\n      tag_606\n        /* \"#utility.yul\":20395:20397   */\n      0x1c\n        /* \"#utility.yul\":20390:20393   */\n      dup4\n        /* \"#utility.yul\":20331:20398   */\n      tag_391\n      jump\t// in\n    tag_606:\n        /* \"#utility.yul\":20324:20398   */\n      swap2\n      pop\n        /* \"#utility.yul\":20407:20500   */\n      tag_607\n        /* \"#utility.yul\":20496:20499   */\n      dup3\n        /* \"#utility.yul\":20407:20500   */\n      tag_419\n      jump\t// in\n    tag_607:\n        /* \"#utility.yul\":20525:20527   */\n      0x20\n        /* \"#utility.yul\":20520:20523   */\n      dup3\n        /* \"#utility.yul\":20516:20528   */\n      add\n        /* \"#utility.yul\":20509:20528   */\n      swap1\n      pop\n        /* \"#utility.yul\":20168:20534   */\n      swap2\n      swap1\n      pop\n      jump\t// out\n        /* \"#utility.yul\":20540:20959   */\n    tag_260:\n        /* \"#utility.yul\":20706:20710   */\n      0x00\n        /* \"#utility.yul\":20744:20746   */\n      0x20\n        /* \"#utility.yul\":20733:20742   */\n      dup3\n        /* \"#utility.yul\":20729:20747   */\n      add\n        /* \"#utility.yul\":20721:20747   */\n      swap1\n      pop\n        /* \"#utility.yul\":20793:20802   */\n      dup2\n        /* \"#utility.yul\":20787:20791   */\n      dup2\n        /* \"#utility.yul\":20783:20803   */\n      sub\n        /* \"#utility.yul\":20779:20780   */\n      0x00\n        /* \"#utility.yul\":20768:20777   */\n      dup4\n        /* \"#utility.yul\":20764:20781   */\n      add\n        /* \"#utility.yul\":20757:20804   */\n      mstore\n        /* \"#utility.yul\":20821:20952   */\n      tag_609\n        /* \"#utility.yul\":20947:20951   */\n      dup2\n        /* \"#utility.yul\":20821:20952   */\n      tag_420\n      jump\t// in\n    tag_609:\n        /* \"#utility.yul\":20813:20952   */\n      swap1\n      pop\n        /* \"#utility.yul\":20540:20959   */\n      swap2\n      swap1\n      pop\n      jump\t// out\n        /* \"#utility.yul\":20965:21143   */\n    tag_421:\n        /* \"#utility.yul\":21105:21135   */\n      0x506c617965723120616c6c6f77616e6365206e6f7420656e6f75676800000000\n        /* \"#utility.yul\":21101:21102   */\n      0x00\n        /* \"#utility.yul\":21093:21099   */\n      dup3\n        /* \"#utility.yul\":21089:21103   */\n      add\n        /* \"#utility.yul\":21082:21136   */\n      mstore\n        /* \"#utility.yul\":20965:21143   */\n      pop\n      jump\t// out\n        /* \"#utility.yul\":21149:21515   */\n    tag_422:\n        /* \"#utility.yul\":21291:21294   */\n      0x00\n        /* \"#utility.yul\":21312:21379   */\n      tag_612\n        /* \"#utility.yul\":21376:21378   */\n      0x1c\n        /* \"#utility.yul\":21371:21374   */\n      dup4\n        /* \"#utility.yul\":21312:21379   */\n      tag_391\n      jump\t// in\n    tag_612:\n        /* \"#utility.yul\":21305:21379   */\n      swap2\n      pop\n        /* \"#utility.yul\":21388:21481   */\n      tag_613\n        /* \"#utility.yul\":21477:21480   */\n      dup3\n        /* \"#utility.yul\":21388:21481   */\n      tag_421\n      jump\t// in\n    tag_613:\n        /* \"#utility.yul\":21506:21508   */\n      0x20\n        /* \"#utility.yul\":21501:21504   */\n      dup3\n        /* \"#utility.yul\":21497:21509   */\n      add\n        /* \"#utility.yul\":21490:21509   */\n      swap1\n      pop\n        /* \"#utility.yul\":21149:21515   */\n      swap2\n      swap1\n      pop\n      jump\t// out\n        /* \"#utility.yul\":21521:21940   */\n    tag_270:\n        /* \"#utility.yul\":21687:21691   */\n      0x00\n        /* \"#utility.yul\":21725:21727   */\n      0x20\n        /* \"#utility.yul\":21714:21723   */\n      dup3\n        /* \"#utility.yul\":21710:21728   */\n      add\n        /* \"#utility.yul\":21702:21728   */\n      swap1\n      pop\n        /* \"#utility.yul\":21774:21783   */\n      dup2\n        /* \"#utility.yul\":21768:21772   */\n      dup2\n        /* \"#utility.yul\":21764:21784   */\n      sub\n        /* \"#utility.yul\":21760:21761   */\n      0x00\n        /* \"#utility.yul\":21749:21758   */\n      dup4\n        /* \"#utility.yul\":21745:21762   */\n      add\n        /* \"#utility.yul\":21738:21785   */\n      mstore\n        /* \"#utility.yul\":21802:21933   */\n      tag_615\n        /* \"#utility.yul\":21928:21932   */\n      dup2\n        /* \"#utility.yul\":21802:21933   */\n      tag_422\n      jump\t// in\n    tag_615:\n        /* \"#utility.yul\":21794:21933   */\n      swap1\n      pop\n        /* \"#utility.yul\":21521:21940   */\n      swap2\n      swap1\n      pop\n      jump\t// out\n        /* \"#utility.yul\":21946:22388   */\n    tag_275:\n        /* \"#utility.yul\":22095:22099   */\n      0x00\n        /* \"#utility.yul\":22133:22135   */\n      0x60\n        /* \"#utility.yul\":22122:22131   */\n      dup3\n        /* \"#utility.yul\":22118:22136   */\n      add\n        /* \"#utility.yul\":22110:22136   */\n      swap1\n      pop\n        /* \"#utility.yul\":22146:22217   */\n      tag_617\n        /* \"#utility.yul\":22214:22215   */\n      0x00\n        /* \"#utility.yul\":22203:22212   */\n      dup4\n        /* \"#utility.yul\":22199:22216   */\n      add\n        /* \"#utility.yul\":22190:22196   */\n      dup7\n        /* \"#utility.yul\":22146:22217   */\n      tag_388\n      jump\t// in\n    tag_617:\n        /* \"#utility.yul\":22227:22299   */\n      tag_618\n        /* \"#utility.yul\":22295:22297   */\n      0x20\n        /* \"#utility.yul\":22284:22293   */\n      dup4\n        /* \"#utility.yul\":22280:22298   */\n      add\n        /* \"#utility.yul\":22271:22277   */\n      dup6\n        /* \"#utility.yul\":22227:22299   */\n      tag_388\n      jump\t// in\n    tag_618:\n        /* \"#utility.yul\":22309:22381   */\n      tag_619\n        /* \"#utility.yul\":22377:22379   */\n      0x40\n        /* \"#utility.yul\":22366:22375   */\n      dup4\n        /* \"#utility.yul\":22362:22380   */\n      add\n        /* \"#utility.yul\":22353:22359   */\n      dup5\n        /* \"#utility.yul\":22309:22381   */\n      tag_365\n      jump\t// in\n    tag_619:\n        /* \"#utility.yul\":21946:22388   */\n      swap5\n      swap4\n      pop\n      pop\n      pop\n      pop\n      jump\t// out\n        /* \"#utility.yul\":22394:22563   */\n    tag_423:\n        /* \"#utility.yul\":22534:22555   */\n      0x7472616e7366657246726f6d206661696c656400000000000000000000000000\n        /* \"#utility.yul\":22530:22531   */\n      0x00\n        /* \"#utility.yul\":22522:22528   */\n      dup3\n        /* \"#utility.yul\":22518:22532   */\n      add\n        /* \"#utility.yul\":22511:22556   */\n      mstore\n        /* \"#utility.yul\":22394:22563   */\n      pop\n      jump\t// out\n        /* \"#utility.yul\":22569:22935   */\n    tag_424:\n        /* \"#utility.yul\":22711:22714   */\n      0x00\n        /* \"#utility.yul\":22732:22799   */\n      tag_622\n        /* \"#utility.yul\":22796:22798   */\n      0x13\n        /* \"#utility.yul\":22791:22794   */\n      dup4\n        /* \"#utility.yul\":22732:22799   */\n      tag_391\n      jump\t// in\n    tag_622:\n        /* \"#utility.yul\":22725:22799   */\n      swap2\n      pop\n        /* \"#utility.yul\":22808:22901   */\n      tag_623\n        /* \"#utility.yul\":22897:22900   */\n      dup3\n        /* \"#utility.yul\":22808:22901   */\n      tag_423\n      jump\t// in\n    tag_623:\n        /* \"#utility.yul\":22926:22928   */\n      0x20\n        /* \"#utility.yul\":22921:22924   */\n      dup3\n        /* \"#utility.yul\":22917:22929   */\n      add\n        /* \"#utility.yul\":22910:22929   */\n      swap1\n      pop\n        /* \"#utility.yul\":22569:22935   */\n      swap2\n      swap1\n      pop\n      jump\t// out\n        /* \"#utility.yul\":22941:23360   */\n    tag_289:\n        /* \"#utility.yul\":23107:23111   */\n      0x00\n        /* \"#utility.yul\":23145:23147   */\n      0x20\n        /* \"#utility.yul\":23134:23143   */\n      dup3\n        /* \"#utility.yul\":23130:23148   */\n      add\n        /* \"#utility.yul\":23122:23148   */\n      swap1\n      pop\n        /* \"#utility.yul\":23194:23203   */\n      dup2\n        /* \"#utility.yul\":23188:23192   */\n      dup2\n        /* \"#utility.yul\":23184:23204   */\n      sub\n        /* \"#utility.yul\":23180:23181   */\n      0x00\n        /* \"#utility.yul\":23169:23178   */\n      dup4\n        /* \"#utility.yul\":23165:23182   */\n      add\n        /* \"#utility.yul\":23158:23205   */\n      mstore\n        /* \"#utility.yul\":23222:23353   */\n      tag_625\n        /* \"#utility.yul\":23348:23352   */\n      dup2\n        /* \"#utility.yul\":23222:23353   */\n      tag_424\n      jump\t// in\n    tag_625:\n        /* \"#utility.yul\":23214:23353   */\n      swap1\n      pop\n        /* \"#utility.yul\":22941:23360   */\n      swap2\n      swap1\n      pop\n      jump\t// out\n        /* \"#utility.yul\":23366:23776   */\n    tag_291:\n        /* \"#utility.yul\":23406:23413   */\n      0x00\n        /* \"#utility.yul\":23429:23449   */\n      tag_627\n        /* \"#utility.yul\":23447:23448   */\n      dup3\n        /* \"#utility.yul\":23429:23449   */\n      tag_364\n      jump\t// in\n    tag_627:\n        /* \"#utility.yul\":23424:23449   */\n      swap2\n      pop\n        /* \"#utility.yul\":23463:23483   */\n      tag_628\n        /* \"#utility.yul\":23481:23482   */\n      dup4\n        /* \"#utility.yul\":23463:23483   */\n      tag_364\n      jump\t// in\n    tag_628:\n        /* \"#utility.yul\":23458:23483   */\n      swap3\n      pop\n        /* \"#utility.yul\":23518:23519   */\n      dup3\n        /* \"#utility.yul\":23515:23516   */\n      dup3\n        /* \"#utility.yul\":23511:23520   */\n      mul\n        /* \"#utility.yul\":23540:23570   */\n      tag_629\n        /* \"#utility.yul\":23558:23569   */\n      dup2\n        /* \"#utility.yul\":23540:23570   */\n      tag_364\n      jump\t// in\n    tag_629:\n        /* \"#utility.yul\":23529:23570   */\n      swap2\n      pop\n        /* \"#utility.yul\":23719:23720   */\n      dup3\n        /* \"#utility.yul\":23710:23717   */\n      dup3\n        /* \"#utility.yul\":23706:23721   */\n      div\n        /* \"#utility.yul\":23703:23704   */\n      dup5\n        /* \"#utility.yul\":23700:23722   */\n      eq\n        /* \"#utility.yul\":23680:23681   */\n      dup4\n        /* \"#utility.yul\":23673:23682   */\n      iszero\n        /* \"#utility.yul\":23653:23736   */\n      or\n        /* \"#utility.yul\":23630:23769   */\n      tag_630\n      jumpi\n        /* \"#utility.yul\":23749:23767   */\n      tag_631\n      tag_396\n      jump\t// in\n    tag_631:\n        /* \"#utility.yul\":23630:23769   */\n    tag_630:\n        /* \"#utility.yul\":23414:23776   */\n      pop\n        /* \"#utility.yul\":23366:23776   */\n      swap3\n      swap2\n      pop\n      pop\n      jump\t// out\n        /* \"#utility.yul\":23782:23973   */\n    tag_311:\n        /* \"#utility.yul\":23822:23825   */\n      0x00\n        /* \"#utility.yul\":23841:23861   */\n      tag_633\n        /* \"#utility.yul\":23859:23860   */\n      dup3\n        /* \"#utility.yul\":23841:23861   */\n      tag_364\n      jump\t// in\n    tag_633:\n        /* \"#utility.yul\":23836:23861   */\n      swap2\n      pop\n        /* \"#utility.yul\":23875:23895   */\n      tag_634\n        /* \"#utility.yul\":23893:23894   */\n      dup4\n        /* \"#utility.yul\":23875:23895   */\n      tag_364\n      jump\t// in\n    tag_634:\n        /* \"#utility.yul\":23870:23895   */\n      swap3\n      pop\n        /* \"#utility.yul\":23918:23919   */\n      dup3\n        /* \"#utility.yul\":23915:23916   */\n      dup3\n        /* \"#utility.yul\":23911:23920   */\n      add\n        /* \"#utility.yul\":23904:23920   */\n      swap1\n      pop\n        /* \"#utility.yul\":23939:23942   */\n      dup1\n        /* \"#utility.yul\":23936:23937   */\n      dup3\n        /* \"#utility.yul\":23933:23943   */\n      gt\n        /* \"#utility.yul\":23930:23966   */\n      iszero\n      tag_635\n      jumpi\n        /* \"#utility.yul\":23946:23964   */\n      tag_636\n      tag_396\n      jump\t// in\n    tag_636:\n        /* \"#utility.yul\":23930:23966   */\n    tag_635:\n        /* \"#utility.yul\":23782:23973   */\n      swap3\n      swap2\n      pop\n      pop\n      jump\t// out\n        /* \"#utility.yul\":23979:24159   */\n    tag_425:\n        /* \"#utility.yul\":24027:24104   */\n      0x4e487b7100000000000000000000000000000000000000000000000000000000\n        /* \"#utility.yul\":24024:24025   */\n      0x00\n        /* \"#utility.yul\":24017:24105   */\n      mstore\n        /* \"#utility.yul\":24124:24128   */\n      0x12\n        /* \"#utility.yul\":24121:24122   */\n      0x04\n        /* \"#utility.yul\":24114:24129   */\n      mstore\n        /* \"#utility.yul\":24148:24152   */\n      0x24\n        /* \"#utility.yul\":24145:24146   */\n      0x00\n        /* \"#utility.yul\":24138:24153   */\n      revert\n        /* \"#utility.yul\":24165:24341   */\n    tag_313:\n        /* \"#utility.yul\":24197:24198   */\n      0x00\n        /* \"#utility.yul\":24214:24234   */\n      tag_639\n        /* \"#utility.yul\":24232:24233   */\n      dup3\n        /* \"#utility.yul\":24214:24234   */\n      tag_364\n      jump\t// in\n    tag_639:\n        /* \"#utility.yul\":24209:24234   */\n      swap2\n      pop\n        /* \"#utility.yul\":24248:24268   */\n      tag_640\n        /* \"#utility.yul\":24266:24267   */\n      dup4\n        /* \"#utility.yul\":24248:24268   */\n      tag_364\n      jump\t// in\n    tag_640:\n        /* \"#utility.yul\":24243:24268   */\n      swap3\n      pop\n        /* \"#utility.yul\":24287:24288   */\n      dup3\n        /* \"#utility.yul\":24277:24312   */\n      tag_641\n      jumpi\n        /* \"#utility.yul\":24292:24310   */\n      tag_642\n      tag_425\n      jump\t// in\n    tag_642:\n        /* \"#utility.yul\":24277:24312   */\n    tag_641:\n        /* \"#utility.yul\":24333:24334   */\n      dup3\n        /* \"#utility.yul\":24330:24331   */\n      dup3\n        /* \"#utility.yul\":24326:24335   */\n      mod\n        /* \"#utility.yul\":24321:24335   */\n      swap1\n      pop\n        /* \"#utility.yul\":24165:24341   */\n      swap3\n      swap2\n      pop\n      pop\n      jump\t// out\n        /* \"#utility.yul\":24347:24532   */\n    tag_325:\n        /* \"#utility.yul\":24387:24388   */\n      0x00\n        /* \"#utility.yul\":24404:24424   */\n      tag_644\n        /* \"#utility.yul\":24422:24423   */\n      dup3\n        /* \"#utility.yul\":24404:24424   */\n      tag_364\n      jump\t// in\n    tag_644:\n        /* \"#utility.yul\":24399:24424   */\n      swap2\n      pop\n        /* \"#utility.yul\":24438:24458   */\n      tag_645\n        /* \"#utility.yul\":24456:24457   */\n      dup4\n        /* \"#utility.yul\":24438:24458   */\n      tag_364\n      jump\t// in\n    tag_645:\n        /* \"#utility.yul\":24433:24458   */\n      swap3\n      pop\n        /* \"#utility.yul\":24477:24478   */\n      dup3\n        /* \"#utility.yul\":24467:24502   */\n      tag_646\n      jumpi\n        /* \"#utility.yul\":24482:24500   */\n      tag_647\n      tag_425\n      jump\t// in\n    tag_647:\n        /* \"#utility.yul\":24467:24502   */\n    tag_646:\n        /* \"#utility.yul\":24524:24525   */\n      dup3\n        /* \"#utility.yul\":24521:24522   */\n      dup3\n        /* \"#utility.yul\":24517:24526   */\n      div\n        /* \"#utility.yul\":24512:24526   */\n      swap1\n      pop\n        /* \"#utility.yul\":24347:24532   */\n      swap3\n      swap2\n      pop\n      pop\n      jump\t// out\n    stop\n\n    sub_0: assembly {\n            /* \"CommitReveal.sol\":74:1973  contract CommitReveal {... */\n          mstore(0x40, 0x80)\n            /* \"CommitReveal.sol\":122:125  100 */\n          0x64\n            /* \"CommitReveal.sol\":103:125  uint8 public max = 100 */\n          0x00\n          dup1\n          0x0100\n          exp\n          dup2\n          sload\n          dup2\n          0xff\n          mul\n          not\n          and\n          swap1\n          dup4\n          0xff\n          and\n          mul\n          or\n          swap1\n          sstore\n          pop\n            /* \"CommitReveal.sol\":74:1973  contract CommitReveal {... */\n          callvalue\n          dup1\n          iszero\n          tag_1\n          jumpi\n          0x00\n          dup1\n          revert\n        tag_1:\n          pop\n          dataSize(sub_0)\n          dup1\n          dataOffset(sub_0)\n          0x00\n          codecopy\n          0x00\n          return\n        stop\n\n        sub_0: assembly {\n                /* \"CommitReveal.sol\":74:1973  contract CommitReveal {... */\n              mstore(0x40, 0x80)\n              callvalue\n              dup1\n              iszero\n              tag_1\n              jumpi\n              0x00\n              dup1\n              revert\n            tag_1:\n              pop\n              jumpi(tag_2, lt(calldatasize, 0x04))\n              shr(0xe0, calldataload(0x00))\n              dup1\n              0x3cf5040a\n              eq\n              tag_3\n              jumpi\n              dup1\n              0x6ac5db19\n              eq\n              tag_4\n              jumpi\n              dup1\n              0x701fd0f1\n              eq\n              tag_5\n              jumpi\n              dup1\n              0x7b43a8e6\n              eq\n              tag_6\n              jumpi\n              dup1\n              0xf14fcbc8\n              eq\n              tag_7\n              jumpi\n            tag_2:\n              0x00\n              dup1\n              revert\n                /* \"CommitReveal.sol\":1858:1970  function getHash(bytes32 data) public pure returns(bytes32){... */\n            tag_3:\n              tag_8\n              0x04\n              dup1\n              calldatasize\n              sub\n              dup2\n              add\n              swap1\n              tag_9\n              swap2\n              swap1\n              tag_10\n              jump\t// in\n            tag_9:\n              tag_11\n              jump\t// in\n            tag_8:\n              mload(0x40)\n              tag_12\n              swap2\n              swap1\n              tag_13\n              jump\t// in\n            tag_12:\n              mload(0x40)\n              dup1\n              swap2\n              sub\n              swap1\n              return\n                /* \"CommitReveal.sol\":103:125  uint8 public max = 100 */\n            tag_4:\n              tag_14\n              tag_15\n              jump\t// in\n            tag_14:\n              mload(0x40)\n              tag_16\n              swap2\n              swap1\n              tag_17\n              jump\t// in\n            tag_16:\n              mload(0x40)\n              dup1\n              swap2\n              sub\n              swap1\n              return\n                /* \"CommitReveal.sol\":618:1782  function reveal(bytes32 revealHash) public {... */\n            tag_5:\n              tag_18\n              0x04\n              dup1\n              calldatasize\n              sub\n              dup2\n              add\n              swap1\n              tag_19\n              swap2\n              swap1\n              tag_10\n              jump\t// in\n            tag_19:\n              tag_20\n              jump\t// in\n            tag_18:\n              stop\n                /* \"CommitReveal.sol\":218:260  mapping (address => Commit) public commits */\n            tag_6:\n              tag_21\n              0x04\n              dup1\n              calldatasize\n              sub\n              dup2\n              add\n              swap1\n              tag_22\n              swap2\n              swap1\n              tag_23\n              jump\t// in\n            tag_22:\n              tag_24\n              jump\t// in\n            tag_21:\n              mload(0x40)\n              tag_25\n              swap4\n              swap3\n              swap2\n              swap1\n              tag_26\n              jump\t// in\n            tag_25:\n              mload(0x40)\n              dup1\n              swap2\n              sub\n              swap1\n              return\n                /* \"CommitReveal.sol\":267:543  function commit(bytes32 dataHash) public {... */\n            tag_7:\n              tag_27\n              0x04\n              dup1\n              calldatasize\n              sub\n              dup2\n              add\n              swap1\n              tag_28\n              swap2\n              swap1\n              tag_10\n              jump\t// in\n            tag_28:\n              tag_29\n              jump\t// in\n            tag_27:\n              stop\n                /* \"CommitReveal.sol\":1858:1970  function getHash(bytes32 data) public pure returns(bytes32){... */\n            tag_11:\n                /* \"CommitReveal.sol\":1909:1916  bytes32 */\n              0x00\n                /* \"CommitReveal.sol\":1958:1962  data */\n              dup2\n                /* \"CommitReveal.sol\":1941:1963  abi.encodePacked(data) */\n              add(0x20, mload(0x40))\n              tag_31\n              swap2\n              swap1\n              tag_32\n              jump\t// in\n            tag_31:\n              mload(0x40)\n              0x20\n              dup2\n              dup4\n              sub\n              sub\n              dup2\n              mstore\n              swap1\n              0x40\n              mstore\n                /* \"CommitReveal.sol\":1931:1964  keccak256(abi.encodePacked(data)) */\n              dup1\n              mload\n              swap1\n              0x20\n              add\n              keccak256\n                /* \"CommitReveal.sol\":1924:1964  return keccak256(abi.encodePacked(data)) */\n              swap1\n              pop\n                /* \"CommitReveal.sol\":1858:1970  function getHash(bytes32 data) public pure returns(bytes32){... */\n              swap2\n              swap1\n              pop\n              jump\t// out\n                /* \"CommitReveal.sol\":103:125  uint8 public max = 100 */\n            tag_15:\n              0x00\n              dup1\n              sload\n              swap1\n              0x0100\n              exp\n              swap1\n              div\n              0xff\n              and\n              dup2\n              jump\t// out\n                /* \"CommitReveal.sol\":618:1782  function reveal(bytes32 revealHash) public {... */\n            tag_20:\n                /* \"CommitReveal.sol\":774:779  false */\n              0x00\n                /* \"CommitReveal.sol\":744:779  commits[msg.sender].revealed==false */\n              iszero\n              iszero\n                /* \"CommitReveal.sol\":744:751  commits */\n              0x01\n                /* \"CommitReveal.sol\":744:763  commits[msg.sender] */\n              0x00\n                /* \"CommitReveal.sol\":752:762  msg.sender */\n              caller\n                /* \"CommitReveal.sol\":744:763  commits[msg.sender] */\n              0xffffffffffffffffffffffffffffffffffffffff\n              and\n              0xffffffffffffffffffffffffffffffffffffffff\n              and\n              dup2\n              mstore\n              0x20\n              add\n              swap1\n              dup2\n              mstore\n              0x20\n              add\n              0x00\n              keccak256\n                /* \"CommitReveal.sol\":744:772  commits[msg.sender].revealed */\n              0x01\n              add\n              0x08\n              swap1\n              sload\n              swap1\n              0x0100\n              exp\n              swap1\n              div\n              0xff\n              and\n                /* \"CommitReveal.sol\":744:779  commits[msg.sender].revealed==false */\n              iszero\n              iszero\n              eq\n                /* \"CommitReveal.sol\":736:821  require(commits[msg.sender].revealed==false,\"CommitReveal::reveal: Already revealed\") */\n              tag_34\n              jumpi\n              mload(0x40)\n              0x08c379a000000000000000000000000000000000000000000000000000000000\n              dup2\n              mstore\n              0x04\n              add\n              tag_35\n              swap1\n              tag_36\n              jump\t// in\n            tag_35:\n              mload(0x40)\n              dup1\n              swap2\n              sub\n              swap1\n              revert\n            tag_34:\n                /* \"CommitReveal.sol\":857:861  true */\n              0x01\n                /* \"CommitReveal.sol\":828:835  commits */\n              dup1\n                /* \"CommitReveal.sol\":828:847  commits[msg.sender] */\n              0x00\n                /* \"CommitReveal.sol\":836:846  msg.sender */\n              caller\n                /* \"CommitReveal.sol\":828:847  commits[msg.sender] */\n              0xffffffffffffffffffffffffffffffffffffffff\n              and\n              0xffffffffffffffffffffffffffffffffffffffff\n              and\n              dup2\n              mstore\n              0x20\n              add\n              swap1\n              dup2\n              mstore\n              0x20\n              add\n              0x00\n              keccak256\n                /* \"CommitReveal.sol\":828:856  commits[msg.sender].revealed */\n              0x01\n              add\n              0x08\n                /* \"CommitReveal.sol\":828:861  commits[msg.sender].revealed=true */\n              0x0100\n              exp\n              dup2\n              sload\n              dup2\n              0xff\n              mul\n              not\n              and\n              swap1\n              dup4\n              iszero\n              iszero\n              mul\n              or\n              swap1\n              sstore\n              pop\n                /* \"CommitReveal.sol\":953:960  commits */\n              0x01\n                /* \"CommitReveal.sol\":953:972  commits[msg.sender] */\n              0x00\n                /* \"CommitReveal.sol\":961:971  msg.sender */\n              caller\n                /* \"CommitReveal.sol\":953:972  commits[msg.sender] */\n              0xffffffffffffffffffffffffffffffffffffffff\n              and\n              0xffffffffffffffffffffffffffffffffffffffff\n              and\n              dup2\n              mstore\n              0x20\n              add\n              swap1\n              dup2\n              mstore\n              0x20\n              add\n              0x00\n              keccak256\n                /* \"CommitReveal.sol\":953:979  commits[msg.sender].commit */\n              0x00\n              add\n              sload\n                /* \"CommitReveal.sol\":932:951  getHash(revealHash) */\n              tag_37\n                /* \"CommitReveal.sol\":940:950  revealHash */\n              dup3\n                /* \"CommitReveal.sol\":932:939  getHash */\n              tag_11\n                /* \"CommitReveal.sol\":932:951  getHash(revealHash) */\n              jump\t// in\n            tag_37:\n                /* \"CommitReveal.sol\":932:979  getHash(revealHash)==commits[msg.sender].commit */\n              eq\n                /* \"CommitReveal.sol\":924:1040  require(getHash(revealHash)==commits[msg.sender].commit,\"CommitReveal::reveal: Revealed hash does not match commit\") */\n              tag_38\n              jumpi\n              mload(0x40)\n              0x08c379a000000000000000000000000000000000000000000000000000000000\n              dup2\n              mstore\n              0x04\n              add\n              tag_39\n              swap1\n              tag_40\n              jump\t// in\n            tag_39:\n              mload(0x40)\n              dup1\n              swap2\n              sub\n              swap1\n              revert\n            tag_38:\n                /* \"CommitReveal.sol\":1148:1155  commits */\n              0x01\n                /* \"CommitReveal.sol\":1148:1167  commits[msg.sender] */\n              0x00\n                /* \"CommitReveal.sol\":1156:1166  msg.sender */\n              caller\n                /* \"CommitReveal.sol\":1148:1167  commits[msg.sender] */\n              0xffffffffffffffffffffffffffffffffffffffff\n              and\n              0xffffffffffffffffffffffffffffffffffffffff\n              and\n              dup2\n              mstore\n              0x20\n              add\n              swap1\n              dup2\n              mstore\n              0x20\n              add\n              0x00\n              keccak256\n                /* \"CommitReveal.sol\":1148:1173  commits[msg.sender].block */\n              0x01\n              add\n              0x00\n              swap1\n              sload\n              swap1\n              0x0100\n              exp\n              swap1\n              div\n              0xffffffffffffffff\n              and\n                /* \"CommitReveal.sol\":1127:1173  uint64(block.number)>commits[msg.sender].block */\n              0xffffffffffffffff\n              and\n                /* \"CommitReveal.sol\":1134:1146  block.number */\n              number\n                /* \"CommitReveal.sol\":1127:1173  uint64(block.number)>commits[msg.sender].block */\n              0xffffffffffffffff\n              and\n              gt\n                /* \"CommitReveal.sol\":1119:1243  require(uint64(block.number)>commits[msg.sender].block,\"CommitReveal::reveal: Reveal and commit happened on the same block\") */\n              tag_41\n              jumpi\n              mload(0x40)\n              0x08c379a000000000000000000000000000000000000000000000000000000000\n              dup2\n              mstore\n              0x04\n              add\n              tag_42\n              swap1\n              tag_43\n              jump\t// in\n            tag_42:\n              mload(0x40)\n              dup1\n              swap2\n              sub\n              swap1\n              revert\n            tag_41:\n                /* \"CommitReveal.sol\":1362:1365  250 */\n              0xfa\n                /* \"CommitReveal.sol\":1336:1343  commits */\n              0x01\n                /* \"CommitReveal.sol\":1336:1355  commits[msg.sender] */\n              0x00\n                /* \"CommitReveal.sol\":1344:1354  msg.sender */\n              caller\n                /* \"CommitReveal.sol\":1336:1355  commits[msg.sender] */\n              0xffffffffffffffffffffffffffffffffffffffff\n              and\n              0xffffffffffffffffffffffffffffffffffffffff\n              and\n              dup2\n              mstore\n              0x20\n              add\n              swap1\n              dup2\n              mstore\n              0x20\n              add\n              0x00\n              keccak256\n                /* \"CommitReveal.sol\":1336:1361  commits[msg.sender].block */\n              0x01\n              add\n              0x00\n              swap1\n              sload\n              swap1\n              0x0100\n              exp\n              swap1\n              div\n              0xffffffffffffffff\n              and\n                /* \"CommitReveal.sol\":1336:1365  commits[msg.sender].block+250 */\n              tag_44\n              swap2\n              swap1\n              tag_45\n              jump\t// in\n            tag_44:\n                /* \"CommitReveal.sol\":1314:1365  uint64(block.number)<=commits[msg.sender].block+250 */\n              0xffffffffffffffff\n              and\n                /* \"CommitReveal.sol\":1321:1333  block.number */\n              number\n                /* \"CommitReveal.sol\":1314:1365  uint64(block.number)<=commits[msg.sender].block+250 */\n              0xffffffffffffffff\n              and\n              gt\n              iszero\n                /* \"CommitReveal.sol\":1306:1408  require(uint64(block.number)<=commits[msg.sender].block+250,\"CommitReveal::reveal: Revealed too late\") */\n              tag_46\n              jumpi\n              mload(0x40)\n              0x08c379a000000000000000000000000000000000000000000000000000000000\n              dup2\n              mstore\n              0x04\n              add\n              tag_47\n              swap1\n              tag_48\n              jump\t// in\n            tag_47:\n              mload(0x40)\n              dup1\n              swap2\n              sub\n              swap1\n              revert\n            tag_46:\n                /* \"CommitReveal.sol\":1483:1500  bytes32 blockHash */\n              0x00\n                /* \"CommitReveal.sol\":1513:1520  commits */\n              0x01\n                /* \"CommitReveal.sol\":1513:1532  commits[msg.sender] */\n              0x00\n                /* \"CommitReveal.sol\":1521:1531  msg.sender */\n              caller\n                /* \"CommitReveal.sol\":1513:1532  commits[msg.sender] */\n              0xffffffffffffffffffffffffffffffffffffffff\n              and\n              0xffffffffffffffffffffffffffffffffffffffff\n              and\n              dup2\n              mstore\n              0x20\n              add\n              swap1\n              dup2\n              mstore\n              0x20\n              add\n              0x00\n              keccak256\n                /* \"CommitReveal.sol\":1513:1538  commits[msg.sender].block */\n              0x01\n              add\n              0x00\n              swap1\n              sload\n              swap1\n              0x0100\n              exp\n              swap1\n              div\n              0xffffffffffffffff\n              and\n                /* \"CommitReveal.sol\":1503:1539  blockhash(commits[msg.sender].block) */\n              0xffffffffffffffff\n              and\n              blockhash\n                /* \"CommitReveal.sol\":1483:1539  bytes32 blockHash = blockhash(commits[msg.sender].block) */\n              swap1\n              pop\n                /* \"CommitReveal.sol\":1651:1662  uint random */\n              0x00\n                /* \"CommitReveal.sol\":1721:1724  max */\n              dup1\n              0x00\n              swap1\n              sload\n              swap1\n              0x0100\n              exp\n              swap1\n              div\n              0xff\n              and\n                /* \"CommitReveal.sol\":1665:1724  uint(keccak256(abi.encodePacked(blockHash,revealHash)))%max */\n              0xff\n              and\n                /* \"CommitReveal.sol\":1697:1706  blockHash */\n              dup3\n                /* \"CommitReveal.sol\":1707:1717  revealHash */\n              dup5\n                /* \"CommitReveal.sol\":1680:1718  abi.encodePacked(blockHash,revealHash) */\n              add(0x20, mload(0x40))\n              tag_49\n              swap3\n              swap2\n              swap1\n              tag_50\n              jump\t// in\n            tag_49:\n              mload(0x40)\n              0x20\n              dup2\n              dup4\n              sub\n              sub\n              dup2\n              mstore\n              swap1\n              0x40\n              mstore\n                /* \"CommitReveal.sol\":1670:1719  keccak256(abi.encodePacked(blockHash,revealHash)) */\n              dup1\n              mload\n              swap1\n              0x20\n              add\n              keccak256\n                /* \"CommitReveal.sol\":1665:1720  uint(keccak256(abi.encodePacked(blockHash,revealHash))) */\n              0x00\n              shr\n                /* \"CommitReveal.sol\":1665:1724  uint(keccak256(abi.encodePacked(blockHash,revealHash)))%max */\n              tag_51\n              swap2\n              swap1\n              tag_52\n              jump\t// in\n            tag_51:\n                /* \"CommitReveal.sol\":1651:1724  uint random = uint(keccak256(abi.encodePacked(blockHash,revealHash)))%max */\n              swap1\n              pop\n                /* \"CommitReveal.sol\":1736:1776  RevealHash(msg.sender,revealHash,random) */\n              0xbc016dd1cadeaefcb851af7a0a93532e0023d536894b730801f7bcfe7065bcc2\n                /* \"CommitReveal.sol\":1747:1757  msg.sender */\n              caller\n                /* \"CommitReveal.sol\":1758:1768  revealHash */\n              dup5\n                /* \"CommitReveal.sol\":1769:1775  random */\n              dup4\n                /* \"CommitReveal.sol\":1736:1776  RevealHash(msg.sender,revealHash,random) */\n              mload(0x40)\n              tag_53\n              swap4\n              swap3\n              swap2\n              swap1\n              tag_54\n              jump\t// in\n            tag_53:\n              mload(0x40)\n              dup1\n              swap2\n              sub\n              swap1\n              log1\n                /* \"CommitReveal.sol\":661:1782  {... */\n              pop\n              pop\n                /* \"CommitReveal.sol\":618:1782  function reveal(bytes32 revealHash) public {... */\n              pop\n              jump\t// out\n                /* \"CommitReveal.sol\":218:260  mapping (address => Commit) public commits */\n            tag_24:\n              mstore(0x20, 0x01)\n              dup1\n              0x00\n              mstore\n              keccak256(0x00, 0x40)\n              0x00\n              swap2\n              pop\n              swap1\n              pop\n              dup1\n              0x00\n              add\n              sload\n              swap1\n              dup1\n              0x01\n              add\n              0x00\n              swap1\n              sload\n              swap1\n              0x0100\n              exp\n              swap1\n              div\n              0xffffffffffffffff\n              and\n              swap1\n              dup1\n              0x01\n              add\n              0x08\n              swap1\n              sload\n              swap1\n              0x0100\n              exp\n              swap1\n              div\n              0xff\n              and\n              swap1\n              pop\n              dup4\n              jump\t// out\n                /* \"CommitReveal.sol\":267:543  function commit(bytes32 dataHash) public {... */\n            tag_29:\n                /* \"CommitReveal.sol\":344:352  dataHash */\n              dup1\n                /* \"CommitReveal.sol\":315:322  commits */\n              0x01\n                /* \"CommitReveal.sol\":315:334  commits[msg.sender] */\n              0x00\n                /* \"CommitReveal.sol\":323:333  msg.sender */\n              caller\n                /* \"CommitReveal.sol\":315:334  commits[msg.sender] */\n              0xffffffffffffffffffffffffffffffffffffffff\n              and\n              0xffffffffffffffffffffffffffffffffffffffff\n              and\n              dup2\n              mstore\n              0x20\n              add\n              swap1\n              dup2\n              mstore\n              0x20\n              add\n              0x00\n              keccak256\n                /* \"CommitReveal.sol\":315:341  commits[msg.sender].commit */\n              0x00\n              add\n                /* \"CommitReveal.sol\":315:352  commits[msg.sender].commit = dataHash */\n              dup2\n              swap1\n              sstore\n              pop\n                /* \"CommitReveal.sol\":394:406  block.number */\n              number\n                /* \"CommitReveal.sol\":359:366  commits */\n              0x01\n                /* \"CommitReveal.sol\":359:378  commits[msg.sender] */\n              0x00\n                /* \"CommitReveal.sol\":367:377  msg.sender */\n              caller\n                /* \"CommitReveal.sol\":359:378  commits[msg.sender] */\n              0xffffffffffffffffffffffffffffffffffffffff\n              and\n              0xffffffffffffffffffffffffffffffffffffffff\n              and\n              dup2\n              mstore\n              0x20\n              add\n              swap1\n              dup2\n              mstore\n              0x20\n              add\n              0x00\n              keccak256\n                /* \"CommitReveal.sol\":359:384  commits[msg.sender].block */\n              0x01\n              add\n              0x00\n                /* \"CommitReveal.sol\":359:407  commits[msg.sender].block = uint64(block.number) */\n              0x0100\n              exp\n              dup2\n              sload\n              dup2\n              0xffffffffffffffff\n              mul\n              not\n              and\n              swap1\n              dup4\n              0xffffffffffffffff\n              and\n              mul\n              or\n              swap1\n              sstore\n              pop\n                /* \"CommitReveal.sol\":445:450  false */\n              0x00\n                /* \"CommitReveal.sol\":414:421  commits */\n              0x01\n                /* \"CommitReveal.sol\":414:433  commits[msg.sender] */\n              0x00\n                /* \"CommitReveal.sol\":422:432  msg.sender */\n              caller\n                /* \"CommitReveal.sol\":414:433  commits[msg.sender] */\n              0xffffffffffffffffffffffffffffffffffffffff\n              and\n              0xffffffffffffffffffffffffffffffffffffffff\n              and\n              dup2\n              mstore\n              0x20\n              add\n              swap1\n              dup2\n              mstore\n              0x20\n              add\n              0x00\n              keccak256\n                /* \"CommitReveal.sol\":414:442  commits[msg.sender].revealed */\n              0x01\n              add\n              0x08\n                /* \"CommitReveal.sol\":414:450  commits[msg.sender].revealed = false */\n              0x0100\n              exp\n              dup2\n              sload\n              dup2\n              0xff\n              mul\n              not\n              and\n              swap1\n              dup4\n              iszero\n              iszero\n              mul\n              or\n              swap1\n              sstore\n              pop\n                /* \"CommitReveal.sol\":462:537  CommitHash(msg.sender,commits[msg.sender].commit,commits[msg.sender].block) */\n              0x3c1a1f8f38335b17f751c6da4ba7d1865f26b3997535176f5080de9fad891603\n                /* \"CommitReveal.sol\":473:483  msg.sender */\n              caller\n                /* \"CommitReveal.sol\":484:491  commits */\n              0x01\n                /* \"CommitReveal.sol\":484:503  commits[msg.sender] */\n              0x00\n                /* \"CommitReveal.sol\":492:502  msg.sender */\n              caller\n                /* \"CommitReveal.sol\":484:503  commits[msg.sender] */\n              0xffffffffffffffffffffffffffffffffffffffff\n              and\n              0xffffffffffffffffffffffffffffffffffffffff\n              and\n              dup2\n              mstore\n              0x20\n              add\n              swap1\n              dup2\n              mstore\n              0x20\n              add\n              0x00\n              keccak256\n                /* \"CommitReveal.sol\":484:510  commits[msg.sender].commit */\n              0x00\n              add\n              sload\n                /* \"CommitReveal.sol\":511:518  commits */\n              0x01\n                /* \"CommitReveal.sol\":511:530  commits[msg.sender] */\n              0x00\n                /* \"CommitReveal.sol\":519:529  msg.sender */\n              caller\n                /* \"CommitReveal.sol\":511:530  commits[msg.sender] */\n              0xffffffffffffffffffffffffffffffffffffffff\n              and\n              0xffffffffffffffffffffffffffffffffffffffff\n              and\n              dup2\n              mstore\n              0x20\n              add\n              swap1\n              dup2\n              mstore\n              0x20\n              add\n              0x00\n              keccak256\n                /* \"CommitReveal.sol\":511:536  commits[msg.sender].block */\n              0x01\n              add\n              0x00\n              swap1\n              sload\n              swap1\n              0x0100\n              exp\n              swap1\n              div\n              0xffffffffffffffff\n              and\n                /* \"CommitReveal.sol\":462:537  CommitHash(msg.sender,commits[msg.sender].commit,commits[msg.sender].block) */\n              mload(0x40)\n              tag_56\n              swap4\n              swap3\n              swap2\n              swap1\n              tag_57\n              jump\t// in\n            tag_56:\n              mload(0x40)\n              dup1\n              swap2\n              sub\n              swap1\n              log1\n                /* \"CommitReveal.sol\":267:543  function commit(bytes32 dataHash) public {... */\n              pop\n              jump\t// out\n                /* \"#utility.yul\":88:205   */\n            tag_59:\n                /* \"#utility.yul\":197:198   */\n              0x00\n                /* \"#utility.yul\":194:195   */\n              dup1\n                /* \"#utility.yul\":187:199   */\n              revert\n                /* \"#utility.yul\":334:411   */\n            tag_61:\n                /* \"#utility.yul\":371:378   */\n              0x00\n                /* \"#utility.yul\":400:405   */\n              dup2\n                /* \"#utility.yul\":389:405   */\n              swap1\n              pop\n                /* \"#utility.yul\":334:411   */\n              swap2\n              swap1\n              pop\n              jump\t// out\n                /* \"#utility.yul\":417:539   */\n            tag_62:\n                /* \"#utility.yul\":490:514   */\n              tag_97\n                /* \"#utility.yul\":508:513   */\n              dup2\n                /* \"#utility.yul\":490:514   */\n              tag_61\n              jump\t// in\n            tag_97:\n                /* \"#utility.yul\":483:488   */\n              dup2\n                /* \"#utility.yul\":480:515   */\n              eq\n                /* \"#utility.yul\":470:533   */\n              tag_98\n              jumpi\n                /* \"#utility.yul\":529:530   */\n              0x00\n                /* \"#utility.yul\":526:527   */\n              dup1\n                /* \"#utility.yul\":519:531   */\n              revert\n                /* \"#utility.yul\":470:533   */\n            tag_98:\n                /* \"#utility.yul\":417:539   */\n              pop\n              jump\t// out\n                /* \"#utility.yul\":545:684   */\n            tag_63:\n                /* \"#utility.yul\":591:596   */\n              0x00\n                /* \"#utility.yul\":629:635   */\n              dup2\n                /* \"#utility.yul\":616:636   */\n              calldataload\n                /* \"#utility.yul\":607:636   */\n              swap1\n              pop\n                /* \"#utility.yul\":645:678   */\n              tag_100\n                /* \"#utility.yul\":672:677   */\n              dup2\n                /* \"#utility.yul\":645:678   */\n              tag_62\n              jump\t// in\n            tag_100:\n                /* \"#utility.yul\":545:684   */\n              swap3\n              swap2\n              pop\n              pop\n              jump\t// out\n                /* \"#utility.yul\":690:1019   */\n            tag_10:\n                /* \"#utility.yul\":749:755   */\n              0x00\n                /* \"#utility.yul\":798:800   */\n              0x20\n                /* \"#utility.yul\":786:795   */\n              dup3\n                /* \"#utility.yul\":777:784   */\n              dup5\n                /* \"#utility.yul\":773:796   */\n              sub\n                /* \"#utility.yul\":769:801   */\n              slt\n                /* \"#utility.yul\":766:885   */\n              iszero\n              tag_102\n              jumpi\n                /* \"#utility.yul\":804:883   */\n              tag_103\n              tag_59\n              jump\t// in\n            tag_103:\n                /* \"#utility.yul\":766:885   */\n            tag_102:\n                /* \"#utility.yul\":924:925   */\n              0x00\n                /* \"#utility.yul\":949:1002   */\n              tag_104\n                /* \"#utility.yul\":994:1001   */\n              dup5\n                /* \"#utility.yul\":985:991   */\n              dup3\n                /* \"#utility.yul\":974:983   */\n              dup6\n                /* \"#utility.yul\":970:992   */\n              add\n                /* \"#utility.yul\":949:1002   */\n              tag_63\n              jump\t// in\n            tag_104:\n                /* \"#utility.yul\":939:1002   */\n              swap2\n              pop\n                /* \"#utility.yul\":895:1012   */\n              pop\n                /* \"#utility.yul\":690:1019   */\n              swap3\n              swap2\n              pop\n              pop\n              jump\t// out\n                /* \"#utility.yul\":1025:1143   */\n            tag_64:\n                /* \"#utility.yul\":1112:1136   */\n              tag_106\n                /* \"#utility.yul\":1130:1135   */\n              dup2\n                /* \"#utility.yul\":1112:1136   */\n              tag_61\n              jump\t// in\n            tag_106:\n                /* \"#utility.yul\":1107:1110   */\n              dup3\n                /* \"#utility.yul\":1100:1137   */\n              mstore\n                /* \"#utility.yul\":1025:1143   */\n              pop\n              pop\n              jump\t// out\n                /* \"#utility.yul\":1149:1371   */\n            tag_13:\n                /* \"#utility.yul\":1242:1246   */\n              0x00\n                /* \"#utility.yul\":1280:1282   */\n              0x20\n                /* \"#utility.yul\":1269:1278   */\n              dup3\n                /* \"#utility.yul\":1265:1283   */\n              add\n                /* \"#utility.yul\":1257:1283   */\n              swap1\n              pop\n                /* \"#utility.yul\":1293:1364   */\n              tag_108\n                /* \"#utility.yul\":1361:1362   */\n              0x00\n                /* \"#utility.yul\":1350:1359   */\n              dup4\n                /* \"#utility.yul\":1346:1363   */\n              add\n                /* \"#utility.yul\":1337:1343   */\n              dup5\n                /* \"#utility.yul\":1293:1364   */\n              tag_64\n              jump\t// in\n            tag_108:\n                /* \"#utility.yul\":1149:1371   */\n              swap3\n              swap2\n              pop\n              pop\n              jump\t// out\n                /* \"#utility.yul\":1377:1463   */\n            tag_65:\n                /* \"#utility.yul\":1412:1419   */\n              0x00\n                /* \"#utility.yul\":1452:1456   */\n              0xff\n                /* \"#utility.yul\":1445:1450   */\n              dup3\n                /* \"#utility.yul\":1441:1457   */\n              and\n                /* \"#utility.yul\":1430:1457   */\n              swap1\n              pop\n                /* \"#utility.yul\":1377:1463   */\n              swap2\n              swap1\n              pop\n              jump\t// out\n                /* \"#utility.yul\":1469:1581   */\n            tag_66:\n                /* \"#utility.yul\":1552:1574   */\n              tag_111\n                /* \"#utility.yul\":1568:1573   */\n              dup2\n                /* \"#utility.yul\":1552:1574   */\n              tag_65\n              jump\t// in\n            tag_111:\n                /* \"#utility.yul\":1547:1550   */\n              dup3\n                /* \"#utility.yul\":1540:1575   */\n              mstore\n                /* \"#utility.yul\":1469:1581   */\n              pop\n              pop\n              jump\t// out\n                /* \"#utility.yul\":1587:1801   */\n            tag_17:\n                /* \"#utility.yul\":1676:1680   */\n              0x00\n                /* \"#utility.yul\":1714:1716   */\n              0x20\n                /* \"#utility.yul\":1703:1712   */\n              dup3\n                /* \"#utility.yul\":1699:1717   */\n              add\n                /* \"#utility.yul\":1691:1717   */\n              swap1\n              pop\n                /* \"#utility.yul\":1727:1794   */\n              tag_113\n                /* \"#utility.yul\":1791:1792   */\n              0x00\n                /* \"#utility.yul\":1780:1789   */\n              dup4\n                /* \"#utility.yul\":1776:1793   */\n              add\n                /* \"#utility.yul\":1767:1773   */\n              dup5\n                /* \"#utility.yul\":1727:1794   */\n              tag_66\n              jump\t// in\n            tag_113:\n                /* \"#utility.yul\":1587:1801   */\n              swap3\n              swap2\n              pop\n              pop\n              jump\t// out\n                /* \"#utility.yul\":1807:1933   */\n            tag_67:\n                /* \"#utility.yul\":1844:1851   */\n              0x00\n                /* \"#utility.yul\":1884:1926   */\n              0xffffffffffffffffffffffffffffffffffffffff\n                /* \"#utility.yul\":1877:1882   */\n              dup3\n                /* \"#utility.yul\":1873:1927   */\n              and\n                /* \"#utility.yul\":1862:1927   */\n              swap1\n              pop\n                /* \"#utility.yul\":1807:1933   */\n              swap2\n              swap1\n              pop\n              jump\t// out\n                /* \"#utility.yul\":1939:2035   */\n            tag_68:\n                /* \"#utility.yul\":1976:1983   */\n              0x00\n                /* \"#utility.yul\":2005:2029   */\n              tag_116\n                /* \"#utility.yul\":2023:2028   */\n              dup3\n                /* \"#utility.yul\":2005:2029   */\n              tag_67\n              jump\t// in\n            tag_116:\n                /* \"#utility.yul\":1994:2029   */\n              swap1\n              pop\n                /* \"#utility.yul\":1939:2035   */\n              swap2\n              swap1\n              pop\n              jump\t// out\n                /* \"#utility.yul\":2041:2163   */\n            tag_69:\n                /* \"#utility.yul\":2114:2138   */\n              tag_118\n                /* \"#utility.yul\":2132:2137   */\n              dup2\n                /* \"#utility.yul\":2114:2138   */\n              tag_68\n              jump\t// in\n            tag_118:\n                /* \"#utility.yul\":2107:2112   */\n              dup2\n                /* \"#utility.yul\":2104:2139   */\n              eq\n                /* \"#utility.yul\":2094:2157   */\n              tag_119\n              jumpi\n                /* \"#utility.yul\":2153:2154   */\n              0x00\n                /* \"#utility.yul\":2150:2151   */\n              dup1\n                /* \"#utility.yul\":2143:2155   */\n              revert\n                /* \"#utility.yul\":2094:2157   */\n            tag_119:\n                /* \"#utility.yul\":2041:2163   */\n              pop\n              jump\t// out\n                /* \"#utility.yul\":2169:2308   */\n            tag_70:\n                /* \"#utility.yul\":2215:2220   */\n              0x00\n                /* \"#utility.yul\":2253:2259   */\n              dup2\n                /* \"#utility.yul\":2240:2260   */\n              calldataload\n                /* \"#utility.yul\":2231:2260   */\n              swap1\n              pop\n                /* \"#utility.yul\":2269:2302   */\n              tag_121\n                /* \"#utility.yul\":2296:2301   */\n              dup2\n                /* \"#utility.yul\":2269:2302   */\n              tag_69\n              jump\t// in\n            tag_121:\n                /* \"#utility.yul\":2169:2308   */\n              swap3\n              swap2\n              pop\n              pop\n              jump\t// out\n                /* \"#utility.yul\":2314:2643   */\n            tag_23:\n                /* \"#utility.yul\":2373:2379   */\n              0x00\n                /* \"#utility.yul\":2422:2424   */\n              0x20\n                /* \"#utility.yul\":2410:2419   */\n              dup3\n                /* \"#utility.yul\":2401:2408   */\n              dup5\n                /* \"#utility.yul\":2397:2420   */\n              sub\n                /* \"#utility.yul\":2393:2425   */\n              slt\n                /* \"#utility.yul\":2390:2509   */\n              iszero\n              tag_123\n              jumpi\n                /* \"#utility.yul\":2428:2507   */\n              tag_124\n              tag_59\n              jump\t// in\n            tag_124:\n                /* \"#utility.yul\":2390:2509   */\n            tag_123:\n                /* \"#utility.yul\":2548:2549   */\n              0x00\n                /* \"#utility.yul\":2573:2626   */\n              tag_125\n                /* \"#utility.yul\":2618:2625   */\n              dup5\n                /* \"#utility.yul\":2609:2615   */\n              dup3\n                /* \"#utility.yul\":2598:2607   */\n              dup6\n                /* \"#utility.yul\":2594:2616   */\n              add\n                /* \"#utility.yul\":2573:2626   */\n              tag_70\n              jump\t// in\n            tag_125:\n                /* \"#utility.yul\":2563:2626   */\n              swap2\n              pop\n                /* \"#utility.yul\":2519:2636   */\n              pop\n                /* \"#utility.yul\":2314:2643   */\n              swap3\n              swap2\n              pop\n              pop\n              jump\t// out\n                /* \"#utility.yul\":2649:2750   */\n            tag_71:\n                /* \"#utility.yul\":2685:2692   */\n              0x00\n                /* \"#utility.yul\":2725:2743   */\n              0xffffffffffffffff\n                /* \"#utility.yul\":2718:2723   */\n              dup3\n                /* \"#utility.yul\":2714:2744   */\n              and\n                /* \"#utility.yul\":2703:2744   */\n              swap1\n              pop\n                /* \"#utility.yul\":2649:2750   */\n              swap2\n              swap1\n              pop\n              jump\t// out\n                /* \"#utility.yul\":2756:2871   */\n            tag_72:\n                /* \"#utility.yul\":2841:2864   */\n              tag_128\n                /* \"#utility.yul\":2858:2863   */\n              dup2\n                /* \"#utility.yul\":2841:2864   */\n              tag_71\n              jump\t// in\n            tag_128:\n                /* \"#utility.yul\":2836:2839   */\n              dup3\n                /* \"#utility.yul\":2829:2865   */\n              mstore\n                /* \"#utility.yul\":2756:2871   */\n              pop\n              pop\n              jump\t// out\n                /* \"#utility.yul\":2877:2967   */\n            tag_73:\n                /* \"#utility.yul\":2911:2918   */\n              0x00\n                /* \"#utility.yul\":2954:2959   */\n              dup2\n                /* \"#utility.yul\":2947:2960   */\n              iszero\n                /* \"#utility.yul\":2940:2961   */\n              iszero\n                /* \"#utility.yul\":2929:2961   */\n              swap1\n              pop\n                /* \"#utility.yul\":2877:2967   */\n              swap2\n              swap1\n              pop\n              jump\t// out\n                /* \"#utility.yul\":2973:3082   */\n            tag_74:\n                /* \"#utility.yul\":3054:3075   */\n              tag_131\n                /* \"#utility.yul\":3069:3074   */\n              dup2\n                /* \"#utility.yul\":3054:3075   */\n              tag_73\n              jump\t// in\n            tag_131:\n                /* \"#utility.yul\":3049:3052   */\n              dup3\n                /* \"#utility.yul\":3042:3076   */\n              mstore\n                /* \"#utility.yul\":2973:3082   */\n              pop\n              pop\n              jump\t// out\n                /* \"#utility.yul\":3088:3514   */\n            tag_26:\n                /* \"#utility.yul\":3229:3233   */\n              0x00\n                /* \"#utility.yul\":3267:3269   */\n              0x60\n                /* \"#utility.yul\":3256:3265   */\n              dup3\n                /* \"#utility.yul\":3252:3270   */\n              add\n                /* \"#utility.yul\":3244:3270   */\n              swap1\n              pop\n                /* \"#utility.yul\":3280:3351   */\n              tag_133\n                /* \"#utility.yul\":3348:3349   */\n              0x00\n                /* \"#utility.yul\":3337:3346   */\n              dup4\n                /* \"#utility.yul\":3333:3350   */\n              add\n                /* \"#utility.yul\":3324:3330   */\n              dup7\n                /* \"#utility.yul\":3280:3351   */\n              tag_64\n              jump\t// in\n            tag_133:\n                /* \"#utility.yul\":3361:3431   */\n              tag_134\n                /* \"#utility.yul\":3427:3429   */\n              0x20\n                /* \"#utility.yul\":3416:3425   */\n              dup4\n                /* \"#utility.yul\":3412:3430   */\n              add\n                /* \"#utility.yul\":3403:3409   */\n              dup6\n                /* \"#utility.yul\":3361:3431   */\n              tag_72\n              jump\t// in\n            tag_134:\n                /* \"#utility.yul\":3441:3507   */\n              tag_135\n                /* \"#utility.yul\":3503:3505   */\n              0x40\n                /* \"#utility.yul\":3492:3501   */\n              dup4\n                /* \"#utility.yul\":3488:3506   */\n              add\n                /* \"#utility.yul\":3479:3485   */\n              dup5\n                /* \"#utility.yul\":3441:3507   */\n              tag_74\n              jump\t// in\n            tag_135:\n                /* \"#utility.yul\":3088:3514   */\n              swap5\n              swap4\n              pop\n              pop\n              pop\n              pop\n              jump\t// out\n                /* \"#utility.yul\":3520:3599   */\n            tag_75:\n                /* \"#utility.yul\":3559:3566   */\n              0x00\n                /* \"#utility.yul\":3588:3593   */\n              dup2\n                /* \"#utility.yul\":3577:3593   */\n              swap1\n              pop\n                /* \"#utility.yul\":3520:3599   */\n              swap2\n              swap1\n              pop\n              jump\t// out\n                /* \"#utility.yul\":3605:3762   */\n            tag_76:\n                /* \"#utility.yul\":3710:3755   */\n              tag_138\n                /* \"#utility.yul\":3730:3754   */\n              tag_139\n                /* \"#utility.yul\":3748:3753   */\n              dup3\n                /* \"#utility.yul\":3730:3754   */\n              tag_61\n              jump\t// in\n            tag_139:\n                /* \"#utility.yul\":3710:3755   */\n              tag_75\n              jump\t// in\n            tag_138:\n                /* \"#utility.yul\":3705:3708   */\n              dup3\n                /* \"#utility.yul\":3698:3756   */\n              mstore\n                /* \"#utility.yul\":3605:3762   */\n              pop\n              pop\n              jump\t// out\n                /* \"#utility.yul\":3768:4024   */\n            tag_32:\n                /* \"#utility.yul\":3880:3883   */\n              0x00\n                /* \"#utility.yul\":3895:3970   */\n              tag_141\n                /* \"#utility.yul\":3966:3969   */\n              dup3\n                /* \"#utility.yul\":3957:3963   */\n              dup5\n                /* \"#utility.yul\":3895:3970   */\n              tag_76\n              jump\t// in\n            tag_141:\n                /* \"#utility.yul\":3995:3997   */\n              0x20\n                /* \"#utility.yul\":3990:3993   */\n              dup3\n                /* \"#utility.yul\":3986:3998   */\n              add\n                /* \"#utility.yul\":3979:3998   */\n              swap2\n              pop\n                /* \"#utility.yul\":4015:4018   */\n              dup2\n                /* \"#utility.yul\":4008:4018   */\n              swap1\n              pop\n                /* \"#utility.yul\":3768:4024   */\n              swap3\n              swap2\n              pop\n              pop\n              jump\t// out\n                /* \"#utility.yul\":4030:4199   */\n            tag_77:\n                /* \"#utility.yul\":4114:4125   */\n              0x00\n                /* \"#utility.yul\":4148:4154   */\n              dup3\n                /* \"#utility.yul\":4143:4146   */\n              dup3\n                /* \"#utility.yul\":4136:4155   */\n              mstore\n                /* \"#utility.yul\":4188:4192   */\n              0x20\n                /* \"#utility.yul\":4183:4186   */\n              dup3\n                /* \"#utility.yul\":4179:4193   */\n              add\n                /* \"#utility.yul\":4164:4193   */\n              swap1\n              pop\n                /* \"#utility.yul\":4030:4199   */\n              swap3\n              swap2\n              pop\n              pop\n              jump\t// out\n                /* \"#utility.yul\":4205:4430   */\n            tag_78:\n                /* \"#utility.yul\":4345:4379   */\n              0x436f6d6d697452657665616c3a3a72657665616c3a20416c7265616479207265\n                /* \"#utility.yul\":4341:4342   */\n              0x00\n                /* \"#utility.yul\":4333:4339   */\n              dup3\n                /* \"#utility.yul\":4329:4343   */\n              add\n                /* \"#utility.yul\":4322:4380   */\n              mstore\n                /* \"#utility.yul\":4414:4422   */\n              0x7665616c65640000000000000000000000000000000000000000000000000000\n                /* \"#utility.yul\":4409:4411   */\n              0x20\n                /* \"#utility.yul\":4401:4407   */\n              dup3\n                /* \"#utility.yul\":4397:4412   */\n              add\n                /* \"#utility.yul\":4390:4423   */\n              mstore\n                /* \"#utility.yul\":4205:4430   */\n              pop\n              jump\t// out\n                /* \"#utility.yul\":4436:4802   */\n            tag_79:\n                /* \"#utility.yul\":4578:4581   */\n              0x00\n                /* \"#utility.yul\":4599:4666   */\n              tag_145\n                /* \"#utility.yul\":4663:4665   */\n              0x26\n                /* \"#utility.yul\":4658:4661   */\n              dup4\n                /* \"#utility.yul\":4599:4666   */\n              tag_77\n              jump\t// in\n            tag_145:\n                /* \"#utility.yul\":4592:4666   */\n              swap2\n              pop\n                /* \"#utility.yul\":4675:4768   */\n              tag_146\n                /* \"#utility.yul\":4764:4767   */\n              dup3\n                /* \"#utility.yul\":4675:4768   */\n              tag_78\n              jump\t// in\n            tag_146:\n                /* \"#utility.yul\":4793:4795   */\n              0x40\n                /* \"#utility.yul\":4788:4791   */\n              dup3\n                /* \"#utility.yul\":4784:4796   */\n              add\n                /* \"#utility.yul\":4777:4796   */\n              swap1\n              pop\n                /* \"#utility.yul\":4436:4802   */\n              swap2\n              swap1\n              pop\n              jump\t// out\n                /* \"#utility.yul\":4808:5227   */\n            tag_36:\n                /* \"#utility.yul\":4974:4978   */\n              0x00\n                /* \"#utility.yul\":5012:5014   */\n              0x20\n                /* \"#utility.yul\":5001:5010   */\n              dup3\n                /* \"#utility.yul\":4997:5015   */\n              add\n                /* \"#utility.yul\":4989:5015   */\n              swap1\n              pop\n                /* \"#utility.yul\":5061:5070   */\n              dup2\n                /* \"#utility.yul\":5055:5059   */\n              dup2\n                /* \"#utility.yul\":5051:5071   */\n              sub\n                /* \"#utility.yul\":5047:5048   */\n              0x00\n                /* \"#utility.yul\":5036:5045   */\n              dup4\n                /* \"#utility.yul\":5032:5049   */\n              add\n                /* \"#utility.yul\":5025:5072   */\n              mstore\n                /* \"#utility.yul\":5089:5220   */\n              tag_148\n                /* \"#utility.yul\":5215:5219   */\n              dup2\n                /* \"#utility.yul\":5089:5220   */\n              tag_79\n              jump\t// in\n            tag_148:\n                /* \"#utility.yul\":5081:5220   */\n              swap1\n              pop\n                /* \"#utility.yul\":4808:5227   */\n              swap2\n              swap1\n              pop\n              jump\t// out\n                /* \"#utility.yul\":5233:5477   */\n            tag_80:\n                /* \"#utility.yul\":5373:5407   */\n              0x436f6d6d697452657665616c3a3a72657665616c3a2052657665616c65642068\n                /* \"#utility.yul\":5369:5370   */\n              0x00\n                /* \"#utility.yul\":5361:5367   */\n              dup3\n                /* \"#utility.yul\":5357:5371   */\n              add\n                /* \"#utility.yul\":5350:5408   */\n              mstore\n                /* \"#utility.yul\":5442:5469   */\n              0x61736820646f6573206e6f74206d6174636820636f6d6d697400000000000000\n                /* \"#utility.yul\":5437:5439   */\n              0x20\n                /* \"#utility.yul\":5429:5435   */\n              dup3\n                /* \"#utility.yul\":5425:5440   */\n              add\n                /* \"#utility.yul\":5418:5470   */\n              mstore\n                /* \"#utility.yul\":5233:5477   */\n              pop\n              jump\t// out\n                /* \"#utility.yul\":5483:5849   */\n            tag_81:\n                /* \"#utility.yul\":5625:5628   */\n              0x00\n                /* \"#utility.yul\":5646:5713   */\n              tag_151\n                /* \"#utility.yul\":5710:5712   */\n              0x39\n                /* \"#utility.yul\":5705:5708   */\n              dup4\n                /* \"#utility.yul\":5646:5713   */\n              tag_77\n              jump\t// in\n            tag_151:\n                /* \"#utility.yul\":5639:5713   */\n              swap2\n              pop\n                /* \"#utility.yul\":5722:5815   */\n              tag_152\n                /* \"#utility.yul\":5811:5814   */\n              dup3\n                /* \"#utility.yul\":5722:5815   */\n              tag_80\n              jump\t// in\n            tag_152:\n                /* \"#utility.yul\":5840:5842   */\n              0x40\n                /* \"#utility.yul\":5835:5838   */\n              dup3\n                /* \"#utility.yul\":5831:5843   */\n              add\n                /* \"#utility.yul\":5824:5843   */\n              swap1\n              pop\n                /* \"#utility.yul\":5483:5849   */\n              swap2\n              swap1\n              pop\n              jump\t// out\n                /* \"#utility.yul\":5855:6274   */\n            tag_40:\n                /* \"#utility.yul\":6021:6025   */\n              0x00\n                /* \"#utility.yul\":6059:6061   */\n              0x20\n                /* \"#utility.yul\":6048:6057   */\n              dup3\n                /* \"#utility.yul\":6044:6062   */\n              add\n                /* \"#utility.yul\":6036:6062   */\n              swap1\n              pop\n                /* \"#utility.yul\":6108:6117   */\n              dup2\n                /* \"#utility.yul\":6102:6106   */\n              dup2\n                /* \"#utility.yul\":6098:6118   */\n              sub\n                /* \"#utility.yul\":6094:6095   */\n              0x00\n                /* \"#utility.yul\":6083:6092   */\n              dup4\n                /* \"#utility.yul\":6079:6096   */\n              add\n                /* \"#utility.yul\":6072:6119   */\n              mstore\n                /* \"#utility.yul\":6136:6267   */\n              tag_154\n                /* \"#utility.yul\":6262:6266   */\n              dup2\n                /* \"#utility.yul\":6136:6267   */\n              tag_81\n              jump\t// in\n            tag_154:\n                /* \"#utility.yul\":6128:6267   */\n              swap1\n              pop\n                /* \"#utility.yul\":5855:6274   */\n              swap2\n              swap1\n              pop\n              jump\t// out\n                /* \"#utility.yul\":6280:6570   */\n            tag_82:\n                /* \"#utility.yul\":6420:6454   */\n              0x436f6d6d697452657665616c3a3a72657665616c3a2052657665616c20616e64\n                /* \"#utility.yul\":6416:6417   */\n              0x00\n                /* \"#utility.yul\":6408:6414   */\n              dup3\n                /* \"#utility.yul\":6404:6418   */\n              add\n                /* \"#utility.yul\":6397:6455   */\n              mstore\n                /* \"#utility.yul\":6489:6523   */\n              0x20636f6d6d69742068617070656e6564206f6e207468652073616d6520626c6f\n                /* \"#utility.yul\":6484:6486   */\n              0x20\n                /* \"#utility.yul\":6476:6482   */\n              dup3\n                /* \"#utility.yul\":6472:6487   */\n              add\n                /* \"#utility.yul\":6465:6524   */\n              mstore\n                /* \"#utility.yul\":6558:6562   */\n              0x636b000000000000000000000000000000000000000000000000000000000000\n                /* \"#utility.yul\":6553:6555   */\n              0x40\n                /* \"#utility.yul\":6545:6551   */\n              dup3\n                /* \"#utility.yul\":6541:6556   */\n              add\n                /* \"#utility.yul\":6534:6563   */\n              mstore\n                /* \"#utility.yul\":6280:6570   */\n              pop\n              jump\t// out\n                /* \"#utility.yul\":6576:6942   */\n            tag_83:\n                /* \"#utility.yul\":6718:6721   */\n              0x00\n                /* \"#utility.yul\":6739:6806   */\n              tag_157\n                /* \"#utility.yul\":6803:6805   */\n              0x42\n                /* \"#utility.yul\":6798:6801   */\n              dup4\n                /* \"#utility.yul\":6739:6806   */\n              tag_77\n              jump\t// in\n            tag_157:\n                /* \"#utility.yul\":6732:6806   */\n              swap2\n              pop\n                /* \"#utility.yul\":6815:6908   */\n              tag_158\n                /* \"#utility.yul\":6904:6907   */\n              dup3\n                /* \"#utility.yul\":6815:6908   */\n              tag_82\n              jump\t// in\n            tag_158:\n                /* \"#utility.yul\":6933:6935   */\n              0x60\n                /* \"#utility.yul\":6928:6931   */\n              dup3\n                /* \"#utility.yul\":6924:6936   */\n              add\n                /* \"#utility.yul\":6917:6936   */\n              swap1\n              pop\n                /* \"#utility.yul\":6576:6942   */\n              swap2\n              swap1\n              pop\n              jump\t// out\n                /* \"#utility.yul\":6948:7367   */\n            tag_43:\n                /* \"#utility.yul\":7114:7118   */\n              0x00\n                /* \"#utility.yul\":7152:7154   */\n              0x20\n                /* \"#utility.yul\":7141:7150   */\n              dup3\n                /* \"#utility.yul\":7137:7155   */\n              add\n                /* \"#utility.yul\":7129:7155   */\n              swap1\n              pop\n                /* \"#utility.yul\":7201:7210   */\n              dup2\n                /* \"#utility.yul\":7195:7199   */\n              dup2\n                /* \"#utility.yul\":7191:7211   */\n              sub\n                /* \"#utility.yul\":7187:7188   */\n              0x00\n                /* \"#utility.yul\":7176:7185   */\n              dup4\n                /* \"#utility.yul\":7172:7189   */\n              add\n                /* \"#utility.yul\":7165:7212   */\n              mstore\n                /* \"#utility.yul\":7229:7360   */\n              tag_160\n                /* \"#utility.yul\":7355:7359   */\n              dup2\n                /* \"#utility.yul\":7229:7360   */\n              tag_83\n              jump\t// in\n            tag_160:\n                /* \"#utility.yul\":7221:7360   */\n              swap1\n              pop\n                /* \"#utility.yul\":6948:7367   */\n              swap2\n              swap1\n              pop\n              jump\t// out\n                /* \"#utility.yul\":7373:7553   */\n            tag_84:\n                /* \"#utility.yul\":7421:7498   */\n              0x4e487b7100000000000000000000000000000000000000000000000000000000\n                /* \"#utility.yul\":7418:7419   */\n              0x00\n                /* \"#utility.yul\":7411:7499   */\n              mstore\n                /* \"#utility.yul\":7518:7522   */\n              0x11\n                /* \"#utility.yul\":7515:7516   */\n              0x04\n                /* \"#utility.yul\":7508:7523   */\n              mstore\n                /* \"#utility.yul\":7542:7546   */\n              0x24\n                /* \"#utility.yul\":7539:7540   */\n              0x00\n                /* \"#utility.yul\":7532:7547   */\n              revert\n                /* \"#utility.yul\":7559:7764   */\n            tag_45:\n                /* \"#utility.yul\":7598:7601   */\n              0x00\n                /* \"#utility.yul\":7617:7636   */\n              tag_163\n                /* \"#utility.yul\":7634:7635   */\n              dup3\n                /* \"#utility.yul\":7617:7636   */\n              tag_71\n              jump\t// in\n            tag_163:\n                /* \"#utility.yul\":7612:7636   */\n              swap2\n              pop\n                /* \"#utility.yul\":7650:7669   */\n              tag_164\n                /* \"#utility.yul\":7667:7668   */\n              dup4\n                /* \"#utility.yul\":7650:7669   */\n              tag_71\n              jump\t// in\n            tag_164:\n                /* \"#utility.yul\":7645:7669   */\n              swap3\n              pop\n                /* \"#utility.yul\":7692:7693   */\n              dup3\n                /* \"#utility.yul\":7689:7690   */\n              dup3\n                /* \"#utility.yul\":7685:7694   */\n              add\n                /* \"#utility.yul\":7678:7694   */\n              swap1\n              pop\n                /* \"#utility.yul\":7715:7733   */\n              0xffffffffffffffff\n                /* \"#utility.yul\":7710:7713   */\n              dup2\n                /* \"#utility.yul\":7707:7734   */\n              gt\n                /* \"#utility.yul\":7704:7757   */\n              iszero\n              tag_165\n              jumpi\n                /* \"#utility.yul\":7737:7755   */\n              tag_166\n              tag_84\n              jump\t// in\n            tag_166:\n                /* \"#utility.yul\":7704:7757   */\n            tag_165:\n                /* \"#utility.yul\":7559:7764   */\n              swap3\n              swap2\n              pop\n              pop\n              jump\t// out\n                /* \"#utility.yul\":7770:7996   */\n            tag_85:\n                /* \"#utility.yul\":7910:7944   */\n              0x436f6d6d697452657665616c3a3a72657665616c3a2052657665616c65642074\n                /* \"#utility.yul\":7906:7907   */\n              0x00\n                /* \"#utility.yul\":7898:7904   */\n              dup3\n                /* \"#utility.yul\":7894:7908   */\n              add\n                /* \"#utility.yul\":7887:7945   */\n              mstore\n                /* \"#utility.yul\":7979:7988   */\n              0x6f6f206c61746500000000000000000000000000000000000000000000000000\n                /* \"#utility.yul\":7974:7976   */\n              0x20\n                /* \"#utility.yul\":7966:7972   */\n              dup3\n                /* \"#utility.yul\":7962:7977   */\n              add\n                /* \"#utility.yul\":7955:7989   */\n              mstore\n                /* \"#utility.yul\":7770:7996   */\n              pop\n              jump\t// out\n                /* \"#utility.yul\":8002:8368   */\n            tag_86:\n                /* \"#utility.yul\":8144:8147   */\n              0x00\n                /* \"#utility.yul\":8165:8232   */\n              tag_169\n                /* \"#utility.yul\":8229:8231   */\n              0x27\n                /* \"#utility.yul\":8224:8227   */\n              dup4\n                /* \"#utility.yul\":8165:8232   */\n              tag_77\n              jump\t// in\n            tag_169:\n                /* \"#utility.yul\":8158:8232   */\n              swap2\n              pop\n                /* \"#utility.yul\":8241:8334   */\n              tag_170\n                /* \"#utility.yul\":8330:8333   */\n              dup3\n                /* \"#utility.yul\":8241:8334   */\n              tag_85\n              jump\t// in\n            tag_170:\n                /* \"#utility.yul\":8359:8361   */\n              0x40\n                /* \"#utility.yul\":8354:8357   */\n              dup3\n                /* \"#utility.yul\":8350:8362   */\n              add\n                /* \"#utility.yul\":8343:8362   */\n              swap1\n              pop\n                /* \"#utility.yul\":8002:8368   */\n              swap2\n              swap1\n              pop\n              jump\t// out\n                /* \"#utility.yul\":8374:8793   */\n            tag_48:\n                /* \"#utility.yul\":8540:8544   */\n              0x00\n                /* \"#utility.yul\":8578:8580   */\n              0x20\n                /* \"#utility.yul\":8567:8576   */\n              dup3\n                /* \"#utility.yul\":8563:8581   */\n              add\n                /* \"#utility.yul\":8555:8581   */\n              swap1\n              pop\n                /* \"#utility.yul\":8627:8636   */\n              dup2\n                /* \"#utility.yul\":8621:8625   */\n              dup2\n                /* \"#utility.yul\":8617:8637   */\n              sub\n                /* \"#utility.yul\":8613:8614   */\n              0x00\n                /* \"#utility.yul\":8602:8611   */\n              dup4\n                /* \"#utility.yul\":8598:8615   */\n              add\n                /* \"#utility.yul\":8591:8638   */\n              mstore\n                /* \"#utility.yul\":8655:8786   */\n              tag_172\n                /* \"#utility.yul\":8781:8785   */\n              dup2\n                /* \"#utility.yul\":8655:8786   */\n              tag_86\n              jump\t// in\n            tag_172:\n                /* \"#utility.yul\":8647:8786   */\n              swap1\n              pop\n                /* \"#utility.yul\":8374:8793   */\n              swap2\n              swap1\n              pop\n              jump\t// out\n                /* \"#utility.yul\":8799:9196   */\n            tag_50:\n                /* \"#utility.yul\":8939:8942   */\n              0x00\n                /* \"#utility.yul\":8954:9029   */\n              tag_174\n                /* \"#utility.yul\":9025:9028   */\n              dup3\n                /* \"#utility.yul\":9016:9022   */\n              dup6\n                /* \"#utility.yul\":8954:9029   */\n              tag_76\n              jump\t// in\n            tag_174:\n                /* \"#utility.yul\":9054:9056   */\n              0x20\n                /* \"#utility.yul\":9049:9052   */\n              dup3\n                /* \"#utility.yul\":9045:9057   */\n              add\n                /* \"#utility.yul\":9038:9057   */\n              swap2\n              pop\n                /* \"#utility.yul\":9067:9142   */\n              tag_175\n                /* \"#utility.yul\":9138:9141   */\n              dup3\n                /* \"#utility.yul\":9129:9135   */\n              dup5\n                /* \"#utility.yul\":9067:9142   */\n              tag_76\n              jump\t// in\n            tag_175:\n                /* \"#utility.yul\":9167:9169   */\n              0x20\n                /* \"#utility.yul\":9162:9165   */\n              dup3\n                /* \"#utility.yul\":9158:9170   */\n              add\n                /* \"#utility.yul\":9151:9170   */\n              swap2\n              pop\n                /* \"#utility.yul\":9187:9190   */\n              dup2\n                /* \"#utility.yul\":9180:9190   */\n              swap1\n              pop\n                /* \"#utility.yul\":8799:9196   */\n              swap4\n              swap3\n              pop\n              pop\n              pop\n              jump\t// out\n                /* \"#utility.yul\":9202:9279   */\n            tag_87:\n                /* \"#utility.yul\":9239:9246   */\n              0x00\n                /* \"#utility.yul\":9268:9273   */\n              dup2\n                /* \"#utility.yul\":9257:9273   */\n              swap1\n              pop\n                /* \"#utility.yul\":9202:9279   */\n              swap2\n              swap1\n              pop\n              jump\t// out\n                /* \"#utility.yul\":9285:9465   */\n            tag_88:\n                /* \"#utility.yul\":9333:9410   */\n              0x4e487b7100000000000000000000000000000000000000000000000000000000\n                /* \"#utility.yul\":9330:9331   */\n              0x00\n                /* \"#utility.yul\":9323:9411   */\n              mstore\n                /* \"#utility.yul\":9430:9434   */\n              0x12\n                /* \"#utility.yul\":9427:9428   */\n              0x04\n                /* \"#utility.yul\":9420:9435   */\n              mstore\n                /* \"#utility.yul\":9454:9458   */\n              0x24\n                /* \"#utility.yul\":9451:9452   */\n              0x00\n                /* \"#utility.yul\":9444:9459   */\n              revert\n                /* \"#utility.yul\":9471:9647   */\n            tag_52:\n                /* \"#utility.yul\":9503:9504   */\n              0x00\n                /* \"#utility.yul\":9520:9540   */\n              tag_179\n                /* \"#utility.yul\":9538:9539   */\n              dup3\n                /* \"#utility.yul\":9520:9540   */\n              tag_87\n              jump\t// in\n            tag_179:\n                /* \"#utility.yul\":9515:9540   */\n              swap2\n              pop\n                /* \"#utility.yul\":9554:9574   */\n              tag_180\n                /* \"#utility.yul\":9572:9573   */\n              dup4\n                /* \"#utility.yul\":9554:9574   */\n              tag_87\n              jump\t// in\n            tag_180:\n                /* \"#utility.yul\":9549:9574   */\n              swap3\n              pop\n                /* \"#utility.yul\":9593:9594   */\n              dup3\n                /* \"#utility.yul\":9583:9618   */\n              tag_181\n              jumpi\n                /* \"#utility.yul\":9598:9616   */\n              tag_182\n              tag_88\n              jump\t// in\n            tag_182:\n                /* \"#utility.yul\":9583:9618   */\n            tag_181:\n                /* \"#utility.yul\":9639:9640   */\n              dup3\n                /* \"#utility.yul\":9636:9637   */\n              dup3\n                /* \"#utility.yul\":9632:9641   */\n              mod\n                /* \"#utility.yul\":9627:9641   */\n              swap1\n              pop\n                /* \"#utility.yul\":9471:9647   */\n              swap3\n              swap2\n              pop\n              pop\n              jump\t// out\n                /* \"#utility.yul\":9653:9771   */\n            tag_89:\n                /* \"#utility.yul\":9740:9764   */\n              tag_184\n                /* \"#utility.yul\":9758:9763   */\n              dup2\n                /* \"#utility.yul\":9740:9764   */\n              tag_68\n              jump\t// in\n            tag_184:\n                /* \"#utility.yul\":9735:9738   */\n              dup3\n                /* \"#utility.yul\":9728:9765   */\n              mstore\n                /* \"#utility.yul\":9653:9771   */\n              pop\n              pop\n              jump\t// out\n                /* \"#utility.yul\":9777:9895   */\n            tag_90:\n                /* \"#utility.yul\":9864:9888   */\n              tag_186\n                /* \"#utility.yul\":9882:9887   */\n              dup2\n                /* \"#utility.yul\":9864:9888   */\n              tag_87\n              jump\t// in\n            tag_186:\n                /* \"#utility.yul\":9859:9862   */\n              dup3\n                /* \"#utility.yul\":9852:9889   */\n              mstore\n                /* \"#utility.yul\":9777:9895   */\n              pop\n              pop\n              jump\t// out\n                /* \"#utility.yul\":9901:10343   */\n            tag_54:\n                /* \"#utility.yul\":10050:10054   */\n              0x00\n                /* \"#utility.yul\":10088:10090   */\n              0x60\n                /* \"#utility.yul\":10077:10086   */\n              dup3\n                /* \"#utility.yul\":10073:10091   */\n              add\n                /* \"#utility.yul\":10065:10091   */\n              swap1\n              pop\n                /* \"#utility.yul\":10101:10172   */\n              tag_188\n                /* \"#utility.yul\":10169:10170   */\n              0x00\n                /* \"#utility.yul\":10158:10167   */\n              dup4\n                /* \"#utility.yul\":10154:10171   */\n              add\n                /* \"#utility.yul\":10145:10151   */\n              dup7\n                /* \"#utility.yul\":10101:10172   */\n              tag_89\n              jump\t// in\n            tag_188:\n                /* \"#utility.yul\":10182:10254   */\n              tag_189\n                /* \"#utility.yul\":10250:10252   */\n              0x20\n                /* \"#utility.yul\":10239:10248   */\n              dup4\n                /* \"#utility.yul\":10235:10253   */\n              add\n                /* \"#utility.yul\":10226:10232   */\n              dup6\n                /* \"#utility.yul\":10182:10254   */\n              tag_64\n              jump\t// in\n            tag_189:\n                /* \"#utility.yul\":10264:10336   */\n              tag_190\n                /* \"#utility.yul\":10332:10334   */\n              0x40\n                /* \"#utility.yul\":10321:10330   */\n              dup4\n                /* \"#utility.yul\":10317:10335   */\n              add\n                /* \"#utility.yul\":10308:10314   */\n              dup5\n                /* \"#utility.yul\":10264:10336   */\n              tag_90\n              jump\t// in\n            tag_190:\n                /* \"#utility.yul\":9901:10343   */\n              swap5\n              swap4\n              pop\n              pop\n              pop\n              pop\n              jump\t// out\n                /* \"#utility.yul\":10349:10787   */\n            tag_57:\n                /* \"#utility.yul\":10496:10500   */\n              0x00\n                /* \"#utility.yul\":10534:10536   */\n              0x60\n                /* \"#utility.yul\":10523:10532   */\n              dup3\n                /* \"#utility.yul\":10519:10537   */\n              add\n                /* \"#utility.yul\":10511:10537   */\n              swap1\n              pop\n                /* \"#utility.yul\":10547:10618   */\n              tag_192\n                /* \"#utility.yul\":10615:10616   */\n              0x00\n                /* \"#utility.yul\":10604:10613   */\n              dup4\n                /* \"#utility.yul\":10600:10617   */\n              add\n                /* \"#utility.yul\":10591:10597   */\n              dup7\n                /* \"#utility.yul\":10547:10618   */\n              tag_89\n              jump\t// in\n            tag_192:\n                /* \"#utility.yul\":10628:10700   */\n              tag_193\n                /* \"#utility.yul\":10696:10698   */\n              0x20\n                /* \"#utility.yul\":10685:10694   */\n              dup4\n                /* \"#utility.yul\":10681:10699   */\n              add\n                /* \"#utility.yul\":10672:10678   */\n              dup6\n                /* \"#utility.yul\":10628:10700   */\n              tag_64\n              jump\t// in\n            tag_193:\n                /* \"#utility.yul\":10710:10780   */\n              tag_194\n                /* \"#utility.yul\":10776:10778   */\n              0x40\n                /* \"#utility.yul\":10765:10774   */\n              dup4\n                /* \"#utility.yul\":10761:10779   */\n              add\n                /* \"#utility.yul\":10752:10758   */\n              dup5\n                /* \"#utility.yul\":10710:10780   */\n              tag_72\n              jump\t// in\n            tag_194:\n                /* \"#utility.yul\":10349:10787   */\n              swap5\n              swap4\n              pop\n              pop\n              pop\n              pop\n              jump\t// out\n\n            auxdata: 0xa2646970667358221220665436f856a8d0d86d585ba3b79d396bbd97c3e7ec1e2f30121b01cecf6ff34064736f6c634300081a0033\n        }\n    }\n\n    auxdata: 0xa2646970667358221220400f59e0d8217b2b2626ba1c1d39c3a9cd6bf9a3b78ce4835f27452aac19042264736f6c634300081a0033\n}\n\nsub_1: assembly {\n        /* \"TimeUnit.sol\":136:1086  contract TimeUnit { ... */\n      mstore(0x40, 0x80)\n      callvalue\n      dup1\n      iszero\n      tag_1\n      jumpi\n      0x00\n      dup1\n      revert\n    tag_1:\n      pop\n      dataSize(sub_0)\n      dup1\n      dataOffset(sub_0)\n      0x00\n      codecopy\n      0x00\n      return\n    stop\n\n    sub_0: assembly {\n            /* \"TimeUnit.sol\":136:1086  contract TimeUnit { ... */\n          mstore(0x40, 0x80)\n          callvalue\n          dup1\n          iszero\n          tag_1\n          jumpi\n          0x00\n          dup1\n          revert\n        tag_1:\n          pop\n          jumpi(tag_2, lt(calldatasize, 0x04))\n          shr(0xe0, calldataload(0x00))\n          dup1\n          0x78e97925\n          eq\n          tag_3\n          jumpi\n          dup1\n          0xa63f7c53\n          eq\n          tag_4\n          jumpi\n          dup1\n          0xbc06b8cd\n          eq\n          tag_5\n          jumpi\n          dup1\n          0xd97c8416\n          eq\n          tag_6\n          jumpi\n        tag_2:\n          0x00\n          dup1\n          revert\n            /* \"TimeUnit.sol\":307:331  uint256 public startTime */\n        tag_3:\n          tag_7\n          tag_8\n          jump\t// in\n        tag_7:\n          mload(0x40)\n          tag_9\n          swap2\n          swap1\n          tag_10\n          jump\t// in\n        tag_9:\n          mload(0x40)\n          dup1\n          swap2\n          sub\n          swap1\n          return\n            /* \"TimeUnit.sol\":379:452  function setStartTime() public { ... */\n        tag_4:\n          tag_11\n          tag_12\n          jump\t// in\n        tag_11:\n          stop\n            /* \"TimeUnit.sol\":576:683  function elapsedSeconds() public view returns (uint256) { ... */\n        tag_5:\n          tag_13\n          tag_14\n          jump\t// in\n        tag_13:\n          mload(0x40)\n          tag_15\n          swap2\n          swap1\n          tag_10\n          jump\t// in\n        tag_15:\n          mload(0x40)\n          dup1\n          swap2\n          sub\n          swap1\n          return\n            /* \"TimeUnit.sol\":799:1082  function elapsedMinutes() public view returns (uint256) { ... */\n        tag_6:\n          tag_16\n          tag_17\n          jump\t// in\n        tag_16:\n          mload(0x40)\n          tag_18\n          swap2\n          swap1\n          tag_10\n          jump\t// in\n        tag_18:\n          mload(0x40)\n          dup1\n          swap2\n          sub\n          swap1\n          return\n            /* \"TimeUnit.sol\":307:331  uint256 public startTime */\n        tag_8:\n          sload(0x00)\n          dup2\n          jump\t// out\n            /* \"TimeUnit.sol\":379:452  function setStartTime() public { ... */\n        tag_12:\n            /* \"TimeUnit.sol\":430:445  block.timestamp */\n          timestamp\n            /* \"TimeUnit.sol\":418:427  startTime */\n          0x00\n            /* \"TimeUnit.sol\":418:445  startTime = block.timestamp */\n          dup2\n          swap1\n          sstore\n          pop\n            /* \"TimeUnit.sol\":379:452  function setStartTime() public { ... */\n          jump\t// out\n            /* \"TimeUnit.sol\":576:683  function elapsedSeconds() public view returns (uint256) { ... */\n        tag_14:\n            /* \"TimeUnit.sol\":623:630  uint256 */\n          0x00\n            /* \"TimeUnit.sol\":666:675  startTime */\n          dup1\n          sload\n            /* \"TimeUnit.sol\":648:663  block.timestamp */\n          timestamp\n            /* \"TimeUnit.sol\":648:675  block.timestamp - startTime */\n          tag_21\n          swap2\n          swap1\n          tag_22\n          jump\t// in\n        tag_21:\n            /* \"TimeUnit.sol\":640:676  return (block.timestamp - startTime) */\n          swap1\n          pop\n            /* \"TimeUnit.sol\":576:683  function elapsedSeconds() public view returns (uint256) { ... */\n          swap1\n          jump\t// out\n            /* \"TimeUnit.sol\":799:1082  function elapsedMinutes() public view returns (uint256) { ... */\n        tag_17:\n            /* \"TimeUnit.sol\":846:853  uint256 */\n          0x00\n            /* \"TimeUnit.sol\":1066:1075  1 minutes */\n          0x3c\n            /* \"TimeUnit.sol\":1053:1062  startTime */\n          sload(0x00)\n            /* \"TimeUnit.sol\":1035:1050  block.timestamp */\n          timestamp\n            /* \"TimeUnit.sol\":1035:1062  block.timestamp - startTime */\n          tag_24\n          swap2\n          swap1\n          tag_22\n          jump\t// in\n        tag_24:\n            /* \"TimeUnit.sol\":1034:1075  (block.timestamp - startTime) / 1 minutes */\n          tag_25\n          swap2\n          swap1\n          tag_26\n          jump\t// in\n        tag_25:\n            /* \"TimeUnit.sol\":1027:1075  return (block.timestamp - startTime) / 1 minutes */\n          swap1\n          pop\n            /* \"TimeUnit.sol\":799:1082  function elapsedMinutes() public view returns (uint256) { ... */\n          swap1\n          jump\t// out\n            /* \"#utility.yul\":7:84   */\n        tag_27:\n            /* \"#utility.yul\":44:51   */\n          0x00\n            /* \"#utility.yul\":73:78   */\n          dup2\n            /* \"#utility.yul\":62:78   */\n          swap1\n          pop\n            /* \"#utility.yul\":7:84   */\n          swap2\n          swap1\n          pop\n          jump\t// out\n            /* \"#utility.yul\":90:208   */\n        tag_28:\n            /* \"#utility.yul\":177:201   */\n          tag_34\n            /* \"#utility.yul\":195:200   */\n          dup2\n            /* \"#utility.yul\":177:201   */\n          tag_27\n          jump\t// in\n        tag_34:\n            /* \"#utility.yul\":172:175   */\n          dup3\n            /* \"#utility.yul\":165:202   */\n          mstore\n            /* \"#utility.yul\":90:208   */\n          pop\n          pop\n          jump\t// out\n            /* \"#utility.yul\":214:436   */\n        tag_10:\n            /* \"#utility.yul\":307:311   */\n          0x00\n            /* \"#utility.yul\":345:347   */\n          0x20\n            /* \"#utility.yul\":334:343   */\n          dup3\n            /* \"#utility.yul\":330:348   */\n          add\n            /* \"#utility.yul\":322:348   */\n          swap1\n          pop\n            /* \"#utility.yul\":358:429   */\n          tag_36\n            /* \"#utility.yul\":426:427   */\n          0x00\n            /* \"#utility.yul\":415:424   */\n          dup4\n            /* \"#utility.yul\":411:428   */\n          add\n            /* \"#utility.yul\":402:408   */\n          dup5\n            /* \"#utility.yul\":358:429   */\n          tag_28\n          jump\t// in\n        tag_36:\n            /* \"#utility.yul\":214:436   */\n          swap3\n          swap2\n          pop\n          pop\n          jump\t// out\n            /* \"#utility.yul\":442:622   */\n        tag_29:\n            /* \"#utility.yul\":490:567   */\n          0x4e487b7100000000000000000000000000000000000000000000000000000000\n            /* \"#utility.yul\":487:488   */\n          0x00\n            /* \"#utility.yul\":480:568   */\n          mstore\n            /* \"#utility.yul\":587:591   */\n          0x11\n            /* \"#utility.yul\":584:585   */\n          0x04\n            /* \"#utility.yul\":577:592   */\n          mstore\n            /* \"#utility.yul\":611:615   */\n          0x24\n            /* \"#utility.yul\":608:609   */\n          0x00\n            /* \"#utility.yul\":601:616   */\n          revert\n            /* \"#utility.yul\":628:822   */\n        tag_22:\n            /* \"#utility.yul\":668:672   */\n          0x00\n            /* \"#utility.yul\":688:708   */\n          tag_39\n            /* \"#utility.yul\":706:707   */\n          dup3\n            /* \"#utility.yul\":688:708   */\n          tag_27\n          jump\t// in\n        tag_39:\n            /* \"#utility.yul\":683:708   */\n          swap2\n          pop\n            /* \"#utility.yul\":722:742   */\n          tag_40\n            /* \"#utility.yul\":740:741   */\n          dup4\n            /* \"#utility.yul\":722:742   */\n          tag_27\n          jump\t// in\n        tag_40:\n            /* \"#utility.yul\":717:742   */\n          swap3\n          pop\n            /* \"#utility.yul\":766:767   */\n          dup3\n            /* \"#utility.yul\":763:764   */\n          dup3\n            /* \"#utility.yul\":759:768   */\n          sub\n            /* \"#utility.yul\":751:768   */\n          swap1\n          pop\n            /* \"#utility.yul\":790:791   */\n          dup2\n            /* \"#utility.yul\":784:788   */\n          dup2\n            /* \"#utility.yul\":781:792   */\n          gt\n            /* \"#utility.yul\":778:815   */\n          iszero\n          tag_41\n          jumpi\n            /* \"#utility.yul\":795:813   */\n          tag_42\n          tag_29\n          jump\t// in\n        tag_42:\n            /* \"#utility.yul\":778:815   */\n        tag_41:\n            /* \"#utility.yul\":628:822   */\n          swap3\n          swap2\n          pop\n          pop\n          jump\t// out\n            /* \"#utility.yul\":828:1008   */\n        tag_30:\n            /* \"#utility.yul\":876:953   */\n          0x4e487b7100000000000000000000000000000000000000000000000000000000\n            /* \"#utility.yul\":873:874   */\n          0x00\n            /* \"#utility.yul\":866:954   */\n          mstore\n            /* \"#utility.yul\":973:977   */\n          0x12\n            /* \"#utility.yul\":970:971   */\n          0x04\n            /* \"#utility.yul\":963:978   */\n          mstore\n            /* \"#utility.yul\":997:1001   */\n          0x24\n            /* \"#utility.yul\":994:995   */\n          0x00\n            /* \"#utility.yul\":987:1002   */\n          revert\n            /* \"#utility.yul\":1014:1199   */\n        tag_26:\n            /* \"#utility.yul\":1054:1055   */\n          0x00\n            /* \"#utility.yul\":1071:1091   */\n          tag_45\n            /* \"#utility.yul\":1089:1090   */\n          dup3\n            /* \"#utility.yul\":1071:1091   */\n          tag_27\n          jump\t// in\n        tag_45:\n            /* \"#utility.yul\":1066:1091   */\n          swap2\n          pop\n            /* \"#utility.yul\":1105:1125   */\n          tag_46\n            /* \"#utility.yul\":1123:1124   */\n          dup4\n            /* \"#utility.yul\":1105:1125   */\n          tag_27\n          jump\t// in\n        tag_46:\n            /* \"#utility.yul\":1100:1125   */\n          swap3\n          pop\n            /* \"#utility.yul\":1144:1145   */\n          dup3\n            /* \"#utility.yul\":1134:1169   */\n          tag_47\n          jumpi\n            /* \"#utility.yul\":1149:1167   */\n          tag_48\n          tag_30\n          jump\t// in\n        tag_48:\n            /* \"#utility.yul\":1134:1169   */\n        tag_47:\n            /* \"#utility.yul\":1191:1192   */\n          dup3\n            /* \"#utility.yul\":1188:1189   */\n          dup3\n            /* \"#utility.yul\":1184:1193   */\n          div\n            /* \"#utility.yul\":1179:1193   */\n          swap1\n          pop\n            /* \"#utility.yul\":1014:1199   */\n          swap3\n          swap2\n          pop\n          pop\n          jump\t// out\n\n        auxdata: 0xa2646970667358221220536b7940d5371faaf75b89b185b412b3b063b6163f59953ace730f47887b6dae64736f6c634300081a0033\n    }\n}\n",
				"bytecode": {
					"linkReferences": {},
					"object": "60806040525f80555f6001555f60055560405161001b90610150565b604051809103905ff080158015610034573d5f803e3d5ffd5b5060075f6101000a81548173ffffffffffffffffffffffffffffffffffffffff021916908373ffffffffffffffffffffffffffffffffffffffff16021790555060405161008090610150565b604051809103905ff080158015610099573d5f803e3d5ffd5b5060085f6101000a81548173ffffffffffffffffffffffffffffffffffffffff021916908373ffffffffffffffffffffffffffffffffffffffff1602179055505f600a553480156100e8575f80fd5b5060405161405f38038061405f833981810160405281019061010a91906101bb565b8060095f6101000a81548173ffffffffffffffffffffffffffffffffffffffff021916908373ffffffffffffffffffffffffffffffffffffffff160217905550506101e6565b61023180613e2e83390190565b5f80fd5b5f73ffffffffffffffffffffffffffffffffffffffff82169050919050565b5f61018a82610161565b9050919050565b61019a81610180565b81146101a4575f80fd5b50565b5f815190506101b581610191565b92915050565b5f602082840312156101d0576101cf61015d565b5b5f6101dd848285016101a7565b91505092915050565b613c3b806101f35f395ff3fe60806040526004361061011e575f3560e01c80639fe3b7b31161009f578063d891f96911610063578063d891f969146103aa578063e676b421146103d2578063f71d96cb1461040e578063faf5625f1461044a578063fc0c546a146104745761011e565b80639fe3b7b3146102c8578063a040478d146102f2578063aead4af21461032e578063ba829d7114610344578063d8389dc51461036e5761011e565b80632dc69860116100e65780632dc69860146101e65780635565f281146102105780635e63d8901461024c57806365ce0ac61461027657806390d5d0c31461029e5761011e565b8063086f781514610122578063152222851461014c578063190cf74514610176578063228cb733146101b257806327b5db8a146101dc575b5f80fd5b34801561012d575f80fd5b5061013661049e565b60405161014391906122fa565b60405180910390f35b348015610157575f80fd5b506101606104a4565b60405161016d91906122fa565b60405180910390f35b348015610181575f80fd5b5061019c60048036038101906101979190612371565b6104aa565b6040516101a991906123b6565b60405180910390f35b3480156101bd575f80fd5b506101c66104c7565b6040516101d391906122fa565b60405180910390f35b6101e46104cd565b005b3480156101f1575f80fd5b506101fa61080c565b60405161020791906122fa565b60405180910390f35b34801561021b575f80fd5b5061023660048036038101906102319190612371565b610811565b604051610243919061242a565b60405180910390f35b348015610257575f80fd5b50610260610841565b60405161026d9190612463565b60405180910390f35b348015610281575f80fd5b5061029c600480360381019061029791906124af565b610866565b005b3480156102a9575f80fd5b506102b2610c39565b6040516102bf91906122fa565b60405180910390f35b3480156102d3575f80fd5b506102dc610c3e565b6040516102e991906122fa565b60405180910390f35b3480156102fd575f80fd5b5061031860048036038101906103139190612371565b610c43565b60405161032591906122fa565b60405180910390f35b348015610339575f80fd5b50610342610c58565b005b34801561034f575f80fd5b506103586112fc565b6040516103659190612463565b60405180910390f35b348015610379575f80fd5b50610394600480360381019061038f91906124af565b611321565b6040516103a191906124e9565b60405180910390f35b3480156103b5575f80fd5b506103d060048036038101906103cb91906124af565b6113fd565b005b3480156103dd575f80fd5b506103f860048036038101906103f39190612371565b611b44565b60405161040591906123b6565b60405180910390f35b348015610419575f80fd5b50610434600480360381019061042f919061252c565b611b61565b6040516104419190612566565b60405180910390f35b348015610455575f80fd5b5061045e611b9c565b60405161046b91906122fa565b60405180910390f35b34801561047f575f80fd5b50610488611ba5565b604051610495919061259f565b60405180910390f35b600a5481565b60055481565b6003602052805f5260405f205f915054906101000a900460ff1681565b60015481565b60025f5410610511576040517f08c379a000000000000000000000000000000000000000000000000000000000815260040161050890612612565b60405180910390fd5b60015f54036105c45760045f8154811061052e5761052d612630565b5b905f5260205f20015f9054906101000a900473ffffffffffffffffffffffffffffffffffffffff1673ffffffffffffffffffffffffffffffffffffffff163373ffffffffffffffffffffffffffffffffffffffff16036105c3576040517f08c379a00000000000000000000000000000000000000000000000000000000081526004016105ba906126a7565b60405180910390fd5b5b600160035f3373ffffffffffffffffffffffffffffffffffffffff1673ffffffffffffffffffffffffffffffffffffffff1681526020019081526020015f205f6101000a81548160ff021916908315150217905550600160065f3373ffffffffffffffffffffffffffffffffffffffff1673ffffffffffffffffffffffffffffffffffffffff1681526020019081526020015f205f6101000a81548160ff021916908315150217905550600433908060018154018082558091505060019003905f5260205f20015f9091909190916101000a81548173ffffffffffffffffffffffffffffffffffffffff021916908373ffffffffffffffffffffffffffffffffffffffff1602179055505f808154809291906106df906126f2565b91905055506040516106f09061229c565b604051809103905ff080158015610709573d5f803e3d5ffd5b50600b5f3373ffffffffffffffffffffffffffffffffffffffff1673ffffffffffffffffffffffffffffffffffffffff1681526020019081526020015f205f6101000a81548173ffffffffffffffffffffffffffffffffffffffff021916908373ffffffffffffffffffffffffffffffffffffffff16021790555060025f540361080a5760075f9054906101000a900473ffffffffffffffffffffffffffffffffffffffff1673ffffffffffffffffffffffffffffffffffffffff1663a63f7c536040518163ffffffff1660e01b81526004015f604051808303815f87803b1580156107f3575f80fd5b505af1158015610805573d5f803e3d5ffd5b505050505b565b600581565b600b602052805f5260405f205f915054906101000a900473ffffffffffffffffffffffffffffffffffffffff1681565b60075f9054906101000a900473ffffffffffffffffffffffffffffffffffffffff1681565b6002600a5414610874575f80fd5b600560085f9054906101000a900473ffffffffffffffffffffffffffffffffffffffff1673ffffffffffffffffffffffffffffffffffffffff1663d97c84166040518163ffffffff1660e01b8152600401602060405180830381865afa1580156108e0573d5f803e3d5ffd5b505050506040513d601f19601f82011682018060405250810190610904919061274d565b10610944576040517f08c379a000000000000000000000000000000000000000000000000000000000815260040161093b906127c2565b60405180910390fd5b60065f3373ffffffffffffffffffffffffffffffffffffffff1673ffffffffffffffffffffffffffffffffffffffff1681526020019081526020015f205f9054906101000a900460ff166109cd576040517f08c379a00000000000000000000000000000000000000000000000000000000081526004016109c49061282a565b60405180910390fd5b600b5f3373ffffffffffffffffffffffffffffffffffffffff1673ffffffffffffffffffffffffffffffffffffffff1681526020019081526020015f205f9054906101000a900473ffffffffffffffffffffffffffffffffffffffff1673ffffffffffffffffffffffffffffffffffffffff1663701fd0f1826040518263ffffffff1660e01b8152600401610a6291906124e9565b5f604051808303815f87803b158015610a79575f80fd5b505af1158015610a8b573d5f803e3d5ffd5b5050505080601f60208110610aa357610aa2612630565b5b1a60f81b60f81c60ff1660025f3373ffffffffffffffffffffffffffffffffffffffff1673ffffffffffffffffffffffffffffffffffffffff1681526020019081526020015f20819055505f60025f3373ffffffffffffffffffffffffffffffffffffffff1673ffffffffffffffffffffffffffffffffffffffff1681526020019081526020015f205410158015610b795750600460025f3373ffffffffffffffffffffffffffffffffffffffff1673ffffffffffffffffffffffffffffffffffffffff1681526020019081526020015f205411155b610bb8576040517f08c379a0000000000000000000000000000000000000000000000000000000008152600401610baf90612892565b60405180910390fd5b5f60065f3373ffffffffffffffffffffffffffffffffffffffff1673ffffffffffffffffffffffffffffffffffffffff1681526020019081526020015f205f6101000a81548160ff02191690831515021790555060055f815480929190610c1e906126f2565b9190505550600260055403610c3657610c35611bca565b5b50565b5f5481565b600581565b6002602052805f5260405f205f915090505481565b600560085f9054906101000a900473ffffffffffffffffffffffffffffffffffffffff1673ffffffffffffffffffffffffffffffffffffffff1663d97c84166040518163ffffffff1660e01b8152600401602060405180830381865afa158015610cc4573d5f803e3d5ffd5b505050506040513d601f19601f82011682018060405250810190610ce8919061274d565b1015610d29576040517f08c379a0000000000000000000000000000000000000000000000000000000008152600401610d20906128fa565b60405180910390fd5b5f60015411610d6d576040517f08c379a0000000000000000000000000000000000000000000000000000000008152600401610d6490612962565b60405180910390fd5b600160055403611209575f80151560065f60045f81548110610d9257610d91612630565b5b905f5260205f20015f9054906101000a900473ffffffffffffffffffffffffffffffffffffffff1673ffffffffffffffffffffffffffffffffffffffff1673ffffffffffffffffffffffffffffffffffffffff1681526020019081526020015f205f9054906101000a900460ff1615151490505f80151560065f6004600181548110610e2157610e20612630565b5b905f5260205f20015f9054906101000a900473ffffffffffffffffffffffffffffffffffffffff1673ffffffffffffffffffffffffffffffffffffffff1673ffffffffffffffffffffffffffffffffffffffff1681526020019081526020015f205f9054906101000a900460ff161515149050818015610e9f575080155b1561102c5760045f81548110610eb857610eb7612630565b5b905f5260205f20015f9054906101000a900473ffffffffffffffffffffffffffffffffffffffff1673ffffffffffffffffffffffffffffffffffffffff163373ffffffffffffffffffffffffffffffffffffffff1614610f4d576040517f08c379a0000000000000000000000000000000000000000000000000000000008152600401610f44906129ca565b60405180910390fd5b60095f9054906101000a900473ffffffffffffffffffffffffffffffffffffffff1673ffffffffffffffffffffffffffffffffffffffff1663a9059cbb60045f81548110610f9e57610f9d612630565b5b905f5260205f20015f9054906101000a900473ffffffffffffffffffffffffffffffffffffffff166001546040518363ffffffff1660e01b8152600401610fe69291906129e8565b6020604051808303815f875af1158015611002573d5f803e3d5ffd5b505050506040513d601f19601f820116820180604052508101906110269190612a39565b50611202565b811580156110375750805b156111c657600460018154811061105157611050612630565b5b905f5260205f20015f9054906101000a900473ffffffffffffffffffffffffffffffffffffffff1673ffffffffffffffffffffffffffffffffffffffff163373ffffffffffffffffffffffffffffffffffffffff16146110e6576040517f08c379a00000000000000000000000000000000000000000000000000000000081526004016110dd906129ca565b60405180910390fd5b60095f9054906101000a900473ffffffffffffffffffffffffffffffffffffffff1673ffffffffffffffffffffffffffffffffffffffff1663a9059cbb600460018154811061113857611137612630565b5b905f5260205f20015f9054906101000a900473ffffffffffffffffffffffffffffffffffffffff166001546040518363ffffffff1660e01b81526004016111809291906129e8565b6020604051808303815f875af115801561119c573d5f803e3d5ffd5b505050506040513d601f19601f820116820180604052508101906111c09190612a39565b50611201565b6040517f08c379a00000000000000000000000000000000000000000000000000000000081526004016111f890612aae565b60405180910390fd5b5b50506112f2565b5f600554036112b65760095f9054906101000a900473ffffffffffffffffffffffffffffffffffffffff1673ffffffffffffffffffffffffffffffffffffffff1663a9059cbb336001546040518363ffffffff1660e01b81526004016112709291906129e8565b6020604051808303815f875af115801561128c573d5f803e3d5ffd5b505050506040513d601f19601f820116820180604052508101906112b09190612a39565b506112f1565b6040517f08c379a00000000000000000000000000000000000000000000000000000000081526004016112e890612b3c565b60405180910390fd5b5b6112fa612039565b565b60085f9054906101000a900473ffffffffffffffffffffffffffffffffffffffff1681565b5f600b5f3373ffffffffffffffffffffffffffffffffffffffff1673ffffffffffffffffffffffffffffffffffffffff1681526020019081526020015f205f9054906101000a900473ffffffffffffffffffffffffffffffffffffffff1673ffffffffffffffffffffffffffffffffffffffff16633cf5040a836040518263ffffffff1660e01b81526004016113b791906124e9565b602060405180830381865afa1580156113d2573d5f803e3d5ffd5b505050506040513d601f19601f820116820180604052508101906113f69190612b6e565b9050919050565b60025f541461140a575f80fd5b60035f3373ffffffffffffffffffffffffffffffffffffffff1673ffffffffffffffffffffffffffffffffffffffff1681526020019081526020015f205f9054906101000a900460ff1661145c575f80fd5b600560075f9054906101000a900473ffffffffffffffffffffffffffffffffffffffff1673ffffffffffffffffffffffffffffffffffffffff1663d97c84166040518163ffffffff1660e01b8152600401602060405180830381865afa1580156114c8573d5f803e3d5ffd5b505050506040513d601f19601f820116820180604052508101906114ec919061274d565b1061152c576040517f08c379a000000000000000000000000000000000000000000000000000000000815260040161152390612be3565b60405180910390fd5b5f60035f3373ffffffffffffffffffffffffffffffffffffffff1673ffffffffffffffffffffffffffffffffffffffff1681526020019081526020015f205f6101000a81548160ff021916908315150217905550600a5f815480929190611592906126f2565b9190505550600b5f3373ffffffffffffffffffffffffffffffffffffffff1673ffffffffffffffffffffffffffffffffffffffff1681526020019081526020015f205f9054906101000a900473ffffffffffffffffffffffffffffffffffffffff1673ffffffffffffffffffffffffffffffffffffffff1663f14fcbc8826040518263ffffffff1660e01b815260040161162c91906124e9565b5f604051808303815f87803b158015611643575f80fd5b505af1158015611655573d5f803e3d5ffd5b505050506002600a5403611b415764e8d4a5100060095f9054906101000a900473ffffffffffffffffffffffffffffffffffffffff1673ffffffffffffffffffffffffffffffffffffffff1663dd62ed3e60045f815481106116ba576116b9612630565b5b905f5260205f20015f9054906101000a900473ffffffffffffffffffffffffffffffffffffffff16306040518363ffffffff1660e01b8152600401611700929190612c01565b602060405180830381865afa15801561171b573d5f803e3d5ffd5b505050506040513d601f19601f8201168201806040525081019061173f919061274d565b1015611780576040517f08c379a000000000000000000000000000000000000000000000000000000000815260040161177790612c72565b60405180910390fd5b64e8d4a5100060095f9054906101000a900473ffffffffffffffffffffffffffffffffffffffff1673ffffffffffffffffffffffffffffffffffffffff1663dd62ed3e60046001815481106117d8576117d7612630565b5b905f5260205f20015f9054906101000a900473ffffffffffffffffffffffffffffffffffffffff16306040518363ffffffff1660e01b815260040161181e929190612c01565b602060405180830381865afa158015611839573d5f803e3d5ffd5b505050506040513d601f19601f8201168201806040525081019061185d919061274d565b101561189e576040517f08c379a000000000000000000000000000000000000000000000000000000000815260040161189590612cda565b60405180910390fd5b5f60095f9054906101000a900473ffffffffffffffffffffffffffffffffffffffff1673ffffffffffffffffffffffffffffffffffffffff166323b872dd60045f815481106118f0576118ef612630565b5b905f5260205f20015f9054906101000a900473ffffffffffffffffffffffffffffffffffffffff163064e8d4a510006040518463ffffffff1660e01b815260040161193d93929190612cf8565b6020604051808303815f875af1158015611959573d5f803e3d5ffd5b505050506040513d601f19601f8201168201806040525081019061197d9190612a39565b90505f60095f9054906101000a900473ffffffffffffffffffffffffffffffffffffffff1673ffffffffffffffffffffffffffffffffffffffff166323b872dd60046001815481106119d2576119d1612630565b5b905f5260205f20015f9054906101000a900473ffffffffffffffffffffffffffffffffffffffff163064e8d4a510006040518463ffffffff1660e01b8152600401611a1f93929190612cf8565b6020604051808303815f875af1158015611a3b573d5f803e3d5ffd5b505050506040513d601f19601f82011682018060405250810190611a5f9190612a39565b9050818015611a6b5750805b611aaa576040517f08c379a0000000000000000000000000000000000000000000000000000000008152600401611aa190612d77565b60405180910390fd5b600264e8d4a51000611abc9190612d95565b60018190555060085f9054906101000a900473ffffffffffffffffffffffffffffffffffffffff1673ffffffffffffffffffffffffffffffffffffffff1663a63f7c536040518163ffffffff1660e01b81526004015f604051808303815f87803b158015611b28575f80fd5b505af1158015611b3a573d5f803e3d5ffd5b5050505050505b50565b6006602052805f5260405f205f915054906101000a900460ff1681565b60048181548110611b70575f80fd5b905f5260205f20015f915054906101000a900473ffffffffffffffffffffffffffffffffffffffff1681565b64e8d4a5100081565b60095f9054906101000a900473ffffffffffffffffffffffffffffffffffffffff1681565b5f60025f60045f81548110611be257611be1612630565b5b905f5260205f20015f9054906101000a900473ffffffffffffffffffffffffffffffffffffffff1673ffffffffffffffffffffffffffffffffffffffff1673ffffffffffffffffffffffffffffffffffffffff1681526020019081526020015f205490505f60025f6004600181548110611c5f57611c5e612630565b5b905f5260205f20015f9054906101000a900473ffffffffffffffffffffffffffffffffffffffff1673ffffffffffffffffffffffffffffffffffffffff1673ffffffffffffffffffffffffffffffffffffffff1681526020019081526020015f205490505f60045f81548110611cd857611cd7612630565b5b905f5260205f20015f9054906101000a900473ffffffffffffffffffffffffffffffffffffffff1690505f6004600181548110611d1857611d17612630565b5b905f5260205f20015f9054906101000a900473ffffffffffffffffffffffffffffffffffffffff169050826005600186611d529190612dd6565b611d5c9190612e36565b1480611d7f5750826005600386611d739190612dd6565b611d7d9190612e36565b145b15611e285760095f9054906101000a900473ffffffffffffffffffffffffffffffffffffffff1673ffffffffffffffffffffffffffffffffffffffff1663a9059cbb826001546040518363ffffffff1660e01b8152600401611de29291906129e8565b6020604051808303815f875af1158015611dfe573d5f803e3d5ffd5b505050506040513d601f19601f82011682018060405250810190611e229190612a39565b5061202b565b838303611f8a5760095f9054906101000a900473ffffffffffffffffffffffffffffffffffffffff1673ffffffffffffffffffffffffffffffffffffffff1663a9059cbb836002600154611e7c9190612e66565b6040518363ffffffff1660e01b8152600401611e999291906129e8565b6020604051808303815f875af1158015611eb5573d5f803e3d5ffd5b505050506040513d601f19601f82011682018060405250810190611ed99190612a39565b5060095f9054906101000a900473ffffffffffffffffffffffffffffffffffffffff1673ffffffffffffffffffffffffffffffffffffffff1663a9059cbb826002600154611f279190612e66565b6040518363ffffffff1660e01b8152600401611f449291906129e8565b6020604051808303815f875af1158015611f60573d5f803e3d5ffd5b505050506040513d601f19601f82011682018060405250810190611f849190612a39565b5061202a565b60095f9054906101000a900473ffffffffffffffffffffffffffffffffffffffff1673ffffffffffffffffffffffffffffffffffffffff1663a9059cbb836001546040518363ffffffff1660e01b8152600401611fe89291906129e8565b6020604051808303815f875af1158015612004573d5f803e3d5ffd5b505050506040513d601f19601f820116820180604052508101906120289190612a39565b505b5b612033612039565b50505050565b5f5b6004805490508110156122785760035f6004838154811061205f5761205e612630565b5b905f5260205f20015f9054906101000a900473ffffffffffffffffffffffffffffffffffffffff1673ffffffffffffffffffffffffffffffffffffffff1673ffffffffffffffffffffffffffffffffffffffff1681526020019081526020015f205f6101000a81549060ff021916905560025f600483815481106120e6576120e5612630565b5b905f5260205f20015f9054906101000a900473ffffffffffffffffffffffffffffffffffffffff1673ffffffffffffffffffffffffffffffffffffffff1673ffffffffffffffffffffffffffffffffffffffff1681526020019081526020015f205f905560065f6004838154811061216157612160612630565b5b905f5260205f20015f9054906101000a900473ffffffffffffffffffffffffffffffffffffffff1673ffffffffffffffffffffffffffffffffffffffff1673ffffffffffffffffffffffffffffffffffffffff1681526020019081526020015f205f6101000a81549060ff0219169055600b5f600483815481106121e8576121e7612630565b5b905f5260205f20015f9054906101000a900473ffffffffffffffffffffffffffffffffffffffff1673ffffffffffffffffffffffffffffffffffffffff1673ffffffffffffffffffffffffffffffffffffffff1681526020019081526020015f205f6101000a81549073ffffffffffffffffffffffffffffffffffffffff0219169055808060010191505061203b565b5060045f61228691906122a9565b5f80819055505f600a819055505f600181905550565b610d6f80612e9783390190565b5080545f8255905f5260205f20908101906122c491906122c7565b50565b5b808211156122de575f815f9055506001016122c8565b5090565b5f819050919050565b6122f4816122e2565b82525050565b5f60208201905061230d5f8301846122eb565b92915050565b5f80fd5b5f73ffffffffffffffffffffffffffffffffffffffff82169050919050565b5f61234082612317565b9050919050565b61235081612336565b811461235a575f80fd5b50565b5f8135905061236b81612347565b92915050565b5f6020828403121561238657612385612313565b5b5f6123938482850161235d565b91505092915050565b5f8115159050919050565b6123b08161239c565b82525050565b5f6020820190506123c95f8301846123a7565b92915050565b5f819050919050565b5f6123f26123ed6123e884612317565b6123cf565b612317565b9050919050565b5f612403826123d8565b9050919050565b5f612414826123f9565b9050919050565b6124248161240a565b82525050565b5f60208201905061243d5f83018461241b565b92915050565b5f61244d826123f9565b9050919050565b61245d81612443565b82525050565b5f6020820190506124765f830184612454565b92915050565b5f819050919050565b61248e8161247c565b8114612498575f80fd5b50565b5f813590506124a981612485565b92915050565b5f602082840312156124c4576124c3612313565b5b5f6124d18482850161249b565b91505092915050565b6124e38161247c565b82525050565b5f6020820190506124fc5f8301846124da565b92915050565b61250b816122e2565b8114612515575f80fd5b50565b5f8135905061252681612502565b92915050565b5f6020828403121561254157612540612313565b5b5f61254e84828501612518565b91505092915050565b61256081612336565b82525050565b5f6020820190506125795f830184612557565b92915050565b5f612589826123f9565b9050919050565b6125998161257f565b82525050565b5f6020820190506125b25f830184612590565b92915050565b5f82825260208201905092915050565b7f416c72656164792068617665203220706c6179657273000000000000000000005f82015250565b5f6125fc6016836125b8565b9150612607826125c8565b602082019050919050565b5f6020820190508181035f830152612629816125f0565b9050919050565b7f4e487b71000000000000000000000000000000000000000000000000000000005f52603260045260245ffd5b7f596f752061726520616c726561647920696e207468652067616d6500000000005f82015250565b5f612691601b836125b8565b915061269c8261265d565b602082019050919050565b5f6020820190508181035f8301526126be81612685565b9050919050565b7f4e487b71000000000000000000000000000000000000000000000000000000005f52601160045260245ffd5b5f6126fc826122e2565b91507fffffffffffffffffffffffffffffffffffffffffffffffffffffffffffffffff820361272e5761272d6126c5565b5b600182019050919050565b5f8151905061274781612502565b92915050565b5f6020828403121561276257612761612313565b5b5f61276f84828501612739565b91505092915050565b7f54696d656f7574000000000000000000000000000000000000000000000000005f82015250565b5f6127ac6007836125b8565b91506127b782612778565b602082019050919050565b5f6020820190508181035f8301526127d9816127a0565b9050919050565b7f506c617965722069732072657665616c656400000000000000000000000000005f82015250565b5f6128146012836125b8565b915061281f826127e0565b602082019050919050565b5f6020820190508181035f83015261284181612808565b9050919050565b7f496e76616c69642063686f6963650000000000000000000000000000000000005f82015250565b5f61287c600e836125b8565b915061288782612848565b602082019050919050565b5f6020820190508181035f8301526128a981612870565b9050919050565b7f52657665616c207068617365206e6f742074696d6564206f75742079657400005f82015250565b5f6128e4601e836125b8565b91506128ef826128b0565b602082019050919050565b5f6020820190508181035f830152612911816128d8565b9050919050565b7f4e6f2072657761726420696e20636f6e747261637400000000000000000000005f82015250565b5f61294c6015836125b8565b915061295782612918565b602082019050919050565b5f6020820190508181035f83015261297981612940565b9050919050565b7f4f6e6c79207468652072657665616c65722063616e20776974686472617700005f82015250565b5f6129b4601e836125b8565b91506129bf82612980565b602082019050919050565b5f6020820190508181035f8301526129e1816129a8565b9050919050565b5f6040820190506129fb5f830185612557565b612a0860208301846122eb565b9392505050565b612a188161239c565b8114612a22575f80fd5b50565b5f81519050612a3381612a0f565b92915050565b5f60208284031215612a4e57612a4d612313565b5b5f612a5b84828501612a25565b91505092915050565b7f496e76616c6964207374617465000000000000000000000000000000000000005f82015250565b5f612a98600d836125b8565b9150612aa382612a64565b602082019050919050565b5f6020820190508181035f830152612ac581612a8c565b9050919050565b7f426f746820706c61796572732072657665616c6564202d206e6f74206170706c5f8201527f696361626c652068657265000000000000000000000000000000000000000000602082015250565b5f612b26602b836125b8565b9150612b3182612acc565b604082019050919050565b5f6020820190508181035f830152612b5381612b1a565b9050919050565b5f81519050612b6881612485565b92915050565b5f60208284031215612b8357612b82612313565b5b5f612b9084828501612b5a565b91505092915050565b7f436f6d6d69742070686173652074696d6564206f7574000000000000000000005f82015250565b5f612bcd6016836125b8565b9150612bd882612b99565b602082019050919050565b5f6020820190508181035f830152612bfa81612bc1565b9050919050565b5f604082019050612c145f830185612557565b612c216020830184612557565b9392505050565b7f506c617965723020616c6c6f77616e6365206e6f7420656e6f756768000000005f82015250565b5f612c5c601c836125b8565b9150612c6782612c28565b602082019050919050565b5f6020820190508181035f830152612c8981612c50565b9050919050565b7f506c617965723120616c6c6f77616e6365206e6f7420656e6f756768000000005f82015250565b5f612cc4601c836125b8565b9150612ccf82612c90565b602082019050919050565b5f6020820190508181035f830152612cf181612cb8565b9050919050565b5f606082019050612d0b5f830186612557565b612d186020830185612557565b612d2560408301846122eb565b949350505050565b7f7472616e7366657246726f6d206661696c6564000000000000000000000000005f82015250565b5f612d616013836125b8565b9150612d6c82612d2d565b602082019050919050565b5f6020820190508181035f830152612d8e81612d55565b9050919050565b5f612d9f826122e2565b9150612daa836122e2565b9250828202612db8816122e2565b91508282048414831517612dcf57612dce6126c5565b5b5092915050565b5f612de0826122e2565b9150612deb836122e2565b9250828201905080821115612e0357612e026126c5565b5b92915050565b7f4e487b71000000000000000000000000000000000000000000000000000000005f52601260045260245ffd5b5f612e40826122e2565b9150612e4b836122e2565b925082612e5b57612e5a612e09565b5b828206905092915050565b5f612e70826122e2565b9150612e7b836122e2565b925082612e8b57612e8a612e09565b5b82820490509291505056fe608060405260645f806101000a81548160ff021916908360ff1602179055503480156028575f80fd5b50610d39806100365f395ff3fe608060405234801561000f575f80fd5b5060043610610055575f3560e01c80633cf5040a146100595780636ac5db1914610089578063701fd0f1146100a75780637b43a8e6146100c3578063f14fcbc8146100f5575b5f80fd5b610073600480360381019061006e919061075d565b610111565b6040516100809190610797565b60405180910390f35b610091610140565b60405161009e91906107cb565b60405180910390f35b6100c160048036038101906100bc919061075d565b610150565b005b6100dd60048036038101906100d8919061083e565b61050e565b6040516100ec939291906108a5565b60405180910390f35b61010f600480360381019061010a919061075d565b610554565b005b5f8160405160200161012391906108fa565b604051602081830303815290604052805190602001209050919050565b5f8054906101000a900460ff1681565b5f151560015f3373ffffffffffffffffffffffffffffffffffffffff1673ffffffffffffffffffffffffffffffffffffffff1681526020019081526020015f2060010160089054906101000a900460ff161515146101e3576040517f08c379a00000000000000000000000000000000000000000000000000000000081526004016101da90610994565b60405180910390fd5b6001805f3373ffffffffffffffffffffffffffffffffffffffff1673ffffffffffffffffffffffffffffffffffffffff1681526020019081526020015f2060010160086101000a81548160ff02191690831515021790555060015f3373ffffffffffffffffffffffffffffffffffffffff1673ffffffffffffffffffffffffffffffffffffffff1681526020019081526020015f205f015461028482610111565b146102c4576040517f08c379a00000000000000000000000000000000000000000000000000000000081526004016102bb90610a22565b60405180910390fd5b60015f3373ffffffffffffffffffffffffffffffffffffffff1673ffffffffffffffffffffffffffffffffffffffff1681526020019081526020015f206001015f9054906101000a900467ffffffffffffffff1667ffffffffffffffff164367ffffffffffffffff161161036d576040517f08c379a000000000000000000000000000000000000000000000000000000000815260040161036490610ad6565b60405180910390fd5b60fa60015f3373ffffffffffffffffffffffffffffffffffffffff1673ffffffffffffffffffffffffffffffffffffffff1681526020019081526020015f206001015f9054906101000a900467ffffffffffffffff166103cd9190610b21565b67ffffffffffffffff164367ffffffffffffffff161115610423576040517f08c379a000000000000000000000000000000000000000000000000000000000815260040161041a90610bcc565b60405180910390fd5b5f60015f3373ffffffffffffffffffffffffffffffffffffffff1673ffffffffffffffffffffffffffffffffffffffff1681526020019081526020015f206001015f9054906101000a900467ffffffffffffffff1667ffffffffffffffff164090505f805f9054906101000a900460ff1660ff1682846040516020016104aa929190610bea565b604051602081830303815290604052805190602001205f1c6104cc9190610c4b565b90507fbc016dd1cadeaefcb851af7a0a93532e0023d536894b730801f7bcfe7065bcc233848360405161050193929190610c99565b60405180910390a1505050565b6001602052805f5260405f205f91509050805f015490806001015f9054906101000a900467ffffffffffffffff16908060010160089054906101000a900460ff16905083565b8060015f3373ffffffffffffffffffffffffffffffffffffffff1673ffffffffffffffffffffffffffffffffffffffff1681526020019081526020015f205f01819055504360015f3373ffffffffffffffffffffffffffffffffffffffff1673ffffffffffffffffffffffffffffffffffffffff1681526020019081526020015f206001015f6101000a81548167ffffffffffffffff021916908367ffffffffffffffff1602179055505f60015f3373ffffffffffffffffffffffffffffffffffffffff1673ffffffffffffffffffffffffffffffffffffffff1681526020019081526020015f2060010160086101000a81548160ff0219169083151502179055507f3c1a1f8f38335b17f751c6da4ba7d1865f26b3997535176f5080de9fad8916033360015f3373ffffffffffffffffffffffffffffffffffffffff1673ffffffffffffffffffffffffffffffffffffffff1681526020019081526020015f205f015460015f3373ffffffffffffffffffffffffffffffffffffffff1673ffffffffffffffffffffffffffffffffffffffff1681526020019081526020015f206001015f9054906101000a900467ffffffffffffffff1660405161071b93929190610cce565b60405180910390a150565b5f80fd5b5f819050919050565b61073c8161072a565b8114610746575f80fd5b50565b5f8135905061075781610733565b92915050565b5f6020828403121561077257610771610726565b5b5f61077f84828501610749565b91505092915050565b6107918161072a565b82525050565b5f6020820190506107aa5f830184610788565b92915050565b5f60ff82169050919050565b6107c5816107b0565b82525050565b5f6020820190506107de5f8301846107bc565b92915050565b5f73ffffffffffffffffffffffffffffffffffffffff82169050919050565b5f61080d826107e4565b9050919050565b61081d81610803565b8114610827575f80fd5b50565b5f8135905061083881610814565b92915050565b5f6020828403121561085357610852610726565b5b5f6108608482850161082a565b91505092915050565b5f67ffffffffffffffff82169050919050565b61088581610869565b82525050565b5f8115159050919050565b61089f8161088b565b82525050565b5f6060820190506108b85f830186610788565b6108c5602083018561087c565b6108d26040830184610896565b949350505050565b5f819050919050565b6108f46108ef8261072a565b6108da565b82525050565b5f61090582846108e3565b60208201915081905092915050565b5f82825260208201905092915050565b7f436f6d6d697452657665616c3a3a72657665616c3a20416c72656164792072655f8201527f7665616c65640000000000000000000000000000000000000000000000000000602082015250565b5f61097e602683610914565b915061098982610924565b604082019050919050565b5f6020820190508181035f8301526109ab81610972565b9050919050565b7f436f6d6d697452657665616c3a3a72657665616c3a2052657665616c656420685f8201527f61736820646f6573206e6f74206d6174636820636f6d6d697400000000000000602082015250565b5f610a0c603983610914565b9150610a17826109b2565b604082019050919050565b5f6020820190508181035f830152610a3981610a00565b9050919050565b7f436f6d6d697452657665616c3a3a72657665616c3a2052657665616c20616e645f8201527f20636f6d6d69742068617070656e6564206f6e207468652073616d6520626c6f60208201527f636b000000000000000000000000000000000000000000000000000000000000604082015250565b5f610ac0604283610914565b9150610acb82610a40565b606082019050919050565b5f6020820190508181035f830152610aed81610ab4565b9050919050565b7f4e487b71000000000000000000000000000000000000000000000000000000005f52601160045260245ffd5b5f610b2b82610869565b9150610b3683610869565b9250828201905067ffffffffffffffff811115610b5657610b55610af4565b5b92915050565b7f436f6d6d697452657665616c3a3a72657665616c3a2052657665616c656420745f8201527f6f6f206c61746500000000000000000000000000000000000000000000000000602082015250565b5f610bb6602783610914565b9150610bc182610b5c565b604082019050919050565b5f6020820190508181035f830152610be381610baa565b9050919050565b5f610bf582856108e3565b602082019150610c0582846108e3565b6020820191508190509392505050565b5f819050919050565b7f4e487b71000000000000000000000000000000000000000000000000000000005f52601260045260245ffd5b5f610c5582610c15565b9150610c6083610c15565b925082610c7057610c6f610c1e565b5b828206905092915050565b610c8481610803565b82525050565b610c9381610c15565b82525050565b5f606082019050610cac5f830186610c7b565b610cb96020830185610788565b610cc66040830184610c8a565b949350505050565b5f606082019050610ce15f830186610c7b565b610cee6020830185610788565b610cfb604083018461087c565b94935050505056fea2646970667358221220665436f856a8d0d86d585ba3b79d396bbd97c3e7ec1e2f30121b01cecf6ff34064736f6c634300081a0033a2646970667358221220400f59e0d8217b2b2626ba1c1d39c3a9cd6bf9a3b78ce4835f27452aac19042264736f6c634300081a00336080604052348015600e575f80fd5b506102158061001c5f395ff3fe608060405234801561000f575f80fd5b506004361061004a575f3560e01c806378e979251461004e578063a63f7c531461006c578063bc06b8cd14610076578063d97c841614610094575b5f80fd5b6100566100b2565b6040516100639190610109565b60405180910390f35b6100746100b7565b005b61007e6100bf565b60405161008b9190610109565b60405180910390f35b61009c6100d2565b6040516100a99190610109565b60405180910390f35b5f5481565b425f81905550565b5f8054426100cd919061014f565b905090565b5f603c5f54426100e2919061014f565b6100ec91906101af565b905090565b5f819050919050565b610103816100f1565b82525050565b5f60208201905061011c5f8301846100fa565b92915050565b7f4e487b71000000000000000000000000000000000000000000000000000000005f52601160045260245ffd5b5f610159826100f1565b9150610164836100f1565b925082820390508181111561017c5761017b610122565b5b92915050565b7f4e487b71000000000000000000000000000000000000000000000000000000005f52601260045260245ffd5b5f6101b9826100f1565b91506101c4836100f1565b9250826101d4576101d3610182565b5b82820490509291505056fea2646970667358221220536b7940d5371faaf75b89b185b412b3b063b6163f59953ace730f47887b6dae64736f6c634300081a0033",
					"opcodes": "PUSH1 0x80 PUSH1 0x40 MSTORE PUSH0 DUP1 SSTORE PUSH0 PUSH1 0x1 SSTORE PUSH0 PUSH1 0x5 SSTORE PUSH1 0x40 MLOAD PUSH2 0x1B SWAP1 PUSH2 0x150 JUMP JUMPDEST PUSH1 0x40 MLOAD DUP1 SWAP2 SUB SWAP1 PUSH0 CREATE DUP1 ISZERO DUP1 ISZERO PUSH2 0x34 JUMPI RETURNDATASIZE PUSH0 DUP1 RETURNDATACOPY RETURNDATASIZE PUSH0 REVERT JUMPDEST POP PUSH1 0x7 PUSH0 PUSH2 0x100 EXP DUP2 SLOAD DUP2 PUSH20 0xFFFFFFFFFFFFFFFFFFFFFFFFFFFFFFFFFFFFFFFF MUL NOT AND SWAP1 DUP4 PUSH20 0xFFFFFFFFFFFFFFFFFFFFFFFFFFFFFFFFFFFFFFFF AND MUL OR SWAP1 SSTORE POP PUSH1 0x40 MLOAD PUSH2 0x80 SWAP1 PUSH2 0x150 JUMP JUMPDEST PUSH1 0x40 MLOAD DUP1 SWAP2 SUB SWAP1 PUSH0 CREATE DUP1 ISZERO DUP1 ISZERO PUSH2 0x99 JUMPI RETURNDATASIZE PUSH0 DUP1 RETURNDATACOPY RETURNDATASIZE PUSH0 REVERT JUMPDEST POP PUSH1 0x8 PUSH0 PUSH2 0x100 EXP DUP2 SLOAD DUP2 PUSH20 0xFFFFFFFFFFFFFFFFFFFFFFFFFFFFFFFFFFFFFFFF MUL NOT AND SWAP1 DUP4 PUSH20 0xFFFFFFFFFFFFFFFFFFFFFFFFFFFFFFFFFFFFFFFF AND MUL OR SWAP1 SSTORE POP PUSH0 PUSH1 0xA SSTORE CALLVALUE DUP1 ISZERO PUSH2 0xE8 JUMPI PUSH0 DUP1 REVERT JUMPDEST POP PUSH1 0x40 MLOAD PUSH2 0x405F CODESIZE SUB DUP1 PUSH2 0x405F DUP4 CODECOPY DUP2 DUP2 ADD PUSH1 0x40 MSTORE DUP2 ADD SWAP1 PUSH2 0x10A SWAP2 SWAP1 PUSH2 0x1BB JUMP JUMPDEST DUP1 PUSH1 0x9 PUSH0 PUSH2 0x100 EXP DUP2 SLOAD DUP2 PUSH20 0xFFFFFFFFFFFFFFFFFFFFFFFFFFFFFFFFFFFFFFFF MUL NOT AND SWAP1 DUP4 PUSH20 0xFFFFFFFFFFFFFFFFFFFFFFFFFFFFFFFFFFFFFFFF AND MUL OR SWAP1 SSTORE POP POP PUSH2 0x1E6 JUMP JUMPDEST PUSH2 0x231 DUP1 PUSH2 0x3E2E DUP4 CODECOPY ADD SWAP1 JUMP JUMPDEST PUSH0 DUP1 REVERT JUMPDEST PUSH0 PUSH20 0xFFFFFFFFFFFFFFFFFFFFFFFFFFFFFFFFFFFFFFFF DUP3 AND SWAP1 POP SWAP2 SWAP1 POP JUMP JUMPDEST PUSH0 PUSH2 0x18A DUP3 PUSH2 0x161 JUMP JUMPDEST SWAP1 POP SWAP2 SWAP1 POP JUMP JUMPDEST PUSH2 0x19A DUP2 PUSH2 0x180 JUMP JUMPDEST DUP2 EQ PUSH2 0x1A4 JUMPI PUSH0 DUP1 REVERT JUMPDEST POP JUMP JUMPDEST PUSH0 DUP2 MLOAD SWAP1 POP PUSH2 0x1B5 DUP2 PUSH2 0x191 JUMP JUMPDEST SWAP3 SWAP2 POP POP JUMP JUMPDEST PUSH0 PUSH1 0x20 DUP3 DUP5 SUB SLT ISZERO PUSH2 0x1D0 JUMPI PUSH2 0x1CF PUSH2 0x15D JUMP JUMPDEST JUMPDEST PUSH0 PUSH2 0x1DD DUP5 DUP3 DUP6 ADD PUSH2 0x1A7 JUMP JUMPDEST SWAP2 POP POP SWAP3 SWAP2 POP POP JUMP JUMPDEST PUSH2 0x3C3B DUP1 PUSH2 0x1F3 PUSH0 CODECOPY PUSH0 RETURN INVALID PUSH1 0x80 PUSH1 0x40 MSTORE PUSH1 0x4 CALLDATASIZE LT PUSH2 0x11E JUMPI PUSH0 CALLDATALOAD PUSH1 0xE0 SHR DUP1 PUSH4 0x9FE3B7B3 GT PUSH2 0x9F JUMPI DUP1 PUSH4 0xD891F969 GT PUSH2 0x63 JUMPI DUP1 PUSH4 0xD891F969 EQ PUSH2 0x3AA JUMPI DUP1 PUSH4 0xE676B421 EQ PUSH2 0x3D2 JUMPI DUP1 PUSH4 0xF71D96CB EQ PUSH2 0x40E JUMPI DUP1 PUSH4 0xFAF5625F EQ PUSH2 0x44A JUMPI DUP1 PUSH4 0xFC0C546A EQ PUSH2 0x474 JUMPI PUSH2 0x11E JUMP JUMPDEST DUP1 PUSH4 0x9FE3B7B3 EQ PUSH2 0x2C8 JUMPI DUP1 PUSH4 0xA040478D EQ PUSH2 0x2F2 JUMPI DUP1 PUSH4 0xAEAD4AF2 EQ PUSH2 0x32E JUMPI DUP1 PUSH4 0xBA829D71 EQ PUSH2 0x344 JUMPI DUP1 PUSH4 0xD8389DC5 EQ PUSH2 0x36E JUMPI PUSH2 0x11E JUMP JUMPDEST DUP1 PUSH4 0x2DC69860 GT PUSH2 0xE6 JUMPI DUP1 PUSH4 0x2DC69860 EQ PUSH2 0x1E6 JUMPI DUP1 PUSH4 0x5565F281 EQ PUSH2 0x210 JUMPI DUP1 PUSH4 0x5E63D890 EQ PUSH2 0x24C JUMPI DUP1 PUSH4 0x65CE0AC6 EQ PUSH2 0x276 JUMPI DUP1 PUSH4 0x90D5D0C3 EQ PUSH2 0x29E JUMPI PUSH2 0x11E JUMP JUMPDEST DUP1 PUSH4 0x86F7815 EQ PUSH2 0x122 JUMPI DUP1 PUSH4 0x15222285 EQ PUSH2 0x14C JUMPI DUP1 PUSH4 0x190CF745 EQ PUSH2 0x176 JUMPI DUP1 PUSH4 0x228CB733 EQ PUSH2 0x1B2 JUMPI DUP1 PUSH4 0x27B5DB8A EQ PUSH2 0x1DC JUMPI JUMPDEST PUSH0 DUP1 REVERT JUMPDEST CALLVALUE DUP1 ISZERO PUSH2 0x12D JUMPI PUSH0 DUP1 REVERT JUMPDEST POP PUSH2 0x136 PUSH2 0x49E JUMP JUMPDEST PUSH1 0x40 MLOAD PUSH2 0x143 SWAP2 SWAP1 PUSH2 0x22FA JUMP JUMPDEST PUSH1 0x40 MLOAD DUP1 SWAP2 SUB SWAP1 RETURN JUMPDEST CALLVALUE DUP1 ISZERO PUSH2 0x157 JUMPI PUSH0 DUP1 REVERT JUMPDEST POP PUSH2 0x160 PUSH2 0x4A4 JUMP JUMPDEST PUSH1 0x40 MLOAD PUSH2 0x16D SWAP2 SWAP1 PUSH2 0x22FA JUMP JUMPDEST PUSH1 0x40 MLOAD DUP1 SWAP2 SUB SWAP1 RETURN JUMPDEST CALLVALUE DUP1 ISZERO PUSH2 0x181 JUMPI PUSH0 DUP1 REVERT JUMPDEST POP PUSH2 0x19C PUSH1 0x4 DUP1 CALLDATASIZE SUB DUP2 ADD SWAP1 PUSH2 0x197 SWAP2 SWAP1 PUSH2 0x2371 JUMP JUMPDEST PUSH2 0x4AA JUMP JUMPDEST PUSH1 0x40 MLOAD PUSH2 0x1A9 SWAP2 SWAP1 PUSH2 0x23B6 JUMP JUMPDEST PUSH1 0x40 MLOAD DUP1 SWAP2 SUB SWAP1 RETURN JUMPDEST CALLVALUE DUP1 ISZERO PUSH2 0x1BD JUMPI PUSH0 DUP1 REVERT JUMPDEST POP PUSH2 0x1C6 PUSH2 0x4C7 JUMP JUMPDEST PUSH1 0x40 MLOAD PUSH2 0x1D3 SWAP2 SWAP1 PUSH2 0x22FA JUMP JUMPDEST PUSH1 0x40 MLOAD DUP1 SWAP2 SUB SWAP1 RETURN JUMPDEST PUSH2 0x1E4 PUSH2 0x4CD JUMP JUMPDEST STOP JUMPDEST CALLVALUE DUP1 ISZERO PUSH2 0x1F1 JUMPI PUSH0 DUP1 REVERT JUMPDEST POP PUSH2 0x1FA PUSH2 0x80C JUMP JUMPDEST PUSH1 0x40 MLOAD PUSH2 0x207 SWAP2 SWAP1 PUSH2 0x22FA JUMP JUMPDEST PUSH1 0x40 MLOAD DUP1 SWAP2 SUB SWAP1 RETURN JUMPDEST CALLVALUE DUP1 ISZERO PUSH2 0x21B JUMPI PUSH0 DUP1 REVERT JUMPDEST POP PUSH2 0x236 PUSH1 0x4 DUP1 CALLDATASIZE SUB DUP2 ADD SWAP1 PUSH2 0x231 SWAP2 SWAP1 PUSH2 0x2371 JUMP JUMPDEST PUSH2 0x811 JUMP JUMPDEST PUSH1 0x40 MLOAD PUSH2 0x243 SWAP2 SWAP1 PUSH2 0x242A JUMP JUMPDEST PUSH1 0x40 MLOAD DUP1 SWAP2 SUB SWAP1 RETURN JUMPDEST CALLVALUE DUP1 ISZERO PUSH2 0x257 JUMPI PUSH0 DUP1 REVERT JUMPDEST POP PUSH2 0x260 PUSH2 0x841 JUMP JUMPDEST PUSH1 0x40 MLOAD PUSH2 0x26D SWAP2 SWAP1 PUSH2 0x2463 JUMP JUMPDEST PUSH1 0x40 MLOAD DUP1 SWAP2 SUB SWAP1 RETURN JUMPDEST CALLVALUE DUP1 ISZERO PUSH2 0x281 JUMPI PUSH0 DUP1 REVERT JUMPDEST POP PUSH2 0x29C PUSH1 0x4 DUP1 CALLDATASIZE SUB DUP2 ADD SWAP1 PUSH2 0x297 SWAP2 SWAP1 PUSH2 0x24AF JUMP JUMPDEST PUSH2 0x866 JUMP JUMPDEST STOP JUMPDEST CALLVALUE DUP1 ISZERO PUSH2 0x2A9 JUMPI PUSH0 DUP1 REVERT JUMPDEST POP PUSH2 0x2B2 PUSH2 0xC39 JUMP JUMPDEST PUSH1 0x40 MLOAD PUSH2 0x2BF SWAP2 SWAP1 PUSH2 0x22FA JUMP JUMPDEST PUSH1 0x40 MLOAD DUP1 SWAP2 SUB SWAP1 RETURN JUMPDEST CALLVALUE DUP1 ISZERO PUSH2 0x2D3 JUMPI PUSH0 DUP1 REVERT JUMPDEST POP PUSH2 0x2DC PUSH2 0xC3E JUMP JUMPDEST PUSH1 0x40 MLOAD PUSH2 0x2E9 SWAP2 SWAP1 PUSH2 0x22FA JUMP JUMPDEST PUSH1 0x40 MLOAD DUP1 SWAP2 SUB SWAP1 RETURN JUMPDEST CALLVALUE DUP1 ISZERO PUSH2 0x2FD JUMPI PUSH0 DUP1 REVERT JUMPDEST POP PUSH2 0x318 PUSH1 0x4 DUP1 CALLDATASIZE SUB DUP2 ADD SWAP1 PUSH2 0x313 SWAP2 SWAP1 PUSH2 0x2371 JUMP JUMPDEST PUSH2 0xC43 JUMP JUMPDEST PUSH1 0x40 MLOAD PUSH2 0x325 SWAP2 SWAP1 PUSH2 0x22FA JUMP JUMPDEST PUSH1 0x40 MLOAD DUP1 SWAP2 SUB SWAP1 RETURN JUMPDEST CALLVALUE DUP1 ISZERO PUSH2 0x339 JUMPI PUSH0 DUP1 REVERT JUMPDEST POP PUSH2 0x342 PUSH2 0xC58 JUMP JUMPDEST STOP JUMPDEST CALLVALUE DUP1 ISZERO PUSH2 0x34F JUMPI PUSH0 DUP1 REVERT JUMPDEST POP PUSH2 0x358 PUSH2 0x12FC JUMP JUMPDEST PUSH1 0x40 MLOAD PUSH2 0x365 SWAP2 SWAP1 PUSH2 0x2463 JUMP JUMPDEST PUSH1 0x40 MLOAD DUP1 SWAP2 SUB SWAP1 RETURN JUMPDEST CALLVALUE DUP1 ISZERO PUSH2 0x379 JUMPI PUSH0 DUP1 REVERT JUMPDEST POP PUSH2 0x394 PUSH1 0x4 DUP1 CALLDATASIZE SUB DUP2 ADD SWAP1 PUSH2 0x38F SWAP2 SWAP1 PUSH2 0x24AF JUMP JUMPDEST PUSH2 0x1321 JUMP JUMPDEST PUSH1 0x40 MLOAD PUSH2 0x3A1 SWAP2 SWAP1 PUSH2 0x24E9 JUMP JUMPDEST PUSH1 0x40 MLOAD DUP1 SWAP2 SUB SWAP1 RETURN JUMPDEST CALLVALUE DUP1 ISZERO PUSH2 0x3B5 JUMPI PUSH0 DUP1 REVERT JUMPDEST POP PUSH2 0x3D0 PUSH1 0x4 DUP1 CALLDATASIZE SUB DUP2 ADD SWAP1 PUSH2 0x3CB SWAP2 SWAP1 PUSH2 0x24AF JUMP JUMPDEST PUSH2 0x13FD JUMP JUMPDEST STOP JUMPDEST CALLVALUE DUP1 ISZERO PUSH2 0x3DD JUMPI PUSH0 DUP1 REVERT JUMPDEST POP PUSH2 0x3F8 PUSH1 0x4 DUP1 CALLDATASIZE SUB DUP2 ADD SWAP1 PUSH2 0x3F3 SWAP2 SWAP1 PUSH2 0x2371 JUMP JUMPDEST PUSH2 0x1B44 JUMP JUMPDEST PUSH1 0x40 MLOAD PUSH2 0x405 SWAP2 SWAP1 PUSH2 0x23B6 JUMP JUMPDEST PUSH1 0x40 MLOAD DUP1 SWAP2 SUB SWAP1 RETURN JUMPDEST CALLVALUE DUP1 ISZERO PUSH2 0x419 JUMPI PUSH0 DUP1 REVERT JUMPDEST POP PUSH2 0x434 PUSH1 0x4 DUP1 CALLDATASIZE SUB DUP2 ADD SWAP1 PUSH2 0x42F SWAP2 SWAP1 PUSH2 0x252C JUMP JUMPDEST PUSH2 0x1B61 JUMP JUMPDEST PUSH1 0x40 MLOAD PUSH2 0x441 SWAP2 SWAP1 PUSH2 0x2566 JUMP JUMPDEST PUSH1 0x40 MLOAD DUP1 SWAP2 SUB SWAP1 RETURN JUMPDEST CALLVALUE DUP1 ISZERO PUSH2 0x455 JUMPI PUSH0 DUP1 REVERT JUMPDEST POP PUSH2 0x45E PUSH2 0x1B9C JUMP JUMPDEST PUSH1 0x40 MLOAD PUSH2 0x46B SWAP2 SWAP1 PUSH2 0x22FA JUMP JUMPDEST PUSH1 0x40 MLOAD DUP1 SWAP2 SUB SWAP1 RETURN JUMPDEST CALLVALUE DUP1 ISZERO PUSH2 0x47F JUMPI PUSH0 DUP1 REVERT JUMPDEST POP PUSH2 0x488 PUSH2 0x1BA5 JUMP JUMPDEST PUSH1 0x40 MLOAD PUSH2 0x495 SWAP2 SWAP1 PUSH2 0x259F JUMP JUMPDEST PUSH1 0x40 MLOAD DUP1 SWAP2 SUB SWAP1 RETURN JUMPDEST PUSH1 0xA SLOAD DUP2 JUMP JUMPDEST PUSH1 0x5 SLOAD DUP2 JUMP JUMPDEST PUSH1 0x3 PUSH1 0x20 MSTORE DUP1 PUSH0 MSTORE PUSH1 0x40 PUSH0 KECCAK256 PUSH0 SWAP2 POP SLOAD SWAP1 PUSH2 0x100 EXP SWAP1 DIV PUSH1 0xFF AND DUP2 JUMP JUMPDEST PUSH1 0x1 SLOAD DUP2 JUMP JUMPDEST PUSH1 0x2 PUSH0 SLOAD LT PUSH2 0x511 JUMPI PUSH1 0x40 MLOAD PUSH32 0x8C379A000000000000000000000000000000000000000000000000000000000 DUP2 MSTORE PUSH1 0x4 ADD PUSH2 0x508 SWAP1 PUSH2 0x2612 JUMP JUMPDEST PUSH1 0x40 MLOAD DUP1 SWAP2 SUB SWAP1 REVERT JUMPDEST PUSH1 0x1 PUSH0 SLOAD SUB PUSH2 0x5C4 JUMPI PUSH1 0x4 PUSH0 DUP2 SLOAD DUP2 LT PUSH2 0x52E JUMPI PUSH2 0x52D PUSH2 0x2630 JUMP JUMPDEST JUMPDEST SWAP1 PUSH0 MSTORE PUSH1 0x20 PUSH0 KECCAK256 ADD PUSH0 SWAP1 SLOAD SWAP1 PUSH2 0x100 EXP SWAP1 DIV PUSH20 0xFFFFFFFFFFFFFFFFFFFFFFFFFFFFFFFFFFFFFFFF AND PUSH20 0xFFFFFFFFFFFFFFFFFFFFFFFFFFFFFFFFFFFFFFFF AND CALLER PUSH20 0xFFFFFFFFFFFFFFFFFFFFFFFFFFFFFFFFFFFFFFFF AND SUB PUSH2 0x5C3 JUMPI PUSH1 0x40 MLOAD PUSH32 0x8C379A000000000000000000000000000000000000000000000000000000000 DUP2 MSTORE PUSH1 0x4 ADD PUSH2 0x5BA SWAP1 PUSH2 0x26A7 JUMP JUMPDEST PUSH1 0x40 MLOAD DUP1 SWAP2 SUB SWAP1 REVERT JUMPDEST JUMPDEST PUSH1 0x1 PUSH1 0x3 PUSH0 CALLER PUSH20 0xFFFFFFFFFFFFFFFFFFFFFFFFFFFFFFFFFFFFFFFF AND PUSH20 0xFFFFFFFFFFFFFFFFFFFFFFFFFFFFFFFFFFFFFFFF AND DUP2 MSTORE PUSH1 0x20 ADD SWAP1 DUP2 MSTORE PUSH1 0x20 ADD PUSH0 KECCAK256 PUSH0 PUSH2 0x100 EXP DUP2 SLOAD DUP2 PUSH1 0xFF MUL NOT AND SWAP1 DUP4 ISZERO ISZERO MUL OR SWAP1 SSTORE POP PUSH1 0x1 PUSH1 0x6 PUSH0 CALLER PUSH20 0xFFFFFFFFFFFFFFFFFFFFFFFFFFFFFFFFFFFFFFFF AND PUSH20 0xFFFFFFFFFFFFFFFFFFFFFFFFFFFFFFFFFFFFFFFF AND DUP2 MSTORE PUSH1 0x20 ADD SWAP1 DUP2 MSTORE PUSH1 0x20 ADD PUSH0 KECCAK256 PUSH0 PUSH2 0x100 EXP DUP2 SLOAD DUP2 PUSH1 0xFF MUL NOT AND SWAP1 DUP4 ISZERO ISZERO MUL OR SWAP1 SSTORE POP PUSH1 0x4 CALLER SWAP1 DUP1 PUSH1 0x1 DUP2 SLOAD ADD DUP1 DUP3 SSTORE DUP1 SWAP2 POP POP PUSH1 0x1 SWAP1 SUB SWAP1 PUSH0 MSTORE PUSH1 0x20 PUSH0 KECCAK256 ADD PUSH0 SWAP1 SWAP2 SWAP1 SWAP2 SWAP1 SWAP2 PUSH2 0x100 EXP DUP2 SLOAD DUP2 PUSH20 0xFFFFFFFFFFFFFFFFFFFFFFFFFFFFFFFFFFFFFFFF MUL NOT AND SWAP1 DUP4 PUSH20 0xFFFFFFFFFFFFFFFFFFFFFFFFFFFFFFFFFFFFFFFF AND MUL OR SWAP1 SSTORE POP PUSH0 DUP1 DUP2 SLOAD DUP1 SWAP3 SWAP2 SWAP1 PUSH2 0x6DF SWAP1 PUSH2 0x26F2 JUMP JUMPDEST SWAP2 SWAP1 POP SSTORE POP PUSH1 0x40 MLOAD PUSH2 0x6F0 SWAP1 PUSH2 0x229C JUMP JUMPDEST PUSH1 0x40 MLOAD DUP1 SWAP2 SUB SWAP1 PUSH0 CREATE DUP1 ISZERO DUP1 ISZERO PUSH2 0x709 JUMPI RETURNDATASIZE PUSH0 DUP1 RETURNDATACOPY RETURNDATASIZE PUSH0 REVERT JUMPDEST POP PUSH1 0xB PUSH0 CALLER PUSH20 0xFFFFFFFFFFFFFFFFFFFFFFFFFFFFFFFFFFFFFFFF AND PUSH20 0xFFFFFFFFFFFFFFFFFFFFFFFFFFFFFFFFFFFFFFFF AND DUP2 MSTORE PUSH1 0x20 ADD SWAP1 DUP2 MSTORE PUSH1 0x20 ADD PUSH0 KECCAK256 PUSH0 PUSH2 0x100 EXP DUP2 SLOAD DUP2 PUSH20 0xFFFFFFFFFFFFFFFFFFFFFFFFFFFFFFFFFFFFFFFF MUL NOT AND SWAP1 DUP4 PUSH20 0xFFFFFFFFFFFFFFFFFFFFFFFFFFFFFFFFFFFFFFFF AND MUL OR SWAP1 SSTORE POP PUSH1 0x2 PUSH0 SLOAD SUB PUSH2 0x80A JUMPI PUSH1 0x7 PUSH0 SWAP1 SLOAD SWAP1 PUSH2 0x100 EXP SWAP1 DIV PUSH20 0xFFFFFFFFFFFFFFFFFFFFFFFFFFFFFFFFFFFFFFFF AND PUSH20 0xFFFFFFFFFFFFFFFFFFFFFFFFFFFFFFFFFFFFFFFF AND PUSH4 0xA63F7C53 PUSH1 0x40 MLOAD DUP2 PUSH4 0xFFFFFFFF AND PUSH1 0xE0 SHL DUP2 MSTORE PUSH1 0x4 ADD PUSH0 PUSH1 0x40 MLOAD DUP1 DUP4 SUB DUP2 PUSH0 DUP8 DUP1 EXTCODESIZE ISZERO DUP1 ISZERO PUSH2 0x7F3 JUMPI PUSH0 DUP1 REVERT JUMPDEST POP GAS CALL ISZERO DUP1 ISZERO PUSH2 0x805 JUMPI RETURNDATASIZE PUSH0 DUP1 RETURNDATACOPY RETURNDATASIZE PUSH0 REVERT JUMPDEST POP POP POP POP JUMPDEST JUMP JUMPDEST PUSH1 0x5 DUP2 JUMP JUMPDEST PUSH1 0xB PUSH1 0x20 MSTORE DUP1 PUSH0 MSTORE PUSH1 0x40 PUSH0 KECCAK256 PUSH0 SWAP2 POP SLOAD SWAP1 PUSH2 0x100 EXP SWAP1 DIV PUSH20 0xFFFFFFFFFFFFFFFFFFFFFFFFFFFFFFFFFFFFFFFF AND DUP2 JUMP JUMPDEST PUSH1 0x7 PUSH0 SWAP1 SLOAD SWAP1 PUSH2 0x100 EXP SWAP1 DIV PUSH20 0xFFFFFFFFFFFFFFFFFFFFFFFFFFFFFFFFFFFFFFFF AND DUP2 JUMP JUMPDEST PUSH1 0x2 PUSH1 0xA SLOAD EQ PUSH2 0x874 JUMPI PUSH0 DUP1 REVERT JUMPDEST PUSH1 0x5 PUSH1 0x8 PUSH0 SWAP1 SLOAD SWAP1 PUSH2 0x100 EXP SWAP1 DIV PUSH20 0xFFFFFFFFFFFFFFFFFFFFFFFFFFFFFFFFFFFFFFFF AND PUSH20 0xFFFFFFFFFFFFFFFFFFFFFFFFFFFFFFFFFFFFFFFF AND PUSH4 0xD97C8416 PUSH1 0x40 MLOAD DUP2 PUSH4 0xFFFFFFFF AND PUSH1 0xE0 SHL DUP2 MSTORE PUSH1 0x4 ADD PUSH1 0x20 PUSH1 0x40 MLOAD DUP1 DUP4 SUB DUP2 DUP7 GAS STATICCALL ISZERO DUP1 ISZERO PUSH2 0x8E0 JUMPI RETURNDATASIZE PUSH0 DUP1 RETURNDATACOPY RETURNDATASIZE PUSH0 REVERT JUMPDEST POP POP POP POP PUSH1 0x40 MLOAD RETURNDATASIZE PUSH1 0x1F NOT PUSH1 0x1F DUP3 ADD AND DUP3 ADD DUP1 PUSH1 0x40 MSTORE POP DUP2 ADD SWAP1 PUSH2 0x904 SWAP2 SWAP1 PUSH2 0x274D JUMP JUMPDEST LT PUSH2 0x944 JUMPI PUSH1 0x40 MLOAD PUSH32 0x8C379A000000000000000000000000000000000000000000000000000000000 DUP2 MSTORE PUSH1 0x4 ADD PUSH2 0x93B SWAP1 PUSH2 0x27C2 JUMP JUMPDEST PUSH1 0x40 MLOAD DUP1 SWAP2 SUB SWAP1 REVERT JUMPDEST PUSH1 0x6 PUSH0 CALLER PUSH20 0xFFFFFFFFFFFFFFFFFFFFFFFFFFFFFFFFFFFFFFFF AND PUSH20 0xFFFFFFFFFFFFFFFFFFFFFFFFFFFFFFFFFFFFFFFF AND DUP2 MSTORE PUSH1 0x20 ADD SWAP1 DUP2 MSTORE PUSH1 0x20 ADD PUSH0 KECCAK256 PUSH0 SWAP1 SLOAD SWAP1 PUSH2 0x100 EXP SWAP1 DIV PUSH1 0xFF AND PUSH2 0x9CD JUMPI PUSH1 0x40 MLOAD PUSH32 0x8C379A000000000000000000000000000000000000000000000000000000000 DUP2 MSTORE PUSH1 0x4 ADD PUSH2 0x9C4 SWAP1 PUSH2 0x282A JUMP JUMPDEST PUSH1 0x40 MLOAD DUP1 SWAP2 SUB SWAP1 REVERT JUMPDEST PUSH1 0xB PUSH0 CALLER PUSH20 0xFFFFFFFFFFFFFFFFFFFFFFFFFFFFFFFFFFFFFFFF AND PUSH20 0xFFFFFFFFFFFFFFFFFFFFFFFFFFFFFFFFFFFFFFFF AND DUP2 MSTORE PUSH1 0x20 ADD SWAP1 DUP2 MSTORE PUSH1 0x20 ADD PUSH0 KECCAK256 PUSH0 SWAP1 SLOAD SWAP1 PUSH2 0x100 EXP SWAP1 DIV PUSH20 0xFFFFFFFFFFFFFFFFFFFFFFFFFFFFFFFFFFFFFFFF AND PUSH20 0xFFFFFFFFFFFFFFFFFFFFFFFFFFFFFFFFFFFFFFFF AND PUSH4 0x701FD0F1 DUP3 PUSH1 0x40 MLOAD DUP3 PUSH4 0xFFFFFFFF AND PUSH1 0xE0 SHL DUP2 MSTORE PUSH1 0x4 ADD PUSH2 0xA62 SWAP2 SWAP1 PUSH2 0x24E9 JUMP JUMPDEST PUSH0 PUSH1 0x40 MLOAD DUP1 DUP4 SUB DUP2 PUSH0 DUP8 DUP1 EXTCODESIZE ISZERO DUP1 ISZERO PUSH2 0xA79 JUMPI PUSH0 DUP1 REVERT JUMPDEST POP GAS CALL ISZERO DUP1 ISZERO PUSH2 0xA8B JUMPI RETURNDATASIZE PUSH0 DUP1 RETURNDATACOPY RETURNDATASIZE PUSH0 REVERT JUMPDEST POP POP POP POP DUP1 PUSH1 0x1F PUSH1 0x20 DUP2 LT PUSH2 0xAA3 JUMPI PUSH2 0xAA2 PUSH2 0x2630 JUMP JUMPDEST JUMPDEST BYTE PUSH1 0xF8 SHL PUSH1 0xF8 SHR PUSH1 0xFF AND PUSH1 0x2 PUSH0 CALLER PUSH20 0xFFFFFFFFFFFFFFFFFFFFFFFFFFFFFFFFFFFFFFFF AND PUSH20 0xFFFFFFFFFFFFFFFFFFFFFFFFFFFFFFFFFFFFFFFF AND DUP2 MSTORE PUSH1 0x20 ADD SWAP1 DUP2 MSTORE PUSH1 0x20 ADD PUSH0 KECCAK256 DUP2 SWAP1 SSTORE POP PUSH0 PUSH1 0x2 PUSH0 CALLER PUSH20 0xFFFFFFFFFFFFFFFFFFFFFFFFFFFFFFFFFFFFFFFF AND PUSH20 0xFFFFFFFFFFFFFFFFFFFFFFFFFFFFFFFFFFFFFFFF AND DUP2 MSTORE PUSH1 0x20 ADD SWAP1 DUP2 MSTORE PUSH1 0x20 ADD PUSH0 KECCAK256 SLOAD LT ISZERO DUP1 ISZERO PUSH2 0xB79 JUMPI POP PUSH1 0x4 PUSH1 0x2 PUSH0 CALLER PUSH20 0xFFFFFFFFFFFFFFFFFFFFFFFFFFFFFFFFFFFFFFFF AND PUSH20 0xFFFFFFFFFFFFFFFFFFFFFFFFFFFFFFFFFFFFFFFF AND DUP2 MSTORE PUSH1 0x20 ADD SWAP1 DUP2 MSTORE PUSH1 0x20 ADD PUSH0 KECCAK256 SLOAD GT ISZERO JUMPDEST PUSH2 0xBB8 JUMPI PUSH1 0x40 MLOAD PUSH32 0x8C379A000000000000000000000000000000000000000000000000000000000 DUP2 MSTORE PUSH1 0x4 ADD PUSH2 0xBAF SWAP1 PUSH2 0x2892 JUMP JUMPDEST PUSH1 0x40 MLOAD DUP1 SWAP2 SUB SWAP1 REVERT JUMPDEST PUSH0 PUSH1 0x6 PUSH0 CALLER PUSH20 0xFFFFFFFFFFFFFFFFFFFFFFFFFFFFFFFFFFFFFFFF AND PUSH20 0xFFFFFFFFFFFFFFFFFFFFFFFFFFFFFFFFFFFFFFFF AND DUP2 MSTORE PUSH1 0x20 ADD SWAP1 DUP2 MSTORE PUSH1 0x20 ADD PUSH0 KECCAK256 PUSH0 PUSH2 0x100 EXP DUP2 SLOAD DUP2 PUSH1 0xFF MUL NOT AND SWAP1 DUP4 ISZERO ISZERO MUL OR SWAP1 SSTORE POP PUSH1 0x5 PUSH0 DUP2 SLOAD DUP1 SWAP3 SWAP2 SWAP1 PUSH2 0xC1E SWAP1 PUSH2 0x26F2 JUMP JUMPDEST SWAP2 SWAP1 POP SSTORE POP PUSH1 0x2 PUSH1 0x5 SLOAD SUB PUSH2 0xC36 JUMPI PUSH2 0xC35 PUSH2 0x1BCA JUMP JUMPDEST JUMPDEST POP JUMP JUMPDEST PUSH0 SLOAD DUP2 JUMP JUMPDEST PUSH1 0x5 DUP2 JUMP JUMPDEST PUSH1 0x2 PUSH1 0x20 MSTORE DUP1 PUSH0 MSTORE PUSH1 0x40 PUSH0 KECCAK256 PUSH0 SWAP2 POP SWAP1 POP SLOAD DUP2 JUMP JUMPDEST PUSH1 0x5 PUSH1 0x8 PUSH0 SWAP1 SLOAD SWAP1 PUSH2 0x100 EXP SWAP1 DIV PUSH20 0xFFFFFFFFFFFFFFFFFFFFFFFFFFFFFFFFFFFFFFFF AND PUSH20 0xFFFFFFFFFFFFFFFFFFFFFFFFFFFFFFFFFFFFFFFF AND PUSH4 0xD97C8416 PUSH1 0x40 MLOAD DUP2 PUSH4 0xFFFFFFFF AND PUSH1 0xE0 SHL DUP2 MSTORE PUSH1 0x4 ADD PUSH1 0x20 PUSH1 0x40 MLOAD DUP1 DUP4 SUB DUP2 DUP7 GAS STATICCALL ISZERO DUP1 ISZERO PUSH2 0xCC4 JUMPI RETURNDATASIZE PUSH0 DUP1 RETURNDATACOPY RETURNDATASIZE PUSH0 REVERT JUMPDEST POP POP POP POP PUSH1 0x40 MLOAD RETURNDATASIZE PUSH1 0x1F NOT PUSH1 0x1F DUP3 ADD AND DUP3 ADD DUP1 PUSH1 0x40 MSTORE POP DUP2 ADD SWAP1 PUSH2 0xCE8 SWAP2 SWAP1 PUSH2 0x274D JUMP JUMPDEST LT ISZERO PUSH2 0xD29 JUMPI PUSH1 0x40 MLOAD PUSH32 0x8C379A000000000000000000000000000000000000000000000000000000000 DUP2 MSTORE PUSH1 0x4 ADD PUSH2 0xD20 SWAP1 PUSH2 0x28FA JUMP JUMPDEST PUSH1 0x40 MLOAD DUP1 SWAP2 SUB SWAP1 REVERT JUMPDEST PUSH0 PUSH1 0x1 SLOAD GT PUSH2 0xD6D JUMPI PUSH1 0x40 MLOAD PUSH32 0x8C379A000000000000000000000000000000000000000000000000000000000 DUP2 MSTORE PUSH1 0x4 ADD PUSH2 0xD64 SWAP1 PUSH2 0x2962 JUMP JUMPDEST PUSH1 0x40 MLOAD DUP1 SWAP2 SUB SWAP1 REVERT JUMPDEST PUSH1 0x1 PUSH1 0x5 SLOAD SUB PUSH2 0x1209 JUMPI PUSH0 DUP1 ISZERO ISZERO PUSH1 0x6 PUSH0 PUSH1 0x4 PUSH0 DUP2 SLOAD DUP2 LT PUSH2 0xD92 JUMPI PUSH2 0xD91 PUSH2 0x2630 JUMP JUMPDEST JUMPDEST SWAP1 PUSH0 MSTORE PUSH1 0x20 PUSH0 KECCAK256 ADD PUSH0 SWAP1 SLOAD SWAP1 PUSH2 0x100 EXP SWAP1 DIV PUSH20 0xFFFFFFFFFFFFFFFFFFFFFFFFFFFFFFFFFFFFFFFF AND PUSH20 0xFFFFFFFFFFFFFFFFFFFFFFFFFFFFFFFFFFFFFFFF AND PUSH20 0xFFFFFFFFFFFFFFFFFFFFFFFFFFFFFFFFFFFFFFFF AND DUP2 MSTORE PUSH1 0x20 ADD SWAP1 DUP2 MSTORE PUSH1 0x20 ADD PUSH0 KECCAK256 PUSH0 SWAP1 SLOAD SWAP1 PUSH2 0x100 EXP SWAP1 DIV PUSH1 0xFF AND ISZERO ISZERO EQ SWAP1 POP PUSH0 DUP1 ISZERO ISZERO PUSH1 0x6 PUSH0 PUSH1 0x4 PUSH1 0x1 DUP2 SLOAD DUP2 LT PUSH2 0xE21 JUMPI PUSH2 0xE20 PUSH2 0x2630 JUMP JUMPDEST JUMPDEST SWAP1 PUSH0 MSTORE PUSH1 0x20 PUSH0 KECCAK256 ADD PUSH0 SWAP1 SLOAD SWAP1 PUSH2 0x100 EXP SWAP1 DIV PUSH20 0xFFFFFFFFFFFFFFFFFFFFFFFFFFFFFFFFFFFFFFFF AND PUSH20 0xFFFFFFFFFFFFFFFFFFFFFFFFFFFFFFFFFFFFFFFF AND PUSH20 0xFFFFFFFFFFFFFFFFFFFFFFFFFFFFFFFFFFFFFFFF AND DUP2 MSTORE PUSH1 0x20 ADD SWAP1 DUP2 MSTORE PUSH1 0x20 ADD PUSH0 KECCAK256 PUSH0 SWAP1 SLOAD SWAP1 PUSH2 0x100 EXP SWAP1 DIV PUSH1 0xFF AND ISZERO ISZERO EQ SWAP1 POP DUP2 DUP1 ISZERO PUSH2 0xE9F JUMPI POP DUP1 ISZERO JUMPDEST ISZERO PUSH2 0x102C JUMPI PUSH1 0x4 PUSH0 DUP2 SLOAD DUP2 LT PUSH2 0xEB8 JUMPI PUSH2 0xEB7 PUSH2 0x2630 JUMP JUMPDEST JUMPDEST SWAP1 PUSH0 MSTORE PUSH1 0x20 PUSH0 KECCAK256 ADD PUSH0 SWAP1 SLOAD SWAP1 PUSH2 0x100 EXP SWAP1 DIV PUSH20 0xFFFFFFFFFFFFFFFFFFFFFFFFFFFFFFFFFFFFFFFF AND PUSH20 0xFFFFFFFFFFFFFFFFFFFFFFFFFFFFFFFFFFFFFFFF AND CALLER PUSH20 0xFFFFFFFFFFFFFFFFFFFFFFFFFFFFFFFFFFFFFFFF AND EQ PUSH2 0xF4D JUMPI PUSH1 0x40 MLOAD PUSH32 0x8C379A000000000000000000000000000000000000000000000000000000000 DUP2 MSTORE PUSH1 0x4 ADD PUSH2 0xF44 SWAP1 PUSH2 0x29CA JUMP JUMPDEST PUSH1 0x40 MLOAD DUP1 SWAP2 SUB SWAP1 REVERT JUMPDEST PUSH1 0x9 PUSH0 SWAP1 SLOAD SWAP1 PUSH2 0x100 EXP SWAP1 DIV PUSH20 0xFFFFFFFFFFFFFFFFFFFFFFFFFFFFFFFFFFFFFFFF AND PUSH20 0xFFFFFFFFFFFFFFFFFFFFFFFFFFFFFFFFFFFFFFFF AND PUSH4 0xA9059CBB PUSH1 0x4 PUSH0 DUP2 SLOAD DUP2 LT PUSH2 0xF9E JUMPI PUSH2 0xF9D PUSH2 0x2630 JUMP JUMPDEST JUMPDEST SWAP1 PUSH0 MSTORE PUSH1 0x20 PUSH0 KECCAK256 ADD PUSH0 SWAP1 SLOAD SWAP1 PUSH2 0x100 EXP SWAP1 DIV PUSH20 0xFFFFFFFFFFFFFFFFFFFFFFFFFFFFFFFFFFFFFFFF AND PUSH1 0x1 SLOAD PUSH1 0x40 MLOAD DUP4 PUSH4 0xFFFFFFFF AND PUSH1 0xE0 SHL DUP2 MSTORE PUSH1 0x4 ADD PUSH2 0xFE6 SWAP3 SWAP2 SWAP1 PUSH2 0x29E8 JUMP JUMPDEST PUSH1 0x20 PUSH1 0x40 MLOAD DUP1 DUP4 SUB DUP2 PUSH0 DUP8 GAS CALL ISZERO DUP1 ISZERO PUSH2 0x1002 JUMPI RETURNDATASIZE PUSH0 DUP1 RETURNDATACOPY RETURNDATASIZE PUSH0 REVERT JUMPDEST POP POP POP POP PUSH1 0x40 MLOAD RETURNDATASIZE PUSH1 0x1F NOT PUSH1 0x1F DUP3 ADD AND DUP3 ADD DUP1 PUSH1 0x40 MSTORE POP DUP2 ADD SWAP1 PUSH2 0x1026 SWAP2 SWAP1 PUSH2 0x2A39 JUMP JUMPDEST POP PUSH2 0x1202 JUMP JUMPDEST DUP2 ISZERO DUP1 ISZERO PUSH2 0x1037 JUMPI POP DUP1 JUMPDEST ISZERO PUSH2 0x11C6 JUMPI PUSH1 0x4 PUSH1 0x1 DUP2 SLOAD DUP2 LT PUSH2 0x1051 JUMPI PUSH2 0x1050 PUSH2 0x2630 JUMP JUMPDEST JUMPDEST SWAP1 PUSH0 MSTORE PUSH1 0x20 PUSH0 KECCAK256 ADD PUSH0 SWAP1 SLOAD SWAP1 PUSH2 0x100 EXP SWAP1 DIV PUSH20 0xFFFFFFFFFFFFFFFFFFFFFFFFFFFFFFFFFFFFFFFF AND PUSH20 0xFFFFFFFFFFFFFFFFFFFFFFFFFFFFFFFFFFFFFFFF AND CALLER PUSH20 0xFFFFFFFFFFFFFFFFFFFFFFFFFFFFFFFFFFFFFFFF AND EQ PUSH2 0x10E6 JUMPI PUSH1 0x40 MLOAD PUSH32 0x8C379A000000000000000000000000000000000000000000000000000000000 DUP2 MSTORE PUSH1 0x4 ADD PUSH2 0x10DD SWAP1 PUSH2 0x29CA JUMP JUMPDEST PUSH1 0x40 MLOAD DUP1 SWAP2 SUB SWAP1 REVERT JUMPDEST PUSH1 0x9 PUSH0 SWAP1 SLOAD SWAP1 PUSH2 0x100 EXP SWAP1 DIV PUSH20 0xFFFFFFFFFFFFFFFFFFFFFFFFFFFFFFFFFFFFFFFF AND PUSH20 0xFFFFFFFFFFFFFFFFFFFFFFFFFFFFFFFFFFFFFFFF AND PUSH4 0xA9059CBB PUSH1 0x4 PUSH1 0x1 DUP2 SLOAD DUP2 LT PUSH2 0x1138 JUMPI PUSH2 0x1137 PUSH2 0x2630 JUMP JUMPDEST JUMPDEST SWAP1 PUSH0 MSTORE PUSH1 0x20 PUSH0 KECCAK256 ADD PUSH0 SWAP1 SLOAD SWAP1 PUSH2 0x100 EXP SWAP1 DIV PUSH20 0xFFFFFFFFFFFFFFFFFFFFFFFFFFFFFFFFFFFFFFFF AND PUSH1 0x1 SLOAD PUSH1 0x40 MLOAD DUP4 PUSH4 0xFFFFFFFF AND PUSH1 0xE0 SHL DUP2 MSTORE PUSH1 0x4 ADD PUSH2 0x1180 SWAP3 SWAP2 SWAP1 PUSH2 0x29E8 JUMP JUMPDEST PUSH1 0x20 PUSH1 0x40 MLOAD DUP1 DUP4 SUB DUP2 PUSH0 DUP8 GAS CALL ISZERO DUP1 ISZERO PUSH2 0x119C JUMPI RETURNDATASIZE PUSH0 DUP1 RETURNDATACOPY RETURNDATASIZE PUSH0 REVERT JUMPDEST POP POP POP POP PUSH1 0x40 MLOAD RETURNDATASIZE PUSH1 0x1F NOT PUSH1 0x1F DUP3 ADD AND DUP3 ADD DUP1 PUSH1 0x40 MSTORE POP DUP2 ADD SWAP1 PUSH2 0x11C0 SWAP2 SWAP1 PUSH2 0x2A39 JUMP JUMPDEST POP PUSH2 0x1201 JUMP JUMPDEST PUSH1 0x40 MLOAD PUSH32 0x8C379A000000000000000000000000000000000000000000000000000000000 DUP2 MSTORE PUSH1 0x4 ADD PUSH2 0x11F8 SWAP1 PUSH2 0x2AAE JUMP JUMPDEST PUSH1 0x40 MLOAD DUP1 SWAP2 SUB SWAP1 REVERT JUMPDEST JUMPDEST POP POP PUSH2 0x12F2 JUMP JUMPDEST PUSH0 PUSH1 0x5 SLOAD SUB PUSH2 0x12B6 JUMPI PUSH1 0x9 PUSH0 SWAP1 SLOAD SWAP1 PUSH2 0x100 EXP SWAP1 DIV PUSH20 0xFFFFFFFFFFFFFFFFFFFFFFFFFFFFFFFFFFFFFFFF AND PUSH20 0xFFFFFFFFFFFFFFFFFFFFFFFFFFFFFFFFFFFFFFFF AND PUSH4 0xA9059CBB CALLER PUSH1 0x1 SLOAD PUSH1 0x40 MLOAD DUP4 PUSH4 0xFFFFFFFF AND PUSH1 0xE0 SHL DUP2 MSTORE PUSH1 0x4 ADD PUSH2 0x1270 SWAP3 SWAP2 SWAP1 PUSH2 0x29E8 JUMP JUMPDEST PUSH1 0x20 PUSH1 0x40 MLOAD DUP1 DUP4 SUB DUP2 PUSH0 DUP8 GAS CALL ISZERO DUP1 ISZERO PUSH2 0x128C JUMPI RETURNDATASIZE PUSH0 DUP1 RETURNDATACOPY RETURNDATASIZE PUSH0 REVERT JUMPDEST POP POP POP POP PUSH1 0x40 MLOAD RETURNDATASIZE PUSH1 0x1F NOT PUSH1 0x1F DUP3 ADD AND DUP3 ADD DUP1 PUSH1 0x40 MSTORE POP DUP2 ADD SWAP1 PUSH2 0x12B0 SWAP2 SWAP1 PUSH2 0x2A39 JUMP JUMPDEST POP PUSH2 0x12F1 JUMP JUMPDEST PUSH1 0x40 MLOAD PUSH32 0x8C379A000000000000000000000000000000000000000000000000000000000 DUP2 MSTORE PUSH1 0x4 ADD PUSH2 0x12E8 SWAP1 PUSH2 0x2B3C JUMP JUMPDEST PUSH1 0x40 MLOAD DUP1 SWAP2 SUB SWAP1 REVERT JUMPDEST JUMPDEST PUSH2 0x12FA PUSH2 0x2039 JUMP JUMPDEST JUMP JUMPDEST PUSH1 0x8 PUSH0 SWAP1 SLOAD SWAP1 PUSH2 0x100 EXP SWAP1 DIV PUSH20 0xFFFFFFFFFFFFFFFFFFFFFFFFFFFFFFFFFFFFFFFF AND DUP2 JUMP JUMPDEST PUSH0 PUSH1 0xB PUSH0 CALLER PUSH20 0xFFFFFFFFFFFFFFFFFFFFFFFFFFFFFFFFFFFFFFFF AND PUSH20 0xFFFFFFFFFFFFFFFFFFFFFFFFFFFFFFFFFFFFFFFF AND DUP2 MSTORE PUSH1 0x20 ADD SWAP1 DUP2 MSTORE PUSH1 0x20 ADD PUSH0 KECCAK256 PUSH0 SWAP1 SLOAD SWAP1 PUSH2 0x100 EXP SWAP1 DIV PUSH20 0xFFFFFFFFFFFFFFFFFFFFFFFFFFFFFFFFFFFFFFFF AND PUSH20 0xFFFFFFFFFFFFFFFFFFFFFFFFFFFFFFFFFFFFFFFF AND PUSH4 0x3CF5040A DUP4 PUSH1 0x40 MLOAD DUP3 PUSH4 0xFFFFFFFF AND PUSH1 0xE0 SHL DUP2 MSTORE PUSH1 0x4 ADD PUSH2 0x13B7 SWAP2 SWAP1 PUSH2 0x24E9 JUMP JUMPDEST PUSH1 0x20 PUSH1 0x40 MLOAD DUP1 DUP4 SUB DUP2 DUP7 GAS STATICCALL ISZERO DUP1 ISZERO PUSH2 0x13D2 JUMPI RETURNDATASIZE PUSH0 DUP1 RETURNDATACOPY RETURNDATASIZE PUSH0 REVERT JUMPDEST POP POP POP POP PUSH1 0x40 MLOAD RETURNDATASIZE PUSH1 0x1F NOT PUSH1 0x1F DUP3 ADD AND DUP3 ADD DUP1 PUSH1 0x40 MSTORE POP DUP2 ADD SWAP1 PUSH2 0x13F6 SWAP2 SWAP1 PUSH2 0x2B6E JUMP JUMPDEST SWAP1 POP SWAP2 SWAP1 POP JUMP JUMPDEST PUSH1 0x2 PUSH0 SLOAD EQ PUSH2 0x140A JUMPI PUSH0 DUP1 REVERT JUMPDEST PUSH1 0x3 PUSH0 CALLER PUSH20 0xFFFFFFFFFFFFFFFFFFFFFFFFFFFFFFFFFFFFFFFF AND PUSH20 0xFFFFFFFFFFFFFFFFFFFFFFFFFFFFFFFFFFFFFFFF AND DUP2 MSTORE PUSH1 0x20 ADD SWAP1 DUP2 MSTORE PUSH1 0x20 ADD PUSH0 KECCAK256 PUSH0 SWAP1 SLOAD SWAP1 PUSH2 0x100 EXP SWAP1 DIV PUSH1 0xFF AND PUSH2 0x145C JUMPI PUSH0 DUP1 REVERT JUMPDEST PUSH1 0x5 PUSH1 0x7 PUSH0 SWAP1 SLOAD SWAP1 PUSH2 0x100 EXP SWAP1 DIV PUSH20 0xFFFFFFFFFFFFFFFFFFFFFFFFFFFFFFFFFFFFFFFF AND PUSH20 0xFFFFFFFFFFFFFFFFFFFFFFFFFFFFFFFFFFFFFFFF AND PUSH4 0xD97C8416 PUSH1 0x40 MLOAD DUP2 PUSH4 0xFFFFFFFF AND PUSH1 0xE0 SHL DUP2 MSTORE PUSH1 0x4 ADD PUSH1 0x20 PUSH1 0x40 MLOAD DUP1 DUP4 SUB DUP2 DUP7 GAS STATICCALL ISZERO DUP1 ISZERO PUSH2 0x14C8 JUMPI RETURNDATASIZE PUSH0 DUP1 RETURNDATACOPY RETURNDATASIZE PUSH0 REVERT JUMPDEST POP POP POP POP PUSH1 0x40 MLOAD RETURNDATASIZE PUSH1 0x1F NOT PUSH1 0x1F DUP3 ADD AND DUP3 ADD DUP1 PUSH1 0x40 MSTORE POP DUP2 ADD SWAP1 PUSH2 0x14EC SWAP2 SWAP1 PUSH2 0x274D JUMP JUMPDEST LT PUSH2 0x152C JUMPI PUSH1 0x40 MLOAD PUSH32 0x8C379A000000000000000000000000000000000000000000000000000000000 DUP2 MSTORE PUSH1 0x4 ADD PUSH2 0x1523 SWAP1 PUSH2 0x2BE3 JUMP JUMPDEST PUSH1 0x40 MLOAD DUP1 SWAP2 SUB SWAP1 REVERT JUMPDEST PUSH0 PUSH1 0x3 PUSH0 CALLER PUSH20 0xFFFFFFFFFFFFFFFFFFFFFFFFFFFFFFFFFFFFFFFF AND PUSH20 0xFFFFFFFFFFFFFFFFFFFFFFFFFFFFFFFFFFFFFFFF AND DUP2 MSTORE PUSH1 0x20 ADD SWAP1 DUP2 MSTORE PUSH1 0x20 ADD PUSH0 KECCAK256 PUSH0 PUSH2 0x100 EXP DUP2 SLOAD DUP2 PUSH1 0xFF MUL NOT AND SWAP1 DUP4 ISZERO ISZERO MUL OR SWAP1 SSTORE POP PUSH1 0xA PUSH0 DUP2 SLOAD DUP1 SWAP3 SWAP2 SWAP1 PUSH2 0x1592 SWAP1 PUSH2 0x26F2 JUMP JUMPDEST SWAP2 SWAP1 POP SSTORE POP PUSH1 0xB PUSH0 CALLER PUSH20 0xFFFFFFFFFFFFFFFFFFFFFFFFFFFFFFFFFFFFFFFF AND PUSH20 0xFFFFFFFFFFFFFFFFFFFFFFFFFFFFFFFFFFFFFFFF AND DUP2 MSTORE PUSH1 0x20 ADD SWAP1 DUP2 MSTORE PUSH1 0x20 ADD PUSH0 KECCAK256 PUSH0 SWAP1 SLOAD SWAP1 PUSH2 0x100 EXP SWAP1 DIV PUSH20 0xFFFFFFFFFFFFFFFFFFFFFFFFFFFFFFFFFFFFFFFF AND PUSH20 0xFFFFFFFFFFFFFFFFFFFFFFFFFFFFFFFFFFFFFFFF AND PUSH4 0xF14FCBC8 DUP3 PUSH1 0x40 MLOAD DUP3 PUSH4 0xFFFFFFFF AND PUSH1 0xE0 SHL DUP2 MSTORE PUSH1 0x4 ADD PUSH2 0x162C SWAP2 SWAP1 PUSH2 0x24E9 JUMP JUMPDEST PUSH0 PUSH1 0x40 MLOAD DUP1 DUP4 SUB DUP2 PUSH0 DUP8 DUP1 EXTCODESIZE ISZERO DUP1 ISZERO PUSH2 0x1643 JUMPI PUSH0 DUP1 REVERT JUMPDEST POP GAS CALL ISZERO DUP1 ISZERO PUSH2 0x1655 JUMPI RETURNDATASIZE PUSH0 DUP1 RETURNDATACOPY RETURNDATASIZE PUSH0 REVERT JUMPDEST POP POP POP POP PUSH1 0x2 PUSH1 0xA SLOAD SUB PUSH2 0x1B41 JUMPI PUSH5 0xE8D4A51000 PUSH1 0x9 PUSH0 SWAP1 SLOAD SWAP1 PUSH2 0x100 EXP SWAP1 DIV PUSH20 0xFFFFFFFFFFFFFFFFFFFFFFFFFFFFFFFFFFFFFFFF AND PUSH20 0xFFFFFFFFFFFFFFFFFFFFFFFFFFFFFFFFFFFFFFFF AND PUSH4 0xDD62ED3E PUSH1 0x4 PUSH0 DUP2 SLOAD DUP2 LT PUSH2 0x16BA JUMPI PUSH2 0x16B9 PUSH2 0x2630 JUMP JUMPDEST JUMPDEST SWAP1 PUSH0 MSTORE PUSH1 0x20 PUSH0 KECCAK256 ADD PUSH0 SWAP1 SLOAD SWAP1 PUSH2 0x100 EXP SWAP1 DIV PUSH20 0xFFFFFFFFFFFFFFFFFFFFFFFFFFFFFFFFFFFFFFFF AND ADDRESS PUSH1 0x40 MLOAD DUP4 PUSH4 0xFFFFFFFF AND PUSH1 0xE0 SHL DUP2 MSTORE PUSH1 0x4 ADD PUSH2 0x1700 SWAP3 SWAP2 SWAP1 PUSH2 0x2C01 JUMP JUMPDEST PUSH1 0x20 PUSH1 0x40 MLOAD DUP1 DUP4 SUB DUP2 DUP7 GAS STATICCALL ISZERO DUP1 ISZERO PUSH2 0x171B JUMPI RETURNDATASIZE PUSH0 DUP1 RETURNDATACOPY RETURNDATASIZE PUSH0 REVERT JUMPDEST POP POP POP POP PUSH1 0x40 MLOAD RETURNDATASIZE PUSH1 0x1F NOT PUSH1 0x1F DUP3 ADD AND DUP3 ADD DUP1 PUSH1 0x40 MSTORE POP DUP2 ADD SWAP1 PUSH2 0x173F SWAP2 SWAP1 PUSH2 0x274D JUMP JUMPDEST LT ISZERO PUSH2 0x1780 JUMPI PUSH1 0x40 MLOAD PUSH32 0x8C379A000000000000000000000000000000000000000000000000000000000 DUP2 MSTORE PUSH1 0x4 ADD PUSH2 0x1777 SWAP1 PUSH2 0x2C72 JUMP JUMPDEST PUSH1 0x40 MLOAD DUP1 SWAP2 SUB SWAP1 REVERT JUMPDEST PUSH5 0xE8D4A51000 PUSH1 0x9 PUSH0 SWAP1 SLOAD SWAP1 PUSH2 0x100 EXP SWAP1 DIV PUSH20 0xFFFFFFFFFFFFFFFFFFFFFFFFFFFFFFFFFFFFFFFF AND PUSH20 0xFFFFFFFFFFFFFFFFFFFFFFFFFFFFFFFFFFFFFFFF AND PUSH4 0xDD62ED3E PUSH1 0x4 PUSH1 0x1 DUP2 SLOAD DUP2 LT PUSH2 0x17D8 JUMPI PUSH2 0x17D7 PUSH2 0x2630 JUMP JUMPDEST JUMPDEST SWAP1 PUSH0 MSTORE PUSH1 0x20 PUSH0 KECCAK256 ADD PUSH0 SWAP1 SLOAD SWAP1 PUSH2 0x100 EXP SWAP1 DIV PUSH20 0xFFFFFFFFFFFFFFFFFFFFFFFFFFFFFFFFFFFFFFFF AND ADDRESS PUSH1 0x40 MLOAD DUP4 PUSH4 0xFFFFFFFF AND PUSH1 0xE0 SHL DUP2 MSTORE PUSH1 0x4 ADD PUSH2 0x181E SWAP3 SWAP2 SWAP1 PUSH2 0x2C01 JUMP JUMPDEST PUSH1 0x20 PUSH1 0x40 MLOAD DUP1 DUP4 SUB DUP2 DUP7 GAS STATICCALL ISZERO DUP1 ISZERO PUSH2 0x1839 JUMPI RETURNDATASIZE PUSH0 DUP1 RETURNDATACOPY RETURNDATASIZE PUSH0 REVERT JUMPDEST POP POP POP POP PUSH1 0x40 MLOAD RETURNDATASIZE PUSH1 0x1F NOT PUSH1 0x1F DUP3 ADD AND DUP3 ADD DUP1 PUSH1 0x40 MSTORE POP DUP2 ADD SWAP1 PUSH2 0x185D SWAP2 SWAP1 PUSH2 0x274D JUMP JUMPDEST LT ISZERO PUSH2 0x189E JUMPI PUSH1 0x40 MLOAD PUSH32 0x8C379A000000000000000000000000000000000000000000000000000000000 DUP2 MSTORE PUSH1 0x4 ADD PUSH2 0x1895 SWAP1 PUSH2 0x2CDA JUMP JUMPDEST PUSH1 0x40 MLOAD DUP1 SWAP2 SUB SWAP1 REVERT JUMPDEST PUSH0 PUSH1 0x9 PUSH0 SWAP1 SLOAD SWAP1 PUSH2 0x100 EXP SWAP1 DIV PUSH20 0xFFFFFFFFFFFFFFFFFFFFFFFFFFFFFFFFFFFFFFFF AND PUSH20 0xFFFFFFFFFFFFFFFFFFFFFFFFFFFFFFFFFFFFFFFF AND PUSH4 0x23B872DD PUSH1 0x4 PUSH0 DUP2 SLOAD DUP2 LT PUSH2 0x18F0 JUMPI PUSH2 0x18EF PUSH2 0x2630 JUMP JUMPDEST JUMPDEST SWAP1 PUSH0 MSTORE PUSH1 0x20 PUSH0 KECCAK256 ADD PUSH0 SWAP1 SLOAD SWAP1 PUSH2 0x100 EXP SWAP1 DIV PUSH20 0xFFFFFFFFFFFFFFFFFFFFFFFFFFFFFFFFFFFFFFFF AND ADDRESS PUSH5 0xE8D4A51000 PUSH1 0x40 MLOAD DUP5 PUSH4 0xFFFFFFFF AND PUSH1 0xE0 SHL DUP2 MSTORE PUSH1 0x4 ADD PUSH2 0x193D SWAP4 SWAP3 SWAP2 SWAP1 PUSH2 0x2CF8 JUMP JUMPDEST PUSH1 0x20 PUSH1 0x40 MLOAD DUP1 DUP4 SUB DUP2 PUSH0 DUP8 GAS CALL ISZERO DUP1 ISZERO PUSH2 0x1959 JUMPI RETURNDATASIZE PUSH0 DUP1 RETURNDATACOPY RETURNDATASIZE PUSH0 REVERT JUMPDEST POP POP POP POP PUSH1 0x40 MLOAD RETURNDATASIZE PUSH1 0x1F NOT PUSH1 0x1F DUP3 ADD AND DUP3 ADD DUP1 PUSH1 0x40 MSTORE POP DUP2 ADD SWAP1 PUSH2 0x197D SWAP2 SWAP1 PUSH2 0x2A39 JUMP JUMPDEST SWAP1 POP PUSH0 PUSH1 0x9 PUSH0 SWAP1 SLOAD SWAP1 PUSH2 0x100 EXP SWAP1 DIV PUSH20 0xFFFFFFFFFFFFFFFFFFFFFFFFFFFFFFFFFFFFFFFF AND PUSH20 0xFFFFFFFFFFFFFFFFFFFFFFFFFFFFFFFFFFFFFFFF AND PUSH4 0x23B872DD PUSH1 0x4 PUSH1 0x1 DUP2 SLOAD DUP2 LT PUSH2 0x19D2 JUMPI PUSH2 0x19D1 PUSH2 0x2630 JUMP JUMPDEST JUMPDEST SWAP1 PUSH0 MSTORE PUSH1 0x20 PUSH0 KECCAK256 ADD PUSH0 SWAP1 SLOAD SWAP1 PUSH2 0x100 EXP SWAP1 DIV PUSH20 0xFFFFFFFFFFFFFFFFFFFFFFFFFFFFFFFFFFFFFFFF AND ADDRESS PUSH5 0xE8D4A51000 PUSH1 0x40 MLOAD DUP5 PUSH4 0xFFFFFFFF AND PUSH1 0xE0 SHL DUP2 MSTORE PUSH1 0x4 ADD PUSH2 0x1A1F SWAP4 SWAP3 SWAP2 SWAP1 PUSH2 0x2CF8 JUMP JUMPDEST PUSH1 0x20 PUSH1 0x40 MLOAD DUP1 DUP4 SUB DUP2 PUSH0 DUP8 GAS CALL ISZERO DUP1 ISZERO PUSH2 0x1A3B JUMPI RETURNDATASIZE PUSH0 DUP1 RETURNDATACOPY RETURNDATASIZE PUSH0 REVERT JUMPDEST POP POP POP POP PUSH1 0x40 MLOAD RETURNDATASIZE PUSH1 0x1F NOT PUSH1 0x1F DUP3 ADD AND DUP3 ADD DUP1 PUSH1 0x40 MSTORE POP DUP2 ADD SWAP1 PUSH2 0x1A5F SWAP2 SWAP1 PUSH2 0x2A39 JUMP JUMPDEST SWAP1 POP DUP2 DUP1 ISZERO PUSH2 0x1A6B JUMPI POP DUP1 JUMPDEST PUSH2 0x1AAA JUMPI PUSH1 0x40 MLOAD PUSH32 0x8C379A000000000000000000000000000000000000000000000000000000000 DUP2 MSTORE PUSH1 0x4 ADD PUSH2 0x1AA1 SWAP1 PUSH2 0x2D77 JUMP JUMPDEST PUSH1 0x40 MLOAD DUP1 SWAP2 SUB SWAP1 REVERT JUMPDEST PUSH1 0x2 PUSH5 0xE8D4A51000 PUSH2 0x1ABC SWAP2 SWAP1 PUSH2 0x2D95 JUMP JUMPDEST PUSH1 0x1 DUP2 SWAP1 SSTORE POP PUSH1 0x8 PUSH0 SWAP1 SLOAD SWAP1 PUSH2 0x100 EXP SWAP1 DIV PUSH20 0xFFFFFFFFFFFFFFFFFFFFFFFFFFFFFFFFFFFFFFFF AND PUSH20 0xFFFFFFFFFFFFFFFFFFFFFFFFFFFFFFFFFFFFFFFF AND PUSH4 0xA63F7C53 PUSH1 0x40 MLOAD DUP2 PUSH4 0xFFFFFFFF AND PUSH1 0xE0 SHL DUP2 MSTORE PUSH1 0x4 ADD PUSH0 PUSH1 0x40 MLOAD DUP1 DUP4 SUB DUP2 PUSH0 DUP8 DUP1 EXTCODESIZE ISZERO DUP1 ISZERO PUSH2 0x1B28 JUMPI PUSH0 DUP1 REVERT JUMPDEST POP GAS CALL ISZERO DUP1 ISZERO PUSH2 0x1B3A JUMPI RETURNDATASIZE PUSH0 DUP1 RETURNDATACOPY RETURNDATASIZE PUSH0 REVERT JUMPDEST POP POP POP POP POP POP JUMPDEST POP JUMP JUMPDEST PUSH1 0x6 PUSH1 0x20 MSTORE DUP1 PUSH0 MSTORE PUSH1 0x40 PUSH0 KECCAK256 PUSH0 SWAP2 POP SLOAD SWAP1 PUSH2 0x100 EXP SWAP1 DIV PUSH1 0xFF AND DUP2 JUMP JUMPDEST PUSH1 0x4 DUP2 DUP2 SLOAD DUP2 LT PUSH2 0x1B70 JUMPI PUSH0 DUP1 REVERT JUMPDEST SWAP1 PUSH0 MSTORE PUSH1 0x20 PUSH0 KECCAK256 ADD PUSH0 SWAP2 POP SLOAD SWAP1 PUSH2 0x100 EXP SWAP1 DIV PUSH20 0xFFFFFFFFFFFFFFFFFFFFFFFFFFFFFFFFFFFFFFFF AND DUP2 JUMP JUMPDEST PUSH5 0xE8D4A51000 DUP2 JUMP JUMPDEST PUSH1 0x9 PUSH0 SWAP1 SLOAD SWAP1 PUSH2 0x100 EXP SWAP1 DIV PUSH20 0xFFFFFFFFFFFFFFFFFFFFFFFFFFFFFFFFFFFFFFFF AND DUP2 JUMP JUMPDEST PUSH0 PUSH1 0x2 PUSH0 PUSH1 0x4 PUSH0 DUP2 SLOAD DUP2 LT PUSH2 0x1BE2 JUMPI PUSH2 0x1BE1 PUSH2 0x2630 JUMP JUMPDEST JUMPDEST SWAP1 PUSH0 MSTORE PUSH1 0x20 PUSH0 KECCAK256 ADD PUSH0 SWAP1 SLOAD SWAP1 PUSH2 0x100 EXP SWAP1 DIV PUSH20 0xFFFFFFFFFFFFFFFFFFFFFFFFFFFFFFFFFFFFFFFF AND PUSH20 0xFFFFFFFFFFFFFFFFFFFFFFFFFFFFFFFFFFFFFFFF AND PUSH20 0xFFFFFFFFFFFFFFFFFFFFFFFFFFFFFFFFFFFFFFFF AND DUP2 MSTORE PUSH1 0x20 ADD SWAP1 DUP2 MSTORE PUSH1 0x20 ADD PUSH0 KECCAK256 SLOAD SWAP1 POP PUSH0 PUSH1 0x2 PUSH0 PUSH1 0x4 PUSH1 0x1 DUP2 SLOAD DUP2 LT PUSH2 0x1C5F JUMPI PUSH2 0x1C5E PUSH2 0x2630 JUMP JUMPDEST JUMPDEST SWAP1 PUSH0 MSTORE PUSH1 0x20 PUSH0 KECCAK256 ADD PUSH0 SWAP1 SLOAD SWAP1 PUSH2 0x100 EXP SWAP1 DIV PUSH20 0xFFFFFFFFFFFFFFFFFFFFFFFFFFFFFFFFFFFFFFFF AND PUSH20 0xFFFFFFFFFFFFFFFFFFFFFFFFFFFFFFFFFFFFFFFF AND PUSH20 0xFFFFFFFFFFFFFFFFFFFFFFFFFFFFFFFFFFFFFFFF AND DUP2 MSTORE PUSH1 0x20 ADD SWAP1 DUP2 MSTORE PUSH1 0x20 ADD PUSH0 KECCAK256 SLOAD SWAP1 POP PUSH0 PUSH1 0x4 PUSH0 DUP2 SLOAD DUP2 LT PUSH2 0x1CD8 JUMPI PUSH2 0x1CD7 PUSH2 0x2630 JUMP JUMPDEST JUMPDEST SWAP1 PUSH0 MSTORE PUSH1 0x20 PUSH0 KECCAK256 ADD PUSH0 SWAP1 SLOAD SWAP1 PUSH2 0x100 EXP SWAP1 DIV PUSH20 0xFFFFFFFFFFFFFFFFFFFFFFFFFFFFFFFFFFFFFFFF AND SWAP1 POP PUSH0 PUSH1 0x4 PUSH1 0x1 DUP2 SLOAD DUP2 LT PUSH2 0x1D18 JUMPI PUSH2 0x1D17 PUSH2 0x2630 JUMP JUMPDEST JUMPDEST SWAP1 PUSH0 MSTORE PUSH1 0x20 PUSH0 KECCAK256 ADD PUSH0 SWAP1 SLOAD SWAP1 PUSH2 0x100 EXP SWAP1 DIV PUSH20 0xFFFFFFFFFFFFFFFFFFFFFFFFFFFFFFFFFFFFFFFF AND SWAP1 POP DUP3 PUSH1 0x5 PUSH1 0x1 DUP7 PUSH2 0x1D52 SWAP2 SWAP1 PUSH2 0x2DD6 JUMP JUMPDEST PUSH2 0x1D5C SWAP2 SWAP1 PUSH2 0x2E36 JUMP JUMPDEST EQ DUP1 PUSH2 0x1D7F JUMPI POP DUP3 PUSH1 0x5 PUSH1 0x3 DUP7 PUSH2 0x1D73 SWAP2 SWAP1 PUSH2 0x2DD6 JUMP JUMPDEST PUSH2 0x1D7D SWAP2 SWAP1 PUSH2 0x2E36 JUMP JUMPDEST EQ JUMPDEST ISZERO PUSH2 0x1E28 JUMPI PUSH1 0x9 PUSH0 SWAP1 SLOAD SWAP1 PUSH2 0x100 EXP SWAP1 DIV PUSH20 0xFFFFFFFFFFFFFFFFFFFFFFFFFFFFFFFFFFFFFFFF AND PUSH20 0xFFFFFFFFFFFFFFFFFFFFFFFFFFFFFFFFFFFFFFFF AND PUSH4 0xA9059CBB DUP3 PUSH1 0x1 SLOAD PUSH1 0x40 MLOAD DUP4 PUSH4 0xFFFFFFFF AND PUSH1 0xE0 SHL DUP2 MSTORE PUSH1 0x4 ADD PUSH2 0x1DE2 SWAP3 SWAP2 SWAP1 PUSH2 0x29E8 JUMP JUMPDEST PUSH1 0x20 PUSH1 0x40 MLOAD DUP1 DUP4 SUB DUP2 PUSH0 DUP8 GAS CALL ISZERO DUP1 ISZERO PUSH2 0x1DFE JUMPI RETURNDATASIZE PUSH0 DUP1 RETURNDATACOPY RETURNDATASIZE PUSH0 REVERT JUMPDEST POP POP POP POP PUSH1 0x40 MLOAD RETURNDATASIZE PUSH1 0x1F NOT PUSH1 0x1F DUP3 ADD AND DUP3 ADD DUP1 PUSH1 0x40 MSTORE POP DUP2 ADD SWAP1 PUSH2 0x1E22 SWAP2 SWAP1 PUSH2 0x2A39 JUMP JUMPDEST POP PUSH2 0x202B JUMP JUMPDEST DUP4 DUP4 SUB PUSH2 0x1F8A JUMPI PUSH1 0x9 PUSH0 SWAP1 SLOAD SWAP1 PUSH2 0x100 EXP SWAP1 DIV PUSH20 0xFFFFFFFFFFFFFFFFFFFFFFFFFFFFFFFFFFFFFFFF AND PUSH20 0xFFFFFFFFFFFFFFFFFFFFFFFFFFFFFFFFFFFFFFFF AND PUSH4 0xA9059CBB DUP4 PUSH1 0x2 PUSH1 0x1 SLOAD PUSH2 0x1E7C SWAP2 SWAP1 PUSH2 0x2E66 JUMP JUMPDEST PUSH1 0x40 MLOAD DUP4 PUSH4 0xFFFFFFFF AND PUSH1 0xE0 SHL DUP2 MSTORE PUSH1 0x4 ADD PUSH2 0x1E99 SWAP3 SWAP2 SWAP1 PUSH2 0x29E8 JUMP JUMPDEST PUSH1 0x20 PUSH1 0x40 MLOAD DUP1 DUP4 SUB DUP2 PUSH0 DUP8 GAS CALL ISZERO DUP1 ISZERO PUSH2 0x1EB5 JUMPI RETURNDATASIZE PUSH0 DUP1 RETURNDATACOPY RETURNDATASIZE PUSH0 REVERT JUMPDEST POP POP POP POP PUSH1 0x40 MLOAD RETURNDATASIZE PUSH1 0x1F NOT PUSH1 0x1F DUP3 ADD AND DUP3 ADD DUP1 PUSH1 0x40 MSTORE POP DUP2 ADD SWAP1 PUSH2 0x1ED9 SWAP2 SWAP1 PUSH2 0x2A39 JUMP JUMPDEST POP PUSH1 0x9 PUSH0 SWAP1 SLOAD SWAP1 PUSH2 0x100 EXP SWAP1 DIV PUSH20 0xFFFFFFFFFFFFFFFFFFFFFFFFFFFFFFFFFFFFFFFF AND PUSH20 0xFFFFFFFFFFFFFFFFFFFFFFFFFFFFFFFFFFFFFFFF AND PUSH4 0xA9059CBB DUP3 PUSH1 0x2 PUSH1 0x1 SLOAD PUSH2 0x1F27 SWAP2 SWAP1 PUSH2 0x2E66 JUMP JUMPDEST PUSH1 0x40 MLOAD DUP4 PUSH4 0xFFFFFFFF AND PUSH1 0xE0 SHL DUP2 MSTORE PUSH1 0x4 ADD PUSH2 0x1F44 SWAP3 SWAP2 SWAP1 PUSH2 0x29E8 JUMP JUMPDEST PUSH1 0x20 PUSH1 0x40 MLOAD DUP1 DUP4 SUB DUP2 PUSH0 DUP8 GAS CALL ISZERO DUP1 ISZERO PUSH2 0x1F60 JUMPI RETURNDATASIZE PUSH0 DUP1 RETURNDATACOPY RETURNDATASIZE PUSH0 REVERT JUMPDEST POP POP POP POP PUSH1 0x40 MLOAD RETURNDATASIZE PUSH1 0x1F NOT PUSH1 0x1F DUP3 ADD AND DUP3 ADD DUP1 PUSH1 0x40 MSTORE POP DUP2 ADD SWAP1 PUSH2 0x1F84 SWAP2 SWAP1 PUSH2 0x2A39 JUMP JUMPDEST POP PUSH2 0x202A JUMP JUMPDEST PUSH1 0x9 PUSH0 SWAP1 SLOAD SWAP1 PUSH2 0x100 EXP SWAP1 DIV PUSH20 0xFFFFFFFFFFFFFFFFFFFFFFFFFFFFFFFFFFFFFFFF AND PUSH20 0xFFFFFFFFFFFFFFFFFFFFFFFFFFFFFFFFFFFFFFFF AND PUSH4 0xA9059CBB DUP4 PUSH1 0x1 SLOAD PUSH1 0x40 MLOAD DUP4 PUSH4 0xFFFFFFFF AND PUSH1 0xE0 SHL DUP2 MSTORE PUSH1 0x4 ADD PUSH2 0x1FE8 SWAP3 SWAP2 SWAP1 PUSH2 0x29E8 JUMP JUMPDEST PUSH1 0x20 PUSH1 0x40 MLOAD DUP1 DUP4 SUB DUP2 PUSH0 DUP8 GAS CALL ISZERO DUP1 ISZERO PUSH2 0x2004 JUMPI RETURNDATASIZE PUSH0 DUP1 RETURNDATACOPY RETURNDATASIZE PUSH0 REVERT JUMPDEST POP POP POP POP PUSH1 0x40 MLOAD RETURNDATASIZE PUSH1 0x1F NOT PUSH1 0x1F DUP3 ADD AND DUP3 ADD DUP1 PUSH1 0x40 MSTORE POP DUP2 ADD SWAP1 PUSH2 0x2028 SWAP2 SWAP1 PUSH2 0x2A39 JUMP JUMPDEST POP JUMPDEST JUMPDEST PUSH2 0x2033 PUSH2 0x2039 JUMP JUMPDEST POP POP POP POP JUMP JUMPDEST PUSH0 JUMPDEST PUSH1 0x4 DUP1 SLOAD SWAP1 POP DUP2 LT ISZERO PUSH2 0x2278 JUMPI PUSH1 0x3 PUSH0 PUSH1 0x4 DUP4 DUP2 SLOAD DUP2 LT PUSH2 0x205F JUMPI PUSH2 0x205E PUSH2 0x2630 JUMP JUMPDEST JUMPDEST SWAP1 PUSH0 MSTORE PUSH1 0x20 PUSH0 KECCAK256 ADD PUSH0 SWAP1 SLOAD SWAP1 PUSH2 0x100 EXP SWAP1 DIV PUSH20 0xFFFFFFFFFFFFFFFFFFFFFFFFFFFFFFFFFFFFFFFF AND PUSH20 0xFFFFFFFFFFFFFFFFFFFFFFFFFFFFFFFFFFFFFFFF AND PUSH20 0xFFFFFFFFFFFFFFFFFFFFFFFFFFFFFFFFFFFFFFFF AND DUP2 MSTORE PUSH1 0x20 ADD SWAP1 DUP2 MSTORE PUSH1 0x20 ADD PUSH0 KECCAK256 PUSH0 PUSH2 0x100 EXP DUP2 SLOAD SWAP1 PUSH1 0xFF MUL NOT AND SWAP1 SSTORE PUSH1 0x2 PUSH0 PUSH1 0x4 DUP4 DUP2 SLOAD DUP2 LT PUSH2 0x20E6 JUMPI PUSH2 0x20E5 PUSH2 0x2630 JUMP JUMPDEST JUMPDEST SWAP1 PUSH0 MSTORE PUSH1 0x20 PUSH0 KECCAK256 ADD PUSH0 SWAP1 SLOAD SWAP1 PUSH2 0x100 EXP SWAP1 DIV PUSH20 0xFFFFFFFFFFFFFFFFFFFFFFFFFFFFFFFFFFFFFFFF AND PUSH20 0xFFFFFFFFFFFFFFFFFFFFFFFFFFFFFFFFFFFFFFFF AND PUSH20 0xFFFFFFFFFFFFFFFFFFFFFFFFFFFFFFFFFFFFFFFF AND DUP2 MSTORE PUSH1 0x20 ADD SWAP1 DUP2 MSTORE PUSH1 0x20 ADD PUSH0 KECCAK256 PUSH0 SWAP1 SSTORE PUSH1 0x6 PUSH0 PUSH1 0x4 DUP4 DUP2 SLOAD DUP2 LT PUSH2 0x2161 JUMPI PUSH2 0x2160 PUSH2 0x2630 JUMP JUMPDEST JUMPDEST SWAP1 PUSH0 MSTORE PUSH1 0x20 PUSH0 KECCAK256 ADD PUSH0 SWAP1 SLOAD SWAP1 PUSH2 0x100 EXP SWAP1 DIV PUSH20 0xFFFFFFFFFFFFFFFFFFFFFFFFFFFFFFFFFFFFFFFF AND PUSH20 0xFFFFFFFFFFFFFFFFFFFFFFFFFFFFFFFFFFFFFFFF AND PUSH20 0xFFFFFFFFFFFFFFFFFFFFFFFFFFFFFFFFFFFFFFFF AND DUP2 MSTORE PUSH1 0x20 ADD SWAP1 DUP2 MSTORE PUSH1 0x20 ADD PUSH0 KECCAK256 PUSH0 PUSH2 0x100 EXP DUP2 SLOAD SWAP1 PUSH1 0xFF MUL NOT AND SWAP1 SSTORE PUSH1 0xB PUSH0 PUSH1 0x4 DUP4 DUP2 SLOAD DUP2 LT PUSH2 0x21E8 JUMPI PUSH2 0x21E7 PUSH2 0x2630 JUMP JUMPDEST JUMPDEST SWAP1 PUSH0 MSTORE PUSH1 0x20 PUSH0 KECCAK256 ADD PUSH0 SWAP1 SLOAD SWAP1 PUSH2 0x100 EXP SWAP1 DIV PUSH20 0xFFFFFFFFFFFFFFFFFFFFFFFFFFFFFFFFFFFFFFFF AND PUSH20 0xFFFFFFFFFFFFFFFFFFFFFFFFFFFFFFFFFFFFFFFF AND PUSH20 0xFFFFFFFFFFFFFFFFFFFFFFFFFFFFFFFFFFFFFFFF AND DUP2 MSTORE PUSH1 0x20 ADD SWAP1 DUP2 MSTORE PUSH1 0x20 ADD PUSH0 KECCAK256 PUSH0 PUSH2 0x100 EXP DUP2 SLOAD SWAP1 PUSH20 0xFFFFFFFFFFFFFFFFFFFFFFFFFFFFFFFFFFFFFFFF MUL NOT AND SWAP1 SSTORE DUP1 DUP1 PUSH1 0x1 ADD SWAP2 POP POP PUSH2 0x203B JUMP JUMPDEST POP PUSH1 0x4 PUSH0 PUSH2 0x2286 SWAP2 SWAP1 PUSH2 0x22A9 JUMP JUMPDEST PUSH0 DUP1 DUP2 SWAP1 SSTORE POP PUSH0 PUSH1 0xA DUP2 SWAP1 SSTORE POP PUSH0 PUSH1 0x1 DUP2 SWAP1 SSTORE POP JUMP JUMPDEST PUSH2 0xD6F DUP1 PUSH2 0x2E97 DUP4 CODECOPY ADD SWAP1 JUMP JUMPDEST POP DUP1 SLOAD PUSH0 DUP3 SSTORE SWAP1 PUSH0 MSTORE PUSH1 0x20 PUSH0 KECCAK256 SWAP1 DUP2 ADD SWAP1 PUSH2 0x22C4 SWAP2 SWAP1 PUSH2 0x22C7 JUMP JUMPDEST POP JUMP JUMPDEST JUMPDEST DUP1 DUP3 GT ISZERO PUSH2 0x22DE JUMPI PUSH0 DUP2 PUSH0 SWAP1 SSTORE POP PUSH1 0x1 ADD PUSH2 0x22C8 JUMP JUMPDEST POP SWAP1 JUMP JUMPDEST PUSH0 DUP2 SWAP1 POP SWAP2 SWAP1 POP JUMP JUMPDEST PUSH2 0x22F4 DUP2 PUSH2 0x22E2 JUMP JUMPDEST DUP3 MSTORE POP POP JUMP JUMPDEST PUSH0 PUSH1 0x20 DUP3 ADD SWAP1 POP PUSH2 0x230D PUSH0 DUP4 ADD DUP5 PUSH2 0x22EB JUMP JUMPDEST SWAP3 SWAP2 POP POP JUMP JUMPDEST PUSH0 DUP1 REVERT JUMPDEST PUSH0 PUSH20 0xFFFFFFFFFFFFFFFFFFFFFFFFFFFFFFFFFFFFFFFF DUP3 AND SWAP1 POP SWAP2 SWAP1 POP JUMP JUMPDEST PUSH0 PUSH2 0x2340 DUP3 PUSH2 0x2317 JUMP JUMPDEST SWAP1 POP SWAP2 SWAP1 POP JUMP JUMPDEST PUSH2 0x2350 DUP2 PUSH2 0x2336 JUMP JUMPDEST DUP2 EQ PUSH2 0x235A JUMPI PUSH0 DUP1 REVERT JUMPDEST POP JUMP JUMPDEST PUSH0 DUP2 CALLDATALOAD SWAP1 POP PUSH2 0x236B DUP2 PUSH2 0x2347 JUMP JUMPDEST SWAP3 SWAP2 POP POP JUMP JUMPDEST PUSH0 PUSH1 0x20 DUP3 DUP5 SUB SLT ISZERO PUSH2 0x2386 JUMPI PUSH2 0x2385 PUSH2 0x2313 JUMP JUMPDEST JUMPDEST PUSH0 PUSH2 0x2393 DUP5 DUP3 DUP6 ADD PUSH2 0x235D JUMP JUMPDEST SWAP2 POP POP SWAP3 SWAP2 POP POP JUMP JUMPDEST PUSH0 DUP2 ISZERO ISZERO SWAP1 POP SWAP2 SWAP1 POP JUMP JUMPDEST PUSH2 0x23B0 DUP2 PUSH2 0x239C JUMP JUMPDEST DUP3 MSTORE POP POP JUMP JUMPDEST PUSH0 PUSH1 0x20 DUP3 ADD SWAP1 POP PUSH2 0x23C9 PUSH0 DUP4 ADD DUP5 PUSH2 0x23A7 JUMP JUMPDEST SWAP3 SWAP2 POP POP JUMP JUMPDEST PUSH0 DUP2 SWAP1 POP SWAP2 SWAP1 POP JUMP JUMPDEST PUSH0 PUSH2 0x23F2 PUSH2 0x23ED PUSH2 0x23E8 DUP5 PUSH2 0x2317 JUMP JUMPDEST PUSH2 0x23CF JUMP JUMPDEST PUSH2 0x2317 JUMP JUMPDEST SWAP1 POP SWAP2 SWAP1 POP JUMP JUMPDEST PUSH0 PUSH2 0x2403 DUP3 PUSH2 0x23D8 JUMP JUMPDEST SWAP1 POP SWAP2 SWAP1 POP JUMP JUMPDEST PUSH0 PUSH2 0x2414 DUP3 PUSH2 0x23F9 JUMP JUMPDEST SWAP1 POP SWAP2 SWAP1 POP JUMP JUMPDEST PUSH2 0x2424 DUP2 PUSH2 0x240A JUMP JUMPDEST DUP3 MSTORE POP POP JUMP JUMPDEST PUSH0 PUSH1 0x20 DUP3 ADD SWAP1 POP PUSH2 0x243D PUSH0 DUP4 ADD DUP5 PUSH2 0x241B JUMP JUMPDEST SWAP3 SWAP2 POP POP JUMP JUMPDEST PUSH0 PUSH2 0x244D DUP3 PUSH2 0x23F9 JUMP JUMPDEST SWAP1 POP SWAP2 SWAP1 POP JUMP JUMPDEST PUSH2 0x245D DUP2 PUSH2 0x2443 JUMP JUMPDEST DUP3 MSTORE POP POP JUMP JUMPDEST PUSH0 PUSH1 0x20 DUP3 ADD SWAP1 POP PUSH2 0x2476 PUSH0 DUP4 ADD DUP5 PUSH2 0x2454 JUMP JUMPDEST SWAP3 SWAP2 POP POP JUMP JUMPDEST PUSH0 DUP2 SWAP1 POP SWAP2 SWAP1 POP JUMP JUMPDEST PUSH2 0x248E DUP2 PUSH2 0x247C JUMP JUMPDEST DUP2 EQ PUSH2 0x2498 JUMPI PUSH0 DUP1 REVERT JUMPDEST POP JUMP JUMPDEST PUSH0 DUP2 CALLDATALOAD SWAP1 POP PUSH2 0x24A9 DUP2 PUSH2 0x2485 JUMP JUMPDEST SWAP3 SWAP2 POP POP JUMP JUMPDEST PUSH0 PUSH1 0x20 DUP3 DUP5 SUB SLT ISZERO PUSH2 0x24C4 JUMPI PUSH2 0x24C3 PUSH2 0x2313 JUMP JUMPDEST JUMPDEST PUSH0 PUSH2 0x24D1 DUP5 DUP3 DUP6 ADD PUSH2 0x249B JUMP JUMPDEST SWAP2 POP POP SWAP3 SWAP2 POP POP JUMP JUMPDEST PUSH2 0x24E3 DUP2 PUSH2 0x247C JUMP JUMPDEST DUP3 MSTORE POP POP JUMP JUMPDEST PUSH0 PUSH1 0x20 DUP3 ADD SWAP1 POP PUSH2 0x24FC PUSH0 DUP4 ADD DUP5 PUSH2 0x24DA JUMP JUMPDEST SWAP3 SWAP2 POP POP JUMP JUMPDEST PUSH2 0x250B DUP2 PUSH2 0x22E2 JUMP JUMPDEST DUP2 EQ PUSH2 0x2515 JUMPI PUSH0 DUP1 REVERT JUMPDEST POP JUMP JUMPDEST PUSH0 DUP2 CALLDATALOAD SWAP1 POP PUSH2 0x2526 DUP2 PUSH2 0x2502 JUMP JUMPDEST SWAP3 SWAP2 POP POP JUMP JUMPDEST PUSH0 PUSH1 0x20 DUP3 DUP5 SUB SLT ISZERO PUSH2 0x2541 JUMPI PUSH2 0x2540 PUSH2 0x2313 JUMP JUMPDEST JUMPDEST PUSH0 PUSH2 0x254E DUP5 DUP3 DUP6 ADD PUSH2 0x2518 JUMP JUMPDEST SWAP2 POP POP SWAP3 SWAP2 POP POP JUMP JUMPDEST PUSH2 0x2560 DUP2 PUSH2 0x2336 JUMP JUMPDEST DUP3 MSTORE POP POP JUMP JUMPDEST PUSH0 PUSH1 0x20 DUP3 ADD SWAP1 POP PUSH2 0x2579 PUSH0 DUP4 ADD DUP5 PUSH2 0x2557 JUMP JUMPDEST SWAP3 SWAP2 POP POP JUMP JUMPDEST PUSH0 PUSH2 0x2589 DUP3 PUSH2 0x23F9 JUMP JUMPDEST SWAP1 POP SWAP2 SWAP1 POP JUMP JUMPDEST PUSH2 0x2599 DUP2 PUSH2 0x257F JUMP JUMPDEST DUP3 MSTORE POP POP JUMP JUMPDEST PUSH0 PUSH1 0x20 DUP3 ADD SWAP1 POP PUSH2 0x25B2 PUSH0 DUP4 ADD DUP5 PUSH2 0x2590 JUMP JUMPDEST SWAP3 SWAP2 POP POP JUMP JUMPDEST PUSH0 DUP3 DUP3 MSTORE PUSH1 0x20 DUP3 ADD SWAP1 POP SWAP3 SWAP2 POP POP JUMP JUMPDEST PUSH32 0x416C72656164792068617665203220706C617965727300000000000000000000 PUSH0 DUP3 ADD MSTORE POP JUMP JUMPDEST PUSH0 PUSH2 0x25FC PUSH1 0x16 DUP4 PUSH2 0x25B8 JUMP JUMPDEST SWAP2 POP PUSH2 0x2607 DUP3 PUSH2 0x25C8 JUMP JUMPDEST PUSH1 0x20 DUP3 ADD SWAP1 POP SWAP2 SWAP1 POP JUMP JUMPDEST PUSH0 PUSH1 0x20 DUP3 ADD SWAP1 POP DUP2 DUP2 SUB PUSH0 DUP4 ADD MSTORE PUSH2 0x2629 DUP2 PUSH2 0x25F0 JUMP JUMPDEST SWAP1 POP SWAP2 SWAP1 POP JUMP JUMPDEST PUSH32 0x4E487B7100000000000000000000000000000000000000000000000000000000 PUSH0 MSTORE PUSH1 0x32 PUSH1 0x4 MSTORE PUSH1 0x24 PUSH0 REVERT JUMPDEST PUSH32 0x596F752061726520616C726561647920696E207468652067616D650000000000 PUSH0 DUP3 ADD MSTORE POP JUMP JUMPDEST PUSH0 PUSH2 0x2691 PUSH1 0x1B DUP4 PUSH2 0x25B8 JUMP JUMPDEST SWAP2 POP PUSH2 0x269C DUP3 PUSH2 0x265D JUMP JUMPDEST PUSH1 0x20 DUP3 ADD SWAP1 POP SWAP2 SWAP1 POP JUMP JUMPDEST PUSH0 PUSH1 0x20 DUP3 ADD SWAP1 POP DUP2 DUP2 SUB PUSH0 DUP4 ADD MSTORE PUSH2 0x26BE DUP2 PUSH2 0x2685 JUMP JUMPDEST SWAP1 POP SWAP2 SWAP1 POP JUMP JUMPDEST PUSH32 0x4E487B7100000000000000000000000000000000000000000000000000000000 PUSH0 MSTORE PUSH1 0x11 PUSH1 0x4 MSTORE PUSH1 0x24 PUSH0 REVERT JUMPDEST PUSH0 PUSH2 0x26FC DUP3 PUSH2 0x22E2 JUMP JUMPDEST SWAP2 POP PUSH32 0xFFFFFFFFFFFFFFFFFFFFFFFFFFFFFFFFFFFFFFFFFFFFFFFFFFFFFFFFFFFFFFFF DUP3 SUB PUSH2 0x272E JUMPI PUSH2 0x272D PUSH2 0x26C5 JUMP JUMPDEST JUMPDEST PUSH1 0x1 DUP3 ADD SWAP1 POP SWAP2 SWAP1 POP JUMP JUMPDEST PUSH0 DUP2 MLOAD SWAP1 POP PUSH2 0x2747 DUP2 PUSH2 0x2502 JUMP JUMPDEST SWAP3 SWAP2 POP POP JUMP JUMPDEST PUSH0 PUSH1 0x20 DUP3 DUP5 SUB SLT ISZERO PUSH2 0x2762 JUMPI PUSH2 0x2761 PUSH2 0x2313 JUMP JUMPDEST JUMPDEST PUSH0 PUSH2 0x276F DUP5 DUP3 DUP6 ADD PUSH2 0x2739 JUMP JUMPDEST SWAP2 POP POP SWAP3 SWAP2 POP POP JUMP JUMPDEST PUSH32 0x54696D656F757400000000000000000000000000000000000000000000000000 PUSH0 DUP3 ADD MSTORE POP JUMP JUMPDEST PUSH0 PUSH2 0x27AC PUSH1 0x7 DUP4 PUSH2 0x25B8 JUMP JUMPDEST SWAP2 POP PUSH2 0x27B7 DUP3 PUSH2 0x2778 JUMP JUMPDEST PUSH1 0x20 DUP3 ADD SWAP1 POP SWAP2 SWAP1 POP JUMP JUMPDEST PUSH0 PUSH1 0x20 DUP3 ADD SWAP1 POP DUP2 DUP2 SUB PUSH0 DUP4 ADD MSTORE PUSH2 0x27D9 DUP2 PUSH2 0x27A0 JUMP JUMPDEST SWAP1 POP SWAP2 SWAP1 POP JUMP JUMPDEST PUSH32 0x506C617965722069732072657665616C65640000000000000000000000000000 PUSH0 DUP3 ADD MSTORE POP JUMP JUMPDEST PUSH0 PUSH2 0x2814 PUSH1 0x12 DUP4 PUSH2 0x25B8 JUMP JUMPDEST SWAP2 POP PUSH2 0x281F DUP3 PUSH2 0x27E0 JUMP JUMPDEST PUSH1 0x20 DUP3 ADD SWAP1 POP SWAP2 SWAP1 POP JUMP JUMPDEST PUSH0 PUSH1 0x20 DUP3 ADD SWAP1 POP DUP2 DUP2 SUB PUSH0 DUP4 ADD MSTORE PUSH2 0x2841 DUP2 PUSH2 0x2808 JUMP JUMPDEST SWAP1 POP SWAP2 SWAP1 POP JUMP JUMPDEST PUSH32 0x496E76616C69642063686F696365000000000000000000000000000000000000 PUSH0 DUP3 ADD MSTORE POP JUMP JUMPDEST PUSH0 PUSH2 0x287C PUSH1 0xE DUP4 PUSH2 0x25B8 JUMP JUMPDEST SWAP2 POP PUSH2 0x2887 DUP3 PUSH2 0x2848 JUMP JUMPDEST PUSH1 0x20 DUP3 ADD SWAP1 POP SWAP2 SWAP1 POP JUMP JUMPDEST PUSH0 PUSH1 0x20 DUP3 ADD SWAP1 POP DUP2 DUP2 SUB PUSH0 DUP4 ADD MSTORE PUSH2 0x28A9 DUP2 PUSH2 0x2870 JUMP JUMPDEST SWAP1 POP SWAP2 SWAP1 POP JUMP JUMPDEST PUSH32 0x52657665616C207068617365206E6F742074696D6564206F7574207965740000 PUSH0 DUP3 ADD MSTORE POP JUMP JUMPDEST PUSH0 PUSH2 0x28E4 PUSH1 0x1E DUP4 PUSH2 0x25B8 JUMP JUMPDEST SWAP2 POP PUSH2 0x28EF DUP3 PUSH2 0x28B0 JUMP JUMPDEST PUSH1 0x20 DUP3 ADD SWAP1 POP SWAP2 SWAP1 POP JUMP JUMPDEST PUSH0 PUSH1 0x20 DUP3 ADD SWAP1 POP DUP2 DUP2 SUB PUSH0 DUP4 ADD MSTORE PUSH2 0x2911 DUP2 PUSH2 0x28D8 JUMP JUMPDEST SWAP1 POP SWAP2 SWAP1 POP JUMP JUMPDEST PUSH32 0x4E6F2072657761726420696E20636F6E74726163740000000000000000000000 PUSH0 DUP3 ADD MSTORE POP JUMP JUMPDEST PUSH0 PUSH2 0x294C PUSH1 0x15 DUP4 PUSH2 0x25B8 JUMP JUMPDEST SWAP2 POP PUSH2 0x2957 DUP3 PUSH2 0x2918 JUMP JUMPDEST PUSH1 0x20 DUP3 ADD SWAP1 POP SWAP2 SWAP1 POP JUMP JUMPDEST PUSH0 PUSH1 0x20 DUP3 ADD SWAP1 POP DUP2 DUP2 SUB PUSH0 DUP4 ADD MSTORE PUSH2 0x2979 DUP2 PUSH2 0x2940 JUMP JUMPDEST SWAP1 POP SWAP2 SWAP1 POP JUMP JUMPDEST PUSH32 0x4F6E6C79207468652072657665616C65722063616E2077697468647261770000 PUSH0 DUP3 ADD MSTORE POP JUMP JUMPDEST PUSH0 PUSH2 0x29B4 PUSH1 0x1E DUP4 PUSH2 0x25B8 JUMP JUMPDEST SWAP2 POP PUSH2 0x29BF DUP3 PUSH2 0x2980 JUMP JUMPDEST PUSH1 0x20 DUP3 ADD SWAP1 POP SWAP2 SWAP1 POP JUMP JUMPDEST PUSH0 PUSH1 0x20 DUP3 ADD SWAP1 POP DUP2 DUP2 SUB PUSH0 DUP4 ADD MSTORE PUSH2 0x29E1 DUP2 PUSH2 0x29A8 JUMP JUMPDEST SWAP1 POP SWAP2 SWAP1 POP JUMP JUMPDEST PUSH0 PUSH1 0x40 DUP3 ADD SWAP1 POP PUSH2 0x29FB PUSH0 DUP4 ADD DUP6 PUSH2 0x2557 JUMP JUMPDEST PUSH2 0x2A08 PUSH1 0x20 DUP4 ADD DUP5 PUSH2 0x22EB JUMP JUMPDEST SWAP4 SWAP3 POP POP POP JUMP JUMPDEST PUSH2 0x2A18 DUP2 PUSH2 0x239C JUMP JUMPDEST DUP2 EQ PUSH2 0x2A22 JUMPI PUSH0 DUP1 REVERT JUMPDEST POP JUMP JUMPDEST PUSH0 DUP2 MLOAD SWAP1 POP PUSH2 0x2A33 DUP2 PUSH2 0x2A0F JUMP JUMPDEST SWAP3 SWAP2 POP POP JUMP JUMPDEST PUSH0 PUSH1 0x20 DUP3 DUP5 SUB SLT ISZERO PUSH2 0x2A4E JUMPI PUSH2 0x2A4D PUSH2 0x2313 JUMP JUMPDEST JUMPDEST PUSH0 PUSH2 0x2A5B DUP5 DUP3 DUP6 ADD PUSH2 0x2A25 JUMP JUMPDEST SWAP2 POP POP SWAP3 SWAP2 POP POP JUMP JUMPDEST PUSH32 0x496E76616C696420737461746500000000000000000000000000000000000000 PUSH0 DUP3 ADD MSTORE POP JUMP JUMPDEST PUSH0 PUSH2 0x2A98 PUSH1 0xD DUP4 PUSH2 0x25B8 JUMP JUMPDEST SWAP2 POP PUSH2 0x2AA3 DUP3 PUSH2 0x2A64 JUMP JUMPDEST PUSH1 0x20 DUP3 ADD SWAP1 POP SWAP2 SWAP1 POP JUMP JUMPDEST PUSH0 PUSH1 0x20 DUP3 ADD SWAP1 POP DUP2 DUP2 SUB PUSH0 DUP4 ADD MSTORE PUSH2 0x2AC5 DUP2 PUSH2 0x2A8C JUMP JUMPDEST SWAP1 POP SWAP2 SWAP1 POP JUMP JUMPDEST PUSH32 0x426F746820706C61796572732072657665616C6564202D206E6F74206170706C PUSH0 DUP3 ADD MSTORE PUSH32 0x696361626C652068657265000000000000000000000000000000000000000000 PUSH1 0x20 DUP3 ADD MSTORE POP JUMP JUMPDEST PUSH0 PUSH2 0x2B26 PUSH1 0x2B DUP4 PUSH2 0x25B8 JUMP JUMPDEST SWAP2 POP PUSH2 0x2B31 DUP3 PUSH2 0x2ACC JUMP JUMPDEST PUSH1 0x40 DUP3 ADD SWAP1 POP SWAP2 SWAP1 POP JUMP JUMPDEST PUSH0 PUSH1 0x20 DUP3 ADD SWAP1 POP DUP2 DUP2 SUB PUSH0 DUP4 ADD MSTORE PUSH2 0x2B53 DUP2 PUSH2 0x2B1A JUMP JUMPDEST SWAP1 POP SWAP2 SWAP1 POP JUMP JUMPDEST PUSH0 DUP2 MLOAD SWAP1 POP PUSH2 0x2B68 DUP2 PUSH2 0x2485 JUMP JUMPDEST SWAP3 SWAP2 POP POP JUMP JUMPDEST PUSH0 PUSH1 0x20 DUP3 DUP5 SUB SLT ISZERO PUSH2 0x2B83 JUMPI PUSH2 0x2B82 PUSH2 0x2313 JUMP JUMPDEST JUMPDEST PUSH0 PUSH2 0x2B90 DUP5 DUP3 DUP6 ADD PUSH2 0x2B5A JUMP JUMPDEST SWAP2 POP POP SWAP3 SWAP2 POP POP JUMP JUMPDEST PUSH32 0x436F6D6D69742070686173652074696D6564206F757400000000000000000000 PUSH0 DUP3 ADD MSTORE POP JUMP JUMPDEST PUSH0 PUSH2 0x2BCD PUSH1 0x16 DUP4 PUSH2 0x25B8 JUMP JUMPDEST SWAP2 POP PUSH2 0x2BD8 DUP3 PUSH2 0x2B99 JUMP JUMPDEST PUSH1 0x20 DUP3 ADD SWAP1 POP SWAP2 SWAP1 POP JUMP JUMPDEST PUSH0 PUSH1 0x20 DUP3 ADD SWAP1 POP DUP2 DUP2 SUB PUSH0 DUP4 ADD MSTORE PUSH2 0x2BFA DUP2 PUSH2 0x2BC1 JUMP JUMPDEST SWAP1 POP SWAP2 SWAP1 POP JUMP JUMPDEST PUSH0 PUSH1 0x40 DUP3 ADD SWAP1 POP PUSH2 0x2C14 PUSH0 DUP4 ADD DUP6 PUSH2 0x2557 JUMP JUMPDEST PUSH2 0x2C21 PUSH1 0x20 DUP4 ADD DUP5 PUSH2 0x2557 JUMP JUMPDEST SWAP4 SWAP3 POP POP POP JUMP JUMPDEST PUSH32 0x506C617965723020616C6C6F77616E6365206E6F7420656E6F75676800000000 PUSH0 DUP3 ADD MSTORE POP JUMP JUMPDEST PUSH0 PUSH2 0x2C5C PUSH1 0x1C DUP4 PUSH2 0x25B8 JUMP JUMPDEST SWAP2 POP PUSH2 0x2C67 DUP3 PUSH2 0x2C28 JUMP JUMPDEST PUSH1 0x20 DUP3 ADD SWAP1 POP SWAP2 SWAP1 POP JUMP JUMPDEST PUSH0 PUSH1 0x20 DUP3 ADD SWAP1 POP DUP2 DUP2 SUB PUSH0 DUP4 ADD MSTORE PUSH2 0x2C89 DUP2 PUSH2 0x2C50 JUMP JUMPDEST SWAP1 POP SWAP2 SWAP1 POP JUMP JUMPDEST PUSH32 0x506C617965723120616C6C6F77616E6365206E6F7420656E6F75676800000000 PUSH0 DUP3 ADD MSTORE POP JUMP JUMPDEST PUSH0 PUSH2 0x2CC4 PUSH1 0x1C DUP4 PUSH2 0x25B8 JUMP JUMPDEST SWAP2 POP PUSH2 0x2CCF DUP3 PUSH2 0x2C90 JUMP JUMPDEST PUSH1 0x20 DUP3 ADD SWAP1 POP SWAP2 SWAP1 POP JUMP JUMPDEST PUSH0 PUSH1 0x20 DUP3 ADD SWAP1 POP DUP2 DUP2 SUB PUSH0 DUP4 ADD MSTORE PUSH2 0x2CF1 DUP2 PUSH2 0x2CB8 JUMP JUMPDEST SWAP1 POP SWAP2 SWAP1 POP JUMP JUMPDEST PUSH0 PUSH1 0x60 DUP3 ADD SWAP1 POP PUSH2 0x2D0B PUSH0 DUP4 ADD DUP7 PUSH2 0x2557 JUMP JUMPDEST PUSH2 0x2D18 PUSH1 0x20 DUP4 ADD DUP6 PUSH2 0x2557 JUMP JUMPDEST PUSH2 0x2D25 PUSH1 0x40 DUP4 ADD DUP5 PUSH2 0x22EB JUMP JUMPDEST SWAP5 SWAP4 POP POP POP POP JUMP JUMPDEST PUSH32 0x7472616E7366657246726F6D206661696C656400000000000000000000000000 PUSH0 DUP3 ADD MSTORE POP JUMP JUMPDEST PUSH0 PUSH2 0x2D61 PUSH1 0x13 DUP4 PUSH2 0x25B8 JUMP JUMPDEST SWAP2 POP PUSH2 0x2D6C DUP3 PUSH2 0x2D2D JUMP JUMPDEST PUSH1 0x20 DUP3 ADD SWAP1 POP SWAP2 SWAP1 POP JUMP JUMPDEST PUSH0 PUSH1 0x20 DUP3 ADD SWAP1 POP DUP2 DUP2 SUB PUSH0 DUP4 ADD MSTORE PUSH2 0x2D8E DUP2 PUSH2 0x2D55 JUMP JUMPDEST SWAP1 POP SWAP2 SWAP1 POP JUMP JUMPDEST PUSH0 PUSH2 0x2D9F DUP3 PUSH2 0x22E2 JUMP JUMPDEST SWAP2 POP PUSH2 0x2DAA DUP4 PUSH2 0x22E2 JUMP JUMPDEST SWAP3 POP DUP3 DUP3 MUL PUSH2 0x2DB8 DUP2 PUSH2 0x22E2 JUMP JUMPDEST SWAP2 POP DUP3 DUP3 DIV DUP5 EQ DUP4 ISZERO OR PUSH2 0x2DCF JUMPI PUSH2 0x2DCE PUSH2 0x26C5 JUMP JUMPDEST JUMPDEST POP SWAP3 SWAP2 POP POP JUMP JUMPDEST PUSH0 PUSH2 0x2DE0 DUP3 PUSH2 0x22E2 JUMP JUMPDEST SWAP2 POP PUSH2 0x2DEB DUP4 PUSH2 0x22E2 JUMP JUMPDEST SWAP3 POP DUP3 DUP3 ADD SWAP1 POP DUP1 DUP3 GT ISZERO PUSH2 0x2E03 JUMPI PUSH2 0x2E02 PUSH2 0x26C5 JUMP JUMPDEST JUMPDEST SWAP3 SWAP2 POP POP JUMP JUMPDEST PUSH32 0x4E487B7100000000000000000000000000000000000000000000000000000000 PUSH0 MSTORE PUSH1 0x12 PUSH1 0x4 MSTORE PUSH1 0x24 PUSH0 REVERT JUMPDEST PUSH0 PUSH2 0x2E40 DUP3 PUSH2 0x22E2 JUMP JUMPDEST SWAP2 POP PUSH2 0x2E4B DUP4 PUSH2 0x22E2 JUMP JUMPDEST SWAP3 POP DUP3 PUSH2 0x2E5B JUMPI PUSH2 0x2E5A PUSH2 0x2E09 JUMP JUMPDEST JUMPDEST DUP3 DUP3 MOD SWAP1 POP SWAP3 SWAP2 POP POP JUMP JUMPDEST PUSH0 PUSH2 0x2E70 DUP3 PUSH2 0x22E2 JUMP JUMPDEST SWAP2 POP PUSH2 0x2E7B DUP4 PUSH2 0x22E2 JUMP JUMPDEST SWAP3 POP DUP3 PUSH2 0x2E8B JUMPI PUSH2 0x2E8A PUSH2 0x2E09 JUMP JUMPDEST JUMPDEST DUP3 DUP3 DIV SWAP1 POP SWAP3 SWAP2 POP POP JUMP INVALID PUSH1 0x80 PUSH1 0x40 MSTORE PUSH1 0x64 PUSH0 DUP1 PUSH2 0x100 EXP DUP2 SLOAD DUP2 PUSH1 0xFF MUL NOT AND SWAP1 DUP4 PUSH1 0xFF AND MUL OR SWAP1 SSTORE POP CALLVALUE DUP1 ISZERO PUSH1 0x28 JUMPI PUSH0 DUP1 REVERT JUMPDEST POP PUSH2 0xD39 DUP1 PUSH2 0x36 PUSH0 CODECOPY PUSH0 RETURN INVALID PUSH1 0x80 PUSH1 0x40 MSTORE CALLVALUE DUP1 ISZERO PUSH2 0xF JUMPI PUSH0 DUP1 REVERT JUMPDEST POP PUSH1 0x4 CALLDATASIZE LT PUSH2 0x55 JUMPI PUSH0 CALLDATALOAD PUSH1 0xE0 SHR DUP1 PUSH4 0x3CF5040A EQ PUSH2 0x59 JUMPI DUP1 PUSH4 0x6AC5DB19 EQ PUSH2 0x89 JUMPI DUP1 PUSH4 0x701FD0F1 EQ PUSH2 0xA7 JUMPI DUP1 PUSH4 0x7B43A8E6 EQ PUSH2 0xC3 JUMPI DUP1 PUSH4 0xF14FCBC8 EQ PUSH2 0xF5 JUMPI JUMPDEST PUSH0 DUP1 REVERT JUMPDEST PUSH2 0x73 PUSH1 0x4 DUP1 CALLDATASIZE SUB DUP2 ADD SWAP1 PUSH2 0x6E SWAP2 SWAP1 PUSH2 0x75D JUMP JUMPDEST PUSH2 0x111 JUMP JUMPDEST PUSH1 0x40 MLOAD PUSH2 0x80 SWAP2 SWAP1 PUSH2 0x797 JUMP JUMPDEST PUSH1 0x40 MLOAD DUP1 SWAP2 SUB SWAP1 RETURN JUMPDEST PUSH2 0x91 PUSH2 0x140 JUMP JUMPDEST PUSH1 0x40 MLOAD PUSH2 0x9E SWAP2 SWAP1 PUSH2 0x7CB JUMP JUMPDEST PUSH1 0x40 MLOAD DUP1 SWAP2 SUB SWAP1 RETURN JUMPDEST PUSH2 0xC1 PUSH1 0x4 DUP1 CALLDATASIZE SUB DUP2 ADD SWAP1 PUSH2 0xBC SWAP2 SWAP1 PUSH2 0x75D JUMP JUMPDEST PUSH2 0x150 JUMP JUMPDEST STOP JUMPDEST PUSH2 0xDD PUSH1 0x4 DUP1 CALLDATASIZE SUB DUP2 ADD SWAP1 PUSH2 0xD8 SWAP2 SWAP1 PUSH2 0x83E JUMP JUMPDEST PUSH2 0x50E JUMP JUMPDEST PUSH1 0x40 MLOAD PUSH2 0xEC SWAP4 SWAP3 SWAP2 SWAP1 PUSH2 0x8A5 JUMP JUMPDEST PUSH1 0x40 MLOAD DUP1 SWAP2 SUB SWAP1 RETURN JUMPDEST PUSH2 0x10F PUSH1 0x4 DUP1 CALLDATASIZE SUB DUP2 ADD SWAP1 PUSH2 0x10A SWAP2 SWAP1 PUSH2 0x75D JUMP JUMPDEST PUSH2 0x554 JUMP JUMPDEST STOP JUMPDEST PUSH0 DUP2 PUSH1 0x40 MLOAD PUSH1 0x20 ADD PUSH2 0x123 SWAP2 SWAP1 PUSH2 0x8FA JUMP JUMPDEST PUSH1 0x40 MLOAD PUSH1 0x20 DUP2 DUP4 SUB SUB DUP2 MSTORE SWAP1 PUSH1 0x40 MSTORE DUP1 MLOAD SWAP1 PUSH1 0x20 ADD KECCAK256 SWAP1 POP SWAP2 SWAP1 POP JUMP JUMPDEST PUSH0 DUP1 SLOAD SWAP1 PUSH2 0x100 EXP SWAP1 DIV PUSH1 0xFF AND DUP2 JUMP JUMPDEST PUSH0 ISZERO ISZERO PUSH1 0x1 PUSH0 CALLER PUSH20 0xFFFFFFFFFFFFFFFFFFFFFFFFFFFFFFFFFFFFFFFF AND PUSH20 0xFFFFFFFFFFFFFFFFFFFFFFFFFFFFFFFFFFFFFFFF AND DUP2 MSTORE PUSH1 0x20 ADD SWAP1 DUP2 MSTORE PUSH1 0x20 ADD PUSH0 KECCAK256 PUSH1 0x1 ADD PUSH1 0x8 SWAP1 SLOAD SWAP1 PUSH2 0x100 EXP SWAP1 DIV PUSH1 0xFF AND ISZERO ISZERO EQ PUSH2 0x1E3 JUMPI PUSH1 0x40 MLOAD PUSH32 0x8C379A000000000000000000000000000000000000000000000000000000000 DUP2 MSTORE PUSH1 0x4 ADD PUSH2 0x1DA SWAP1 PUSH2 0x994 JUMP JUMPDEST PUSH1 0x40 MLOAD DUP1 SWAP2 SUB SWAP1 REVERT JUMPDEST PUSH1 0x1 DUP1 PUSH0 CALLER PUSH20 0xFFFFFFFFFFFFFFFFFFFFFFFFFFFFFFFFFFFFFFFF AND PUSH20 0xFFFFFFFFFFFFFFFFFFFFFFFFFFFFFFFFFFFFFFFF AND DUP2 MSTORE PUSH1 0x20 ADD SWAP1 DUP2 MSTORE PUSH1 0x20 ADD PUSH0 KECCAK256 PUSH1 0x1 ADD PUSH1 0x8 PUSH2 0x100 EXP DUP2 SLOAD DUP2 PUSH1 0xFF MUL NOT AND SWAP1 DUP4 ISZERO ISZERO MUL OR SWAP1 SSTORE POP PUSH1 0x1 PUSH0 CALLER PUSH20 0xFFFFFFFFFFFFFFFFFFFFFFFFFFFFFFFFFFFFFFFF AND PUSH20 0xFFFFFFFFFFFFFFFFFFFFFFFFFFFFFFFFFFFFFFFF AND DUP2 MSTORE PUSH1 0x20 ADD SWAP1 DUP2 MSTORE PUSH1 0x20 ADD PUSH0 KECCAK256 PUSH0 ADD SLOAD PUSH2 0x284 DUP3 PUSH2 0x111 JUMP JUMPDEST EQ PUSH2 0x2C4 JUMPI PUSH1 0x40 MLOAD PUSH32 0x8C379A000000000000000000000000000000000000000000000000000000000 DUP2 MSTORE PUSH1 0x4 ADD PUSH2 0x2BB SWAP1 PUSH2 0xA22 JUMP JUMPDEST PUSH1 0x40 MLOAD DUP1 SWAP2 SUB SWAP1 REVERT JUMPDEST PUSH1 0x1 PUSH0 CALLER PUSH20 0xFFFFFFFFFFFFFFFFFFFFFFFFFFFFFFFFFFFFFFFF AND PUSH20 0xFFFFFFFFFFFFFFFFFFFFFFFFFFFFFFFFFFFFFFFF AND DUP2 MSTORE PUSH1 0x20 ADD SWAP1 DUP2 MSTORE PUSH1 0x20 ADD PUSH0 KECCAK256 PUSH1 0x1 ADD PUSH0 SWAP1 SLOAD SWAP1 PUSH2 0x100 EXP SWAP1 DIV PUSH8 0xFFFFFFFFFFFFFFFF AND PUSH8 0xFFFFFFFFFFFFFFFF AND NUMBER PUSH8 0xFFFFFFFFFFFFFFFF AND GT PUSH2 0x36D JUMPI PUSH1 0x40 MLOAD PUSH32 0x8C379A000000000000000000000000000000000000000000000000000000000 DUP2 MSTORE PUSH1 0x4 ADD PUSH2 0x364 SWAP1 PUSH2 0xAD6 JUMP JUMPDEST PUSH1 0x40 MLOAD DUP1 SWAP2 SUB SWAP1 REVERT JUMPDEST PUSH1 0xFA PUSH1 0x1 PUSH0 CALLER PUSH20 0xFFFFFFFFFFFFFFFFFFFFFFFFFFFFFFFFFFFFFFFF AND PUSH20 0xFFFFFFFFFFFFFFFFFFFFFFFFFFFFFFFFFFFFFFFF AND DUP2 MSTORE PUSH1 0x20 ADD SWAP1 DUP2 MSTORE PUSH1 0x20 ADD PUSH0 KECCAK256 PUSH1 0x1 ADD PUSH0 SWAP1 SLOAD SWAP1 PUSH2 0x100 EXP SWAP1 DIV PUSH8 0xFFFFFFFFFFFFFFFF AND PUSH2 0x3CD SWAP2 SWAP1 PUSH2 0xB21 JUMP JUMPDEST PUSH8 0xFFFFFFFFFFFFFFFF AND NUMBER PUSH8 0xFFFFFFFFFFFFFFFF AND GT ISZERO PUSH2 0x423 JUMPI PUSH1 0x40 MLOAD PUSH32 0x8C379A000000000000000000000000000000000000000000000000000000000 DUP2 MSTORE PUSH1 0x4 ADD PUSH2 0x41A SWAP1 PUSH2 0xBCC JUMP JUMPDEST PUSH1 0x40 MLOAD DUP1 SWAP2 SUB SWAP1 REVERT JUMPDEST PUSH0 PUSH1 0x1 PUSH0 CALLER PUSH20 0xFFFFFFFFFFFFFFFFFFFFFFFFFFFFFFFFFFFFFFFF AND PUSH20 0xFFFFFFFFFFFFFFFFFFFFFFFFFFFFFFFFFFFFFFFF AND DUP2 MSTORE PUSH1 0x20 ADD SWAP1 DUP2 MSTORE PUSH1 0x20 ADD PUSH0 KECCAK256 PUSH1 0x1 ADD PUSH0 SWAP1 SLOAD SWAP1 PUSH2 0x100 EXP SWAP1 DIV PUSH8 0xFFFFFFFFFFFFFFFF AND PUSH8 0xFFFFFFFFFFFFFFFF AND BLOCKHASH SWAP1 POP PUSH0 DUP1 PUSH0 SWAP1 SLOAD SWAP1 PUSH2 0x100 EXP SWAP1 DIV PUSH1 0xFF AND PUSH1 0xFF AND DUP3 DUP5 PUSH1 0x40 MLOAD PUSH1 0x20 ADD PUSH2 0x4AA SWAP3 SWAP2 SWAP1 PUSH2 0xBEA JUMP JUMPDEST PUSH1 0x40 MLOAD PUSH1 0x20 DUP2 DUP4 SUB SUB DUP2 MSTORE SWAP1 PUSH1 0x40 MSTORE DUP1 MLOAD SWAP1 PUSH1 0x20 ADD KECCAK256 PUSH0 SHR PUSH2 0x4CC SWAP2 SWAP1 PUSH2 0xC4B JUMP JUMPDEST SWAP1 POP PUSH32 0xBC016DD1CADEAEFCB851AF7A0A93532E0023D536894B730801F7BCFE7065BCC2 CALLER DUP5 DUP4 PUSH1 0x40 MLOAD PUSH2 0x501 SWAP4 SWAP3 SWAP2 SWAP1 PUSH2 0xC99 JUMP JUMPDEST PUSH1 0x40 MLOAD DUP1 SWAP2 SUB SWAP1 LOG1 POP POP POP JUMP JUMPDEST PUSH1 0x1 PUSH1 0x20 MSTORE DUP1 PUSH0 MSTORE PUSH1 0x40 PUSH0 KECCAK256 PUSH0 SWAP2 POP SWAP1 POP DUP1 PUSH0 ADD SLOAD SWAP1 DUP1 PUSH1 0x1 ADD PUSH0 SWAP1 SLOAD SWAP1 PUSH2 0x100 EXP SWAP1 DIV PUSH8 0xFFFFFFFFFFFFFFFF AND SWAP1 DUP1 PUSH1 0x1 ADD PUSH1 0x8 SWAP1 SLOAD SWAP1 PUSH2 0x100 EXP SWAP1 DIV PUSH1 0xFF AND SWAP1 POP DUP4 JUMP JUMPDEST DUP1 PUSH1 0x1 PUSH0 CALLER PUSH20 0xFFFFFFFFFFFFFFFFFFFFFFFFFFFFFFFFFFFFFFFF AND PUSH20 0xFFFFFFFFFFFFFFFFFFFFFFFFFFFFFFFFFFFFFFFF AND DUP2 MSTORE PUSH1 0x20 ADD SWAP1 DUP2 MSTORE PUSH1 0x20 ADD PUSH0 KECCAK256 PUSH0 ADD DUP2 SWAP1 SSTORE POP NUMBER PUSH1 0x1 PUSH0 CALLER PUSH20 0xFFFFFFFFFFFFFFFFFFFFFFFFFFFFFFFFFFFFFFFF AND PUSH20 0xFFFFFFFFFFFFFFFFFFFFFFFFFFFFFFFFFFFFFFFF AND DUP2 MSTORE PUSH1 0x20 ADD SWAP1 DUP2 MSTORE PUSH1 0x20 ADD PUSH0 KECCAK256 PUSH1 0x1 ADD PUSH0 PUSH2 0x100 EXP DUP2 SLOAD DUP2 PUSH8 0xFFFFFFFFFFFFFFFF MUL NOT AND SWAP1 DUP4 PUSH8 0xFFFFFFFFFFFFFFFF AND MUL OR SWAP1 SSTORE POP PUSH0 PUSH1 0x1 PUSH0 CALLER PUSH20 0xFFFFFFFFFFFFFFFFFFFFFFFFFFFFFFFFFFFFFFFF AND PUSH20 0xFFFFFFFFFFFFFFFFFFFFFFFFFFFFFFFFFFFFFFFF AND DUP2 MSTORE PUSH1 0x20 ADD SWAP1 DUP2 MSTORE PUSH1 0x20 ADD PUSH0 KECCAK256 PUSH1 0x1 ADD PUSH1 0x8 PUSH2 0x100 EXP DUP2 SLOAD DUP2 PUSH1 0xFF MUL NOT AND SWAP1 DUP4 ISZERO ISZERO MUL OR SWAP1 SSTORE POP PUSH32 0x3C1A1F8F38335B17F751C6DA4BA7D1865F26B3997535176F5080DE9FAD891603 CALLER PUSH1 0x1 PUSH0 CALLER PUSH20 0xFFFFFFFFFFFFFFFFFFFFFFFFFFFFFFFFFFFFFFFF AND PUSH20 0xFFFFFFFFFFFFFFFFFFFFFFFFFFFFFFFFFFFFFFFF AND DUP2 MSTORE PUSH1 0x20 ADD SWAP1 DUP2 MSTORE PUSH1 0x20 ADD PUSH0 KECCAK256 PUSH0 ADD SLOAD PUSH1 0x1 PUSH0 CALLER PUSH20 0xFFFFFFFFFFFFFFFFFFFFFFFFFFFFFFFFFFFFFFFF AND PUSH20 0xFFFFFFFFFFFFFFFFFFFFFFFFFFFFFFFFFFFFFFFF AND DUP2 MSTORE PUSH1 0x20 ADD SWAP1 DUP2 MSTORE PUSH1 0x20 ADD PUSH0 KECCAK256 PUSH1 0x1 ADD PUSH0 SWAP1 SLOAD SWAP1 PUSH2 0x100 EXP SWAP1 DIV PUSH8 0xFFFFFFFFFFFFFFFF AND PUSH1 0x40 MLOAD PUSH2 0x71B SWAP4 SWAP3 SWAP2 SWAP1 PUSH2 0xCCE JUMP JUMPDEST PUSH1 0x40 MLOAD DUP1 SWAP2 SUB SWAP1 LOG1 POP JUMP JUMPDEST PUSH0 DUP1 REVERT JUMPDEST PUSH0 DUP2 SWAP1 POP SWAP2 SWAP1 POP JUMP JUMPDEST PUSH2 0x73C DUP2 PUSH2 0x72A JUMP JUMPDEST DUP2 EQ PUSH2 0x746 JUMPI PUSH0 DUP1 REVERT JUMPDEST POP JUMP JUMPDEST PUSH0 DUP2 CALLDATALOAD SWAP1 POP PUSH2 0x757 DUP2 PUSH2 0x733 JUMP JUMPDEST SWAP3 SWAP2 POP POP JUMP JUMPDEST PUSH0 PUSH1 0x20 DUP3 DUP5 SUB SLT ISZERO PUSH2 0x772 JUMPI PUSH2 0x771 PUSH2 0x726 JUMP JUMPDEST JUMPDEST PUSH0 PUSH2 0x77F DUP5 DUP3 DUP6 ADD PUSH2 0x749 JUMP JUMPDEST SWAP2 POP POP SWAP3 SWAP2 POP POP JUMP JUMPDEST PUSH2 0x791 DUP2 PUSH2 0x72A JUMP JUMPDEST DUP3 MSTORE POP POP JUMP JUMPDEST PUSH0 PUSH1 0x20 DUP3 ADD SWAP1 POP PUSH2 0x7AA PUSH0 DUP4 ADD DUP5 PUSH2 0x788 JUMP JUMPDEST SWAP3 SWAP2 POP POP JUMP JUMPDEST PUSH0 PUSH1 0xFF DUP3 AND SWAP1 POP SWAP2 SWAP1 POP JUMP JUMPDEST PUSH2 0x7C5 DUP2 PUSH2 0x7B0 JUMP JUMPDEST DUP3 MSTORE POP POP JUMP JUMPDEST PUSH0 PUSH1 0x20 DUP3 ADD SWAP1 POP PUSH2 0x7DE PUSH0 DUP4 ADD DUP5 PUSH2 0x7BC JUMP JUMPDEST SWAP3 SWAP2 POP POP JUMP JUMPDEST PUSH0 PUSH20 0xFFFFFFFFFFFFFFFFFFFFFFFFFFFFFFFFFFFFFFFF DUP3 AND SWAP1 POP SWAP2 SWAP1 POP JUMP JUMPDEST PUSH0 PUSH2 0x80D DUP3 PUSH2 0x7E4 JUMP JUMPDEST SWAP1 POP SWAP2 SWAP1 POP JUMP JUMPDEST PUSH2 0x81D DUP2 PUSH2 0x803 JUMP JUMPDEST DUP2 EQ PUSH2 0x827 JUMPI PUSH0 DUP1 REVERT JUMPDEST POP JUMP JUMPDEST PUSH0 DUP2 CALLDATALOAD SWAP1 POP PUSH2 0x838 DUP2 PUSH2 0x814 JUMP JUMPDEST SWAP3 SWAP2 POP POP JUMP JUMPDEST PUSH0 PUSH1 0x20 DUP3 DUP5 SUB SLT ISZERO PUSH2 0x853 JUMPI PUSH2 0x852 PUSH2 0x726 JUMP JUMPDEST JUMPDEST PUSH0 PUSH2 0x860 DUP5 DUP3 DUP6 ADD PUSH2 0x82A JUMP JUMPDEST SWAP2 POP POP SWAP3 SWAP2 POP POP JUMP JUMPDEST PUSH0 PUSH8 0xFFFFFFFFFFFFFFFF DUP3 AND SWAP1 POP SWAP2 SWAP1 POP JUMP JUMPDEST PUSH2 0x885 DUP2 PUSH2 0x869 JUMP JUMPDEST DUP3 MSTORE POP POP JUMP JUMPDEST PUSH0 DUP2 ISZERO ISZERO SWAP1 POP SWAP2 SWAP1 POP JUMP JUMPDEST PUSH2 0x89F DUP2 PUSH2 0x88B JUMP JUMPDEST DUP3 MSTORE POP POP JUMP JUMPDEST PUSH0 PUSH1 0x60 DUP3 ADD SWAP1 POP PUSH2 0x8B8 PUSH0 DUP4 ADD DUP7 PUSH2 0x788 JUMP JUMPDEST PUSH2 0x8C5 PUSH1 0x20 DUP4 ADD DUP6 PUSH2 0x87C JUMP JUMPDEST PUSH2 0x8D2 PUSH1 0x40 DUP4 ADD DUP5 PUSH2 0x896 JUMP JUMPDEST SWAP5 SWAP4 POP POP POP POP JUMP JUMPDEST PUSH0 DUP2 SWAP1 POP SWAP2 SWAP1 POP JUMP JUMPDEST PUSH2 0x8F4 PUSH2 0x8EF DUP3 PUSH2 0x72A JUMP JUMPDEST PUSH2 0x8DA JUMP JUMPDEST DUP3 MSTORE POP POP JUMP JUMPDEST PUSH0 PUSH2 0x905 DUP3 DUP5 PUSH2 0x8E3 JUMP JUMPDEST PUSH1 0x20 DUP3 ADD SWAP2 POP DUP2 SWAP1 POP SWAP3 SWAP2 POP POP JUMP JUMPDEST PUSH0 DUP3 DUP3 MSTORE PUSH1 0x20 DUP3 ADD SWAP1 POP SWAP3 SWAP2 POP POP JUMP JUMPDEST PUSH32 0x436F6D6D697452657665616C3A3A72657665616C3A20416C7265616479207265 PUSH0 DUP3 ADD MSTORE PUSH32 0x7665616C65640000000000000000000000000000000000000000000000000000 PUSH1 0x20 DUP3 ADD MSTORE POP JUMP JUMPDEST PUSH0 PUSH2 0x97E PUSH1 0x26 DUP4 PUSH2 0x914 JUMP JUMPDEST SWAP2 POP PUSH2 0x989 DUP3 PUSH2 0x924 JUMP JUMPDEST PUSH1 0x40 DUP3 ADD SWAP1 POP SWAP2 SWAP1 POP JUMP JUMPDEST PUSH0 PUSH1 0x20 DUP3 ADD SWAP1 POP DUP2 DUP2 SUB PUSH0 DUP4 ADD MSTORE PUSH2 0x9AB DUP2 PUSH2 0x972 JUMP JUMPDEST SWAP1 POP SWAP2 SWAP1 POP JUMP JUMPDEST PUSH32 0x436F6D6D697452657665616C3A3A72657665616C3A2052657665616C65642068 PUSH0 DUP3 ADD MSTORE PUSH32 0x61736820646F6573206E6F74206D6174636820636F6D6D697400000000000000 PUSH1 0x20 DUP3 ADD MSTORE POP JUMP JUMPDEST PUSH0 PUSH2 0xA0C PUSH1 0x39 DUP4 PUSH2 0x914 JUMP JUMPDEST SWAP2 POP PUSH2 0xA17 DUP3 PUSH2 0x9B2 JUMP JUMPDEST PUSH1 0x40 DUP3 ADD SWAP1 POP SWAP2 SWAP1 POP JUMP JUMPDEST PUSH0 PUSH1 0x20 DUP3 ADD SWAP1 POP DUP2 DUP2 SUB PUSH0 DUP4 ADD MSTORE PUSH2 0xA39 DUP2 PUSH2 0xA00 JUMP JUMPDEST SWAP1 POP SWAP2 SWAP1 POP JUMP JUMPDEST PUSH32 0x436F6D6D697452657665616C3A3A72657665616C3A2052657665616C20616E64 PUSH0 DUP3 ADD MSTORE PUSH32 0x20636F6D6D69742068617070656E6564206F6E207468652073616D6520626C6F PUSH1 0x20 DUP3 ADD MSTORE PUSH32 0x636B000000000000000000000000000000000000000000000000000000000000 PUSH1 0x40 DUP3 ADD MSTORE POP JUMP JUMPDEST PUSH0 PUSH2 0xAC0 PUSH1 0x42 DUP4 PUSH2 0x914 JUMP JUMPDEST SWAP2 POP PUSH2 0xACB DUP3 PUSH2 0xA40 JUMP JUMPDEST PUSH1 0x60 DUP3 ADD SWAP1 POP SWAP2 SWAP1 POP JUMP JUMPDEST PUSH0 PUSH1 0x20 DUP3 ADD SWAP1 POP DUP2 DUP2 SUB PUSH0 DUP4 ADD MSTORE PUSH2 0xAED DUP2 PUSH2 0xAB4 JUMP JUMPDEST SWAP1 POP SWAP2 SWAP1 POP JUMP JUMPDEST PUSH32 0x4E487B7100000000000000000000000000000000000000000000000000000000 PUSH0 MSTORE PUSH1 0x11 PUSH1 0x4 MSTORE PUSH1 0x24 PUSH0 REVERT JUMPDEST PUSH0 PUSH2 0xB2B DUP3 PUSH2 0x869 JUMP JUMPDEST SWAP2 POP PUSH2 0xB36 DUP4 PUSH2 0x869 JUMP JUMPDEST SWAP3 POP DUP3 DUP3 ADD SWAP1 POP PUSH8 0xFFFFFFFFFFFFFFFF DUP2 GT ISZERO PUSH2 0xB56 JUMPI PUSH2 0xB55 PUSH2 0xAF4 JUMP JUMPDEST JUMPDEST SWAP3 SWAP2 POP POP JUMP JUMPDEST PUSH32 0x436F6D6D697452657665616C3A3A72657665616C3A2052657665616C65642074 PUSH0 DUP3 ADD MSTORE PUSH32 0x6F6F206C61746500000000000000000000000000000000000000000000000000 PUSH1 0x20 DUP3 ADD MSTORE POP JUMP JUMPDEST PUSH0 PUSH2 0xBB6 PUSH1 0x27 DUP4 PUSH2 0x914 JUMP JUMPDEST SWAP2 POP PUSH2 0xBC1 DUP3 PUSH2 0xB5C JUMP JUMPDEST PUSH1 0x40 DUP3 ADD SWAP1 POP SWAP2 SWAP1 POP JUMP JUMPDEST PUSH0 PUSH1 0x20 DUP3 ADD SWAP1 POP DUP2 DUP2 SUB PUSH0 DUP4 ADD MSTORE PUSH2 0xBE3 DUP2 PUSH2 0xBAA JUMP JUMPDEST SWAP1 POP SWAP2 SWAP1 POP JUMP JUMPDEST PUSH0 PUSH2 0xBF5 DUP3 DUP6 PUSH2 0x8E3 JUMP JUMPDEST PUSH1 0x20 DUP3 ADD SWAP2 POP PUSH2 0xC05 DUP3 DUP5 PUSH2 0x8E3 JUMP JUMPDEST PUSH1 0x20 DUP3 ADD SWAP2 POP DUP2 SWAP1 POP SWAP4 SWAP3 POP POP POP JUMP JUMPDEST PUSH0 DUP2 SWAP1 POP SWAP2 SWAP1 POP JUMP JUMPDEST PUSH32 0x4E487B7100000000000000000000000000000000000000000000000000000000 PUSH0 MSTORE PUSH1 0x12 PUSH1 0x4 MSTORE PUSH1 0x24 PUSH0 REVERT JUMPDEST PUSH0 PUSH2 0xC55 DUP3 PUSH2 0xC15 JUMP JUMPDEST SWAP2 POP PUSH2 0xC60 DUP4 PUSH2 0xC15 JUMP JUMPDEST SWAP3 POP DUP3 PUSH2 0xC70 JUMPI PUSH2 0xC6F PUSH2 0xC1E JUMP JUMPDEST JUMPDEST DUP3 DUP3 MOD SWAP1 POP SWAP3 SWAP2 POP POP JUMP JUMPDEST PUSH2 0xC84 DUP2 PUSH2 0x803 JUMP JUMPDEST DUP3 MSTORE POP POP JUMP JUMPDEST PUSH2 0xC93 DUP2 PUSH2 0xC15 JUMP JUMPDEST DUP3 MSTORE POP POP JUMP JUMPDEST PUSH0 PUSH1 0x60 DUP3 ADD SWAP1 POP PUSH2 0xCAC PUSH0 DUP4 ADD DUP7 PUSH2 0xC7B JUMP JUMPDEST PUSH2 0xCB9 PUSH1 0x20 DUP4 ADD DUP6 PUSH2 0x788 JUMP JUMPDEST PUSH2 0xCC6 PUSH1 0x40 DUP4 ADD DUP5 PUSH2 0xC8A JUMP JUMPDEST SWAP5 SWAP4 POP POP POP POP JUMP JUMPDEST PUSH0 PUSH1 0x60 DUP3 ADD SWAP1 POP PUSH2 0xCE1 PUSH0 DUP4 ADD DUP7 PUSH2 0xC7B JUMP JUMPDEST PUSH2 0xCEE PUSH1 0x20 DUP4 ADD DUP6 PUSH2 0x788 JUMP JUMPDEST PUSH2 0xCFB PUSH1 0x40 DUP4 ADD DUP5 PUSH2 0x87C JUMP JUMPDEST SWAP5 SWAP4 POP POP POP POP JUMP INVALID LOG2 PUSH5 0x6970667358 0x22 SLT KECCAK256 PUSH7 0x5436F856A8D0D8 PUSH14 0x585BA3B79D396BBD97C3E7EC1E2F ADDRESS SLT SHL ADD 0xCE 0xCF PUSH16 0xF34064736F6C634300081A0033A26469 PUSH17 0x667358221220400F59E0D8217B2B2626BA SHR SAR CODECOPY 0xC3 0xA9 0xCD PUSH12 0xF9A3B78CE4835F27452AAC19 DIV 0x22 PUSH5 0x736F6C6343 STOP ADDMOD BYTE STOP CALLER PUSH1 0x80 PUSH1 0x40 MSTORE CALLVALUE DUP1 ISZERO PUSH1 0xE JUMPI PUSH0 DUP1 REVERT JUMPDEST POP PUSH2 0x215 DUP1 PUSH2 0x1C PUSH0 CODECOPY PUSH0 RETURN INVALID PUSH1 0x80 PUSH1 0x40 MSTORE CALLVALUE DUP1 ISZERO PUSH2 0xF JUMPI PUSH0 DUP1 REVERT JUMPDEST POP PUSH1 0x4 CALLDATASIZE LT PUSH2 0x4A JUMPI PUSH0 CALLDATALOAD PUSH1 0xE0 SHR DUP1 PUSH4 0x78E97925 EQ PUSH2 0x4E JUMPI DUP1 PUSH4 0xA63F7C53 EQ PUSH2 0x6C JUMPI DUP1 PUSH4 0xBC06B8CD EQ PUSH2 0x76 JUMPI DUP1 PUSH4 0xD97C8416 EQ PUSH2 0x94 JUMPI JUMPDEST PUSH0 DUP1 REVERT JUMPDEST PUSH2 0x56 PUSH2 0xB2 JUMP JUMPDEST PUSH1 0x40 MLOAD PUSH2 0x63 SWAP2 SWAP1 PUSH2 0x109 JUMP JUMPDEST PUSH1 0x40 MLOAD DUP1 SWAP2 SUB SWAP1 RETURN JUMPDEST PUSH2 0x74 PUSH2 0xB7 JUMP JUMPDEST STOP JUMPDEST PUSH2 0x7E PUSH2 0xBF JUMP JUMPDEST PUSH1 0x40 MLOAD PUSH2 0x8B SWAP2 SWAP1 PUSH2 0x109 JUMP JUMPDEST PUSH1 0x40 MLOAD DUP1 SWAP2 SUB SWAP1 RETURN JUMPDEST PUSH2 0x9C PUSH2 0xD2 JUMP JUMPDEST PUSH1 0x40 MLOAD PUSH2 0xA9 SWAP2 SWAP1 PUSH2 0x109 JUMP JUMPDEST PUSH1 0x40 MLOAD DUP1 SWAP2 SUB SWAP1 RETURN JUMPDEST PUSH0 SLOAD DUP2 JUMP JUMPDEST TIMESTAMP PUSH0 DUP2 SWAP1 SSTORE POP JUMP JUMPDEST PUSH0 DUP1 SLOAD TIMESTAMP PUSH2 0xCD SWAP2 SWAP1 PUSH2 0x14F JUMP JUMPDEST SWAP1 POP SWAP1 JUMP JUMPDEST PUSH0 PUSH1 0x3C PUSH0 SLOAD TIMESTAMP PUSH2 0xE2 SWAP2 SWAP1 PUSH2 0x14F JUMP JUMPDEST PUSH2 0xEC SWAP2 SWAP1 PUSH2 0x1AF JUMP JUMPDEST SWAP1 POP SWAP1 JUMP JUMPDEST PUSH0 DUP2 SWAP1 POP SWAP2 SWAP1 POP JUMP JUMPDEST PUSH2 0x103 DUP2 PUSH2 0xF1 JUMP JUMPDEST DUP3 MSTORE POP POP JUMP JUMPDEST PUSH0 PUSH1 0x20 DUP3 ADD SWAP1 POP PUSH2 0x11C PUSH0 DUP4 ADD DUP5 PUSH2 0xFA JUMP JUMPDEST SWAP3 SWAP2 POP POP JUMP JUMPDEST PUSH32 0x4E487B7100000000000000000000000000000000000000000000000000000000 PUSH0 MSTORE PUSH1 0x11 PUSH1 0x4 MSTORE PUSH1 0x24 PUSH0 REVERT JUMPDEST PUSH0 PUSH2 0x159 DUP3 PUSH2 0xF1 JUMP JUMPDEST SWAP2 POP PUSH2 0x164 DUP4 PUSH2 0xF1 JUMP JUMPDEST SWAP3 POP DUP3 DUP3 SUB SWAP1 POP DUP2 DUP2 GT ISZERO PUSH2 0x17C JUMPI PUSH2 0x17B PUSH2 0x122 JUMP JUMPDEST JUMPDEST SWAP3 SWAP2 POP POP JUMP JUMPDEST PUSH32 0x4E487B7100000000000000000000000000000000000000000000000000000000 PUSH0 MSTORE PUSH1 0x12 PUSH1 0x4 MSTORE PUSH1 0x24 PUSH0 REVERT JUMPDEST PUSH0 PUSH2 0x1B9 DUP3 PUSH2 0xF1 JUMP JUMPDEST SWAP2 POP PUSH2 0x1C4 DUP4 PUSH2 0xF1 JUMP JUMPDEST SWAP3 POP DUP3 PUSH2 0x1D4 JUMPI PUSH2 0x1D3 PUSH2 0x182 JUMP JUMPDEST JUMPDEST DUP3 DUP3 DIV SWAP1 POP SWAP3 SWAP2 POP POP JUMP INVALID LOG2 PUSH5 0x6970667358 0x22 SLT KECCAK256 MSTORE8 PUSH12 0x7940D5371FAAF75B89B185B4 SLT 0xB3 0xB0 PUSH4 0xB6163F59 SWAP6 GASPRICE 0xCE PUSH20 0xF47887B6DAE64736F6C634300081A0033000000 "
				},
				"gasEstimates": {
					"creation": {
						"codeDepositCost": "3083800",
						"executionCost": "infinite",
						"totalCost": "infinite"
					},
					"external": {
						"STAKE_AMOUNT()": "413",
						"TIME_TO_COMMIT()": "348",
						"TIME_TO_REVEAL()": "348",
						"addPlayer()": "infinite",
						"commitTime()": "infinite",
						"cr(address)": "infinite",
						"hash(bytes32)": "infinite",
						"input(bytes32)": "infinite",
						"numInput()": "2449",
						"numPlayer()": "2535",
						"player_choice(address)": "2847",
						"player_not_played(address)": "2901",
						"player_not_reveal(address)": "2877",
						"players(uint256)": "5010",
						"revealChoice(bytes32)": "infinite",
						"revealNum()": "2471",
						"revealTime()": "infinite",
						"reward()": "2515",
						"token()": "infinite",
						"withdrawIfTimeout()": "infinite"
					},
					"internal": {
						"_checkWinnerAndPay()": "infinite",
						"_reset()": "infinite"
					}
				},
				"methodIdentifiers": {
					"STAKE_AMOUNT()": "faf5625f",
					"TIME_TO_COMMIT()": "9fe3b7b3",
					"TIME_TO_REVEAL()": "2dc69860",
					"addPlayer()": "27b5db8a",
					"commitTime()": "5e63d890",
					"cr(address)": "5565f281",
					"hash(bytes32)": "d8389dc5",
					"input(bytes32)": "d891f969",
					"numInput()": "086f7815",
					"numPlayer()": "90d5d0c3",
					"player_choice(address)": "a040478d",
					"player_not_played(address)": "190cf745",
					"player_not_reveal(address)": "e676b421",
					"players(uint256)": "f71d96cb",
					"revealChoice(bytes32)": "65ce0ac6",
					"revealNum()": "15222285",
					"revealTime()": "ba829d71",
					"reward()": "228cb733",
					"token()": "fc0c546a",
					"withdrawIfTimeout()": "aead4af2"
				}
			},
			"storageLayout": {
				"storage": [
					{
						"astId": 260,
						"contract": "RSP.sol:RPS",
						"label": "numPlayer",
						"offset": 0,
						"slot": "0",
						"type": "t_uint256"
					},
					{
						"astId": 263,
						"contract": "RSP.sol:RPS",
						"label": "reward",
						"offset": 0,
						"slot": "1",
						"type": "t_uint256"
					},
					{
						"astId": 267,
						"contract": "RSP.sol:RPS",
						"label": "player_choice",
						"offset": 0,
						"slot": "2",
						"type": "t_mapping(t_address,t_uint256)"
					},
					{
						"astId": 271,
						"contract": "RSP.sol:RPS",
						"label": "player_not_played",
						"offset": 0,
						"slot": "3",
						"type": "t_mapping(t_address,t_bool)"
					},
					{
						"astId": 274,
						"contract": "RSP.sol:RPS",
						"label": "players",
						"offset": 0,
						"slot": "4",
						"type": "t_array(t_address)dyn_storage"
					},
					{
						"astId": 277,
						"contract": "RSP.sol:RPS",
						"label": "revealNum",
						"offset": 0,
						"slot": "5",
						"type": "t_uint256"
					},
					{
						"astId": 281,
						"contract": "RSP.sol:RPS",
						"label": "player_not_reveal",
						"offset": 0,
						"slot": "6",
						"type": "t_mapping(t_address,t_bool)"
					},
					{
						"astId": 288,
						"contract": "RSP.sol:RPS",
						"label": "commitTime",
						"offset": 0,
						"slot": "7",
						"type": "t_contract(TimeUnit)974"
					},
					{
						"astId": 295,
						"contract": "RSP.sol:RPS",
						"label": "revealTime",
						"offset": 0,
						"slot": "8",
						"type": "t_contract(TimeUnit)974"
					},
					{
						"astId": 304,
						"contract": "RSP.sol:RPS",
						"label": "token",
						"offset": 0,
						"slot": "9",
						"type": "t_contract(IERC20)252"
					},
					{
						"astId": 312,
						"contract": "RSP.sol:RPS",
						"label": "numInput",
						"offset": 0,
						"slot": "10",
						"type": "t_uint256"
					},
					{
						"astId": 317,
						"contract": "RSP.sol:RPS",
						"label": "cr",
						"offset": 0,
						"slot": "11",
						"type": "t_mapping(t_address,t_contract(CommitReveal)199)"
					}
				],
				"types": {
					"t_address": {
						"encoding": "inplace",
						"label": "address",
						"numberOfBytes": "20"
					},
					"t_array(t_address)dyn_storage": {
						"base": "t_address",
						"encoding": "dynamic_array",
						"label": "address[]",
						"numberOfBytes": "32"
					},
					"t_bool": {
						"encoding": "inplace",
						"label": "bool",
						"numberOfBytes": "1"
					},
					"t_contract(CommitReveal)199": {
						"encoding": "inplace",
						"label": "contract CommitReveal",
						"numberOfBytes": "20"
					},
					"t_contract(IERC20)252": {
						"encoding": "inplace",
						"label": "contract IERC20",
						"numberOfBytes": "20"
					},
					"t_contract(TimeUnit)974": {
						"encoding": "inplace",
						"label": "contract TimeUnit",
						"numberOfBytes": "20"
					},
					"t_mapping(t_address,t_bool)": {
						"encoding": "mapping",
						"key": "t_address",
						"label": "mapping(address => bool)",
						"numberOfBytes": "32",
						"value": "t_bool"
					},
					"t_mapping(t_address,t_contract(CommitReveal)199)": {
						"encoding": "mapping",
						"key": "t_address",
						"label": "mapping(address => contract CommitReveal)",
						"numberOfBytes": "32",
						"value": "t_contract(CommitReveal)199"
					},
					"t_mapping(t_address,t_uint256)": {
						"encoding": "mapping",
						"key": "t_address",
						"label": "mapping(address => uint256)",
						"numberOfBytes": "32",
						"value": "t_uint256"
					},
					"t_uint256": {
						"encoding": "inplace",
						"label": "uint256",
						"numberOfBytes": "32"
					}
				}
			},
			"userdoc": {
				"kind": "user",
				"methods": {},
				"version": 1
			}
		}
	}
}